{"contracts/AncestorMoney.sol":{"AncestorMoney":{"abi":[{"anonymous":false,"inputs":[{"indexed":true,"internalType":"address","name":"owner","type":"address"},{"indexed":true,"internalType":"address","name":"spender","type":"address"},{"indexed":false,"internalType":"uint256","name":"value","type":"uint256"}],"name":"Approval","type":"event"},{"anonymous":false,"inputs":[{"indexed":true,"internalType":"address","name":"newAddress","type":"address"}],"name":"EvolutionReserveUpdated","type":"event"},{"anonymous":false,"inputs":[{"indexed":false,"internalType":"uint8","name":"version","type":"uint8"}],"name":"Initialized","type":"event"},{"anonymous":false,"inputs":[{"indexed":true,"internalType":"address","name":"previousOwner","type":"address"},{"indexed":true,"internalType":"address","name":"newOwner","type":"address"}],"name":"OwnershipTransferStarted","type":"event"},{"anonymous":false,"inputs":[{"indexed":true,"internalType":"address","name":"previousOwner","type":"address"},{"indexed":true,"internalType":"address","name":"newOwner","type":"address"}],"name":"OwnershipTransferred","type":"event"},{"anonymous":false,"inputs":[{"indexed":false,"internalType":"address","name":"account","type":"address"}],"name":"Paused","type":"event"},{"anonymous":false,"inputs":[],"name":"TokenActivated","type":"event"},{"anonymous":false,"inputs":[{"indexed":true,"internalType":"address","name":"from","type":"address"},{"indexed":true,"internalType":"address","name":"to","type":"address"},{"indexed":false,"internalType":"uint256","name":"value","type":"uint256"}],"name":"Transfer","type":"event"},{"anonymous":false,"inputs":[{"indexed":false,"internalType":"address","name":"account","type":"address"}],"name":"Unpaused","type":"event"},{"anonymous":false,"inputs":[{"indexed":true,"internalType":"address","name":"newAddress","type":"address"}],"name":"VaultAddressUpdated","type":"event"},{"anonymous":false,"inputs":[{"indexed":true,"internalType":"address","name":"payer","type":"address"},{"indexed":false,"internalType":"uint256","name":"amount","type":"uint256"}],"name":"VaultFeeBurned","type":"event"},{"inputs":[],"name":"MAX_SUPPLY","outputs":[{"internalType":"uint256","name":"","type":"uint256"}],"stateMutability":"view","type":"function"},{"inputs":[],"name":"acceptOwnership","outputs":[],"stateMutability":"nonpayable","type":"function"},{"inputs":[],"name":"activateToken","outputs":[{"internalType":"bool","name":"","type":"bool"}],"stateMutability":"nonpayable","type":"function"},{"inputs":[{"internalType":"address","name":"owner","type":"address"},{"internalType":"address","name":"spender","type":"address"}],"name":"allowance","outputs":[{"internalType":"uint256","name":"","type":"uint256"}],"stateMutability":"view","type":"function"},{"inputs":[{"internalType":"address","name":"spender","type":"address"},{"internalType":"uint256","name":"amount","type":"uint256"}],"name":"approve","outputs":[{"internalType":"bool","name":"","type":"bool"}],"stateMutability":"nonpayable","type":"function"},{"inputs":[{"internalType":"address","name":"account","type":"address"}],"name":"balanceOf","outputs":[{"internalType":"uint256","name":"","type":"uint256"}],"stateMutability":"view","type":"function"},{"inputs":[{"internalType":"uint256","name":"amount","type":"uint256"}],"name":"burn","outputs":[],"stateMutability":"nonpayable","type":"function"},{"inputs":[{"internalType":"address","name":"account","type":"address"},{"internalType":"uint256","name":"amount","type":"uint256"}],"name":"burnFrom","outputs":[],"stateMutability":"nonpayable","type":"function"},{"inputs":[],"name":"currentSupply","outputs":[{"internalType":"uint256","name":"","type":"uint256"}],"stateMutability":"view","type":"function"},{"inputs":[],"name":"decimals","outputs":[{"internalType":"uint8","name":"","type":"uint8"}],"stateMutability":"view","type":"function"},{"inputs":[{"internalType":"address","name":"spender","type":"address"},{"internalType":"uint256","name":"subtractedValue","type":"uint256"}],"name":"decreaseAllowance","outputs":[{"internalType":"bool","name":"","type":"bool"}],"stateMutability":"nonpayable","type":"function"},{"inputs":[],"name":"emergencyPause","outputs":[],"stateMutability":"nonpayable","type":"function"},{"inputs":[],"name":"evolutionReserve","outputs":[{"internalType":"address","name":"","type":"address"}],"stateMutability":"view","type":"function"},{"inputs":[{"internalType":"address","name":"ecosystemFund","type":"address"},{"internalType":"address","name":"strategicReserve","type":"address"},{"internalType":"address","name":"publicSale","type":"address"},{"internalType":"address","name":"founders","type":"address"},{"internalType":"address","name":"communityIncentives","type":"address"}],"name":"genesisDistribution","outputs":[],"stateMutability":"nonpayable","type":"function"},{"inputs":[{"internalType":"address","name":"spender","type":"address"},{"internalType":"uint256","name":"addedValue","type":"uint256"}],"name":"increaseAllowance","outputs":[{"internalType":"bool","name":"","type":"bool"}],"stateMutability":"nonpayable","type":"function"},{"inputs":[{"internalType":"address","name":"initialOwner","type":"address"},{"internalType":"address","name":"_evolutionReserve","type":"address"},{"internalType":"address","name":"_vaultAddress","type":"address"}],"name":"initialize","outputs":[],"stateMutability":"nonpayable","type":"function"},{"inputs":[{"internalType":"address","name":"to","type":"address"},{"internalType":"uint256","name":"amount","type":"uint256"}],"name":"mint","outputs":[{"internalType":"bool","name":"","type":"bool"}],"stateMutability":"nonpayable","type":"function"},{"inputs":[],"name":"name","outputs":[{"internalType":"string","name":"","type":"string"}],"stateMutability":"view","type":"function"},{"inputs":[],"name":"owner","outputs":[{"internalType":"address","name":"","type":"address"}],"stateMutability":"view","type":"function"},{"inputs":[],"name":"pause","outputs":[],"stateMutability":"nonpayable","type":"function"},{"inputs":[],"name":"paused","outputs":[{"internalType":"bool","name":"","type":"bool"}],"stateMutability":"view","type":"function"},{"inputs":[{"internalType":"address","name":"_from","type":"address"},{"internalType":"uint256","name":"_amount","type":"uint256"}],"name":"payVaultFee","outputs":[{"internalType":"bool","name":"","type":"bool"}],"stateMutability":"nonpayable","type":"function"},{"inputs":[],"name":"pendingOwner","outputs":[{"internalType":"address","name":"","type":"address"}],"stateMutability":"view","type":"function"},{"inputs":[{"internalType":"address","name":"_user","type":"address"},{"internalType":"uint256","name":"_amount","type":"uint256"},{"internalType":"bytes32","name":"_context","type":"bytes32"}],"name":"recordCulturalEvent","outputs":[{"internalType":"bool","name":"","type":"bool"}],"stateMutability":"nonpayable","type":"function"},{"inputs":[],"name":"renounceOwnership","outputs":[],"stateMutability":"nonpayable","type":"function"},{"inputs":[{"internalType":"address","name":"_evolutionReserve","type":"address"}],"name":"setEvolutionReserve","outputs":[],"stateMutability":"nonpayable","type":"function"},{"inputs":[{"internalType":"address","name":"_vaultAddress","type":"address"}],"name":"setVaultAddress","outputs":[],"stateMutability":"nonpayable","type":"function"},{"inputs":[],"name":"symbol","outputs":[{"internalType":"string","name":"","type":"string"}],"stateMutability":"view","type":"function"},{"inputs":[],"name":"totalSupply","outputs":[{"internalType":"uint256","name":"","type":"uint256"}],"stateMutability":"view","type":"function"},{"inputs":[{"internalType":"address","name":"to","type":"address"},{"internalType":"uint256","name":"amount","type":"uint256"}],"name":"transfer","outputs":[{"internalType":"bool","name":"","type":"bool"}],"stateMutability":"nonpayable","type":"function"},{"inputs":[{"internalType":"address","name":"from","type":"address"},{"internalType":"address","name":"to","type":"address"},{"internalType":"uint256","name":"amount","type":"uint256"}],"name":"transferFrom","outputs":[{"internalType":"bool","name":"","type":"bool"}],"stateMutability":"nonpayable","type":"function"},{"inputs":[{"internalType":"address","name":"newOwner","type":"address"}],"name":"transferOwnership","outputs":[],"stateMutability":"nonpayable","type":"function"},{"inputs":[],"name":"unpause","outputs":[],"stateMutability":"nonpayable","type":"function"},{"inputs":[],"name":"vaultAddress","outputs":[{"internalType":"address","name":"","type":"address"}],"stateMutability":"view","type":"function"}],"evm":{"bytecode":{"linkReferences":{},"object":"608060405234801561001057600080fd5b50611b62806100206000396000f3fe608060405234801561001057600080fd5b50600436106102065760003560e01c80635ebe7aa01161011a5780638da5cb5b116100ad578063c0c53b8b1161007c578063c0c53b8b1461041a578063dd62ed3e1461042d578063e30c397814610440578063f2fde38b14610451578063f957417e1461046457600080fd5b80638da5cb5b146103db57806395d89b41146103ec578063a457c2d7146103f4578063a9059cbb1461040757600080fd5b806379ba5097116100e957806379ba5097146103ad57806379cc6790146103b55780638456cb591461034b57806385535cc5146103c857600080fd5b80635ebe7aa01461035e57806370a0823114610372578063715018a61461039b578063771282f6146103a357600080fd5b806332cb6b0c1161019d57806340c10f191161016c57806340c10f19146102f957806342966c681461030c578063430bf08a1461031f57806351858e271461034b5780635c975abb1461035357600080fd5b806332cb6b0c146102bb57806339509351146102cb5780633e7183a1146102de5780633f4ba83a146102f157600080fd5b806323b872dd116101d957806323b872dd1461027157806323d5f39414610284578063307237d314610299578063313ce567146102ac57600080fd5b806306fdde031461020b578063095ea7b31461022957806312a468581461024c57806318160ddd1461025f575b600080fd5b61021361046c565b60405161022091906116fa565b60405180910390f35b61023c610237366004611765565b6104fe565b6040519015158152602001610220565b61023c61025a366004611765565b610518565b6067545b604051908152602001610220565b61023c61027f36600461178f565b6105e7565b6102976102923660046117cb565b61060b565b005b6102976102a73660046117ed565b61065e565b60405160098152602001610220565b61026368056bc75e2d2775360081565b61023c6102d9366004611765565b6107f1565b61023c6102ec366004611852565b610813565b6102976108a1565b61023c610307366004611765565b6108b3565b61029761031a366004611885565b61095a565b61012f54610333906001600160a01b031681565b6040516001600160a01b039091168152602001610220565b610297610967565b60c95460ff1661023c565b61012e54610333906001600160a01b031681565b6102636103803660046117cb565b6001600160a01b031660009081526065602052604090205490565b610297610977565b61026361012d5481565b610297610989565b6102976103c3366004611765565b610a00565b6102976103d63660046117cb565b610a19565b6033546001600160a01b0316610333565b610213610a6c565b61023c610402366004611765565b610a7b565b61023c610415366004611765565b610af6565b61029761042836600461189e565b610b04565b61026361043b3660046118e1565b610cc6565b6097546001600160a01b0316610333565b61029761045f3660046117cb565b610cf1565b61023c610d62565b60606068805461047b90611914565b80601f01602080910402602001604051908101604052809291908181526020018280546104a790611914565b80156104f45780601f106104c9576101008083540402835291602001916104f4565b820191906000526020600020905b8154815290600101906020018083116104d757829003601f168201915b5050505050905090565b60003361050c818585610dab565b60019150505b92915050565b61012f546000906001600160a01b031633146105905760405162461bcd60e51b815260206004820152602c60248201527f416e636573746f724d6f6e65793a204f6e6c79205361637265645661756c742060448201526b63616e20706179206665657360a01b60648201526084015b60405180910390fd5b61059b833084610ecf565b826001600160a01b03167f6098481270cc82ad8ef97fa388740dbb92b9f43669826034b36c59049d969639836040516105d691815260200190565b60405180910390a250600192915050565b6000336105f5858285610f25565b610600858585610ecf565b506001949350505050565b610613610f99565b61012e80546001600160a01b0319166001600160a01b0383169081179091556040517f22a195fbe83631385ad11095fbbad419cdcc539a5e123528a64042c35675ba6e90600090a250565b610666610f99565b61012d54156106d55760405162461bcd60e51b815260206004820152603560248201527f416e636573746f724d6f6e65793a2047656e65736973206469737472696275746044820152741a5bdb88185b1c9958591e481c195c999bdc9b5959605a1b6064820152608401610587565b6801a055690d9db800006801158e460913d0000067d02ab486cedc0000678ac7230489e8000068015af1d78b1d29360061070f8a86610ff3565b6107198985610ff3565b6107238884610ff3565b61072d8783610ff3565b6107378682610ff3565b8082846107448789611964565b61074e9190611964565b6107589190611964565b6107629190611964565b61012d81905568056bc75e2d27753600146107e55760405162461bcd60e51b815260206004820152603960248201527f416e636573746f724d6f6e65793a2047656e657369732064697374726962757460448201527f696f6e20746f74616c20737570706c79206d69736d61746368000000000000006064820152608401610587565b50505050505050505050565b60003361050c8185856108048383610cc6565b61080e9190611964565b610dab565b61012e546000906001600160a01b031633146108975760405162461bcd60e51b815260206004820152603f60248201527f416e636573746f724d6f6e65793a204f6e6c792045766f6c7574696f6e52657360448201527f657276652063616e207265636f72642063756c747572616c206576656e7473006064820152608401610587565b5060019392505050565b6108a9610f99565b6108b16110c8565b565b60006108bd610f99565b68056bc75e2d277536008261012d546108d69190611964565b111561092f5760405162461bcd60e51b815260206004820152602260248201527f416e636573746f724d6f6e65793a206d617820737570706c7920657863656564604482015261195960f21b6064820152608401610587565b6109398383610ff3565b8161012d600082825461094c9190611964565b909155506001949350505050565b610964338261111a565b50565b61096f610f99565b6108b1611266565b61097f610f99565b6108b160006112a3565b60975433906001600160a01b031681146109f75760405162461bcd60e51b815260206004820152602960248201527f4f776e61626c6532537465703a2063616c6c6572206973206e6f7420746865206044820152683732bb9037bbb732b960b91b6064820152608401610587565b610964816112a3565b610a0b823383610f25565b610a15828261111a565b5050565b610a21610f99565b61012f80546001600160a01b0319166001600160a01b0383169081179091556040517f5e74f6697ae9d8e4ed8c4e8cb2f44acc9909529ce81812aab23103b3de223f6690600090a250565b60606069805461047b90611914565b60003381610a898286610cc6565b905083811015610ae95760405162461bcd60e51b815260206004820152602560248201527f45524332303a2064656372656173656420616c6c6f77616e63652062656c6f77604482015264207a65726f60d81b6064820152608401610587565b6106008286868403610dab565b60003361050c818585610ecf565b600054610100900460ff1615808015610b245750600054600160ff909116105b80610b3e5750303b158015610b3e575060005460ff166001145b610ba15760405162461bcd60e51b815260206004820152602e60248201527f496e697469616c697a61626c653a20636f6e747261637420697320616c72656160448201526d191e481a5b9a5d1a585b1a5e995960921b6064820152608401610587565b6000805460ff191660011790558015610bc4576000805461ff0019166101001790555b610bcc6112bc565b610bd46112bc565b610bdd846112a3565b610c2a6040518060400160405280600d81526020016c416e636573746f724d6f6e657960981b81525060405180604001604052806006815260200165414d4f4e455960d01b8152506112eb565b610c3261131c565b610c3a61134b565b610c42611266565b61012e80546001600160a01b038086166001600160a01b03199283161790925561012f805492851692909116919091179055600061012d558015610cc0576000805461ff0019169055604051600181527f7f26b83ff96e1f2b6a682f133852f6798a09c465da95921460cefb38474024989060200160405180910390a15b50505050565b6001600160a01b03918216600090815260666020908152604080832093909416825291909152205490565b610cf9610f99565b609780546001600160a01b0383166001600160a01b03199091168117909155610d2a6033546001600160a01b031690565b6001600160a01b03167f38d16b8cac22d99fc7c124b9cd0de2d3fa1faef420bfe791d8c362d765e2270060405160405180910390a350565b6000610d6c610f99565b610d74611372565b610d7c6110c8565b6040517f59e798dd1d3a9153861118fd83fbf10d33d3d30467f7649ac8da2a453a74201490600090a150600190565b6001600160a01b038316610e0d5760405162461bcd60e51b8152602060048201526024808201527f45524332303a20617070726f76652066726f6d20746865207a65726f206164646044820152637265737360e01b6064820152608401610587565b6001600160a01b038216610e6e5760405162461bcd60e51b815260206004820152602260248201527f45524332303a20617070726f766520746f20746865207a65726f206164647265604482015261737360f01b6064820152608401610587565b6001600160a01b0383811660008181526066602090815260408083209487168084529482529182902085905590518481527f8c5be1e5ebec7d5bd14f71427d1e84f3dd0314c0f7b2291e5b200ac8c7c3b925910160405180910390a3505050565b610ed76113bb565b600560006103e8610ee88385611977565b610ef2919061198e565b90506000610f0082856119b0565b9050610f0d868683611401565b8115610f1d57610f1d868361111a565b505050505050565b6000610f318484610cc6565b90506000198114610cc05781811015610f8c5760405162461bcd60e51b815260206004820152601d60248201527f45524332303a20696e73756666696369656e7420616c6c6f77616e63650000006044820152606401610587565b610cc08484848403610dab565b6033546001600160a01b031633146108b15760405162461bcd60e51b815260206004820181905260248201527f4f776e61626c653a2063616c6c6572206973206e6f7420746865206f776e65726044820152606401610587565b6001600160a01b0382166110495760405162461bcd60e51b815260206004820152601f60248201527f45524332303a206d696e7420746f20746865207a65726f2061646472657373006044820152606401610587565b611055600083836115bd565b80606760008282546110679190611964565b90915550506001600160a01b0382166000818152606560209081526040808320805486019055518481527fddf252ad1be2c89b69c2b068fc378daa952ba7f163c4a11628f55a4df523b3ef910160405180910390a3610a15600083836115c5565b6110d0611372565b60c9805460ff191690557f5db9ee0a495bf2e6ff9c91a7834c1ba4fdd244a5e8aa4e537bd38aeae4b073aa335b6040516001600160a01b03909116815260200160405180910390a1565b6001600160a01b03821661117a5760405162461bcd60e51b815260206004820152602160248201527f45524332303a206275726e2066726f6d20746865207a65726f206164647265736044820152607360f81b6064820152608401610587565b611186826000836115bd565b6001600160a01b038216600090815260656020526040902054818110156111fa5760405162461bcd60e51b815260206004820152602260248201527f45524332303a206275726e20616d6f756e7420657863656564732062616c616e604482015261636560f01b6064820152608401610587565b6001600160a01b03831660008181526065602090815260408083208686039055606780548790039055518581529192917fddf252ad1be2c89b69c2b068fc378daa952ba7f163c4a11628f55a4df523b3ef910160405180910390a3611261836000846115c5565b505050565b61126e6113bb565b60c9805460ff191660011790557f62e78cea01bee320cd4e420270b5ea74000d11b0c9f74754ebdbfc544b05a2586110fd3390565b609780546001600160a01b031916905561096481611605565b600054610100900460ff166112e35760405162461bcd60e51b8152600401610587906119c3565b6108b1611657565b600054610100900460ff166113125760405162461bcd60e51b8152600401610587906119c3565b610a158282611687565b600054610100900460ff166113435760405162461bcd60e51b8152600401610587906119c3565b6108b16116c7565b600054610100900460ff166108b15760405162461bcd60e51b8152600401610587906119c3565b60c95460ff166108b15760405162461bcd60e51b815260206004820152601460248201527314185d5cd8589b194e881b9bdd081c185d5cd95960621b6044820152606401610587565b60c95460ff16156108b15760405162461bcd60e51b815260206004820152601060248201526f14185d5cd8589b194e881c185d5cd95960821b6044820152606401610587565b6001600160a01b0383166114655760405162461bcd60e51b815260206004820152602560248201527f45524332303a207472616e736665722066726f6d20746865207a65726f206164604482015264647265737360d81b6064820152608401610587565b6001600160a01b0382166114c75760405162461bcd60e51b815260206004820152602360248201527f45524332303a207472616e7366657220746f20746865207a65726f206164647260448201526265737360e81b6064820152608401610587565b6114d28383836115bd565b6001600160a01b0383166000908152606560205260409020548181101561154a5760405162461bcd60e51b815260206004820152602660248201527f45524332303a207472616e7366657220616d6f756e7420657863656564732062604482015265616c616e636560d01b6064820152608401610587565b6001600160a01b0380851660008181526065602052604080822086860390559286168082529083902080548601905591517fddf252ad1be2c89b69c2b068fc378daa952ba7f163c4a11628f55a4df523b3ef906115aa9086815260200190565b60405180910390a3610cc08484846115c5565b6112616113bb565b6001600160a01b038316158015906115e557506001600160a01b03821615155b1561126157600560006103e86115fb8385611977565b610f1d919061198e565b603380546001600160a01b038381166001600160a01b0319831681179093556040519116919082907f8be0079c531659141344cd1fd0a4f28419497f9722a3daafe3b4186f6b6457e090600090a35050565b600054610100900460ff1661167e5760405162461bcd60e51b8152600401610587906119c3565b6108b1336112a3565b600054610100900460ff166116ae5760405162461bcd60e51b8152600401610587906119c3565b60686116ba8382611a6c565b5060696112618282611a6c565b600054610100900460ff166116ee5760405162461bcd60e51b8152600401610587906119c3565b60c9805460ff19169055565b60006020808352835180602085015260005b818110156117285785810183015185820160400152820161170c565b506000604082860101526040601f19601f8301168501019250505092915050565b80356001600160a01b038116811461176057600080fd5b919050565b6000806040838503121561177857600080fd5b61178183611749565b946020939093013593505050565b6000806000606084860312156117a457600080fd5b6117ad84611749565b92506117bb60208501611749565b9150604084013590509250925092565b6000602082840312156117dd57600080fd5b6117e682611749565b9392505050565b600080600080600060a0868803121561180557600080fd5b61180e86611749565b945061181c60208701611749565b935061182a60408701611749565b925061183860608701611749565b915061184660808701611749565b90509295509295909350565b60008060006060848603121561186757600080fd5b61187084611749565b95602085013595506040909401359392505050565b60006020828403121561189757600080fd5b5035919050565b6000806000606084860312156118b357600080fd5b6118bc84611749565b92506118ca60208501611749565b91506118d860408501611749565b90509250925092565b600080604083850312156118f457600080fd5b6118fd83611749565b915061190b60208401611749565b90509250929050565b600181811c9082168061192857607f821691505b60208210810361194857634e487b7160e01b600052602260045260246000fd5b50919050565b634e487b7160e01b600052601160045260246000fd5b808201808211156105125761051261194e565b80820281158282048414176105125761051261194e565b6000826119ab57634e487b7160e01b600052601260045260246000fd5b500490565b818103818111156105125761051261194e565b6020808252602b908201527f496e697469616c697a61626c653a20636f6e7472616374206973206e6f74206960408201526a6e697469616c697a696e6760a81b606082015260800190565b634e487b7160e01b600052604160045260246000fd5b601f821115611261576000816000526020600020601f850160051c81016020861015611a4d5750805b601f850160051c820191505b81811015610f1d57828155600101611a59565b815167ffffffffffffffff811115611a8657611a86611a0e565b611a9a81611a948454611914565b84611a24565b602080601f831160018114611acf5760008415611ab75750858301515b600019600386901b1c1916600185901b178555610f1d565b600085815260208120601f198616915b82811015611afe57888601518255948401946001909101908401611adf565b5085821015611b1c5787850151600019600388901b60f8161c191681555b5050505050600190811b0190555056fea2646970667358221220352597ba64635fc98d5df46dd5b6456fa32b00a07bb8fde877257f5e0aca691164736f6c63430008160033","opcodes":"PUSH1 0x80 PUSH1 0x40 MSTORE CALLVALUE DUP1 ISZERO PUSH2 0x10 JUMPI PUSH1 0x0 DUP1 REVERT JUMPDEST POP PUSH2 0x1B62 DUP1 PUSH2 0x20 PUSH1 0x0 CODECOPY PUSH1 0x0 RETURN INVALID PUSH1 0x80 PUSH1 0x40 MSTORE CALLVALUE DUP1 ISZERO PUSH2 0x10 JUMPI PUSH1 0x0 DUP1 REVERT JUMPDEST POP PUSH1 0x4 CALLDATASIZE LT PUSH2 0x206 JUMPI PUSH1 0x0 CALLDATALOAD PUSH1 0xE0 SHR DUP1 PUSH4 0x5EBE7AA0 GT PUSH2 0x11A JUMPI DUP1 PUSH4 0x8DA5CB5B GT PUSH2 0xAD JUMPI DUP1 PUSH4 0xC0C53B8B GT PUSH2 0x7C JUMPI DUP1 PUSH4 0xC0C53B8B EQ PUSH2 0x41A JUMPI DUP1 PUSH4 0xDD62ED3E EQ PUSH2 0x42D JUMPI DUP1 PUSH4 0xE30C3978 EQ PUSH2 0x440 JUMPI DUP1 PUSH4 0xF2FDE38B EQ PUSH2 0x451 JUMPI DUP1 PUSH4 0xF957417E EQ PUSH2 0x464 JUMPI PUSH1 0x0 DUP1 REVERT JUMPDEST DUP1 PUSH4 0x8DA5CB5B EQ PUSH2 0x3DB JUMPI DUP1 PUSH4 0x95D89B41 EQ PUSH2 0x3EC JUMPI DUP1 PUSH4 0xA457C2D7 EQ PUSH2 0x3F4 JUMPI DUP1 PUSH4 0xA9059CBB EQ PUSH2 0x407 JUMPI PUSH1 0x0 DUP1 REVERT JUMPDEST DUP1 PUSH4 0x79BA5097 GT PUSH2 0xE9 JUMPI DUP1 PUSH4 0x79BA5097 EQ PUSH2 0x3AD JUMPI DUP1 PUSH4 0x79CC6790 EQ PUSH2 0x3B5 JUMPI DUP1 PUSH4 0x8456CB59 EQ PUSH2 0x34B JUMPI DUP1 PUSH4 0x85535CC5 EQ PUSH2 0x3C8 JUMPI PUSH1 0x0 DUP1 REVERT JUMPDEST DUP1 PUSH4 0x5EBE7AA0 EQ PUSH2 0x35E JUMPI DUP1 PUSH4 0x70A08231 EQ PUSH2 0x372 JUMPI DUP1 PUSH4 0x715018A6 EQ PUSH2 0x39B JUMPI DUP1 PUSH4 0x771282F6 EQ PUSH2 0x3A3 JUMPI PUSH1 0x0 DUP1 REVERT JUMPDEST DUP1 PUSH4 0x32CB6B0C GT PUSH2 0x19D JUMPI DUP1 PUSH4 0x40C10F19 GT PUSH2 0x16C JUMPI DUP1 PUSH4 0x40C10F19 EQ PUSH2 0x2F9 JUMPI DUP1 PUSH4 0x42966C68 EQ PUSH2 0x30C JUMPI DUP1 PUSH4 0x430BF08A EQ PUSH2 0x31F JUMPI DUP1 PUSH4 0x51858E27 EQ PUSH2 0x34B JUMPI DUP1 PUSH4 0x5C975ABB EQ PUSH2 0x353 JUMPI PUSH1 0x0 DUP1 REVERT JUMPDEST DUP1 PUSH4 0x32CB6B0C EQ PUSH2 0x2BB JUMPI DUP1 PUSH4 0x39509351 EQ PUSH2 0x2CB JUMPI DUP1 PUSH4 0x3E7183A1 EQ PUSH2 0x2DE JUMPI DUP1 PUSH4 0x3F4BA83A EQ PUSH2 0x2F1 JUMPI PUSH1 0x0 DUP1 REVERT JUMPDEST DUP1 PUSH4 0x23B872DD GT PUSH2 0x1D9 JUMPI DUP1 PUSH4 0x23B872DD EQ PUSH2 0x271 JUMPI DUP1 PUSH4 0x23D5F394 EQ PUSH2 0x284 JUMPI DUP1 PUSH4 0x307237D3 EQ PUSH2 0x299 JUMPI DUP1 PUSH4 0x313CE567 EQ PUSH2 0x2AC JUMPI PUSH1 0x0 DUP1 REVERT JUMPDEST DUP1 PUSH4 0x6FDDE03 EQ PUSH2 0x20B JUMPI DUP1 PUSH4 0x95EA7B3 EQ PUSH2 0x229 JUMPI DUP1 PUSH4 0x12A46858 EQ PUSH2 0x24C JUMPI DUP1 PUSH4 0x18160DDD EQ PUSH2 0x25F JUMPI JUMPDEST PUSH1 0x0 DUP1 REVERT JUMPDEST PUSH2 0x213 PUSH2 0x46C JUMP JUMPDEST PUSH1 0x40 MLOAD PUSH2 0x220 SWAP2 SWAP1 PUSH2 0x16FA JUMP JUMPDEST PUSH1 0x40 MLOAD DUP1 SWAP2 SUB SWAP1 RETURN JUMPDEST PUSH2 0x23C PUSH2 0x237 CALLDATASIZE PUSH1 0x4 PUSH2 0x1765 JUMP JUMPDEST PUSH2 0x4FE JUMP JUMPDEST PUSH1 0x40 MLOAD SWAP1 ISZERO ISZERO DUP2 MSTORE PUSH1 0x20 ADD PUSH2 0x220 JUMP JUMPDEST PUSH2 0x23C PUSH2 0x25A CALLDATASIZE PUSH1 0x4 PUSH2 0x1765 JUMP JUMPDEST PUSH2 0x518 JUMP JUMPDEST PUSH1 0x67 SLOAD JUMPDEST PUSH1 0x40 MLOAD SWAP1 DUP2 MSTORE PUSH1 0x20 ADD PUSH2 0x220 JUMP JUMPDEST PUSH2 0x23C PUSH2 0x27F CALLDATASIZE PUSH1 0x4 PUSH2 0x178F JUMP JUMPDEST PUSH2 0x5E7 JUMP JUMPDEST PUSH2 0x297 PUSH2 0x292 CALLDATASIZE PUSH1 0x4 PUSH2 0x17CB JUMP JUMPDEST PUSH2 0x60B JUMP JUMPDEST STOP JUMPDEST PUSH2 0x297 PUSH2 0x2A7 CALLDATASIZE PUSH1 0x4 PUSH2 0x17ED JUMP JUMPDEST PUSH2 0x65E JUMP JUMPDEST PUSH1 0x40 MLOAD PUSH1 0x9 DUP2 MSTORE PUSH1 0x20 ADD PUSH2 0x220 JUMP JUMPDEST PUSH2 0x263 PUSH9 0x56BC75E2D27753600 DUP2 JUMP JUMPDEST PUSH2 0x23C PUSH2 0x2D9 CALLDATASIZE PUSH1 0x4 PUSH2 0x1765 JUMP JUMPDEST PUSH2 0x7F1 JUMP JUMPDEST PUSH2 0x23C PUSH2 0x2EC CALLDATASIZE PUSH1 0x4 PUSH2 0x1852 JUMP JUMPDEST PUSH2 0x813 JUMP JUMPDEST PUSH2 0x297 PUSH2 0x8A1 JUMP JUMPDEST PUSH2 0x23C PUSH2 0x307 CALLDATASIZE PUSH1 0x4 PUSH2 0x1765 JUMP JUMPDEST PUSH2 0x8B3 JUMP JUMPDEST PUSH2 0x297 PUSH2 0x31A CALLDATASIZE PUSH1 0x4 PUSH2 0x1885 JUMP JUMPDEST PUSH2 0x95A JUMP JUMPDEST PUSH2 0x12F SLOAD PUSH2 0x333 SWAP1 PUSH1 0x1 PUSH1 0x1 PUSH1 0xA0 SHL SUB AND DUP2 JUMP JUMPDEST PUSH1 0x40 MLOAD PUSH1 0x1 PUSH1 0x1 PUSH1 0xA0 SHL SUB SWAP1 SWAP2 AND DUP2 MSTORE PUSH1 0x20 ADD PUSH2 0x220 JUMP JUMPDEST PUSH2 0x297 PUSH2 0x967 JUMP JUMPDEST PUSH1 0xC9 SLOAD PUSH1 0xFF AND PUSH2 0x23C JUMP JUMPDEST PUSH2 0x12E SLOAD PUSH2 0x333 SWAP1 PUSH1 0x1 PUSH1 0x1 PUSH1 0xA0 SHL SUB AND DUP2 JUMP JUMPDEST PUSH2 0x263 PUSH2 0x380 CALLDATASIZE PUSH1 0x4 PUSH2 0x17CB JUMP JUMPDEST PUSH1 0x1 PUSH1 0x1 PUSH1 0xA0 SHL SUB AND PUSH1 0x0 SWAP1 DUP2 MSTORE PUSH1 0x65 PUSH1 0x20 MSTORE PUSH1 0x40 SWAP1 KECCAK256 SLOAD SWAP1 JUMP JUMPDEST PUSH2 0x297 PUSH2 0x977 JUMP JUMPDEST PUSH2 0x263 PUSH2 0x12D SLOAD DUP2 JUMP JUMPDEST PUSH2 0x297 PUSH2 0x989 JUMP JUMPDEST PUSH2 0x297 PUSH2 0x3C3 CALLDATASIZE PUSH1 0x4 PUSH2 0x1765 JUMP JUMPDEST PUSH2 0xA00 JUMP JUMPDEST PUSH2 0x297 PUSH2 0x3D6 CALLDATASIZE PUSH1 0x4 PUSH2 0x17CB JUMP JUMPDEST PUSH2 0xA19 JUMP JUMPDEST PUSH1 0x33 SLOAD PUSH1 0x1 PUSH1 0x1 PUSH1 0xA0 SHL SUB AND PUSH2 0x333 JUMP JUMPDEST PUSH2 0x213 PUSH2 0xA6C JUMP JUMPDEST PUSH2 0x23C PUSH2 0x402 CALLDATASIZE PUSH1 0x4 PUSH2 0x1765 JUMP JUMPDEST PUSH2 0xA7B JUMP JUMPDEST PUSH2 0x23C PUSH2 0x415 CALLDATASIZE PUSH1 0x4 PUSH2 0x1765 JUMP JUMPDEST PUSH2 0xAF6 JUMP JUMPDEST PUSH2 0x297 PUSH2 0x428 CALLDATASIZE PUSH1 0x4 PUSH2 0x189E JUMP JUMPDEST PUSH2 0xB04 JUMP JUMPDEST PUSH2 0x263 PUSH2 0x43B CALLDATASIZE PUSH1 0x4 PUSH2 0x18E1 JUMP JUMPDEST PUSH2 0xCC6 JUMP JUMPDEST PUSH1 0x97 SLOAD PUSH1 0x1 PUSH1 0x1 PUSH1 0xA0 SHL SUB AND PUSH2 0x333 JUMP JUMPDEST PUSH2 0x297 PUSH2 0x45F CALLDATASIZE PUSH1 0x4 PUSH2 0x17CB JUMP JUMPDEST PUSH2 0xCF1 JUMP JUMPDEST PUSH2 0x23C PUSH2 0xD62 JUMP JUMPDEST PUSH1 0x60 PUSH1 0x68 DUP1 SLOAD PUSH2 0x47B SWAP1 PUSH2 0x1914 JUMP JUMPDEST DUP1 PUSH1 0x1F ADD PUSH1 0x20 DUP1 SWAP2 DIV MUL PUSH1 0x20 ADD PUSH1 0x40 MLOAD SWAP1 DUP2 ADD PUSH1 0x40 MSTORE DUP1 SWAP3 SWAP2 SWAP1 DUP2 DUP2 MSTORE PUSH1 0x20 ADD DUP3 DUP1 SLOAD PUSH2 0x4A7 SWAP1 PUSH2 0x1914 JUMP JUMPDEST DUP1 ISZERO PUSH2 0x4F4 JUMPI DUP1 PUSH1 0x1F LT PUSH2 0x4C9 JUMPI PUSH2 0x100 DUP1 DUP4 SLOAD DIV MUL DUP4 MSTORE SWAP2 PUSH1 0x20 ADD SWAP2 PUSH2 0x4F4 JUMP JUMPDEST DUP3 ADD SWAP2 SWAP1 PUSH1 0x0 MSTORE PUSH1 0x20 PUSH1 0x0 KECCAK256 SWAP1 JUMPDEST DUP2 SLOAD DUP2 MSTORE SWAP1 PUSH1 0x1 ADD SWAP1 PUSH1 0x20 ADD DUP1 DUP4 GT PUSH2 0x4D7 JUMPI DUP3 SWAP1 SUB PUSH1 0x1F AND DUP3 ADD SWAP2 JUMPDEST POP POP POP POP POP SWAP1 POP SWAP1 JUMP JUMPDEST PUSH1 0x0 CALLER PUSH2 0x50C DUP2 DUP6 DUP6 PUSH2 0xDAB JUMP JUMPDEST PUSH1 0x1 SWAP2 POP POP JUMPDEST SWAP3 SWAP2 POP POP JUMP JUMPDEST PUSH2 0x12F SLOAD PUSH1 0x0 SWAP1 PUSH1 0x1 PUSH1 0x1 PUSH1 0xA0 SHL SUB AND CALLER EQ PUSH2 0x590 JUMPI PUSH1 0x40 MLOAD PUSH3 0x461BCD PUSH1 0xE5 SHL DUP2 MSTORE PUSH1 0x20 PUSH1 0x4 DUP3 ADD MSTORE PUSH1 0x2C PUSH1 0x24 DUP3 ADD MSTORE PUSH32 0x416E636573746F724D6F6E65793A204F6E6C79205361637265645661756C7420 PUSH1 0x44 DUP3 ADD MSTORE PUSH12 0x63616E207061792066656573 PUSH1 0xA0 SHL PUSH1 0x64 DUP3 ADD MSTORE PUSH1 0x84 ADD JUMPDEST PUSH1 0x40 MLOAD DUP1 SWAP2 SUB SWAP1 REVERT JUMPDEST PUSH2 0x59B DUP4 ADDRESS DUP5 PUSH2 0xECF JUMP JUMPDEST DUP3 PUSH1 0x1 PUSH1 0x1 PUSH1 0xA0 SHL SUB AND PUSH32 0x6098481270CC82AD8EF97FA388740DBB92B9F43669826034B36C59049D969639 DUP4 PUSH1 0x40 MLOAD PUSH2 0x5D6 SWAP2 DUP2 MSTORE PUSH1 0x20 ADD SWAP1 JUMP JUMPDEST PUSH1 0x40 MLOAD DUP1 SWAP2 SUB SWAP1 LOG2 POP PUSH1 0x1 SWAP3 SWAP2 POP POP JUMP JUMPDEST PUSH1 0x0 CALLER PUSH2 0x5F5 DUP6 DUP3 DUP6 PUSH2 0xF25 JUMP JUMPDEST PUSH2 0x600 DUP6 DUP6 DUP6 PUSH2 0xECF JUMP JUMPDEST POP PUSH1 0x1 SWAP5 SWAP4 POP POP POP POP JUMP JUMPDEST PUSH2 0x613 PUSH2 0xF99 JUMP JUMPDEST PUSH2 0x12E DUP1 SLOAD PUSH1 0x1 PUSH1 0x1 PUSH1 0xA0 SHL SUB NOT AND PUSH1 0x1 PUSH1 0x1 PUSH1 0xA0 SHL SUB DUP4 AND SWAP1 DUP2 OR SWAP1 SWAP2 SSTORE PUSH1 0x40 MLOAD PUSH32 0x22A195FBE83631385AD11095FBBAD419CDCC539A5E123528A64042C35675BA6E SWAP1 PUSH1 0x0 SWAP1 LOG2 POP JUMP JUMPDEST PUSH2 0x666 PUSH2 0xF99 JUMP JUMPDEST PUSH2 0x12D SLOAD ISZERO PUSH2 0x6D5 JUMPI PUSH1 0x40 MLOAD PUSH3 0x461BCD PUSH1 0xE5 SHL DUP2 MSTORE PUSH1 0x20 PUSH1 0x4 DUP3 ADD MSTORE PUSH1 0x35 PUSH1 0x24 DUP3 ADD MSTORE PUSH32 0x416E636573746F724D6F6E65793A2047656E6573697320646973747269627574 PUSH1 0x44 DUP3 ADD MSTORE PUSH21 0x1A5BDB88185B1C9958591E481C195C999BDC9B5959 PUSH1 0x5A SHL PUSH1 0x64 DUP3 ADD MSTORE PUSH1 0x84 ADD PUSH2 0x587 JUMP JUMPDEST PUSH9 0x1A055690D9DB80000 PUSH9 0x1158E460913D00000 PUSH8 0xD02AB486CEDC0000 PUSH8 0x8AC7230489E80000 PUSH9 0x15AF1D78B1D293600 PUSH2 0x70F DUP11 DUP7 PUSH2 0xFF3 JUMP JUMPDEST PUSH2 0x719 DUP10 DUP6 PUSH2 0xFF3 JUMP JUMPDEST PUSH2 0x723 DUP9 DUP5 PUSH2 0xFF3 JUMP JUMPDEST PUSH2 0x72D DUP8 DUP4 PUSH2 0xFF3 JUMP JUMPDEST PUSH2 0x737 DUP7 DUP3 PUSH2 0xFF3 JUMP JUMPDEST DUP1 DUP3 DUP5 PUSH2 0x744 DUP8 DUP10 PUSH2 0x1964 JUMP JUMPDEST PUSH2 0x74E SWAP2 SWAP1 PUSH2 0x1964 JUMP JUMPDEST PUSH2 0x758 SWAP2 SWAP1 PUSH2 0x1964 JUMP JUMPDEST PUSH2 0x762 SWAP2 SWAP1 PUSH2 0x1964 JUMP JUMPDEST PUSH2 0x12D DUP2 SWAP1 SSTORE PUSH9 0x56BC75E2D27753600 EQ PUSH2 0x7E5 JUMPI PUSH1 0x40 MLOAD PUSH3 0x461BCD PUSH1 0xE5 SHL DUP2 MSTORE PUSH1 0x20 PUSH1 0x4 DUP3 ADD MSTORE PUSH1 0x39 PUSH1 0x24 DUP3 ADD MSTORE PUSH32 0x416E636573746F724D6F6E65793A2047656E6573697320646973747269627574 PUSH1 0x44 DUP3 ADD MSTORE PUSH32 0x696F6E20746F74616C20737570706C79206D69736D6174636800000000000000 PUSH1 0x64 DUP3 ADD MSTORE PUSH1 0x84 ADD PUSH2 0x587 JUMP JUMPDEST POP POP POP POP POP POP POP POP POP POP JUMP JUMPDEST PUSH1 0x0 CALLER PUSH2 0x50C DUP2 DUP6 DUP6 PUSH2 0x804 DUP4 DUP4 PUSH2 0xCC6 JUMP JUMPDEST PUSH2 0x80E SWAP2 SWAP1 PUSH2 0x1964 JUMP JUMPDEST PUSH2 0xDAB JUMP JUMPDEST PUSH2 0x12E SLOAD PUSH1 0x0 SWAP1 PUSH1 0x1 PUSH1 0x1 PUSH1 0xA0 SHL SUB AND CALLER EQ PUSH2 0x897 JUMPI PUSH1 0x40 MLOAD PUSH3 0x461BCD PUSH1 0xE5 SHL DUP2 MSTORE PUSH1 0x20 PUSH1 0x4 DUP3 ADD MSTORE PUSH1 0x3F PUSH1 0x24 DUP3 ADD MSTORE PUSH32 0x416E636573746F724D6F6E65793A204F6E6C792045766F6C7574696F6E526573 PUSH1 0x44 DUP3 ADD MSTORE PUSH32 0x657276652063616E207265636F72642063756C747572616C206576656E747300 PUSH1 0x64 DUP3 ADD MSTORE PUSH1 0x84 ADD PUSH2 0x587 JUMP JUMPDEST POP PUSH1 0x1 SWAP4 SWAP3 POP POP POP JUMP JUMPDEST PUSH2 0x8A9 PUSH2 0xF99 JUMP JUMPDEST PUSH2 0x8B1 PUSH2 0x10C8 JUMP JUMPDEST JUMP JUMPDEST PUSH1 0x0 PUSH2 0x8BD PUSH2 0xF99 JUMP JUMPDEST PUSH9 0x56BC75E2D27753600 DUP3 PUSH2 0x12D SLOAD PUSH2 0x8D6 SWAP2 SWAP1 PUSH2 0x1964 JUMP JUMPDEST GT ISZERO PUSH2 0x92F JUMPI PUSH1 0x40 MLOAD PUSH3 0x461BCD PUSH1 0xE5 SHL DUP2 MSTORE PUSH1 0x20 PUSH1 0x4 DUP3 ADD MSTORE PUSH1 0x22 PUSH1 0x24 DUP3 ADD MSTORE PUSH32 0x416E636573746F724D6F6E65793A206D617820737570706C7920657863656564 PUSH1 0x44 DUP3 ADD MSTORE PUSH2 0x1959 PUSH1 0xF2 SHL PUSH1 0x64 DUP3 ADD MSTORE PUSH1 0x84 ADD PUSH2 0x587 JUMP JUMPDEST PUSH2 0x939 DUP4 DUP4 PUSH2 0xFF3 JUMP JUMPDEST DUP2 PUSH2 0x12D PUSH1 0x0 DUP3 DUP3 SLOAD PUSH2 0x94C SWAP2 SWAP1 PUSH2 0x1964 JUMP JUMPDEST SWAP1 SWAP2 SSTORE POP PUSH1 0x1 SWAP5 SWAP4 POP POP POP POP JUMP JUMPDEST PUSH2 0x964 CALLER DUP3 PUSH2 0x111A JUMP JUMPDEST POP JUMP JUMPDEST PUSH2 0x96F PUSH2 0xF99 JUMP JUMPDEST PUSH2 0x8B1 PUSH2 0x1266 JUMP JUMPDEST PUSH2 0x97F PUSH2 0xF99 JUMP JUMPDEST PUSH2 0x8B1 PUSH1 0x0 PUSH2 0x12A3 JUMP JUMPDEST PUSH1 0x97 SLOAD CALLER SWAP1 PUSH1 0x1 PUSH1 0x1 PUSH1 0xA0 SHL SUB AND DUP2 EQ PUSH2 0x9F7 JUMPI PUSH1 0x40 MLOAD PUSH3 0x461BCD PUSH1 0xE5 SHL DUP2 MSTORE PUSH1 0x20 PUSH1 0x4 DUP3 ADD MSTORE PUSH1 0x29 PUSH1 0x24 DUP3 ADD MSTORE PUSH32 0x4F776E61626C6532537465703A2063616C6C6572206973206E6F742074686520 PUSH1 0x44 DUP3 ADD MSTORE PUSH9 0x3732BB9037BBB732B9 PUSH1 0xB9 SHL PUSH1 0x64 DUP3 ADD MSTORE PUSH1 0x84 ADD PUSH2 0x587 JUMP JUMPDEST PUSH2 0x964 DUP2 PUSH2 0x12A3 JUMP JUMPDEST PUSH2 0xA0B DUP3 CALLER DUP4 PUSH2 0xF25 JUMP JUMPDEST PUSH2 0xA15 DUP3 DUP3 PUSH2 0x111A JUMP JUMPDEST POP POP JUMP JUMPDEST PUSH2 0xA21 PUSH2 0xF99 JUMP JUMPDEST PUSH2 0x12F DUP1 SLOAD PUSH1 0x1 PUSH1 0x1 PUSH1 0xA0 SHL SUB NOT AND PUSH1 0x1 PUSH1 0x1 PUSH1 0xA0 SHL SUB DUP4 AND SWAP1 DUP2 OR SWAP1 SWAP2 SSTORE PUSH1 0x40 MLOAD PUSH32 0x5E74F6697AE9D8E4ED8C4E8CB2F44ACC9909529CE81812AAB23103B3DE223F66 SWAP1 PUSH1 0x0 SWAP1 LOG2 POP JUMP JUMPDEST PUSH1 0x60 PUSH1 0x69 DUP1 SLOAD PUSH2 0x47B SWAP1 PUSH2 0x1914 JUMP JUMPDEST PUSH1 0x0 CALLER DUP2 PUSH2 0xA89 DUP3 DUP7 PUSH2 0xCC6 JUMP JUMPDEST SWAP1 POP DUP4 DUP2 LT ISZERO PUSH2 0xAE9 JUMPI PUSH1 0x40 MLOAD PUSH3 0x461BCD PUSH1 0xE5 SHL DUP2 MSTORE PUSH1 0x20 PUSH1 0x4 DUP3 ADD MSTORE PUSH1 0x25 PUSH1 0x24 DUP3 ADD MSTORE PUSH32 0x45524332303A2064656372656173656420616C6C6F77616E63652062656C6F77 PUSH1 0x44 DUP3 ADD MSTORE PUSH5 0x207A65726F PUSH1 0xD8 SHL PUSH1 0x64 DUP3 ADD MSTORE PUSH1 0x84 ADD PUSH2 0x587 JUMP JUMPDEST PUSH2 0x600 DUP3 DUP7 DUP7 DUP5 SUB PUSH2 0xDAB JUMP JUMPDEST PUSH1 0x0 CALLER PUSH2 0x50C DUP2 DUP6 DUP6 PUSH2 0xECF JUMP JUMPDEST PUSH1 0x0 SLOAD PUSH2 0x100 SWAP1 DIV PUSH1 0xFF AND ISZERO DUP1 DUP1 ISZERO PUSH2 0xB24 JUMPI POP PUSH1 0x0 SLOAD PUSH1 0x1 PUSH1 0xFF SWAP1 SWAP2 AND LT JUMPDEST DUP1 PUSH2 0xB3E JUMPI POP ADDRESS EXTCODESIZE ISZERO DUP1 ISZERO PUSH2 0xB3E JUMPI POP PUSH1 0x0 SLOAD PUSH1 0xFF AND PUSH1 0x1 EQ JUMPDEST PUSH2 0xBA1 JUMPI PUSH1 0x40 MLOAD PUSH3 0x461BCD PUSH1 0xE5 SHL DUP2 MSTORE PUSH1 0x20 PUSH1 0x4 DUP3 ADD MSTORE PUSH1 0x2E PUSH1 0x24 DUP3 ADD MSTORE PUSH32 0x496E697469616C697A61626C653A20636F6E747261637420697320616C726561 PUSH1 0x44 DUP3 ADD MSTORE PUSH14 0x191E481A5B9A5D1A585B1A5E9959 PUSH1 0x92 SHL PUSH1 0x64 DUP3 ADD MSTORE PUSH1 0x84 ADD PUSH2 0x587 JUMP JUMPDEST PUSH1 0x0 DUP1 SLOAD PUSH1 0xFF NOT AND PUSH1 0x1 OR SWAP1 SSTORE DUP1 ISZERO PUSH2 0xBC4 JUMPI PUSH1 0x0 DUP1 SLOAD PUSH2 0xFF00 NOT AND PUSH2 0x100 OR SWAP1 SSTORE JUMPDEST PUSH2 0xBCC PUSH2 0x12BC JUMP JUMPDEST PUSH2 0xBD4 PUSH2 0x12BC JUMP JUMPDEST PUSH2 0xBDD DUP5 PUSH2 0x12A3 JUMP JUMPDEST PUSH2 0xC2A PUSH1 0x40 MLOAD DUP1 PUSH1 0x40 ADD PUSH1 0x40 MSTORE DUP1 PUSH1 0xD DUP2 MSTORE PUSH1 0x20 ADD PUSH13 0x416E636573746F724D6F6E6579 PUSH1 0x98 SHL DUP2 MSTORE POP PUSH1 0x40 MLOAD DUP1 PUSH1 0x40 ADD PUSH1 0x40 MSTORE DUP1 PUSH1 0x6 DUP2 MSTORE PUSH1 0x20 ADD PUSH6 0x414D4F4E4559 PUSH1 0xD0 SHL DUP2 MSTORE POP PUSH2 0x12EB JUMP JUMPDEST PUSH2 0xC32 PUSH2 0x131C JUMP JUMPDEST PUSH2 0xC3A PUSH2 0x134B JUMP JUMPDEST PUSH2 0xC42 PUSH2 0x1266 JUMP JUMPDEST PUSH2 0x12E DUP1 SLOAD PUSH1 0x1 PUSH1 0x1 PUSH1 0xA0 SHL SUB DUP1 DUP7 AND PUSH1 0x1 PUSH1 0x1 PUSH1 0xA0 SHL SUB NOT SWAP3 DUP4 AND OR SWAP1 SWAP3 SSTORE PUSH2 0x12F DUP1 SLOAD SWAP3 DUP6 AND SWAP3 SWAP1 SWAP2 AND SWAP2 SWAP1 SWAP2 OR SWAP1 SSTORE PUSH1 0x0 PUSH2 0x12D SSTORE DUP1 ISZERO PUSH2 0xCC0 JUMPI PUSH1 0x0 DUP1 SLOAD PUSH2 0xFF00 NOT AND SWAP1 SSTORE PUSH1 0x40 MLOAD PUSH1 0x1 DUP2 MSTORE PUSH32 0x7F26B83FF96E1F2B6A682F133852F6798A09C465DA95921460CEFB3847402498 SWAP1 PUSH1 0x20 ADD PUSH1 0x40 MLOAD DUP1 SWAP2 SUB SWAP1 LOG1 JUMPDEST POP POP POP POP JUMP JUMPDEST PUSH1 0x1 PUSH1 0x1 PUSH1 0xA0 SHL SUB SWAP2 DUP3 AND PUSH1 0x0 SWAP1 DUP2 MSTORE PUSH1 0x66 PUSH1 0x20 SWAP1 DUP2 MSTORE PUSH1 0x40 DUP1 DUP4 KECCAK256 SWAP4 SWAP1 SWAP5 AND DUP3 MSTORE SWAP2 SWAP1 SWAP2 MSTORE KECCAK256 SLOAD SWAP1 JUMP JUMPDEST PUSH2 0xCF9 PUSH2 0xF99 JUMP JUMPDEST PUSH1 0x97 DUP1 SLOAD PUSH1 0x1 PUSH1 0x1 PUSH1 0xA0 SHL SUB DUP4 AND PUSH1 0x1 PUSH1 0x1 PUSH1 0xA0 SHL SUB NOT SWAP1 SWAP2 AND DUP2 OR SWAP1 SWAP2 SSTORE PUSH2 0xD2A PUSH1 0x33 SLOAD PUSH1 0x1 PUSH1 0x1 PUSH1 0xA0 SHL SUB AND SWAP1 JUMP JUMPDEST PUSH1 0x1 PUSH1 0x1 PUSH1 0xA0 SHL SUB AND PUSH32 0x38D16B8CAC22D99FC7C124B9CD0DE2D3FA1FAEF420BFE791D8C362D765E22700 PUSH1 0x40 MLOAD PUSH1 0x40 MLOAD DUP1 SWAP2 SUB SWAP1 LOG3 POP JUMP JUMPDEST PUSH1 0x0 PUSH2 0xD6C PUSH2 0xF99 JUMP JUMPDEST PUSH2 0xD74 PUSH2 0x1372 JUMP JUMPDEST PUSH2 0xD7C PUSH2 0x10C8 JUMP JUMPDEST PUSH1 0x40 MLOAD PUSH32 0x59E798DD1D3A9153861118FD83FBF10D33D3D30467F7649AC8DA2A453A742014 SWAP1 PUSH1 0x0 SWAP1 LOG1 POP PUSH1 0x1 SWAP1 JUMP JUMPDEST PUSH1 0x1 PUSH1 0x1 PUSH1 0xA0 SHL SUB DUP4 AND PUSH2 0xE0D JUMPI PUSH1 0x40 MLOAD PUSH3 0x461BCD PUSH1 0xE5 SHL DUP2 MSTORE PUSH1 0x20 PUSH1 0x4 DUP3 ADD MSTORE PUSH1 0x24 DUP1 DUP3 ADD MSTORE PUSH32 0x45524332303A20617070726F76652066726F6D20746865207A65726F20616464 PUSH1 0x44 DUP3 ADD MSTORE PUSH4 0x72657373 PUSH1 0xE0 SHL PUSH1 0x64 DUP3 ADD MSTORE PUSH1 0x84 ADD PUSH2 0x587 JUMP JUMPDEST PUSH1 0x1 PUSH1 0x1 PUSH1 0xA0 SHL SUB DUP3 AND PUSH2 0xE6E JUMPI PUSH1 0x40 MLOAD PUSH3 0x461BCD PUSH1 0xE5 SHL DUP2 MSTORE PUSH1 0x20 PUSH1 0x4 DUP3 ADD MSTORE PUSH1 0x22 PUSH1 0x24 DUP3 ADD MSTORE PUSH32 0x45524332303A20617070726F766520746F20746865207A65726F206164647265 PUSH1 0x44 DUP3 ADD MSTORE PUSH2 0x7373 PUSH1 0xF0 SHL PUSH1 0x64 DUP3 ADD MSTORE PUSH1 0x84 ADD PUSH2 0x587 JUMP JUMPDEST PUSH1 0x1 PUSH1 0x1 PUSH1 0xA0 SHL SUB DUP4 DUP2 AND PUSH1 0x0 DUP2 DUP2 MSTORE PUSH1 0x66 PUSH1 0x20 SWAP1 DUP2 MSTORE PUSH1 0x40 DUP1 DUP4 KECCAK256 SWAP5 DUP8 AND DUP1 DUP5 MSTORE SWAP5 DUP3 MSTORE SWAP2 DUP3 SWAP1 KECCAK256 DUP6 SWAP1 SSTORE SWAP1 MLOAD DUP5 DUP2 MSTORE PUSH32 0x8C5BE1E5EBEC7D5BD14F71427D1E84F3DD0314C0F7B2291E5B200AC8C7C3B925 SWAP2 ADD PUSH1 0x40 MLOAD DUP1 SWAP2 SUB SWAP1 LOG3 POP POP POP JUMP JUMPDEST PUSH2 0xED7 PUSH2 0x13BB JUMP JUMPDEST PUSH1 0x5 PUSH1 0x0 PUSH2 0x3E8 PUSH2 0xEE8 DUP4 DUP6 PUSH2 0x1977 JUMP JUMPDEST PUSH2 0xEF2 SWAP2 SWAP1 PUSH2 0x198E JUMP JUMPDEST SWAP1 POP PUSH1 0x0 PUSH2 0xF00 DUP3 DUP6 PUSH2 0x19B0 JUMP JUMPDEST SWAP1 POP PUSH2 0xF0D DUP7 DUP7 DUP4 PUSH2 0x1401 JUMP JUMPDEST DUP2 ISZERO PUSH2 0xF1D JUMPI PUSH2 0xF1D DUP7 DUP4 PUSH2 0x111A JUMP JUMPDEST POP POP POP POP POP POP JUMP JUMPDEST PUSH1 0x0 PUSH2 0xF31 DUP5 DUP5 PUSH2 0xCC6 JUMP JUMPDEST SWAP1 POP PUSH1 0x0 NOT DUP2 EQ PUSH2 0xCC0 JUMPI DUP2 DUP2 LT ISZERO PUSH2 0xF8C JUMPI PUSH1 0x40 MLOAD PUSH3 0x461BCD PUSH1 0xE5 SHL DUP2 MSTORE PUSH1 0x20 PUSH1 0x4 DUP3 ADD MSTORE PUSH1 0x1D PUSH1 0x24 DUP3 ADD MSTORE PUSH32 0x45524332303A20696E73756666696369656E7420616C6C6F77616E6365000000 PUSH1 0x44 DUP3 ADD MSTORE PUSH1 0x64 ADD PUSH2 0x587 JUMP JUMPDEST PUSH2 0xCC0 DUP5 DUP5 DUP5 DUP5 SUB PUSH2 0xDAB JUMP JUMPDEST PUSH1 0x33 SLOAD PUSH1 0x1 PUSH1 0x1 PUSH1 0xA0 SHL SUB AND CALLER EQ PUSH2 0x8B1 JUMPI PUSH1 0x40 MLOAD PUSH3 0x461BCD PUSH1 0xE5 SHL DUP2 MSTORE PUSH1 0x20 PUSH1 0x4 DUP3 ADD DUP2 SWAP1 MSTORE PUSH1 0x24 DUP3 ADD MSTORE PUSH32 0x4F776E61626C653A2063616C6C6572206973206E6F7420746865206F776E6572 PUSH1 0x44 DUP3 ADD MSTORE PUSH1 0x64 ADD PUSH2 0x587 JUMP JUMPDEST PUSH1 0x1 PUSH1 0x1 PUSH1 0xA0 SHL SUB DUP3 AND PUSH2 0x1049 JUMPI PUSH1 0x40 MLOAD PUSH3 0x461BCD PUSH1 0xE5 SHL DUP2 MSTORE PUSH1 0x20 PUSH1 0x4 DUP3 ADD MSTORE PUSH1 0x1F PUSH1 0x24 DUP3 ADD MSTORE PUSH32 0x45524332303A206D696E7420746F20746865207A65726F206164647265737300 PUSH1 0x44 DUP3 ADD MSTORE PUSH1 0x64 ADD PUSH2 0x587 JUMP JUMPDEST PUSH2 0x1055 PUSH1 0x0 DUP4 DUP4 PUSH2 0x15BD JUMP JUMPDEST DUP1 PUSH1 0x67 PUSH1 0x0 DUP3 DUP3 SLOAD PUSH2 0x1067 SWAP2 SWAP1 PUSH2 0x1964 JUMP JUMPDEST SWAP1 SWAP2 SSTORE POP POP PUSH1 0x1 PUSH1 0x1 PUSH1 0xA0 SHL SUB DUP3 AND PUSH1 0x0 DUP2 DUP2 MSTORE PUSH1 0x65 PUSH1 0x20 SWAP1 DUP2 MSTORE PUSH1 0x40 DUP1 DUP4 KECCAK256 DUP1 SLOAD DUP7 ADD SWAP1 SSTORE MLOAD DUP5 DUP2 MSTORE PUSH32 0xDDF252AD1BE2C89B69C2B068FC378DAA952BA7F163C4A11628F55A4DF523B3EF SWAP2 ADD PUSH1 0x40 MLOAD DUP1 SWAP2 SUB SWAP1 LOG3 PUSH2 0xA15 PUSH1 0x0 DUP4 DUP4 PUSH2 0x15C5 JUMP JUMPDEST PUSH2 0x10D0 PUSH2 0x1372 JUMP JUMPDEST PUSH1 0xC9 DUP1 SLOAD PUSH1 0xFF NOT AND SWAP1 SSTORE PUSH32 0x5DB9EE0A495BF2E6FF9C91A7834C1BA4FDD244A5E8AA4E537BD38AEAE4B073AA CALLER JUMPDEST PUSH1 0x40 MLOAD PUSH1 0x1 PUSH1 0x1 PUSH1 0xA0 SHL SUB SWAP1 SWAP2 AND DUP2 MSTORE PUSH1 0x20 ADD PUSH1 0x40 MLOAD DUP1 SWAP2 SUB SWAP1 LOG1 JUMP JUMPDEST PUSH1 0x1 PUSH1 0x1 PUSH1 0xA0 SHL SUB DUP3 AND PUSH2 0x117A JUMPI PUSH1 0x40 MLOAD PUSH3 0x461BCD PUSH1 0xE5 SHL DUP2 MSTORE PUSH1 0x20 PUSH1 0x4 DUP3 ADD MSTORE PUSH1 0x21 PUSH1 0x24 DUP3 ADD MSTORE PUSH32 0x45524332303A206275726E2066726F6D20746865207A65726F20616464726573 PUSH1 0x44 DUP3 ADD MSTORE PUSH1 0x73 PUSH1 0xF8 SHL PUSH1 0x64 DUP3 ADD MSTORE PUSH1 0x84 ADD PUSH2 0x587 JUMP JUMPDEST PUSH2 0x1186 DUP3 PUSH1 0x0 DUP4 PUSH2 0x15BD JUMP JUMPDEST PUSH1 0x1 PUSH1 0x1 PUSH1 0xA0 SHL SUB DUP3 AND PUSH1 0x0 SWAP1 DUP2 MSTORE PUSH1 0x65 PUSH1 0x20 MSTORE PUSH1 0x40 SWAP1 KECCAK256 SLOAD DUP2 DUP2 LT ISZERO PUSH2 0x11FA JUMPI PUSH1 0x40 MLOAD PUSH3 0x461BCD PUSH1 0xE5 SHL DUP2 MSTORE PUSH1 0x20 PUSH1 0x4 DUP3 ADD MSTORE PUSH1 0x22 PUSH1 0x24 DUP3 ADD MSTORE PUSH32 0x45524332303A206275726E20616D6F756E7420657863656564732062616C616E PUSH1 0x44 DUP3 ADD MSTORE PUSH2 0x6365 PUSH1 0xF0 SHL PUSH1 0x64 DUP3 ADD MSTORE PUSH1 0x84 ADD PUSH2 0x587 JUMP JUMPDEST PUSH1 0x1 PUSH1 0x1 PUSH1 0xA0 SHL SUB DUP4 AND PUSH1 0x0 DUP2 DUP2 MSTORE PUSH1 0x65 PUSH1 0x20 SWAP1 DUP2 MSTORE PUSH1 0x40 DUP1 DUP4 KECCAK256 DUP7 DUP7 SUB SWAP1 SSTORE PUSH1 0x67 DUP1 SLOAD DUP8 SWAP1 SUB SWAP1 SSTORE MLOAD DUP6 DUP2 MSTORE SWAP2 SWAP3 SWAP2 PUSH32 0xDDF252AD1BE2C89B69C2B068FC378DAA952BA7F163C4A11628F55A4DF523B3EF SWAP2 ADD PUSH1 0x40 MLOAD DUP1 SWAP2 SUB SWAP1 LOG3 PUSH2 0x1261 DUP4 PUSH1 0x0 DUP5 PUSH2 0x15C5 JUMP JUMPDEST POP POP POP JUMP JUMPDEST PUSH2 0x126E PUSH2 0x13BB JUMP JUMPDEST PUSH1 0xC9 DUP1 SLOAD PUSH1 0xFF NOT AND PUSH1 0x1 OR SWAP1 SSTORE PUSH32 0x62E78CEA01BEE320CD4E420270B5EA74000D11B0C9F74754EBDBFC544B05A258 PUSH2 0x10FD CALLER SWAP1 JUMP JUMPDEST PUSH1 0x97 DUP1 SLOAD PUSH1 0x1 PUSH1 0x1 PUSH1 0xA0 SHL SUB NOT AND SWAP1 SSTORE PUSH2 0x964 DUP2 PUSH2 0x1605 JUMP JUMPDEST PUSH1 0x0 SLOAD PUSH2 0x100 SWAP1 DIV PUSH1 0xFF AND PUSH2 0x12E3 JUMPI PUSH1 0x40 MLOAD PUSH3 0x461BCD PUSH1 0xE5 SHL DUP2 MSTORE PUSH1 0x4 ADD PUSH2 0x587 SWAP1 PUSH2 0x19C3 JUMP JUMPDEST PUSH2 0x8B1 PUSH2 0x1657 JUMP JUMPDEST PUSH1 0x0 SLOAD PUSH2 0x100 SWAP1 DIV PUSH1 0xFF AND PUSH2 0x1312 JUMPI PUSH1 0x40 MLOAD PUSH3 0x461BCD PUSH1 0xE5 SHL DUP2 MSTORE PUSH1 0x4 ADD PUSH2 0x587 SWAP1 PUSH2 0x19C3 JUMP JUMPDEST PUSH2 0xA15 DUP3 DUP3 PUSH2 0x1687 JUMP JUMPDEST PUSH1 0x0 SLOAD PUSH2 0x100 SWAP1 DIV PUSH1 0xFF AND PUSH2 0x1343 JUMPI PUSH1 0x40 MLOAD PUSH3 0x461BCD PUSH1 0xE5 SHL DUP2 MSTORE PUSH1 0x4 ADD PUSH2 0x587 SWAP1 PUSH2 0x19C3 JUMP JUMPDEST PUSH2 0x8B1 PUSH2 0x16C7 JUMP JUMPDEST PUSH1 0x0 SLOAD PUSH2 0x100 SWAP1 DIV PUSH1 0xFF AND PUSH2 0x8B1 JUMPI PUSH1 0x40 MLOAD PUSH3 0x461BCD PUSH1 0xE5 SHL DUP2 MSTORE PUSH1 0x4 ADD PUSH2 0x587 SWAP1 PUSH2 0x19C3 JUMP JUMPDEST PUSH1 0xC9 SLOAD PUSH1 0xFF AND PUSH2 0x8B1 JUMPI PUSH1 0x40 MLOAD PUSH3 0x461BCD PUSH1 0xE5 SHL DUP2 MSTORE PUSH1 0x20 PUSH1 0x4 DUP3 ADD MSTORE PUSH1 0x14 PUSH1 0x24 DUP3 ADD MSTORE PUSH20 0x14185D5CD8589B194E881B9BDD081C185D5CD959 PUSH1 0x62 SHL PUSH1 0x44 DUP3 ADD MSTORE PUSH1 0x64 ADD PUSH2 0x587 JUMP JUMPDEST PUSH1 0xC9 SLOAD PUSH1 0xFF AND ISZERO PUSH2 0x8B1 JUMPI PUSH1 0x40 MLOAD PUSH3 0x461BCD PUSH1 0xE5 SHL DUP2 MSTORE PUSH1 0x20 PUSH1 0x4 DUP3 ADD MSTORE PUSH1 0x10 PUSH1 0x24 DUP3 ADD MSTORE PUSH16 0x14185D5CD8589B194E881C185D5CD959 PUSH1 0x82 SHL PUSH1 0x44 DUP3 ADD MSTORE PUSH1 0x64 ADD PUSH2 0x587 JUMP JUMPDEST PUSH1 0x1 PUSH1 0x1 PUSH1 0xA0 SHL SUB DUP4 AND PUSH2 0x1465 JUMPI PUSH1 0x40 MLOAD PUSH3 0x461BCD PUSH1 0xE5 SHL DUP2 MSTORE PUSH1 0x20 PUSH1 0x4 DUP3 ADD MSTORE PUSH1 0x25 PUSH1 0x24 DUP3 ADD MSTORE PUSH32 0x45524332303A207472616E736665722066726F6D20746865207A65726F206164 PUSH1 0x44 DUP3 ADD MSTORE PUSH5 0x6472657373 PUSH1 0xD8 SHL PUSH1 0x64 DUP3 ADD MSTORE PUSH1 0x84 ADD PUSH2 0x587 JUMP JUMPDEST PUSH1 0x1 PUSH1 0x1 PUSH1 0xA0 SHL SUB DUP3 AND PUSH2 0x14C7 JUMPI PUSH1 0x40 MLOAD PUSH3 0x461BCD PUSH1 0xE5 SHL DUP2 MSTORE PUSH1 0x20 PUSH1 0x4 DUP3 ADD MSTORE PUSH1 0x23 PUSH1 0x24 DUP3 ADD MSTORE PUSH32 0x45524332303A207472616E7366657220746F20746865207A65726F2061646472 PUSH1 0x44 DUP3 ADD MSTORE PUSH3 0x657373 PUSH1 0xE8 SHL PUSH1 0x64 DUP3 ADD MSTORE PUSH1 0x84 ADD PUSH2 0x587 JUMP JUMPDEST PUSH2 0x14D2 DUP4 DUP4 DUP4 PUSH2 0x15BD JUMP JUMPDEST PUSH1 0x1 PUSH1 0x1 PUSH1 0xA0 SHL SUB DUP4 AND PUSH1 0x0 SWAP1 DUP2 MSTORE PUSH1 0x65 PUSH1 0x20 MSTORE PUSH1 0x40 SWAP1 KECCAK256 SLOAD DUP2 DUP2 LT ISZERO PUSH2 0x154A JUMPI PUSH1 0x40 MLOAD PUSH3 0x461BCD PUSH1 0xE5 SHL DUP2 MSTORE PUSH1 0x20 PUSH1 0x4 DUP3 ADD MSTORE PUSH1 0x26 PUSH1 0x24 DUP3 ADD MSTORE PUSH32 0x45524332303A207472616E7366657220616D6F756E7420657863656564732062 PUSH1 0x44 DUP3 ADD MSTORE PUSH6 0x616C616E6365 PUSH1 0xD0 SHL PUSH1 0x64 DUP3 ADD MSTORE PUSH1 0x84 ADD PUSH2 0x587 JUMP JUMPDEST PUSH1 0x1 PUSH1 0x1 PUSH1 0xA0 SHL SUB DUP1 DUP6 AND PUSH1 0x0 DUP2 DUP2 MSTORE PUSH1 0x65 PUSH1 0x20 MSTORE PUSH1 0x40 DUP1 DUP3 KECCAK256 DUP7 DUP7 SUB SWAP1 SSTORE SWAP3 DUP7 AND DUP1 DUP3 MSTORE SWAP1 DUP4 SWAP1 KECCAK256 DUP1 SLOAD DUP7 ADD SWAP1 SSTORE SWAP2 MLOAD PUSH32 0xDDF252AD1BE2C89B69C2B068FC378DAA952BA7F163C4A11628F55A4DF523B3EF SWAP1 PUSH2 0x15AA SWAP1 DUP7 DUP2 MSTORE PUSH1 0x20 ADD SWAP1 JUMP JUMPDEST PUSH1 0x40 MLOAD DUP1 SWAP2 SUB SWAP1 LOG3 PUSH2 0xCC0 DUP5 DUP5 DUP5 PUSH2 0x15C5 JUMP JUMPDEST PUSH2 0x1261 PUSH2 0x13BB JUMP JUMPDEST PUSH1 0x1 PUSH1 0x1 PUSH1 0xA0 SHL SUB DUP4 AND ISZERO DUP1 ISZERO SWAP1 PUSH2 0x15E5 JUMPI POP PUSH1 0x1 PUSH1 0x1 PUSH1 0xA0 SHL SUB DUP3 AND ISZERO ISZERO JUMPDEST ISZERO PUSH2 0x1261 JUMPI PUSH1 0x5 PUSH1 0x0 PUSH2 0x3E8 PUSH2 0x15FB DUP4 DUP6 PUSH2 0x1977 JUMP JUMPDEST PUSH2 0xF1D SWAP2 SWAP1 PUSH2 0x198E JUMP JUMPDEST PUSH1 0x33 DUP1 SLOAD PUSH1 0x1 PUSH1 0x1 PUSH1 0xA0 SHL SUB DUP4 DUP2 AND PUSH1 0x1 PUSH1 0x1 PUSH1 0xA0 SHL SUB NOT DUP4 AND DUP2 OR SWAP1 SWAP4 SSTORE PUSH1 0x40 MLOAD SWAP2 AND SWAP2 SWAP1 DUP3 SWAP1 PUSH32 0x8BE0079C531659141344CD1FD0A4F28419497F9722A3DAAFE3B4186F6B6457E0 SWAP1 PUSH1 0x0 SWAP1 LOG3 POP POP JUMP JUMPDEST PUSH1 0x0 SLOAD PUSH2 0x100 SWAP1 DIV PUSH1 0xFF AND PUSH2 0x167E JUMPI PUSH1 0x40 MLOAD PUSH3 0x461BCD PUSH1 0xE5 SHL DUP2 MSTORE PUSH1 0x4 ADD PUSH2 0x587 SWAP1 PUSH2 0x19C3 JUMP JUMPDEST PUSH2 0x8B1 CALLER PUSH2 0x12A3 JUMP JUMPDEST PUSH1 0x0 SLOAD PUSH2 0x100 SWAP1 DIV PUSH1 0xFF AND PUSH2 0x16AE JUMPI PUSH1 0x40 MLOAD PUSH3 0x461BCD PUSH1 0xE5 SHL DUP2 MSTORE PUSH1 0x4 ADD PUSH2 0x587 SWAP1 PUSH2 0x19C3 JUMP JUMPDEST PUSH1 0x68 PUSH2 0x16BA DUP4 DUP3 PUSH2 0x1A6C JUMP JUMPDEST POP PUSH1 0x69 PUSH2 0x1261 DUP3 DUP3 PUSH2 0x1A6C JUMP JUMPDEST PUSH1 0x0 SLOAD PUSH2 0x100 SWAP1 DIV PUSH1 0xFF AND PUSH2 0x16EE JUMPI PUSH1 0x40 MLOAD PUSH3 0x461BCD PUSH1 0xE5 SHL DUP2 MSTORE PUSH1 0x4 ADD PUSH2 0x587 SWAP1 PUSH2 0x19C3 JUMP JUMPDEST PUSH1 0xC9 DUP1 SLOAD PUSH1 0xFF NOT AND SWAP1 SSTORE JUMP JUMPDEST PUSH1 0x0 PUSH1 0x20 DUP1 DUP4 MSTORE DUP4 MLOAD DUP1 PUSH1 0x20 DUP6 ADD MSTORE PUSH1 0x0 JUMPDEST DUP2 DUP2 LT ISZERO PUSH2 0x1728 JUMPI DUP6 DUP2 ADD DUP4 ADD MLOAD DUP6 DUP3 ADD PUSH1 0x40 ADD MSTORE DUP3 ADD PUSH2 0x170C JUMP JUMPDEST POP PUSH1 0x0 PUSH1 0x40 DUP3 DUP7 ADD ADD MSTORE PUSH1 0x40 PUSH1 0x1F NOT PUSH1 0x1F DUP4 ADD AND DUP6 ADD ADD SWAP3 POP POP POP SWAP3 SWAP2 POP POP JUMP JUMPDEST DUP1 CALLDATALOAD PUSH1 0x1 PUSH1 0x1 PUSH1 0xA0 SHL SUB DUP2 AND DUP2 EQ PUSH2 0x1760 JUMPI PUSH1 0x0 DUP1 REVERT JUMPDEST SWAP2 SWAP1 POP JUMP JUMPDEST PUSH1 0x0 DUP1 PUSH1 0x40 DUP4 DUP6 SUB SLT ISZERO PUSH2 0x1778 JUMPI PUSH1 0x0 DUP1 REVERT JUMPDEST PUSH2 0x1781 DUP4 PUSH2 0x1749 JUMP JUMPDEST SWAP5 PUSH1 0x20 SWAP4 SWAP1 SWAP4 ADD CALLDATALOAD SWAP4 POP POP POP JUMP JUMPDEST PUSH1 0x0 DUP1 PUSH1 0x0 PUSH1 0x60 DUP5 DUP7 SUB SLT ISZERO PUSH2 0x17A4 JUMPI PUSH1 0x0 DUP1 REVERT JUMPDEST PUSH2 0x17AD DUP5 PUSH2 0x1749 JUMP JUMPDEST SWAP3 POP PUSH2 0x17BB PUSH1 0x20 DUP6 ADD PUSH2 0x1749 JUMP JUMPDEST SWAP2 POP PUSH1 0x40 DUP5 ADD CALLDATALOAD SWAP1 POP SWAP3 POP SWAP3 POP SWAP3 JUMP JUMPDEST PUSH1 0x0 PUSH1 0x20 DUP3 DUP5 SUB SLT ISZERO PUSH2 0x17DD JUMPI PUSH1 0x0 DUP1 REVERT JUMPDEST PUSH2 0x17E6 DUP3 PUSH2 0x1749 JUMP JUMPDEST SWAP4 SWAP3 POP POP POP JUMP JUMPDEST PUSH1 0x0 DUP1 PUSH1 0x0 DUP1 PUSH1 0x0 PUSH1 0xA0 DUP7 DUP9 SUB SLT ISZERO PUSH2 0x1805 JUMPI PUSH1 0x0 DUP1 REVERT JUMPDEST PUSH2 0x180E DUP7 PUSH2 0x1749 JUMP JUMPDEST SWAP5 POP PUSH2 0x181C PUSH1 0x20 DUP8 ADD PUSH2 0x1749 JUMP JUMPDEST SWAP4 POP PUSH2 0x182A PUSH1 0x40 DUP8 ADD PUSH2 0x1749 JUMP JUMPDEST SWAP3 POP PUSH2 0x1838 PUSH1 0x60 DUP8 ADD PUSH2 0x1749 JUMP JUMPDEST SWAP2 POP PUSH2 0x1846 PUSH1 0x80 DUP8 ADD PUSH2 0x1749 JUMP JUMPDEST SWAP1 POP SWAP3 SWAP6 POP SWAP3 SWAP6 SWAP1 SWAP4 POP JUMP JUMPDEST PUSH1 0x0 DUP1 PUSH1 0x0 PUSH1 0x60 DUP5 DUP7 SUB SLT ISZERO PUSH2 0x1867 JUMPI PUSH1 0x0 DUP1 REVERT JUMPDEST PUSH2 0x1870 DUP5 PUSH2 0x1749 JUMP JUMPDEST SWAP6 PUSH1 0x20 DUP6 ADD CALLDATALOAD SWAP6 POP PUSH1 0x40 SWAP1 SWAP5 ADD CALLDATALOAD SWAP4 SWAP3 POP POP POP JUMP JUMPDEST PUSH1 0x0 PUSH1 0x20 DUP3 DUP5 SUB SLT ISZERO PUSH2 0x1897 JUMPI PUSH1 0x0 DUP1 REVERT JUMPDEST POP CALLDATALOAD SWAP2 SWAP1 POP JUMP JUMPDEST PUSH1 0x0 DUP1 PUSH1 0x0 PUSH1 0x60 DUP5 DUP7 SUB SLT ISZERO PUSH2 0x18B3 JUMPI PUSH1 0x0 DUP1 REVERT JUMPDEST PUSH2 0x18BC DUP5 PUSH2 0x1749 JUMP JUMPDEST SWAP3 POP PUSH2 0x18CA PUSH1 0x20 DUP6 ADD PUSH2 0x1749 JUMP JUMPDEST SWAP2 POP PUSH2 0x18D8 PUSH1 0x40 DUP6 ADD PUSH2 0x1749 JUMP JUMPDEST SWAP1 POP SWAP3 POP SWAP3 POP SWAP3 JUMP JUMPDEST PUSH1 0x0 DUP1 PUSH1 0x40 DUP4 DUP6 SUB SLT ISZERO PUSH2 0x18F4 JUMPI PUSH1 0x0 DUP1 REVERT JUMPDEST PUSH2 0x18FD DUP4 PUSH2 0x1749 JUMP JUMPDEST SWAP2 POP PUSH2 0x190B PUSH1 0x20 DUP5 ADD PUSH2 0x1749 JUMP JUMPDEST SWAP1 POP SWAP3 POP SWAP3 SWAP1 POP JUMP JUMPDEST PUSH1 0x1 DUP2 DUP2 SHR SWAP1 DUP3 AND DUP1 PUSH2 0x1928 JUMPI PUSH1 0x7F DUP3 AND SWAP2 POP JUMPDEST PUSH1 0x20 DUP3 LT DUP2 SUB PUSH2 0x1948 JUMPI PUSH4 0x4E487B71 PUSH1 0xE0 SHL PUSH1 0x0 MSTORE PUSH1 0x22 PUSH1 0x4 MSTORE PUSH1 0x24 PUSH1 0x0 REVERT JUMPDEST POP SWAP2 SWAP1 POP JUMP JUMPDEST PUSH4 0x4E487B71 PUSH1 0xE0 SHL PUSH1 0x0 MSTORE PUSH1 0x11 PUSH1 0x4 MSTORE PUSH1 0x24 PUSH1 0x0 REVERT JUMPDEST DUP1 DUP3 ADD DUP1 DUP3 GT ISZERO PUSH2 0x512 JUMPI PUSH2 0x512 PUSH2 0x194E JUMP JUMPDEST DUP1 DUP3 MUL DUP2 ISZERO DUP3 DUP3 DIV DUP5 EQ OR PUSH2 0x512 JUMPI PUSH2 0x512 PUSH2 0x194E JUMP JUMPDEST PUSH1 0x0 DUP3 PUSH2 0x19AB JUMPI PUSH4 0x4E487B71 PUSH1 0xE0 SHL PUSH1 0x0 MSTORE PUSH1 0x12 PUSH1 0x4 MSTORE PUSH1 0x24 PUSH1 0x0 REVERT JUMPDEST POP DIV SWAP1 JUMP JUMPDEST DUP2 DUP2 SUB DUP2 DUP2 GT ISZERO PUSH2 0x512 JUMPI PUSH2 0x512 PUSH2 0x194E JUMP JUMPDEST PUSH1 0x20 DUP1 DUP3 MSTORE PUSH1 0x2B SWAP1 DUP3 ADD MSTORE PUSH32 0x496E697469616C697A61626C653A20636F6E7472616374206973206E6F742069 PUSH1 0x40 DUP3 ADD MSTORE PUSH11 0x6E697469616C697A696E67 PUSH1 0xA8 SHL PUSH1 0x60 DUP3 ADD MSTORE PUSH1 0x80 ADD SWAP1 JUMP JUMPDEST PUSH4 0x4E487B71 PUSH1 0xE0 SHL PUSH1 0x0 MSTORE PUSH1 0x41 PUSH1 0x4 MSTORE PUSH1 0x24 PUSH1 0x0 REVERT JUMPDEST PUSH1 0x1F DUP3 GT ISZERO PUSH2 0x1261 JUMPI PUSH1 0x0 DUP2 PUSH1 0x0 MSTORE PUSH1 0x20 PUSH1 0x0 KECCAK256 PUSH1 0x1F DUP6 ADD PUSH1 0x5 SHR DUP2 ADD PUSH1 0x20 DUP7 LT ISZERO PUSH2 0x1A4D JUMPI POP DUP1 JUMPDEST PUSH1 0x1F DUP6 ADD PUSH1 0x5 SHR DUP3 ADD SWAP2 POP JUMPDEST DUP2 DUP2 LT ISZERO PUSH2 0xF1D JUMPI DUP3 DUP2 SSTORE PUSH1 0x1 ADD PUSH2 0x1A59 JUMP JUMPDEST DUP2 MLOAD PUSH8 0xFFFFFFFFFFFFFFFF DUP2 GT ISZERO PUSH2 0x1A86 JUMPI PUSH2 0x1A86 PUSH2 0x1A0E JUMP JUMPDEST PUSH2 0x1A9A DUP2 PUSH2 0x1A94 DUP5 SLOAD PUSH2 0x1914 JUMP JUMPDEST DUP5 PUSH2 0x1A24 JUMP JUMPDEST PUSH1 0x20 DUP1 PUSH1 0x1F DUP4 GT PUSH1 0x1 DUP2 EQ PUSH2 0x1ACF JUMPI PUSH1 0x0 DUP5 ISZERO PUSH2 0x1AB7 JUMPI POP DUP6 DUP4 ADD MLOAD JUMPDEST PUSH1 0x0 NOT PUSH1 0x3 DUP7 SWAP1 SHL SHR NOT AND PUSH1 0x1 DUP6 SWAP1 SHL OR DUP6 SSTORE PUSH2 0xF1D JUMP JUMPDEST PUSH1 0x0 DUP6 DUP2 MSTORE PUSH1 0x20 DUP2 KECCAK256 PUSH1 0x1F NOT DUP7 AND SWAP2 JUMPDEST DUP3 DUP2 LT ISZERO PUSH2 0x1AFE JUMPI DUP9 DUP7 ADD MLOAD DUP3 SSTORE SWAP5 DUP5 ADD SWAP5 PUSH1 0x1 SWAP1 SWAP2 ADD SWAP1 DUP5 ADD PUSH2 0x1ADF JUMP JUMPDEST POP DUP6 DUP3 LT ISZERO PUSH2 0x1B1C JUMPI DUP8 DUP6 ADD MLOAD PUSH1 0x0 NOT PUSH1 0x3 DUP9 SWAP1 SHL PUSH1 0xF8 AND SHR NOT AND DUP2 SSTORE JUMPDEST POP POP POP POP POP PUSH1 0x1 SWAP1 DUP2 SHL ADD SWAP1 SSTORE POP JUMP INVALID LOG2 PUSH5 0x6970667358 0x22 SLT KECCAK256 CALLDATALOAD 0x25 SWAP8 0xBA PUSH5 0x635FC98D5D DELEGATECALL PUSH14 0xD5B6456FA32B00A07BB8FDE87725 PUSH32 0x5E0ACA691164736F6C6343000816003300000000000000000000000000000000 "},"methodIdentifiers":{"MAX_SUPPLY()":"32cb6b0c","acceptOwnership()":"79ba5097","activateToken()":"f957417e","allowance(address,address)":"dd62ed3e","approve(address,uint256)":"095ea7b3","balanceOf(address)":"70a08231","burn(uint256)":"42966c68","burnFrom(address,uint256)":"79cc6790","currentSupply()":"771282f6","decimals()":"313ce567","decreaseAllowance(address,uint256)":"a457c2d7","emergencyPause()":"51858e27","evolutionReserve()":"5ebe7aa0","genesisDistribution(address,address,address,address,address)":"307237d3","increaseAllowance(address,uint256)":"39509351","initialize(address,address,address)":"c0c53b8b","mint(address,uint256)":"40c10f19","name()":"06fdde03","owner()":"8da5cb5b","pause()":"8456cb59","paused()":"5c975abb","payVaultFee(address,uint256)":"12a46858","pendingOwner()":"e30c3978","recordCulturalEvent(address,uint256,bytes32)":"3e7183a1","renounceOwnership()":"715018a6","setEvolutionReserve(address)":"23d5f394","setVaultAddress(address)":"85535cc5","symbol()":"95d89b41","totalSupply()":"18160ddd","transfer(address,uint256)":"a9059cbb","transferFrom(address,address,uint256)":"23b872dd","transferOwnership(address)":"f2fde38b","unpause()":"3f4ba83a","vaultAddress()":"430bf08a"}},"storageLayout":{"storage":[{"astId":656,"contract":"contracts/AncestorMoney.sol:AncestorMoney","label":"_initialized","offset":0,"slot":"0","type":"t_uint8"},{"astId":659,"contract":"contracts/AncestorMoney.sol:AncestorMoney","label":"_initializing","offset":1,"slot":"0","type":"t_bool"},{"astId":2192,"contract":"contracts/AncestorMoney.sol:AncestorMoney","label":"__gap","offset":0,"slot":"1","type":"t_array(t_uint256)50_storage"},{"astId":528,"contract":"contracts/AncestorMoney.sol:AncestorMoney","label":"_owner","offset":0,"slot":"51","type":"t_address"},{"astId":648,"contract":"contracts/AncestorMoney.sol:AncestorMoney","label":"__gap","offset":0,"slot":"52","type":"t_array(t_uint256)49_storage"},{"astId":1051,"contract":"contracts/AncestorMoney.sol:AncestorMoney","label":"_balances","offset":0,"slot":"101","type":"t_mapping(t_address,t_uint256)"},{"astId":1057,"contract":"contracts/AncestorMoney.sol:AncestorMoney","label":"_allowances","offset":0,"slot":"102","type":"t_mapping(t_address,t_mapping(t_address,t_uint256))"},{"astId":1059,"contract":"contracts/AncestorMoney.sol:AncestorMoney","label":"_totalSupply","offset":0,"slot":"103","type":"t_uint256"},{"astId":1061,"contract":"contracts/AncestorMoney.sol:AncestorMoney","label":"_name","offset":0,"slot":"104","type":"t_string_storage"},{"astId":1063,"contract":"contracts/AncestorMoney.sol:AncestorMoney","label":"_symbol","offset":0,"slot":"105","type":"t_string_storage"},{"astId":1643,"contract":"contracts/AncestorMoney.sol:AncestorMoney","label":"__gap","offset":0,"slot":"106","type":"t_array(t_uint256)45_storage"},{"astId":421,"contract":"contracts/AncestorMoney.sol:AncestorMoney","label":"_pendingOwner","offset":0,"slot":"151","type":"t_address"},{"astId":515,"contract":"contracts/AncestorMoney.sol:AncestorMoney","label":"__gap","offset":0,"slot":"152","type":"t_array(t_uint256)49_storage"},{"astId":840,"contract":"contracts/AncestorMoney.sol:AncestorMoney","label":"_paused","offset":0,"slot":"201","type":"t_bool"},{"astId":945,"contract":"contracts/AncestorMoney.sol:AncestorMoney","label":"__gap","offset":0,"slot":"202","type":"t_array(t_uint256)49_storage"},{"astId":1786,"contract":"contracts/AncestorMoney.sol:AncestorMoney","label":"__gap","offset":0,"slot":"251","type":"t_array(t_uint256)50_storage"},{"astId":5032,"contract":"contracts/AncestorMoney.sol:AncestorMoney","label":"currentSupply","offset":0,"slot":"301","type":"t_uint256"},{"astId":5034,"contract":"contracts/AncestorMoney.sol:AncestorMoney","label":"evolutionReserve","offset":0,"slot":"302","type":"t_address"},{"astId":5036,"contract":"contracts/AncestorMoney.sol:AncestorMoney","label":"vaultAddress","offset":0,"slot":"303","type":"t_address"}],"types":{"t_address":{"encoding":"inplace","label":"address","numberOfBytes":"20"},"t_array(t_uint256)45_storage":{"base":"t_uint256","encoding":"inplace","label":"uint256[45]","numberOfBytes":"1440"},"t_array(t_uint256)49_storage":{"base":"t_uint256","encoding":"inplace","label":"uint256[49]","numberOfBytes":"1568"},"t_array(t_uint256)50_storage":{"base":"t_uint256","encoding":"inplace","label":"uint256[50]","numberOfBytes":"1600"},"t_bool":{"encoding":"inplace","label":"bool","numberOfBytes":"1"},"t_mapping(t_address,t_mapping(t_address,t_uint256))":{"encoding":"mapping","key":"t_address","label":"mapping(address => mapping(address => uint256))","numberOfBytes":"32","value":"t_mapping(t_address,t_uint256)"},"t_mapping(t_address,t_uint256)":{"encoding":"mapping","key":"t_address","label":"mapping(address => uint256)","numberOfBytes":"32","value":"t_uint256"},"t_string_storage":{"encoding":"bytes","label":"string","numberOfBytes":"32"},"t_uint256":{"encoding":"inplace","label":"uint256","numberOfBytes":"32"},"t_uint8":{"encoding":"inplace","label":"uint8","numberOfBytes":"1"}}}}}}