{"contracts/SacredVault.sol":{"SacredVault":{"abi":[{"inputs":[],"stateMutability":"nonpayable","type":"constructor"},{"inputs":[],"name":"ArrayLengthMismatch","type":"error"},{"inputs":[],"name":"FeePaymentFailed","type":"error"},{"inputs":[],"name":"InheritanceConditionNotMet","type":"error"},{"inputs":[],"name":"InvalidConditionIndex","type":"error"},{"inputs":[],"name":"InvalidVaultId","type":"error"},{"inputs":[],"name":"LockPeriodNotOver","type":"error"},{"inputs":[],"name":"OnlyNewOwnerCanUnlock","type":"error"},{"inputs":[],"name":"OnlyOwnerCanAddConditions","type":"error"},{"inputs":[],"name":"TotalSharesMismatch","type":"error"},{"inputs":[],"name":"Unauthorized","type":"error"},{"inputs":[],"name":"VaultNotActive","type":"error"},{"inputs":[],"name":"VaultNotInInheritedState","type":"error"},{"anonymous":false,"inputs":[{"indexed":true,"internalType":"uint256","name":"vaultId","type":"uint256"},{"indexed":false,"internalType":"enum ISacredVault.ConditionType","name":"conditionType","type":"uint8"},{"indexed":false,"internalType":"uint256","name":"triggerValue","type":"uint256"}],"name":"ConditionAdded","type":"event"},{"anonymous":false,"inputs":[{"indexed":true,"internalType":"uint256","name":"vaultId","type":"uint256"},{"indexed":true,"internalType":"address","name":"oldOwner","type":"address"},{"indexed":true,"internalType":"address","name":"newOwner","type":"address"},{"indexed":false,"internalType":"enum ISacredVault.ConditionType","name":"conditionType","type":"uint8"}],"name":"InheritanceTriggered","type":"event"},{"anonymous":false,"inputs":[{"indexed":false,"internalType":"uint8","name":"version","type":"uint8"}],"name":"Initialized","type":"event"},{"anonymous":false,"inputs":[{"indexed":true,"internalType":"uint256","name":"vaultId","type":"uint256"},{"indexed":false,"internalType":"uint256","name":"amount","type":"uint256"}],"name":"MaintenanceFeePaid","type":"event"},{"anonymous":false,"inputs":[{"indexed":true,"internalType":"bytes32","name":"role","type":"bytes32"},{"indexed":true,"internalType":"bytes32","name":"previousAdminRole","type":"bytes32"},{"indexed":true,"internalType":"bytes32","name":"newAdminRole","type":"bytes32"}],"name":"RoleAdminChanged","type":"event"},{"anonymous":false,"inputs":[{"indexed":true,"internalType":"bytes32","name":"role","type":"bytes32"},{"indexed":true,"internalType":"address","name":"account","type":"address"},{"indexed":true,"internalType":"address","name":"sender","type":"address"}],"name":"RoleGranted","type":"event"},{"anonymous":false,"inputs":[{"indexed":true,"internalType":"bytes32","name":"role","type":"bytes32"},{"indexed":true,"internalType":"address","name":"account","type":"address"},{"indexed":true,"internalType":"address","name":"sender","type":"address"}],"name":"RoleRevoked","type":"event"},{"anonymous":false,"inputs":[{"indexed":true,"internalType":"uint256","name":"vaultId","type":"uint256"},{"indexed":true,"internalType":"address","name":"creator","type":"address"}],"name":"VaultCreated","type":"event"},{"anonymous":false,"inputs":[{"indexed":true,"internalType":"uint256","name":"vaultId","type":"uint256"}],"name":"VaultUnlocked","type":"event"},{"inputs":[],"name":"BENEFICIARY_ROLE","outputs":[{"internalType":"bytes32","name":"","type":"bytes32"}],"stateMutability":"view","type":"function"},{"inputs":[],"name":"CREATOR_ROLE","outputs":[{"internalType":"bytes32","name":"","type":"bytes32"}],"stateMutability":"view","type":"function"},{"inputs":[],"name":"DEFAULT_ADMIN_ROLE","outputs":[{"internalType":"bytes32","name":"","type":"bytes32"}],"stateMutability":"view","type":"function"},{"inputs":[{"internalType":"uint256","name":"_vaultId","type":"uint256"},{"components":[{"internalType":"enum ISacredVault.ConditionType","name":"conditionType","type":"uint8"},{"internalType":"uint256","name":"triggerValue","type":"uint256"},{"internalType":"bool","name":"isActive","type":"bool"}],"internalType":"struct ISacredVault.InheritanceCondition","name":"_condition","type":"tuple"}],"name":"addInheritanceCondition","outputs":[],"stateMutability":"nonpayable","type":"function"},{"inputs":[],"name":"amoneyToken","outputs":[{"internalType":"contract IAMONEY","name":"","type":"address"}],"stateMutability":"view","type":"function"},{"inputs":[{"internalType":"address","name":"_creator","type":"address"},{"internalType":"address[]","name":"_beneficiaries","type":"address[]"},{"internalType":"uint256[]","name":"_shares","type":"uint256[]"},{"internalType":"string","name":"_metadataURI","type":"string"},{"components":[{"internalType":"enum ISacredVault.ConditionType","name":"conditionType","type":"uint8"},{"internalType":"uint256","name":"triggerValue","type":"uint256"},{"internalType":"bool","name":"isActive","type":"bool"}],"internalType":"struct ISacredVault.InheritanceCondition[]","name":"_conditions","type":"tuple[]"}],"name":"createSacredVault","outputs":[{"internalType":"uint256","name":"","type":"uint256"}],"stateMutability":"nonpayable","type":"function"},{"inputs":[{"internalType":"uint256","name":"_vaultId","type":"uint256"},{"internalType":"uint256","name":"_conditionIndex","type":"uint256"}],"name":"executeInheritance","outputs":[],"stateMutability":"nonpayable","type":"function"},{"inputs":[{"internalType":"bytes32","name":"role","type":"bytes32"}],"name":"getRoleAdmin","outputs":[{"internalType":"bytes32","name":"","type":"bytes32"}],"stateMutability":"view","type":"function"},{"inputs":[{"internalType":"uint256","name":"_vaultId","type":"uint256"}],"name":"getVaultDetails","outputs":[{"internalType":"address","name":"creator","type":"address"},{"internalType":"address","name":"currentOwner","type":"address"},{"internalType":"uint256","name":"creationDate","type":"uint256"},{"internalType":"uint256","name":"lastMaintenance","type":"uint256"},{"internalType":"enum SacredVault.VaultStatus","name":"status","type":"uint8"},{"internalType":"string","name":"metadataURI","type":"string"},{"internalType":"address[]","name":"beneficiaries","type":"address[]"},{"internalType":"uint256","name":"culturalEnergy","type":"uint256"}],"stateMutability":"view","type":"function"},{"inputs":[{"internalType":"uint256","name":"_vaultId","type":"uint256"},{"internalType":"address","name":"_beneficiary","type":"address"}],"name":"getVaultShares","outputs":[{"internalType":"uint256","name":"","type":"uint256"}],"stateMutability":"view","type":"function"},{"inputs":[{"internalType":"bytes32","name":"role","type":"bytes32"},{"internalType":"address","name":"account","type":"address"}],"name":"grantRole","outputs":[],"stateMutability":"nonpayable","type":"function"},{"inputs":[{"internalType":"bytes32","name":"role","type":"bytes32"},{"internalType":"address","name":"account","type":"address"}],"name":"hasRole","outputs":[{"internalType":"bool","name":"","type":"bool"}],"stateMutability":"view","type":"function"},{"inputs":[{"internalType":"address","name":"_amoneyToken","type":"address"},{"internalType":"address","name":"initialAdmin","type":"address"}],"name":"initialize","outputs":[],"stateMutability":"nonpayable","type":"function"},{"inputs":[{"internalType":"uint256","name":"_vaultId","type":"uint256"},{"internalType":"uint256","name":"_amount","type":"uint256"}],"name":"payMaintenanceFee","outputs":[],"stateMutability":"nonpayable","type":"function"},{"inputs":[{"internalType":"bytes32","name":"role","type":"bytes32"},{"internalType":"address","name":"account","type":"address"}],"name":"renounceRole","outputs":[],"stateMutability":"nonpayable","type":"function"},{"inputs":[{"internalType":"bytes32","name":"role","type":"bytes32"},{"internalType":"address","name":"account","type":"address"}],"name":"revokeRole","outputs":[],"stateMutability":"nonpayable","type":"function"},{"inputs":[{"internalType":"bytes4","name":"interfaceId","type":"bytes4"}],"name":"supportsInterface","outputs":[{"internalType":"bool","name":"","type":"bool"}],"stateMutability":"view","type":"function"},{"inputs":[{"internalType":"uint256","name":"_vaultId","type":"uint256"}],"name":"unlockVault","outputs":[],"stateMutability":"nonpayable","type":"function"},{"inputs":[],"name":"vaultCounter","outputs":[{"internalType":"uint256","name":"","type":"uint256"}],"stateMutability":"view","type":"function"},{"inputs":[{"internalType":"uint256","name":"","type":"uint256"}],"name":"vaults","outputs":[{"internalType":"address","name":"creator","type":"address"},{"internalType":"address","name":"currentOwner","type":"address"},{"internalType":"uint256","name":"creationDate","type":"uint256"},{"internalType":"uint256","name":"lastMaintenance","type":"uint256"},{"internalType":"enum SacredVault.VaultStatus","name":"status","type":"uint8"},{"internalType":"string","name":"metadataURI","type":"string"},{"internalType":"uint256","name":"unlockingTimestamp","type":"uint256"},{"internalType":"uint256","name":"culturalEnergy","type":"uint256"}],"stateMutability":"view","type":"function"}],"evm":{"bytecode":{"linkReferences":{},"object":"608060405234801561001057600080fd5b5061001961001e565b6100dd565b600054610100900460ff161561008a5760405162461bcd60e51b815260206004820152602760248201527f496e697469616c697a61626c653a20636f6e747261637420697320696e697469604482015266616c697a696e6760c81b606482015260840160405180910390fd5b60005460ff908116146100db576000805460ff191660ff9081179091556040519081527f7f26b83ff96e1f2b6a682f133852f6798a09c465da95921460cefb38474024989060200160405180910390a15b565b611bfa806100ec6000396000f3fe608060405234801561001057600080fd5b506004361061012c5760003560e01c80638c64ea4a116100ad578063c0b579c011610071578063c0b579c0146102d5578063cb775b29146102fc578063ced3a4031461030f578063d547741f14610336578063f265e3e61461034957600080fd5b80638c64ea4a1461027757806391d148541461029e578063a217fddf146102b1578063a742328d146102b9578063ac958041146102cc57600080fd5b8063485cc955116100f4578063485cc955146101dd57806357aa6f49146101f05780637d80277f146102035780638a50c6391461023d5780638aeda25a1461025057600080fd5b806301ffc9a7146101315780630a043cd814610159578063248a9ca3146101845780632f2ff15d146101b557806336568abe146101ca575b600080fd5b61014461013f3660046113d5565b61035c565b60405190151581526020015b60405180910390f35b60c95461016c906001600160a01b031681565b6040516001600160a01b039091168152602001610150565b6101a76101923660046113ff565b60009081526065602052604090206001015490565b604051908152602001610150565b6101c86101c3366004611434565b610393565b005b6101c86101d8366004611434565b6103bd565b6101c86101eb366004611460565b610440565b6101c86101fe3660046113ff565b610580565b6101a7610211366004611434565b600082815260ca602090815260408083206001600160a01b038516845260070190915290205492915050565b6101a761024b36600461151b565b610654565b6101a77f828634d95e775031b9ff576b159a8509d3053581a8c9c4d7d86899e0afcd882f81565b61028a6102853660046113ff565b610934565b6040516101509897969594939291906116a4565b6101446102ac366004611434565b610a11565b6101a7600081565b6101c86102c7366004611704565b610a3c565b6101a760cb5481565b6102e86102e33660046113ff565b610c36565b604051610150989796959493929190611726565b6101c861030a3660046117c3565b610d99565b6101a77fc8a41221bcd7fcf2c225f5a9265e1d4d39949d89197159d59e5f4b87b62c419e81565b6101c8610344366004611434565b610e4c565b6101c8610357366004611704565b610e71565b60006001600160e01b03198216637965db0b60e01b148061038d57506301ffc9a760e01b6001600160e01b03198316145b92915050565b6000828152606560205260409020600101546103ae81610fae565b6103b88383610fbb565b505050565b6001600160a01b03811633146104325760405162461bcd60e51b815260206004820152602f60248201527f416363657373436f6e74726f6c3a2063616e206f6e6c792072656e6f756e636560448201526e103937b632b9903337b91039b2b63360891b60648201526084015b60405180910390fd5b61043c8282611041565b5050565b600054610100900460ff16158080156104605750600054600160ff909116105b8061047a5750303b15801561047a575060005460ff166001145b6104dd5760405162461bcd60e51b815260206004820152602e60248201527f496e697469616c697a61626c653a20636f6e747261637420697320616c72656160448201526d191e481a5b9a5d1a585b1a5e995960921b6064820152608401610429565b6000805460ff191660011790558015610500576000805461ff0019166101001790555b6105086110a8565b6105106110d1565b60c980546001600160a01b0319166001600160a01b038516179055610536600083610fbb565b80156103b8576000805461ff0019169055604051600181527f7f26b83ff96e1f2b6a682f133852f6798a09c465da95921460cefb38474024989060200160405180910390a1505050565b600081815260ca602052604090206001600482015460ff1660028111156105a9576105a9611620565b146105c757604051631b4e27cd60e31b815260040160405180910390fd5b80600901544210156105ec57604051630f41413160e01b815260040160405180910390fd5b60018101546001600160a01b0316331461061957604051630eabcc4760e31b815260040160405180910390fd5b60048101805460ff1916905560405182907f3a119f7ba8b2d0b50b2052497850fdad1464c8f48288498812ad2673e06f6c8390600090a25050565b60008786146106765760405163512509d360e11b815260040160405180910390fd5b6000805b878110156106b057888882818110610694576106946117fb565b90506020020135826106a69190611827565b915060010161067a565b50806103e8146106d3576040516337dfdd3560e11b815260040160405180910390fd5b60cb805490819060006106e58361183a565b9091555050600081815260ca6020526040902080546001600160a01b038e166001600160a01b0319918216811783556001830180549092161790554260028201819055600382015560048101805460ff1916905560058101610748888a836118f3565b5060005b858110156107a2578160080187878381811061076a5761076a6117fb565b83546001810185556000948552602090942060609091029290920192600302909101905061079882826119cf565b505060010161074c565b5060005b8b8110156108c357816006018d8d838181106107c4576107c46117fb565b90506020020160208101906107d99190611a22565b81546001810183556000928352602090922090910180546001600160a01b0319166001600160a01b039092169190911790558a8a8281811061081d5761081d6117fb565b905060200201358260070160008f8f8581811061083c5761083c6117fb565b90506020020160208101906108519190611a22565b6001600160a01b031681526020810191909152604001600020556108bb7fc8a41221bcd7fcf2c225f5a9265e1d4d39949d89197159d59e5f4b87b62c419e8e8e848181106108a1576108a16117fb565b90506020020160208101906108b69190611a22565b610fbb565b6001016107a6565b506108ee7f828634d95e775031b9ff576b159a8509d3053581a8c9c4d7d86899e0afcd882f8e610fbb565b6040516001600160a01b038e169083907fbf3e9c93de94306b70ac5b9411edf475545815333bf651b894b9eada6482c59490600090a3509b9a5050505050505050505050565b60ca602052600090815260409020805460018201546002830154600384015460048501546005860180546001600160a01b039687169796909516959394929360ff9092169261098290611869565b80601f01602080910402602001604051908101604052809291908181526020018280546109ae90611869565b80156109fb5780601f106109d0576101008083540402835291602001916109fb565b820191906000526020600020905b8154815290600101906020018083116109de57829003601f168201915b50505050509080600901549080600a0154905088565b60009182526065602090815260408084206001600160a01b0393909316845291905290205460ff1690565b610a44611100565b600082815260ca6020526040812090600482015460ff166002811115610a6c57610a6c611620565b14610a8a57604051630440ee7560e21b815260040160405180910390fd5b60cb548310610aac576040516319d2ee1360e01b815260040160405180910390fd5b60088101548210610ad0576040516308bf9def60e31b815260040160405180910390fd5b6000816008018381548110610ae757610ae76117fb565b60009182526020822060408051606081019091526003909202018054909350610b5691908490829060ff166002811115610b2357610b23611620565b6002811115610b3457610b34611620565b81526001820154602082015260029091015460ff161515604090910152611159565b905080610b7557604051627d215b60e11b815260040160405180910390fd5b60048301805460ff19166001179055610b914262278d00611827565b8360090181905550600083600601600081548110610bb157610bb16117fb565b6000918252602090912001546001850180546001600160a01b0319166001600160a01b03928316908117909155855485546040519294508493919091169189917fc7d41b083eb17e6c3916a321d99c71a573b4daeebbadc7aad28baa4f9219a52791610c209160ff1690611a3d565b60405180910390a45050505061043c6001609755565b600081815260ca6020526040812080546001820154600283015460038401546004850154600a860154600587018054899889988998899860609889988b9895976001600160a01b039586169794909516959294919360ff9091169260068901918390610ca190611869565b80601f0160208091040260200160405190810160405280929190818152602001828054610ccd90611869565b8015610d1a5780601f10610cef57610100808354040283529160200191610d1a565b820191906000526020600020905b815481529060010190602001808311610cfd57829003601f168201915b5050505050925081805480602002602001604051908101604052809291908181526020018280548015610d7657602002820191906000526020600020905b81546001600160a01b03168152600190910190602001808311610d58575b505050505091509850985098509850985098509850985050919395975091939597565b600082815260ca6020526040902060018101546001600160a01b03163314610dd4576040516321b6025160e01b815260040160405180910390fd5b60088101805460018101825560009182526020909120839160030201610dfa82826119cf565b508390507fbc569191d4bb57c7dd1032bb9258e7603e46fbeb6ef7cae8bfb70ab4599e0284610e2c6020850185611a50565b8460200135604051610e3f929190611a6d565b60405180910390a2505050565b600082815260656020526040902060010154610e6781610fae565b6103b88383611041565b610e79611100565b600082815260ca6020526040902060018101546001600160a01b03163314610eb3576040516282b42960e81b815260040160405180910390fd5b60c9546040516302548d0b60e31b8152336004820152602481018490526001600160a01b03909116906312a46858906044016020604051808303816000875af1158015610f04573d6000803e3d6000fd5b505050506040513d601f19601f82011682018060405250810190610f289190611a84565b610f455760405163f0e492a360e01b815260040160405180910390fd5b426003820155610f56600a83611aa1565b81600a016000828254610f699190611827565b909155505060405182815283907f6fd508b85361dbfe08ea3a9f297b640f8c49234925d157495423008316c3519b9060200160405180910390a25061043c6001609755565b610fb881336111a0565b50565b610fc58282610a11565b61043c5760008281526065602090815260408083206001600160a01b03851684529091529020805460ff19166001179055610ffd3390565b6001600160a01b0316816001600160a01b0316837f2f8788117e7eff1d82e926ec794901d17c78024a50270940304540a733656f0d60405160405180910390a45050565b61104b8282610a11565b1561043c5760008281526065602090815260408083206001600160a01b0385168085529252808320805460ff1916905551339285917ff6391f5c32d9c69d2a47ea670b442974b53935d1edc7fd64eb21e047a839171b9190a45050565b600054610100900460ff166110cf5760405162461bcd60e51b815260040161042990611ac3565b565b600054610100900460ff166110f85760405162461bcd60e51b815260040161042990611ac3565b6110cf6111f9565b6002609754036111525760405162461bcd60e51b815260206004820152601f60248201527f5265656e7472616e637947756172643a207265656e7472616e742063616c6c006044820152606401610429565b6002609755565b6000816040015161116c57506000919050565b60008251600281111561118157611181611620565b0361119157506020015142101590565b506000919050565b6001609755565b6111aa8282610a11565b61043c576111b781611220565b6111c2836020611232565b6040516020016111d3929190611b0e565b60408051601f198184030181529082905262461bcd60e51b825261042991600401611b83565b600054610100900460ff166111995760405162461bcd60e51b815260040161042990611ac3565b606061038d6001600160a01b03831660145b60606000611241836002611b96565b61124c906002611827565b67ffffffffffffffff81111561126457611264611853565b6040519080825280601f01601f19166020018201604052801561128e576020820181803683370190505b509050600360fc1b816000815181106112a9576112a96117fb565b60200101906001600160f81b031916908160001a905350600f60fb1b816001815181106112d8576112d86117fb565b60200101906001600160f81b031916908160001a90535060006112fc846002611b96565b611307906001611827565b90505b600181111561137f576f181899199a1a9b1b9c1cb0b131b232b360811b85600f166010811061133b5761133b6117fb565b1a60f81b828281518110611351576113516117fb565b60200101906001600160f81b031916908160001a90535060049490941c9361137881611bad565b905061130a565b5083156113ce5760405162461bcd60e51b815260206004820181905260248201527f537472696e67733a20686578206c656e67746820696e73756666696369656e746044820152606401610429565b9392505050565b6000602082840312156113e757600080fd5b81356001600160e01b0319811681146113ce57600080fd5b60006020828403121561141157600080fd5b5035919050565b80356001600160a01b038116811461142f57600080fd5b919050565b6000806040838503121561144757600080fd5b8235915061145760208401611418565b90509250929050565b6000806040838503121561147357600080fd5b61147c83611418565b915061145760208401611418565b60008083601f84011261149c57600080fd5b50813567ffffffffffffffff8111156114b457600080fd5b6020830191508360208260051b85010111156114cf57600080fd5b9250929050565b60008083601f8401126114e857600080fd5b50813567ffffffffffffffff81111561150057600080fd5b6020830191508360206060830285010111156114cf57600080fd5b600080600080600080600080600060a08a8c03121561153957600080fd5b6115428a611418565b985060208a013567ffffffffffffffff8082111561155f57600080fd5b61156b8d838e0161148a565b909a50985060408c013591508082111561158457600080fd5b6115908d838e0161148a565b909850965060608c01359150808211156115a957600080fd5b818c0191508c601f8301126115bd57600080fd5b8135818111156115cc57600080fd5b8d60208285010111156115de57600080fd5b6020830196508095505060808c01359150808211156115fc57600080fd5b506116098c828d016114d6565b915080935050809150509295985092959850929598565b634e487b7160e01b600052602160045260246000fd5b60038110610fb857634e487b7160e01b600052602160045260246000fd5b60005b8381101561166f578181015183820152602001611657565b50506000910152565b60008151808452611690816020860160208601611654565b601f01601f19169290920160200192915050565b6001600160a01b03898116825288166020820152604081018790526060810186905260006101006116d487611636565b8660808401528060a08401526116ec81840187611678565b60c0840195909552505060e001529695505050505050565b6000806040838503121561171757600080fd5b50508035926020909101359150565b600061010060018060a01b03808c1684526020818c1660208601528a604086015289606086015261175689611636565b8860808601528260a086015261176e83860189611678565b85810360c087015287518082526020808a0195509091019060005b818110156117a7578551851683529483019491830191600101611789565b5050809450505050508260e08301529998505050505050505050565b60008082840360808112156117d757600080fd5b833592506060601f19820112156117ed57600080fd5b506020830190509250929050565b634e487b7160e01b600052603260045260246000fd5b634e487b7160e01b600052601160045260246000fd5b8082018082111561038d5761038d611811565b60006001820161184c5761184c611811565b5060010190565b634e487b7160e01b600052604160045260246000fd5b600181811c9082168061187d57607f821691505b60208210810361189d57634e487b7160e01b600052602260045260246000fd5b50919050565b601f8211156103b8576000816000526020600020601f850160051c810160208610156118cc5750805b601f850160051c820191505b818110156118eb578281556001016118d8565b505050505050565b67ffffffffffffffff83111561190b5761190b611853565b61191f836119198354611869565b836118a3565b6000601f841160018114611953576000851561193b5750838201355b600019600387901b1c1916600186901b1783556119ad565b600083815260209020601f19861690835b828110156119845786850135825560209485019460019092019101611964565b50868210156119a15760001960f88860031b161c19848701351681555b505060018560011b0183555b5050505050565b60038110610fb857600080fd5b8015158114610fb857600080fd5b81356119da816119b4565b6119e381611636565b815460ff9190911660ff199182161782556020830135600183015560028201906040840135611a11816119c1565b825490151560ff1691161790555050565b600060208284031215611a3457600080fd5b6113ce82611418565b60208101611a4a83611636565b91905290565b600060208284031215611a6257600080fd5b81356113ce816119b4565b60408101611a7a84611636565b9281526020015290565b600060208284031215611a9657600080fd5b81516113ce816119c1565b600082611abe57634e487b7160e01b600052601260045260246000fd5b500490565b6020808252602b908201527f496e697469616c697a61626c653a20636f6e7472616374206973206e6f74206960408201526a6e697469616c697a696e6760a81b606082015260800190565b7f416363657373436f6e74726f6c3a206163636f756e7420000000000000000000815260008351611b46816017850160208801611654565b7001034b99036b4b9b9b4b733903937b6329607d1b6017918401918201528351611b77816028840160208801611654565b01602801949350505050565b6020815260006113ce6020830184611678565b808202811582820484141761038d5761038d611811565b600081611bbc57611bbc611811565b50600019019056fea26469706673582212209fb5d85cdb881274ad1db5b76052b19dfc8f84ab4c71aae732737cc130be394964736f6c63430008160033","opcodes":"PUSH1 0x80 PUSH1 0x40 MSTORE CALLVALUE DUP1 ISZERO PUSH2 0x10 JUMPI PUSH1 0x0 DUP1 REVERT JUMPDEST POP PUSH2 0x19 PUSH2 0x1E JUMP JUMPDEST PUSH2 0xDD JUMP JUMPDEST PUSH1 0x0 SLOAD PUSH2 0x100 SWAP1 DIV PUSH1 0xFF AND ISZERO PUSH2 0x8A JUMPI PUSH1 0x40 MLOAD PUSH3 0x461BCD PUSH1 0xE5 SHL DUP2 MSTORE PUSH1 0x20 PUSH1 0x4 DUP3 ADD MSTORE PUSH1 0x27 PUSH1 0x24 DUP3 ADD MSTORE PUSH32 0x496E697469616C697A61626C653A20636F6E747261637420697320696E697469 PUSH1 0x44 DUP3 ADD MSTORE PUSH7 0x616C697A696E67 PUSH1 0xC8 SHL PUSH1 0x64 DUP3 ADD MSTORE PUSH1 0x84 ADD PUSH1 0x40 MLOAD DUP1 SWAP2 SUB SWAP1 REVERT JUMPDEST PUSH1 0x0 SLOAD PUSH1 0xFF SWAP1 DUP2 AND EQ PUSH2 0xDB JUMPI PUSH1 0x0 DUP1 SLOAD PUSH1 0xFF NOT AND PUSH1 0xFF SWAP1 DUP2 OR SWAP1 SWAP2 SSTORE PUSH1 0x40 MLOAD SWAP1 DUP2 MSTORE PUSH32 0x7F26B83FF96E1F2B6A682F133852F6798A09C465DA95921460CEFB3847402498 SWAP1 PUSH1 0x20 ADD PUSH1 0x40 MLOAD DUP1 SWAP2 SUB SWAP1 LOG1 JUMPDEST JUMP JUMPDEST PUSH2 0x1BFA DUP1 PUSH2 0xEC PUSH1 0x0 CODECOPY PUSH1 0x0 RETURN INVALID PUSH1 0x80 PUSH1 0x40 MSTORE CALLVALUE DUP1 ISZERO PUSH2 0x10 JUMPI PUSH1 0x0 DUP1 REVERT JUMPDEST POP PUSH1 0x4 CALLDATASIZE LT PUSH2 0x12C JUMPI PUSH1 0x0 CALLDATALOAD PUSH1 0xE0 SHR DUP1 PUSH4 0x8C64EA4A GT PUSH2 0xAD JUMPI DUP1 PUSH4 0xC0B579C0 GT PUSH2 0x71 JUMPI DUP1 PUSH4 0xC0B579C0 EQ PUSH2 0x2D5 JUMPI DUP1 PUSH4 0xCB775B29 EQ PUSH2 0x2FC JUMPI DUP1 PUSH4 0xCED3A403 EQ PUSH2 0x30F JUMPI DUP1 PUSH4 0xD547741F EQ PUSH2 0x336 JUMPI DUP1 PUSH4 0xF265E3E6 EQ PUSH2 0x349 JUMPI PUSH1 0x0 DUP1 REVERT JUMPDEST DUP1 PUSH4 0x8C64EA4A EQ PUSH2 0x277 JUMPI DUP1 PUSH4 0x91D14854 EQ PUSH2 0x29E JUMPI DUP1 PUSH4 0xA217FDDF EQ PUSH2 0x2B1 JUMPI DUP1 PUSH4 0xA742328D EQ PUSH2 0x2B9 JUMPI DUP1 PUSH4 0xAC958041 EQ PUSH2 0x2CC JUMPI PUSH1 0x0 DUP1 REVERT JUMPDEST DUP1 PUSH4 0x485CC955 GT PUSH2 0xF4 JUMPI DUP1 PUSH4 0x485CC955 EQ PUSH2 0x1DD JUMPI DUP1 PUSH4 0x57AA6F49 EQ PUSH2 0x1F0 JUMPI DUP1 PUSH4 0x7D80277F EQ PUSH2 0x203 JUMPI DUP1 PUSH4 0x8A50C639 EQ PUSH2 0x23D JUMPI DUP1 PUSH4 0x8AEDA25A EQ PUSH2 0x250 JUMPI PUSH1 0x0 DUP1 REVERT JUMPDEST DUP1 PUSH4 0x1FFC9A7 EQ PUSH2 0x131 JUMPI DUP1 PUSH4 0xA043CD8 EQ PUSH2 0x159 JUMPI DUP1 PUSH4 0x248A9CA3 EQ PUSH2 0x184 JUMPI DUP1 PUSH4 0x2F2FF15D EQ PUSH2 0x1B5 JUMPI DUP1 PUSH4 0x36568ABE EQ PUSH2 0x1CA JUMPI JUMPDEST PUSH1 0x0 DUP1 REVERT JUMPDEST PUSH2 0x144 PUSH2 0x13F CALLDATASIZE PUSH1 0x4 PUSH2 0x13D5 JUMP JUMPDEST PUSH2 0x35C JUMP JUMPDEST PUSH1 0x40 MLOAD SWAP1 ISZERO ISZERO DUP2 MSTORE PUSH1 0x20 ADD JUMPDEST PUSH1 0x40 MLOAD DUP1 SWAP2 SUB SWAP1 RETURN JUMPDEST PUSH1 0xC9 SLOAD PUSH2 0x16C SWAP1 PUSH1 0x1 PUSH1 0x1 PUSH1 0xA0 SHL SUB AND DUP2 JUMP JUMPDEST PUSH1 0x40 MLOAD PUSH1 0x1 PUSH1 0x1 PUSH1 0xA0 SHL SUB SWAP1 SWAP2 AND DUP2 MSTORE PUSH1 0x20 ADD PUSH2 0x150 JUMP JUMPDEST PUSH2 0x1A7 PUSH2 0x192 CALLDATASIZE PUSH1 0x4 PUSH2 0x13FF JUMP JUMPDEST PUSH1 0x0 SWAP1 DUP2 MSTORE PUSH1 0x65 PUSH1 0x20 MSTORE PUSH1 0x40 SWAP1 KECCAK256 PUSH1 0x1 ADD SLOAD SWAP1 JUMP JUMPDEST PUSH1 0x40 MLOAD SWAP1 DUP2 MSTORE PUSH1 0x20 ADD PUSH2 0x150 JUMP JUMPDEST PUSH2 0x1C8 PUSH2 0x1C3 CALLDATASIZE PUSH1 0x4 PUSH2 0x1434 JUMP JUMPDEST PUSH2 0x393 JUMP JUMPDEST STOP JUMPDEST PUSH2 0x1C8 PUSH2 0x1D8 CALLDATASIZE PUSH1 0x4 PUSH2 0x1434 JUMP JUMPDEST PUSH2 0x3BD JUMP JUMPDEST PUSH2 0x1C8 PUSH2 0x1EB CALLDATASIZE PUSH1 0x4 PUSH2 0x1460 JUMP JUMPDEST PUSH2 0x440 JUMP JUMPDEST PUSH2 0x1C8 PUSH2 0x1FE CALLDATASIZE PUSH1 0x4 PUSH2 0x13FF JUMP JUMPDEST PUSH2 0x580 JUMP JUMPDEST PUSH2 0x1A7 PUSH2 0x211 CALLDATASIZE PUSH1 0x4 PUSH2 0x1434 JUMP JUMPDEST PUSH1 0x0 DUP3 DUP2 MSTORE PUSH1 0xCA PUSH1 0x20 SWAP1 DUP2 MSTORE PUSH1 0x40 DUP1 DUP4 KECCAK256 PUSH1 0x1 PUSH1 0x1 PUSH1 0xA0 SHL SUB DUP6 AND DUP5 MSTORE PUSH1 0x7 ADD SWAP1 SWAP2 MSTORE SWAP1 KECCAK256 SLOAD SWAP3 SWAP2 POP POP JUMP JUMPDEST PUSH2 0x1A7 PUSH2 0x24B CALLDATASIZE PUSH1 0x4 PUSH2 0x151B JUMP JUMPDEST PUSH2 0x654 JUMP JUMPDEST PUSH2 0x1A7 PUSH32 0x828634D95E775031B9FF576B159A8509D3053581A8C9C4D7D86899E0AFCD882F DUP2 JUMP JUMPDEST PUSH2 0x28A PUSH2 0x285 CALLDATASIZE PUSH1 0x4 PUSH2 0x13FF JUMP JUMPDEST PUSH2 0x934 JUMP JUMPDEST PUSH1 0x40 MLOAD PUSH2 0x150 SWAP9 SWAP8 SWAP7 SWAP6 SWAP5 SWAP4 SWAP3 SWAP2 SWAP1 PUSH2 0x16A4 JUMP JUMPDEST PUSH2 0x144 PUSH2 0x2AC CALLDATASIZE PUSH1 0x4 PUSH2 0x1434 JUMP JUMPDEST PUSH2 0xA11 JUMP JUMPDEST PUSH2 0x1A7 PUSH1 0x0 DUP2 JUMP JUMPDEST PUSH2 0x1C8 PUSH2 0x2C7 CALLDATASIZE PUSH1 0x4 PUSH2 0x1704 JUMP JUMPDEST PUSH2 0xA3C JUMP JUMPDEST PUSH2 0x1A7 PUSH1 0xCB SLOAD DUP2 JUMP JUMPDEST PUSH2 0x2E8 PUSH2 0x2E3 CALLDATASIZE PUSH1 0x4 PUSH2 0x13FF JUMP JUMPDEST PUSH2 0xC36 JUMP JUMPDEST PUSH1 0x40 MLOAD PUSH2 0x150 SWAP9 SWAP8 SWAP7 SWAP6 SWAP5 SWAP4 SWAP3 SWAP2 SWAP1 PUSH2 0x1726 JUMP JUMPDEST PUSH2 0x1C8 PUSH2 0x30A CALLDATASIZE PUSH1 0x4 PUSH2 0x17C3 JUMP JUMPDEST PUSH2 0xD99 JUMP JUMPDEST PUSH2 0x1A7 PUSH32 0xC8A41221BCD7FCF2C225F5A9265E1D4D39949D89197159D59E5F4B87B62C419E DUP2 JUMP JUMPDEST PUSH2 0x1C8 PUSH2 0x344 CALLDATASIZE PUSH1 0x4 PUSH2 0x1434 JUMP JUMPDEST PUSH2 0xE4C JUMP JUMPDEST PUSH2 0x1C8 PUSH2 0x357 CALLDATASIZE PUSH1 0x4 PUSH2 0x1704 JUMP JUMPDEST PUSH2 0xE71 JUMP JUMPDEST PUSH1 0x0 PUSH1 0x1 PUSH1 0x1 PUSH1 0xE0 SHL SUB NOT DUP3 AND PUSH4 0x7965DB0B PUSH1 0xE0 SHL EQ DUP1 PUSH2 0x38D JUMPI POP PUSH4 0x1FFC9A7 PUSH1 0xE0 SHL PUSH1 0x1 PUSH1 0x1 PUSH1 0xE0 SHL SUB NOT DUP4 AND EQ JUMPDEST SWAP3 SWAP2 POP POP JUMP JUMPDEST PUSH1 0x0 DUP3 DUP2 MSTORE PUSH1 0x65 PUSH1 0x20 MSTORE PUSH1 0x40 SWAP1 KECCAK256 PUSH1 0x1 ADD SLOAD PUSH2 0x3AE DUP2 PUSH2 0xFAE JUMP JUMPDEST PUSH2 0x3B8 DUP4 DUP4 PUSH2 0xFBB JUMP JUMPDEST POP POP POP JUMP JUMPDEST PUSH1 0x1 PUSH1 0x1 PUSH1 0xA0 SHL SUB DUP2 AND CALLER EQ PUSH2 0x432 JUMPI PUSH1 0x40 MLOAD PUSH3 0x461BCD PUSH1 0xE5 SHL DUP2 MSTORE PUSH1 0x20 PUSH1 0x4 DUP3 ADD MSTORE PUSH1 0x2F PUSH1 0x24 DUP3 ADD MSTORE PUSH32 0x416363657373436F6E74726F6C3A2063616E206F6E6C792072656E6F756E6365 PUSH1 0x44 DUP3 ADD MSTORE PUSH15 0x103937B632B9903337B91039B2B633 PUSH1 0x89 SHL PUSH1 0x64 DUP3 ADD MSTORE PUSH1 0x84 ADD JUMPDEST PUSH1 0x40 MLOAD DUP1 SWAP2 SUB SWAP1 REVERT JUMPDEST PUSH2 0x43C DUP3 DUP3 PUSH2 0x1041 JUMP JUMPDEST POP POP JUMP JUMPDEST PUSH1 0x0 SLOAD PUSH2 0x100 SWAP1 DIV PUSH1 0xFF AND ISZERO DUP1 DUP1 ISZERO PUSH2 0x460 JUMPI POP PUSH1 0x0 SLOAD PUSH1 0x1 PUSH1 0xFF SWAP1 SWAP2 AND LT JUMPDEST DUP1 PUSH2 0x47A JUMPI POP ADDRESS EXTCODESIZE ISZERO DUP1 ISZERO PUSH2 0x47A JUMPI POP PUSH1 0x0 SLOAD PUSH1 0xFF AND PUSH1 0x1 EQ JUMPDEST PUSH2 0x4DD JUMPI PUSH1 0x40 MLOAD PUSH3 0x461BCD PUSH1 0xE5 SHL DUP2 MSTORE PUSH1 0x20 PUSH1 0x4 DUP3 ADD MSTORE PUSH1 0x2E PUSH1 0x24 DUP3 ADD MSTORE PUSH32 0x496E697469616C697A61626C653A20636F6E747261637420697320616C726561 PUSH1 0x44 DUP3 ADD MSTORE PUSH14 0x191E481A5B9A5D1A585B1A5E9959 PUSH1 0x92 SHL PUSH1 0x64 DUP3 ADD MSTORE PUSH1 0x84 ADD PUSH2 0x429 JUMP JUMPDEST PUSH1 0x0 DUP1 SLOAD PUSH1 0xFF NOT AND PUSH1 0x1 OR SWAP1 SSTORE DUP1 ISZERO PUSH2 0x500 JUMPI PUSH1 0x0 DUP1 SLOAD PUSH2 0xFF00 NOT AND PUSH2 0x100 OR SWAP1 SSTORE JUMPDEST PUSH2 0x508 PUSH2 0x10A8 JUMP JUMPDEST PUSH2 0x510 PUSH2 0x10D1 JUMP JUMPDEST PUSH1 0xC9 DUP1 SLOAD PUSH1 0x1 PUSH1 0x1 PUSH1 0xA0 SHL SUB NOT AND PUSH1 0x1 PUSH1 0x1 PUSH1 0xA0 SHL SUB DUP6 AND OR SWAP1 SSTORE PUSH2 0x536 PUSH1 0x0 DUP4 PUSH2 0xFBB JUMP JUMPDEST DUP1 ISZERO PUSH2 0x3B8 JUMPI PUSH1 0x0 DUP1 SLOAD PUSH2 0xFF00 NOT AND SWAP1 SSTORE PUSH1 0x40 MLOAD PUSH1 0x1 DUP2 MSTORE PUSH32 0x7F26B83FF96E1F2B6A682F133852F6798A09C465DA95921460CEFB3847402498 SWAP1 PUSH1 0x20 ADD PUSH1 0x40 MLOAD DUP1 SWAP2 SUB SWAP1 LOG1 POP POP POP JUMP JUMPDEST PUSH1 0x0 DUP2 DUP2 MSTORE PUSH1 0xCA PUSH1 0x20 MSTORE PUSH1 0x40 SWAP1 KECCAK256 PUSH1 0x1 PUSH1 0x4 DUP3 ADD SLOAD PUSH1 0xFF AND PUSH1 0x2 DUP2 GT ISZERO PUSH2 0x5A9 JUMPI PUSH2 0x5A9 PUSH2 0x1620 JUMP JUMPDEST EQ PUSH2 0x5C7 JUMPI PUSH1 0x40 MLOAD PUSH4 0x1B4E27CD PUSH1 0xE3 SHL DUP2 MSTORE PUSH1 0x4 ADD PUSH1 0x40 MLOAD DUP1 SWAP2 SUB SWAP1 REVERT JUMPDEST DUP1 PUSH1 0x9 ADD SLOAD TIMESTAMP LT ISZERO PUSH2 0x5EC JUMPI PUSH1 0x40 MLOAD PUSH4 0xF414131 PUSH1 0xE0 SHL DUP2 MSTORE PUSH1 0x4 ADD PUSH1 0x40 MLOAD DUP1 SWAP2 SUB SWAP1 REVERT JUMPDEST PUSH1 0x1 DUP2 ADD SLOAD PUSH1 0x1 PUSH1 0x1 PUSH1 0xA0 SHL SUB AND CALLER EQ PUSH2 0x619 JUMPI PUSH1 0x40 MLOAD PUSH4 0xEABCC47 PUSH1 0xE3 SHL DUP2 MSTORE PUSH1 0x4 ADD PUSH1 0x40 MLOAD DUP1 SWAP2 SUB SWAP1 REVERT JUMPDEST PUSH1 0x4 DUP2 ADD DUP1 SLOAD PUSH1 0xFF NOT AND SWAP1 SSTORE PUSH1 0x40 MLOAD DUP3 SWAP1 PUSH32 0x3A119F7BA8B2D0B50B2052497850FDAD1464C8F48288498812AD2673E06F6C83 SWAP1 PUSH1 0x0 SWAP1 LOG2 POP POP JUMP JUMPDEST PUSH1 0x0 DUP8 DUP7 EQ PUSH2 0x676 JUMPI PUSH1 0x40 MLOAD PUSH4 0x512509D3 PUSH1 0xE1 SHL DUP2 MSTORE PUSH1 0x4 ADD PUSH1 0x40 MLOAD DUP1 SWAP2 SUB SWAP1 REVERT JUMPDEST PUSH1 0x0 DUP1 JUMPDEST DUP8 DUP2 LT ISZERO PUSH2 0x6B0 JUMPI DUP9 DUP9 DUP3 DUP2 DUP2 LT PUSH2 0x694 JUMPI PUSH2 0x694 PUSH2 0x17FB JUMP JUMPDEST SWAP1 POP PUSH1 0x20 MUL ADD CALLDATALOAD DUP3 PUSH2 0x6A6 SWAP2 SWAP1 PUSH2 0x1827 JUMP JUMPDEST SWAP2 POP PUSH1 0x1 ADD PUSH2 0x67A JUMP JUMPDEST POP DUP1 PUSH2 0x3E8 EQ PUSH2 0x6D3 JUMPI PUSH1 0x40 MLOAD PUSH4 0x37DFDD35 PUSH1 0xE1 SHL DUP2 MSTORE PUSH1 0x4 ADD PUSH1 0x40 MLOAD DUP1 SWAP2 SUB SWAP1 REVERT JUMPDEST PUSH1 0xCB DUP1 SLOAD SWAP1 DUP2 SWAP1 PUSH1 0x0 PUSH2 0x6E5 DUP4 PUSH2 0x183A JUMP JUMPDEST SWAP1 SWAP2 SSTORE POP POP PUSH1 0x0 DUP2 DUP2 MSTORE PUSH1 0xCA PUSH1 0x20 MSTORE PUSH1 0x40 SWAP1 KECCAK256 DUP1 SLOAD PUSH1 0x1 PUSH1 0x1 PUSH1 0xA0 SHL SUB DUP15 AND PUSH1 0x1 PUSH1 0x1 PUSH1 0xA0 SHL SUB NOT SWAP2 DUP3 AND DUP2 OR DUP4 SSTORE PUSH1 0x1 DUP4 ADD DUP1 SLOAD SWAP1 SWAP3 AND OR SWAP1 SSTORE TIMESTAMP PUSH1 0x2 DUP3 ADD DUP2 SWAP1 SSTORE PUSH1 0x3 DUP3 ADD SSTORE PUSH1 0x4 DUP2 ADD DUP1 SLOAD PUSH1 0xFF NOT AND SWAP1 SSTORE PUSH1 0x5 DUP2 ADD PUSH2 0x748 DUP9 DUP11 DUP4 PUSH2 0x18F3 JUMP JUMPDEST POP PUSH1 0x0 JUMPDEST DUP6 DUP2 LT ISZERO PUSH2 0x7A2 JUMPI DUP2 PUSH1 0x8 ADD DUP8 DUP8 DUP4 DUP2 DUP2 LT PUSH2 0x76A JUMPI PUSH2 0x76A PUSH2 0x17FB JUMP JUMPDEST DUP4 SLOAD PUSH1 0x1 DUP2 ADD DUP6 SSTORE PUSH1 0x0 SWAP5 DUP6 MSTORE PUSH1 0x20 SWAP1 SWAP5 KECCAK256 PUSH1 0x60 SWAP1 SWAP2 MUL SWAP3 SWAP1 SWAP3 ADD SWAP3 PUSH1 0x3 MUL SWAP1 SWAP2 ADD SWAP1 POP PUSH2 0x798 DUP3 DUP3 PUSH2 0x19CF JUMP JUMPDEST POP POP PUSH1 0x1 ADD PUSH2 0x74C JUMP JUMPDEST POP PUSH1 0x0 JUMPDEST DUP12 DUP2 LT ISZERO PUSH2 0x8C3 JUMPI DUP2 PUSH1 0x6 ADD DUP14 DUP14 DUP4 DUP2 DUP2 LT PUSH2 0x7C4 JUMPI PUSH2 0x7C4 PUSH2 0x17FB JUMP JUMPDEST SWAP1 POP PUSH1 0x20 MUL ADD PUSH1 0x20 DUP2 ADD SWAP1 PUSH2 0x7D9 SWAP2 SWAP1 PUSH2 0x1A22 JUMP JUMPDEST DUP2 SLOAD PUSH1 0x1 DUP2 ADD DUP4 SSTORE PUSH1 0x0 SWAP3 DUP4 MSTORE PUSH1 0x20 SWAP1 SWAP3 KECCAK256 SWAP1 SWAP2 ADD DUP1 SLOAD PUSH1 0x1 PUSH1 0x1 PUSH1 0xA0 SHL SUB NOT AND PUSH1 0x1 PUSH1 0x1 PUSH1 0xA0 SHL SUB SWAP1 SWAP3 AND SWAP2 SWAP1 SWAP2 OR SWAP1 SSTORE DUP11 DUP11 DUP3 DUP2 DUP2 LT PUSH2 0x81D JUMPI PUSH2 0x81D PUSH2 0x17FB JUMP JUMPDEST SWAP1 POP PUSH1 0x20 MUL ADD CALLDATALOAD DUP3 PUSH1 0x7 ADD PUSH1 0x0 DUP16 DUP16 DUP6 DUP2 DUP2 LT PUSH2 0x83C JUMPI PUSH2 0x83C PUSH2 0x17FB JUMP JUMPDEST SWAP1 POP PUSH1 0x20 MUL ADD PUSH1 0x20 DUP2 ADD SWAP1 PUSH2 0x851 SWAP2 SWAP1 PUSH2 0x1A22 JUMP JUMPDEST PUSH1 0x1 PUSH1 0x1 PUSH1 0xA0 SHL SUB AND DUP2 MSTORE PUSH1 0x20 DUP2 ADD SWAP2 SWAP1 SWAP2 MSTORE PUSH1 0x40 ADD PUSH1 0x0 KECCAK256 SSTORE PUSH2 0x8BB PUSH32 0xC8A41221BCD7FCF2C225F5A9265E1D4D39949D89197159D59E5F4B87B62C419E DUP15 DUP15 DUP5 DUP2 DUP2 LT PUSH2 0x8A1 JUMPI PUSH2 0x8A1 PUSH2 0x17FB JUMP JUMPDEST SWAP1 POP PUSH1 0x20 MUL ADD PUSH1 0x20 DUP2 ADD SWAP1 PUSH2 0x8B6 SWAP2 SWAP1 PUSH2 0x1A22 JUMP JUMPDEST PUSH2 0xFBB JUMP JUMPDEST PUSH1 0x1 ADD PUSH2 0x7A6 JUMP JUMPDEST POP PUSH2 0x8EE PUSH32 0x828634D95E775031B9FF576B159A8509D3053581A8C9C4D7D86899E0AFCD882F DUP15 PUSH2 0xFBB JUMP JUMPDEST PUSH1 0x40 MLOAD PUSH1 0x1 PUSH1 0x1 PUSH1 0xA0 SHL SUB DUP15 AND SWAP1 DUP4 SWAP1 PUSH32 0xBF3E9C93DE94306B70AC5B9411EDF475545815333BF651B894B9EADA6482C594 SWAP1 PUSH1 0x0 SWAP1 LOG3 POP SWAP12 SWAP11 POP POP POP POP POP POP POP POP POP POP POP JUMP JUMPDEST PUSH1 0xCA PUSH1 0x20 MSTORE PUSH1 0x0 SWAP1 DUP2 MSTORE PUSH1 0x40 SWAP1 KECCAK256 DUP1 SLOAD PUSH1 0x1 DUP3 ADD SLOAD PUSH1 0x2 DUP4 ADD SLOAD PUSH1 0x3 DUP5 ADD SLOAD PUSH1 0x4 DUP6 ADD SLOAD PUSH1 0x5 DUP7 ADD DUP1 SLOAD PUSH1 0x1 PUSH1 0x1 PUSH1 0xA0 SHL SUB SWAP7 DUP8 AND SWAP8 SWAP7 SWAP1 SWAP6 AND SWAP6 SWAP4 SWAP5 SWAP3 SWAP4 PUSH1 0xFF SWAP1 SWAP3 AND SWAP3 PUSH2 0x982 SWAP1 PUSH2 0x1869 JUMP JUMPDEST DUP1 PUSH1 0x1F ADD PUSH1 0x20 DUP1 SWAP2 DIV MUL PUSH1 0x20 ADD PUSH1 0x40 MLOAD SWAP1 DUP2 ADD PUSH1 0x40 MSTORE DUP1 SWAP3 SWAP2 SWAP1 DUP2 DUP2 MSTORE PUSH1 0x20 ADD DUP3 DUP1 SLOAD PUSH2 0x9AE SWAP1 PUSH2 0x1869 JUMP JUMPDEST DUP1 ISZERO PUSH2 0x9FB JUMPI DUP1 PUSH1 0x1F LT PUSH2 0x9D0 JUMPI PUSH2 0x100 DUP1 DUP4 SLOAD DIV MUL DUP4 MSTORE SWAP2 PUSH1 0x20 ADD SWAP2 PUSH2 0x9FB JUMP JUMPDEST DUP3 ADD SWAP2 SWAP1 PUSH1 0x0 MSTORE PUSH1 0x20 PUSH1 0x0 KECCAK256 SWAP1 JUMPDEST DUP2 SLOAD DUP2 MSTORE SWAP1 PUSH1 0x1 ADD SWAP1 PUSH1 0x20 ADD DUP1 DUP4 GT PUSH2 0x9DE JUMPI DUP3 SWAP1 SUB PUSH1 0x1F AND DUP3 ADD SWAP2 JUMPDEST POP POP POP POP POP SWAP1 DUP1 PUSH1 0x9 ADD SLOAD SWAP1 DUP1 PUSH1 0xA ADD SLOAD SWAP1 POP DUP9 JUMP JUMPDEST PUSH1 0x0 SWAP2 DUP3 MSTORE PUSH1 0x65 PUSH1 0x20 SWAP1 DUP2 MSTORE PUSH1 0x40 DUP1 DUP5 KECCAK256 PUSH1 0x1 PUSH1 0x1 PUSH1 0xA0 SHL SUB SWAP4 SWAP1 SWAP4 AND DUP5 MSTORE SWAP2 SWAP1 MSTORE SWAP1 KECCAK256 SLOAD PUSH1 0xFF AND SWAP1 JUMP JUMPDEST PUSH2 0xA44 PUSH2 0x1100 JUMP JUMPDEST PUSH1 0x0 DUP3 DUP2 MSTORE PUSH1 0xCA PUSH1 0x20 MSTORE PUSH1 0x40 DUP2 KECCAK256 SWAP1 PUSH1 0x4 DUP3 ADD SLOAD PUSH1 0xFF AND PUSH1 0x2 DUP2 GT ISZERO PUSH2 0xA6C JUMPI PUSH2 0xA6C PUSH2 0x1620 JUMP JUMPDEST EQ PUSH2 0xA8A JUMPI PUSH1 0x40 MLOAD PUSH4 0x440EE75 PUSH1 0xE2 SHL DUP2 MSTORE PUSH1 0x4 ADD PUSH1 0x40 MLOAD DUP1 SWAP2 SUB SWAP1 REVERT JUMPDEST PUSH1 0xCB SLOAD DUP4 LT PUSH2 0xAAC JUMPI PUSH1 0x40 MLOAD PUSH4 0x19D2EE13 PUSH1 0xE0 SHL DUP2 MSTORE PUSH1 0x4 ADD PUSH1 0x40 MLOAD DUP1 SWAP2 SUB SWAP1 REVERT JUMPDEST PUSH1 0x8 DUP2 ADD SLOAD DUP3 LT PUSH2 0xAD0 JUMPI PUSH1 0x40 MLOAD PUSH4 0x8BF9DEF PUSH1 0xE3 SHL DUP2 MSTORE PUSH1 0x4 ADD PUSH1 0x40 MLOAD DUP1 SWAP2 SUB SWAP1 REVERT JUMPDEST PUSH1 0x0 DUP2 PUSH1 0x8 ADD DUP4 DUP2 SLOAD DUP2 LT PUSH2 0xAE7 JUMPI PUSH2 0xAE7 PUSH2 0x17FB JUMP JUMPDEST PUSH1 0x0 SWAP2 DUP3 MSTORE PUSH1 0x20 DUP3 KECCAK256 PUSH1 0x40 DUP1 MLOAD PUSH1 0x60 DUP2 ADD SWAP1 SWAP2 MSTORE PUSH1 0x3 SWAP1 SWAP3 MUL ADD DUP1 SLOAD SWAP1 SWAP4 POP PUSH2 0xB56 SWAP2 SWAP1 DUP5 SWAP1 DUP3 SWAP1 PUSH1 0xFF AND PUSH1 0x2 DUP2 GT ISZERO PUSH2 0xB23 JUMPI PUSH2 0xB23 PUSH2 0x1620 JUMP JUMPDEST PUSH1 0x2 DUP2 GT ISZERO PUSH2 0xB34 JUMPI PUSH2 0xB34 PUSH2 0x1620 JUMP JUMPDEST DUP2 MSTORE PUSH1 0x1 DUP3 ADD SLOAD PUSH1 0x20 DUP3 ADD MSTORE PUSH1 0x2 SWAP1 SWAP2 ADD SLOAD PUSH1 0xFF AND ISZERO ISZERO PUSH1 0x40 SWAP1 SWAP2 ADD MSTORE PUSH2 0x1159 JUMP JUMPDEST SWAP1 POP DUP1 PUSH2 0xB75 JUMPI PUSH1 0x40 MLOAD PUSH3 0x7D215B PUSH1 0xE1 SHL DUP2 MSTORE PUSH1 0x4 ADD PUSH1 0x40 MLOAD DUP1 SWAP2 SUB SWAP1 REVERT JUMPDEST PUSH1 0x4 DUP4 ADD DUP1 SLOAD PUSH1 0xFF NOT AND PUSH1 0x1 OR SWAP1 SSTORE PUSH2 0xB91 TIMESTAMP PUSH3 0x278D00 PUSH2 0x1827 JUMP JUMPDEST DUP4 PUSH1 0x9 ADD DUP2 SWAP1 SSTORE POP PUSH1 0x0 DUP4 PUSH1 0x6 ADD PUSH1 0x0 DUP2 SLOAD DUP2 LT PUSH2 0xBB1 JUMPI PUSH2 0xBB1 PUSH2 0x17FB JUMP JUMPDEST PUSH1 0x0 SWAP2 DUP3 MSTORE PUSH1 0x20 SWAP1 SWAP2 KECCAK256 ADD SLOAD PUSH1 0x1 DUP6 ADD DUP1 SLOAD PUSH1 0x1 PUSH1 0x1 PUSH1 0xA0 SHL SUB NOT AND PUSH1 0x1 PUSH1 0x1 PUSH1 0xA0 SHL SUB SWAP3 DUP4 AND SWAP1 DUP2 OR SWAP1 SWAP2 SSTORE DUP6 SLOAD DUP6 SLOAD PUSH1 0x40 MLOAD SWAP3 SWAP5 POP DUP5 SWAP4 SWAP2 SWAP1 SWAP2 AND SWAP2 DUP10 SWAP2 PUSH32 0xC7D41B083EB17E6C3916A321D99C71A573B4DAEEBBADC7AAD28BAA4F9219A527 SWAP2 PUSH2 0xC20 SWAP2 PUSH1 0xFF AND SWAP1 PUSH2 0x1A3D JUMP JUMPDEST PUSH1 0x40 MLOAD DUP1 SWAP2 SUB SWAP1 LOG4 POP POP POP POP PUSH2 0x43C PUSH1 0x1 PUSH1 0x97 SSTORE JUMP JUMPDEST PUSH1 0x0 DUP2 DUP2 MSTORE PUSH1 0xCA PUSH1 0x20 MSTORE PUSH1 0x40 DUP2 KECCAK256 DUP1 SLOAD PUSH1 0x1 DUP3 ADD SLOAD PUSH1 0x2 DUP4 ADD SLOAD PUSH1 0x3 DUP5 ADD SLOAD PUSH1 0x4 DUP6 ADD SLOAD PUSH1 0xA DUP7 ADD SLOAD PUSH1 0x5 DUP8 ADD DUP1 SLOAD DUP10 SWAP9 DUP10 SWAP9 DUP10 SWAP9 DUP10 SWAP9 PUSH1 0x60 SWAP9 DUP10 SWAP9 DUP12 SWAP9 SWAP6 SWAP8 PUSH1 0x1 PUSH1 0x1 PUSH1 0xA0 SHL SUB SWAP6 DUP7 AND SWAP8 SWAP5 SWAP1 SWAP6 AND SWAP6 SWAP3 SWAP5 SWAP2 SWAP4 PUSH1 0xFF SWAP1 SWAP2 AND SWAP3 PUSH1 0x6 DUP10 ADD SWAP2 DUP4 SWAP1 PUSH2 0xCA1 SWAP1 PUSH2 0x1869 JUMP JUMPDEST DUP1 PUSH1 0x1F ADD PUSH1 0x20 DUP1 SWAP2 DIV MUL PUSH1 0x20 ADD PUSH1 0x40 MLOAD SWAP1 DUP2 ADD PUSH1 0x40 MSTORE DUP1 SWAP3 SWAP2 SWAP1 DUP2 DUP2 MSTORE PUSH1 0x20 ADD DUP3 DUP1 SLOAD PUSH2 0xCCD SWAP1 PUSH2 0x1869 JUMP JUMPDEST DUP1 ISZERO PUSH2 0xD1A JUMPI DUP1 PUSH1 0x1F LT PUSH2 0xCEF JUMPI PUSH2 0x100 DUP1 DUP4 SLOAD DIV MUL DUP4 MSTORE SWAP2 PUSH1 0x20 ADD SWAP2 PUSH2 0xD1A JUMP JUMPDEST DUP3 ADD SWAP2 SWAP1 PUSH1 0x0 MSTORE PUSH1 0x20 PUSH1 0x0 KECCAK256 SWAP1 JUMPDEST DUP2 SLOAD DUP2 MSTORE SWAP1 PUSH1 0x1 ADD SWAP1 PUSH1 0x20 ADD DUP1 DUP4 GT PUSH2 0xCFD JUMPI DUP3 SWAP1 SUB PUSH1 0x1F AND DUP3 ADD SWAP2 JUMPDEST POP POP POP POP POP SWAP3 POP DUP2 DUP1 SLOAD DUP1 PUSH1 0x20 MUL PUSH1 0x20 ADD PUSH1 0x40 MLOAD SWAP1 DUP2 ADD PUSH1 0x40 MSTORE DUP1 SWAP3 SWAP2 SWAP1 DUP2 DUP2 MSTORE PUSH1 0x20 ADD DUP3 DUP1 SLOAD DUP1 ISZERO PUSH2 0xD76 JUMPI PUSH1 0x20 MUL DUP3 ADD SWAP2 SWAP1 PUSH1 0x0 MSTORE PUSH1 0x20 PUSH1 0x0 KECCAK256 SWAP1 JUMPDEST DUP2 SLOAD PUSH1 0x1 PUSH1 0x1 PUSH1 0xA0 SHL SUB AND DUP2 MSTORE PUSH1 0x1 SWAP1 SWAP2 ADD SWAP1 PUSH1 0x20 ADD DUP1 DUP4 GT PUSH2 0xD58 JUMPI JUMPDEST POP POP POP POP POP SWAP2 POP SWAP9 POP SWAP9 POP SWAP9 POP SWAP9 POP SWAP9 POP SWAP9 POP SWAP9 POP SWAP9 POP POP SWAP2 SWAP4 SWAP6 SWAP8 POP SWAP2 SWAP4 SWAP6 SWAP8 JUMP JUMPDEST PUSH1 0x0 DUP3 DUP2 MSTORE PUSH1 0xCA PUSH1 0x20 MSTORE PUSH1 0x40 SWAP1 KECCAK256 PUSH1 0x1 DUP2 ADD SLOAD PUSH1 0x1 PUSH1 0x1 PUSH1 0xA0 SHL SUB AND CALLER EQ PUSH2 0xDD4 JUMPI PUSH1 0x40 MLOAD PUSH4 0x21B60251 PUSH1 0xE0 SHL DUP2 MSTORE PUSH1 0x4 ADD PUSH1 0x40 MLOAD DUP1 SWAP2 SUB SWAP1 REVERT JUMPDEST PUSH1 0x8 DUP2 ADD DUP1 SLOAD PUSH1 0x1 DUP2 ADD DUP3 SSTORE PUSH1 0x0 SWAP2 DUP3 MSTORE PUSH1 0x20 SWAP1 SWAP2 KECCAK256 DUP4 SWAP2 PUSH1 0x3 MUL ADD PUSH2 0xDFA DUP3 DUP3 PUSH2 0x19CF JUMP JUMPDEST POP DUP4 SWAP1 POP PUSH32 0xBC569191D4BB57C7DD1032BB9258E7603E46FBEB6EF7CAE8BFB70AB4599E0284 PUSH2 0xE2C PUSH1 0x20 DUP6 ADD DUP6 PUSH2 0x1A50 JUMP JUMPDEST DUP5 PUSH1 0x20 ADD CALLDATALOAD PUSH1 0x40 MLOAD PUSH2 0xE3F SWAP3 SWAP2 SWAP1 PUSH2 0x1A6D JUMP JUMPDEST PUSH1 0x40 MLOAD DUP1 SWAP2 SUB SWAP1 LOG2 POP POP POP JUMP JUMPDEST PUSH1 0x0 DUP3 DUP2 MSTORE PUSH1 0x65 PUSH1 0x20 MSTORE PUSH1 0x40 SWAP1 KECCAK256 PUSH1 0x1 ADD SLOAD PUSH2 0xE67 DUP2 PUSH2 0xFAE JUMP JUMPDEST PUSH2 0x3B8 DUP4 DUP4 PUSH2 0x1041 JUMP JUMPDEST PUSH2 0xE79 PUSH2 0x1100 JUMP JUMPDEST PUSH1 0x0 DUP3 DUP2 MSTORE PUSH1 0xCA PUSH1 0x20 MSTORE PUSH1 0x40 SWAP1 KECCAK256 PUSH1 0x1 DUP2 ADD SLOAD PUSH1 0x1 PUSH1 0x1 PUSH1 0xA0 SHL SUB AND CALLER EQ PUSH2 0xEB3 JUMPI PUSH1 0x40 MLOAD PUSH3 0x82B429 PUSH1 0xE8 SHL DUP2 MSTORE PUSH1 0x4 ADD PUSH1 0x40 MLOAD DUP1 SWAP2 SUB SWAP1 REVERT JUMPDEST PUSH1 0xC9 SLOAD PUSH1 0x40 MLOAD PUSH4 0x2548D0B PUSH1 0xE3 SHL DUP2 MSTORE CALLER PUSH1 0x4 DUP3 ADD MSTORE PUSH1 0x24 DUP2 ADD DUP5 SWAP1 MSTORE PUSH1 0x1 PUSH1 0x1 PUSH1 0xA0 SHL SUB SWAP1 SWAP2 AND SWAP1 PUSH4 0x12A46858 SWAP1 PUSH1 0x44 ADD PUSH1 0x20 PUSH1 0x40 MLOAD DUP1 DUP4 SUB DUP2 PUSH1 0x0 DUP8 GAS CALL ISZERO DUP1 ISZERO PUSH2 0xF04 JUMPI RETURNDATASIZE PUSH1 0x0 DUP1 RETURNDATACOPY RETURNDATASIZE PUSH1 0x0 REVERT JUMPDEST POP POP POP POP PUSH1 0x40 MLOAD RETURNDATASIZE PUSH1 0x1F NOT PUSH1 0x1F DUP3 ADD AND DUP3 ADD DUP1 PUSH1 0x40 MSTORE POP DUP2 ADD SWAP1 PUSH2 0xF28 SWAP2 SWAP1 PUSH2 0x1A84 JUMP JUMPDEST PUSH2 0xF45 JUMPI PUSH1 0x40 MLOAD PUSH4 0xF0E492A3 PUSH1 0xE0 SHL DUP2 MSTORE PUSH1 0x4 ADD PUSH1 0x40 MLOAD DUP1 SWAP2 SUB SWAP1 REVERT JUMPDEST TIMESTAMP PUSH1 0x3 DUP3 ADD SSTORE PUSH2 0xF56 PUSH1 0xA DUP4 PUSH2 0x1AA1 JUMP JUMPDEST DUP2 PUSH1 0xA ADD PUSH1 0x0 DUP3 DUP3 SLOAD PUSH2 0xF69 SWAP2 SWAP1 PUSH2 0x1827 JUMP JUMPDEST SWAP1 SWAP2 SSTORE POP POP PUSH1 0x40 MLOAD DUP3 DUP2 MSTORE DUP4 SWAP1 PUSH32 0x6FD508B85361DBFE08EA3A9F297B640F8C49234925D157495423008316C3519B SWAP1 PUSH1 0x20 ADD PUSH1 0x40 MLOAD DUP1 SWAP2 SUB SWAP1 LOG2 POP PUSH2 0x43C PUSH1 0x1 PUSH1 0x97 SSTORE JUMP JUMPDEST PUSH2 0xFB8 DUP2 CALLER PUSH2 0x11A0 JUMP JUMPDEST POP JUMP JUMPDEST PUSH2 0xFC5 DUP3 DUP3 PUSH2 0xA11 JUMP JUMPDEST PUSH2 0x43C JUMPI PUSH1 0x0 DUP3 DUP2 MSTORE PUSH1 0x65 PUSH1 0x20 SWAP1 DUP2 MSTORE PUSH1 0x40 DUP1 DUP4 KECCAK256 PUSH1 0x1 PUSH1 0x1 PUSH1 0xA0 SHL SUB DUP6 AND DUP5 MSTORE SWAP1 SWAP2 MSTORE SWAP1 KECCAK256 DUP1 SLOAD PUSH1 0xFF NOT AND PUSH1 0x1 OR SWAP1 SSTORE PUSH2 0xFFD CALLER SWAP1 JUMP JUMPDEST PUSH1 0x1 PUSH1 0x1 PUSH1 0xA0 SHL SUB AND DUP2 PUSH1 0x1 PUSH1 0x1 PUSH1 0xA0 SHL SUB AND DUP4 PUSH32 0x2F8788117E7EFF1D82E926EC794901D17C78024A50270940304540A733656F0D PUSH1 0x40 MLOAD PUSH1 0x40 MLOAD DUP1 SWAP2 SUB SWAP1 LOG4 POP POP JUMP JUMPDEST PUSH2 0x104B DUP3 DUP3 PUSH2 0xA11 JUMP JUMPDEST ISZERO PUSH2 0x43C JUMPI PUSH1 0x0 DUP3 DUP2 MSTORE PUSH1 0x65 PUSH1 0x20 SWAP1 DUP2 MSTORE PUSH1 0x40 DUP1 DUP4 KECCAK256 PUSH1 0x1 PUSH1 0x1 PUSH1 0xA0 SHL SUB DUP6 AND DUP1 DUP6 MSTORE SWAP3 MSTORE DUP1 DUP4 KECCAK256 DUP1 SLOAD PUSH1 0xFF NOT AND SWAP1 SSTORE MLOAD CALLER SWAP3 DUP6 SWAP2 PUSH32 0xF6391F5C32D9C69D2A47EA670B442974B53935D1EDC7FD64EB21E047A839171B SWAP2 SWAP1 LOG4 POP POP JUMP JUMPDEST PUSH1 0x0 SLOAD PUSH2 0x100 SWAP1 DIV PUSH1 0xFF AND PUSH2 0x10CF JUMPI PUSH1 0x40 MLOAD PUSH3 0x461BCD PUSH1 0xE5 SHL DUP2 MSTORE PUSH1 0x4 ADD PUSH2 0x429 SWAP1 PUSH2 0x1AC3 JUMP JUMPDEST JUMP JUMPDEST PUSH1 0x0 SLOAD PUSH2 0x100 SWAP1 DIV PUSH1 0xFF AND PUSH2 0x10F8 JUMPI PUSH1 0x40 MLOAD PUSH3 0x461BCD PUSH1 0xE5 SHL DUP2 MSTORE PUSH1 0x4 ADD PUSH2 0x429 SWAP1 PUSH2 0x1AC3 JUMP JUMPDEST PUSH2 0x10CF PUSH2 0x11F9 JUMP JUMPDEST PUSH1 0x2 PUSH1 0x97 SLOAD SUB PUSH2 0x1152 JUMPI PUSH1 0x40 MLOAD PUSH3 0x461BCD PUSH1 0xE5 SHL DUP2 MSTORE PUSH1 0x20 PUSH1 0x4 DUP3 ADD MSTORE PUSH1 0x1F PUSH1 0x24 DUP3 ADD MSTORE PUSH32 0x5265656E7472616E637947756172643A207265656E7472616E742063616C6C00 PUSH1 0x44 DUP3 ADD MSTORE PUSH1 0x64 ADD PUSH2 0x429 JUMP JUMPDEST PUSH1 0x2 PUSH1 0x97 SSTORE JUMP JUMPDEST PUSH1 0x0 DUP2 PUSH1 0x40 ADD MLOAD PUSH2 0x116C JUMPI POP PUSH1 0x0 SWAP2 SWAP1 POP JUMP JUMPDEST PUSH1 0x0 DUP3 MLOAD PUSH1 0x2 DUP2 GT ISZERO PUSH2 0x1181 JUMPI PUSH2 0x1181 PUSH2 0x1620 JUMP JUMPDEST SUB PUSH2 0x1191 JUMPI POP PUSH1 0x20 ADD MLOAD TIMESTAMP LT ISZERO SWAP1 JUMP JUMPDEST POP PUSH1 0x0 SWAP2 SWAP1 POP JUMP JUMPDEST PUSH1 0x1 PUSH1 0x97 SSTORE JUMP JUMPDEST PUSH2 0x11AA DUP3 DUP3 PUSH2 0xA11 JUMP JUMPDEST PUSH2 0x43C JUMPI PUSH2 0x11B7 DUP2 PUSH2 0x1220 JUMP JUMPDEST PUSH2 0x11C2 DUP4 PUSH1 0x20 PUSH2 0x1232 JUMP JUMPDEST PUSH1 0x40 MLOAD PUSH1 0x20 ADD PUSH2 0x11D3 SWAP3 SWAP2 SWAP1 PUSH2 0x1B0E JUMP JUMPDEST PUSH1 0x40 DUP1 MLOAD PUSH1 0x1F NOT DUP2 DUP5 SUB ADD DUP2 MSTORE SWAP1 DUP3 SWAP1 MSTORE PUSH3 0x461BCD PUSH1 0xE5 SHL DUP3 MSTORE PUSH2 0x429 SWAP2 PUSH1 0x4 ADD PUSH2 0x1B83 JUMP JUMPDEST PUSH1 0x0 SLOAD PUSH2 0x100 SWAP1 DIV PUSH1 0xFF AND PUSH2 0x1199 JUMPI PUSH1 0x40 MLOAD PUSH3 0x461BCD PUSH1 0xE5 SHL DUP2 MSTORE PUSH1 0x4 ADD PUSH2 0x429 SWAP1 PUSH2 0x1AC3 JUMP JUMPDEST PUSH1 0x60 PUSH2 0x38D PUSH1 0x1 PUSH1 0x1 PUSH1 0xA0 SHL SUB DUP4 AND PUSH1 0x14 JUMPDEST PUSH1 0x60 PUSH1 0x0 PUSH2 0x1241 DUP4 PUSH1 0x2 PUSH2 0x1B96 JUMP JUMPDEST PUSH2 0x124C SWAP1 PUSH1 0x2 PUSH2 0x1827 JUMP JUMPDEST PUSH8 0xFFFFFFFFFFFFFFFF DUP2 GT ISZERO PUSH2 0x1264 JUMPI PUSH2 0x1264 PUSH2 0x1853 JUMP JUMPDEST PUSH1 0x40 MLOAD SWAP1 DUP1 DUP3 MSTORE DUP1 PUSH1 0x1F ADD PUSH1 0x1F NOT AND PUSH1 0x20 ADD DUP3 ADD PUSH1 0x40 MSTORE DUP1 ISZERO PUSH2 0x128E JUMPI PUSH1 0x20 DUP3 ADD DUP2 DUP1 CALLDATASIZE DUP4 CALLDATACOPY ADD SWAP1 POP JUMPDEST POP SWAP1 POP PUSH1 0x3 PUSH1 0xFC SHL DUP2 PUSH1 0x0 DUP2 MLOAD DUP2 LT PUSH2 0x12A9 JUMPI PUSH2 0x12A9 PUSH2 0x17FB JUMP JUMPDEST PUSH1 0x20 ADD ADD SWAP1 PUSH1 0x1 PUSH1 0x1 PUSH1 0xF8 SHL SUB NOT AND SWAP1 DUP2 PUSH1 0x0 BYTE SWAP1 MSTORE8 POP PUSH1 0xF PUSH1 0xFB SHL DUP2 PUSH1 0x1 DUP2 MLOAD DUP2 LT PUSH2 0x12D8 JUMPI PUSH2 0x12D8 PUSH2 0x17FB JUMP JUMPDEST PUSH1 0x20 ADD ADD SWAP1 PUSH1 0x1 PUSH1 0x1 PUSH1 0xF8 SHL SUB NOT AND SWAP1 DUP2 PUSH1 0x0 BYTE SWAP1 MSTORE8 POP PUSH1 0x0 PUSH2 0x12FC DUP5 PUSH1 0x2 PUSH2 0x1B96 JUMP JUMPDEST PUSH2 0x1307 SWAP1 PUSH1 0x1 PUSH2 0x1827 JUMP JUMPDEST SWAP1 POP JUMPDEST PUSH1 0x1 DUP2 GT ISZERO PUSH2 0x137F JUMPI PUSH16 0x181899199A1A9B1B9C1CB0B131B232B3 PUSH1 0x81 SHL DUP6 PUSH1 0xF AND PUSH1 0x10 DUP2 LT PUSH2 0x133B JUMPI PUSH2 0x133B PUSH2 0x17FB JUMP JUMPDEST BYTE PUSH1 0xF8 SHL DUP3 DUP3 DUP2 MLOAD DUP2 LT PUSH2 0x1351 JUMPI PUSH2 0x1351 PUSH2 0x17FB JUMP JUMPDEST PUSH1 0x20 ADD ADD SWAP1 PUSH1 0x1 PUSH1 0x1 PUSH1 0xF8 SHL SUB NOT AND SWAP1 DUP2 PUSH1 0x0 BYTE SWAP1 MSTORE8 POP PUSH1 0x4 SWAP5 SWAP1 SWAP5 SHR SWAP4 PUSH2 0x1378 DUP2 PUSH2 0x1BAD JUMP JUMPDEST SWAP1 POP PUSH2 0x130A JUMP JUMPDEST POP DUP4 ISZERO PUSH2 0x13CE JUMPI PUSH1 0x40 MLOAD PUSH3 0x461BCD PUSH1 0xE5 SHL DUP2 MSTORE PUSH1 0x20 PUSH1 0x4 DUP3 ADD DUP2 SWAP1 MSTORE PUSH1 0x24 DUP3 ADD MSTORE PUSH32 0x537472696E67733A20686578206C656E67746820696E73756666696369656E74 PUSH1 0x44 DUP3 ADD MSTORE PUSH1 0x64 ADD PUSH2 0x429 JUMP JUMPDEST SWAP4 SWAP3 POP POP POP JUMP JUMPDEST PUSH1 0x0 PUSH1 0x20 DUP3 DUP5 SUB SLT ISZERO PUSH2 0x13E7 JUMPI PUSH1 0x0 DUP1 REVERT JUMPDEST DUP2 CALLDATALOAD PUSH1 0x1 PUSH1 0x1 PUSH1 0xE0 SHL SUB NOT DUP2 AND DUP2 EQ PUSH2 0x13CE JUMPI PUSH1 0x0 DUP1 REVERT JUMPDEST PUSH1 0x0 PUSH1 0x20 DUP3 DUP5 SUB SLT ISZERO PUSH2 0x1411 JUMPI PUSH1 0x0 DUP1 REVERT JUMPDEST POP CALLDATALOAD SWAP2 SWAP1 POP JUMP JUMPDEST DUP1 CALLDATALOAD PUSH1 0x1 PUSH1 0x1 PUSH1 0xA0 SHL SUB DUP2 AND DUP2 EQ PUSH2 0x142F JUMPI PUSH1 0x0 DUP1 REVERT JUMPDEST SWAP2 SWAP1 POP JUMP JUMPDEST PUSH1 0x0 DUP1 PUSH1 0x40 DUP4 DUP6 SUB SLT ISZERO PUSH2 0x1447 JUMPI PUSH1 0x0 DUP1 REVERT JUMPDEST DUP3 CALLDATALOAD SWAP2 POP PUSH2 0x1457 PUSH1 0x20 DUP5 ADD PUSH2 0x1418 JUMP JUMPDEST SWAP1 POP SWAP3 POP SWAP3 SWAP1 POP JUMP JUMPDEST PUSH1 0x0 DUP1 PUSH1 0x40 DUP4 DUP6 SUB SLT ISZERO PUSH2 0x1473 JUMPI PUSH1 0x0 DUP1 REVERT JUMPDEST PUSH2 0x147C DUP4 PUSH2 0x1418 JUMP JUMPDEST SWAP2 POP PUSH2 0x1457 PUSH1 0x20 DUP5 ADD PUSH2 0x1418 JUMP JUMPDEST PUSH1 0x0 DUP1 DUP4 PUSH1 0x1F DUP5 ADD SLT PUSH2 0x149C JUMPI PUSH1 0x0 DUP1 REVERT JUMPDEST POP DUP2 CALLDATALOAD PUSH8 0xFFFFFFFFFFFFFFFF DUP2 GT ISZERO PUSH2 0x14B4 JUMPI PUSH1 0x0 DUP1 REVERT JUMPDEST PUSH1 0x20 DUP4 ADD SWAP2 POP DUP4 PUSH1 0x20 DUP3 PUSH1 0x5 SHL DUP6 ADD ADD GT ISZERO PUSH2 0x14CF JUMPI PUSH1 0x0 DUP1 REVERT JUMPDEST SWAP3 POP SWAP3 SWAP1 POP JUMP JUMPDEST PUSH1 0x0 DUP1 DUP4 PUSH1 0x1F DUP5 ADD SLT PUSH2 0x14E8 JUMPI PUSH1 0x0 DUP1 REVERT JUMPDEST POP DUP2 CALLDATALOAD PUSH8 0xFFFFFFFFFFFFFFFF DUP2 GT ISZERO PUSH2 0x1500 JUMPI PUSH1 0x0 DUP1 REVERT JUMPDEST PUSH1 0x20 DUP4 ADD SWAP2 POP DUP4 PUSH1 0x20 PUSH1 0x60 DUP4 MUL DUP6 ADD ADD GT ISZERO PUSH2 0x14CF JUMPI PUSH1 0x0 DUP1 REVERT JUMPDEST PUSH1 0x0 DUP1 PUSH1 0x0 DUP1 PUSH1 0x0 DUP1 PUSH1 0x0 DUP1 PUSH1 0x0 PUSH1 0xA0 DUP11 DUP13 SUB SLT ISZERO PUSH2 0x1539 JUMPI PUSH1 0x0 DUP1 REVERT JUMPDEST PUSH2 0x1542 DUP11 PUSH2 0x1418 JUMP JUMPDEST SWAP9 POP PUSH1 0x20 DUP11 ADD CALLDATALOAD PUSH8 0xFFFFFFFFFFFFFFFF DUP1 DUP3 GT ISZERO PUSH2 0x155F JUMPI PUSH1 0x0 DUP1 REVERT JUMPDEST PUSH2 0x156B DUP14 DUP4 DUP15 ADD PUSH2 0x148A JUMP JUMPDEST SWAP1 SWAP11 POP SWAP9 POP PUSH1 0x40 DUP13 ADD CALLDATALOAD SWAP2 POP DUP1 DUP3 GT ISZERO PUSH2 0x1584 JUMPI PUSH1 0x0 DUP1 REVERT JUMPDEST PUSH2 0x1590 DUP14 DUP4 DUP15 ADD PUSH2 0x148A JUMP JUMPDEST SWAP1 SWAP9 POP SWAP7 POP PUSH1 0x60 DUP13 ADD CALLDATALOAD SWAP2 POP DUP1 DUP3 GT ISZERO PUSH2 0x15A9 JUMPI PUSH1 0x0 DUP1 REVERT JUMPDEST DUP2 DUP13 ADD SWAP2 POP DUP13 PUSH1 0x1F DUP4 ADD SLT PUSH2 0x15BD JUMPI PUSH1 0x0 DUP1 REVERT JUMPDEST DUP2 CALLDATALOAD DUP2 DUP2 GT ISZERO PUSH2 0x15CC JUMPI PUSH1 0x0 DUP1 REVERT JUMPDEST DUP14 PUSH1 0x20 DUP3 DUP6 ADD ADD GT ISZERO PUSH2 0x15DE JUMPI PUSH1 0x0 DUP1 REVERT JUMPDEST PUSH1 0x20 DUP4 ADD SWAP7 POP DUP1 SWAP6 POP POP PUSH1 0x80 DUP13 ADD CALLDATALOAD SWAP2 POP DUP1 DUP3 GT ISZERO PUSH2 0x15FC JUMPI PUSH1 0x0 DUP1 REVERT JUMPDEST POP PUSH2 0x1609 DUP13 DUP3 DUP14 ADD PUSH2 0x14D6 JUMP JUMPDEST SWAP2 POP DUP1 SWAP4 POP POP DUP1 SWAP2 POP POP SWAP3 SWAP6 SWAP9 POP SWAP3 SWAP6 SWAP9 POP SWAP3 SWAP6 SWAP9 JUMP JUMPDEST PUSH4 0x4E487B71 PUSH1 0xE0 SHL PUSH1 0x0 MSTORE PUSH1 0x21 PUSH1 0x4 MSTORE PUSH1 0x24 PUSH1 0x0 REVERT JUMPDEST PUSH1 0x3 DUP2 LT PUSH2 0xFB8 JUMPI PUSH4 0x4E487B71 PUSH1 0xE0 SHL PUSH1 0x0 MSTORE PUSH1 0x21 PUSH1 0x4 MSTORE PUSH1 0x24 PUSH1 0x0 REVERT JUMPDEST PUSH1 0x0 JUMPDEST DUP4 DUP2 LT ISZERO PUSH2 0x166F JUMPI DUP2 DUP2 ADD MLOAD DUP4 DUP3 ADD MSTORE PUSH1 0x20 ADD PUSH2 0x1657 JUMP JUMPDEST POP POP PUSH1 0x0 SWAP2 ADD MSTORE JUMP JUMPDEST PUSH1 0x0 DUP2 MLOAD DUP1 DUP5 MSTORE PUSH2 0x1690 DUP2 PUSH1 0x20 DUP7 ADD PUSH1 0x20 DUP7 ADD PUSH2 0x1654 JUMP JUMPDEST PUSH1 0x1F ADD PUSH1 0x1F NOT AND SWAP3 SWAP1 SWAP3 ADD PUSH1 0x20 ADD SWAP3 SWAP2 POP POP JUMP JUMPDEST PUSH1 0x1 PUSH1 0x1 PUSH1 0xA0 SHL SUB DUP10 DUP2 AND DUP3 MSTORE DUP9 AND PUSH1 0x20 DUP3 ADD MSTORE PUSH1 0x40 DUP2 ADD DUP8 SWAP1 MSTORE PUSH1 0x60 DUP2 ADD DUP7 SWAP1 MSTORE PUSH1 0x0 PUSH2 0x100 PUSH2 0x16D4 DUP8 PUSH2 0x1636 JUMP JUMPDEST DUP7 PUSH1 0x80 DUP5 ADD MSTORE DUP1 PUSH1 0xA0 DUP5 ADD MSTORE PUSH2 0x16EC DUP2 DUP5 ADD DUP8 PUSH2 0x1678 JUMP JUMPDEST PUSH1 0xC0 DUP5 ADD SWAP6 SWAP1 SWAP6 MSTORE POP POP PUSH1 0xE0 ADD MSTORE SWAP7 SWAP6 POP POP POP POP POP POP JUMP JUMPDEST PUSH1 0x0 DUP1 PUSH1 0x40 DUP4 DUP6 SUB SLT ISZERO PUSH2 0x1717 JUMPI PUSH1 0x0 DUP1 REVERT JUMPDEST POP POP DUP1 CALLDATALOAD SWAP3 PUSH1 0x20 SWAP1 SWAP2 ADD CALLDATALOAD SWAP2 POP JUMP JUMPDEST PUSH1 0x0 PUSH2 0x100 PUSH1 0x1 DUP1 PUSH1 0xA0 SHL SUB DUP1 DUP13 AND DUP5 MSTORE PUSH1 0x20 DUP2 DUP13 AND PUSH1 0x20 DUP7 ADD MSTORE DUP11 PUSH1 0x40 DUP7 ADD MSTORE DUP10 PUSH1 0x60 DUP7 ADD MSTORE PUSH2 0x1756 DUP10 PUSH2 0x1636 JUMP JUMPDEST DUP9 PUSH1 0x80 DUP7 ADD MSTORE DUP3 PUSH1 0xA0 DUP7 ADD MSTORE PUSH2 0x176E DUP4 DUP7 ADD DUP10 PUSH2 0x1678 JUMP JUMPDEST DUP6 DUP2 SUB PUSH1 0xC0 DUP8 ADD MSTORE DUP8 MLOAD DUP1 DUP3 MSTORE PUSH1 0x20 DUP1 DUP11 ADD SWAP6 POP SWAP1 SWAP2 ADD SWAP1 PUSH1 0x0 JUMPDEST DUP2 DUP2 LT ISZERO PUSH2 0x17A7 JUMPI DUP6 MLOAD DUP6 AND DUP4 MSTORE SWAP5 DUP4 ADD SWAP5 SWAP2 DUP4 ADD SWAP2 PUSH1 0x1 ADD PUSH2 0x1789 JUMP JUMPDEST POP POP DUP1 SWAP5 POP POP POP POP POP DUP3 PUSH1 0xE0 DUP4 ADD MSTORE SWAP10 SWAP9 POP POP POP POP POP POP POP POP POP JUMP JUMPDEST PUSH1 0x0 DUP1 DUP3 DUP5 SUB PUSH1 0x80 DUP2 SLT ISZERO PUSH2 0x17D7 JUMPI PUSH1 0x0 DUP1 REVERT JUMPDEST DUP4 CALLDATALOAD SWAP3 POP PUSH1 0x60 PUSH1 0x1F NOT DUP3 ADD SLT ISZERO PUSH2 0x17ED JUMPI PUSH1 0x0 DUP1 REVERT JUMPDEST POP PUSH1 0x20 DUP4 ADD SWAP1 POP SWAP3 POP SWAP3 SWAP1 POP JUMP JUMPDEST PUSH4 0x4E487B71 PUSH1 0xE0 SHL PUSH1 0x0 MSTORE PUSH1 0x32 PUSH1 0x4 MSTORE PUSH1 0x24 PUSH1 0x0 REVERT JUMPDEST PUSH4 0x4E487B71 PUSH1 0xE0 SHL PUSH1 0x0 MSTORE PUSH1 0x11 PUSH1 0x4 MSTORE PUSH1 0x24 PUSH1 0x0 REVERT JUMPDEST DUP1 DUP3 ADD DUP1 DUP3 GT ISZERO PUSH2 0x38D JUMPI PUSH2 0x38D PUSH2 0x1811 JUMP JUMPDEST PUSH1 0x0 PUSH1 0x1 DUP3 ADD PUSH2 0x184C JUMPI PUSH2 0x184C PUSH2 0x1811 JUMP JUMPDEST POP PUSH1 0x1 ADD SWAP1 JUMP JUMPDEST PUSH4 0x4E487B71 PUSH1 0xE0 SHL PUSH1 0x0 MSTORE PUSH1 0x41 PUSH1 0x4 MSTORE PUSH1 0x24 PUSH1 0x0 REVERT JUMPDEST PUSH1 0x1 DUP2 DUP2 SHR SWAP1 DUP3 AND DUP1 PUSH2 0x187D JUMPI PUSH1 0x7F DUP3 AND SWAP2 POP JUMPDEST PUSH1 0x20 DUP3 LT DUP2 SUB PUSH2 0x189D JUMPI PUSH4 0x4E487B71 PUSH1 0xE0 SHL PUSH1 0x0 MSTORE PUSH1 0x22 PUSH1 0x4 MSTORE PUSH1 0x24 PUSH1 0x0 REVERT JUMPDEST POP SWAP2 SWAP1 POP JUMP JUMPDEST PUSH1 0x1F DUP3 GT ISZERO PUSH2 0x3B8 JUMPI PUSH1 0x0 DUP2 PUSH1 0x0 MSTORE PUSH1 0x20 PUSH1 0x0 KECCAK256 PUSH1 0x1F DUP6 ADD PUSH1 0x5 SHR DUP2 ADD PUSH1 0x20 DUP7 LT ISZERO PUSH2 0x18CC JUMPI POP DUP1 JUMPDEST PUSH1 0x1F DUP6 ADD PUSH1 0x5 SHR DUP3 ADD SWAP2 POP JUMPDEST DUP2 DUP2 LT ISZERO PUSH2 0x18EB JUMPI DUP3 DUP2 SSTORE PUSH1 0x1 ADD PUSH2 0x18D8 JUMP JUMPDEST POP POP POP POP POP POP JUMP JUMPDEST PUSH8 0xFFFFFFFFFFFFFFFF DUP4 GT ISZERO PUSH2 0x190B JUMPI PUSH2 0x190B PUSH2 0x1853 JUMP JUMPDEST PUSH2 0x191F DUP4 PUSH2 0x1919 DUP4 SLOAD PUSH2 0x1869 JUMP JUMPDEST DUP4 PUSH2 0x18A3 JUMP JUMPDEST PUSH1 0x0 PUSH1 0x1F DUP5 GT PUSH1 0x1 DUP2 EQ PUSH2 0x1953 JUMPI PUSH1 0x0 DUP6 ISZERO PUSH2 0x193B JUMPI POP DUP4 DUP3 ADD CALLDATALOAD JUMPDEST PUSH1 0x0 NOT PUSH1 0x3 DUP8 SWAP1 SHL SHR NOT AND PUSH1 0x1 DUP7 SWAP1 SHL OR DUP4 SSTORE PUSH2 0x19AD JUMP JUMPDEST PUSH1 0x0 DUP4 DUP2 MSTORE PUSH1 0x20 SWAP1 KECCAK256 PUSH1 0x1F NOT DUP7 AND SWAP1 DUP4 JUMPDEST DUP3 DUP2 LT ISZERO PUSH2 0x1984 JUMPI DUP7 DUP6 ADD CALLDATALOAD DUP3 SSTORE PUSH1 0x20 SWAP5 DUP6 ADD SWAP5 PUSH1 0x1 SWAP1 SWAP3 ADD SWAP2 ADD PUSH2 0x1964 JUMP JUMPDEST POP DUP7 DUP3 LT ISZERO PUSH2 0x19A1 JUMPI PUSH1 0x0 NOT PUSH1 0xF8 DUP9 PUSH1 0x3 SHL AND SHR NOT DUP5 DUP8 ADD CALLDATALOAD AND DUP2 SSTORE JUMPDEST POP POP PUSH1 0x1 DUP6 PUSH1 0x1 SHL ADD DUP4 SSTORE JUMPDEST POP POP POP POP POP JUMP JUMPDEST PUSH1 0x3 DUP2 LT PUSH2 0xFB8 JUMPI PUSH1 0x0 DUP1 REVERT JUMPDEST DUP1 ISZERO ISZERO DUP2 EQ PUSH2 0xFB8 JUMPI PUSH1 0x0 DUP1 REVERT JUMPDEST DUP2 CALLDATALOAD PUSH2 0x19DA DUP2 PUSH2 0x19B4 JUMP JUMPDEST PUSH2 0x19E3 DUP2 PUSH2 0x1636 JUMP JUMPDEST DUP2 SLOAD PUSH1 0xFF SWAP2 SWAP1 SWAP2 AND PUSH1 0xFF NOT SWAP2 DUP3 AND OR DUP3 SSTORE PUSH1 0x20 DUP4 ADD CALLDATALOAD PUSH1 0x1 DUP4 ADD SSTORE PUSH1 0x2 DUP3 ADD SWAP1 PUSH1 0x40 DUP5 ADD CALLDATALOAD PUSH2 0x1A11 DUP2 PUSH2 0x19C1 JUMP JUMPDEST DUP3 SLOAD SWAP1 ISZERO ISZERO PUSH1 0xFF AND SWAP2 AND OR SWAP1 SSTORE POP POP JUMP JUMPDEST PUSH1 0x0 PUSH1 0x20 DUP3 DUP5 SUB SLT ISZERO PUSH2 0x1A34 JUMPI PUSH1 0x0 DUP1 REVERT JUMPDEST PUSH2 0x13CE DUP3 PUSH2 0x1418 JUMP JUMPDEST PUSH1 0x20 DUP2 ADD PUSH2 0x1A4A DUP4 PUSH2 0x1636 JUMP JUMPDEST SWAP2 SWAP1 MSTORE SWAP1 JUMP JUMPDEST PUSH1 0x0 PUSH1 0x20 DUP3 DUP5 SUB SLT ISZERO PUSH2 0x1A62 JUMPI PUSH1 0x0 DUP1 REVERT JUMPDEST DUP2 CALLDATALOAD PUSH2 0x13CE DUP2 PUSH2 0x19B4 JUMP JUMPDEST PUSH1 0x40 DUP2 ADD PUSH2 0x1A7A DUP5 PUSH2 0x1636 JUMP JUMPDEST SWAP3 DUP2 MSTORE PUSH1 0x20 ADD MSTORE SWAP1 JUMP JUMPDEST PUSH1 0x0 PUSH1 0x20 DUP3 DUP5 SUB SLT ISZERO PUSH2 0x1A96 JUMPI PUSH1 0x0 DUP1 REVERT JUMPDEST DUP2 MLOAD PUSH2 0x13CE DUP2 PUSH2 0x19C1 JUMP JUMPDEST PUSH1 0x0 DUP3 PUSH2 0x1ABE JUMPI PUSH4 0x4E487B71 PUSH1 0xE0 SHL PUSH1 0x0 MSTORE PUSH1 0x12 PUSH1 0x4 MSTORE PUSH1 0x24 PUSH1 0x0 REVERT JUMPDEST POP DIV SWAP1 JUMP JUMPDEST PUSH1 0x20 DUP1 DUP3 MSTORE PUSH1 0x2B SWAP1 DUP3 ADD MSTORE PUSH32 0x496E697469616C697A61626C653A20636F6E7472616374206973206E6F742069 PUSH1 0x40 DUP3 ADD MSTORE PUSH11 0x6E697469616C697A696E67 PUSH1 0xA8 SHL PUSH1 0x60 DUP3 ADD MSTORE PUSH1 0x80 ADD SWAP1 JUMP JUMPDEST PUSH32 0x416363657373436F6E74726F6C3A206163636F756E7420000000000000000000 DUP2 MSTORE PUSH1 0x0 DUP4 MLOAD PUSH2 0x1B46 DUP2 PUSH1 0x17 DUP6 ADD PUSH1 0x20 DUP9 ADD PUSH2 0x1654 JUMP JUMPDEST PUSH17 0x1034B99036B4B9B9B4B733903937B6329 PUSH1 0x7D SHL PUSH1 0x17 SWAP2 DUP5 ADD SWAP2 DUP3 ADD MSTORE DUP4 MLOAD PUSH2 0x1B77 DUP2 PUSH1 0x28 DUP5 ADD PUSH1 0x20 DUP9 ADD PUSH2 0x1654 JUMP JUMPDEST ADD PUSH1 0x28 ADD SWAP5 SWAP4 POP POP POP POP JUMP JUMPDEST PUSH1 0x20 DUP2 MSTORE PUSH1 0x0 PUSH2 0x13CE PUSH1 0x20 DUP4 ADD DUP5 PUSH2 0x1678 JUMP JUMPDEST DUP1 DUP3 MUL DUP2 ISZERO DUP3 DUP3 DIV DUP5 EQ OR PUSH2 0x38D JUMPI PUSH2 0x38D PUSH2 0x1811 JUMP JUMPDEST PUSH1 0x0 DUP2 PUSH2 0x1BBC JUMPI PUSH2 0x1BBC PUSH2 0x1811 JUMP JUMPDEST POP PUSH1 0x0 NOT ADD SWAP1 JUMP INVALID LOG2 PUSH5 0x6970667358 0x22 SLT KECCAK256 SWAP16 0xB5 0xD8 0x5C 0xDB DUP9 SLT PUSH21 0xAD1DB5B76052B19DFC8F84AB4C71AAE732737CC130 0xBE CODECOPY 0x49 PUSH5 0x736F6C6343 STOP ADDMOD AND STOP CALLER "},"methodIdentifiers":{"BENEFICIARY_ROLE()":"ced3a403","CREATOR_ROLE()":"8aeda25a","DEFAULT_ADMIN_ROLE()":"a217fddf","addInheritanceCondition(uint256,(uint8,uint256,bool))":"cb775b29","amoneyToken()":"0a043cd8","createSacredVault(address,address[],uint256[],string,(uint8,uint256,bool)[])":"8a50c639","executeInheritance(uint256,uint256)":"a742328d","getRoleAdmin(bytes32)":"248a9ca3","getVaultDetails(uint256)":"c0b579c0","getVaultShares(uint256,address)":"7d80277f","grantRole(bytes32,address)":"2f2ff15d","hasRole(bytes32,address)":"91d14854","initialize(address,address)":"485cc955","payMaintenanceFee(uint256,uint256)":"f265e3e6","renounceRole(bytes32,address)":"36568abe","revokeRole(bytes32,address)":"d547741f","supportsInterface(bytes4)":"01ffc9a7","unlockVault(uint256)":"57aa6f49","vaultCounter()":"ac958041","vaults(uint256)":"8c64ea4a"}},"storageLayout":{"storage":[{"astId":915,"contract":"contracts/SacredVault.sol:SacredVault","label":"_initialized","offset":0,"slot":"0","type":"t_uint8"},{"astId":918,"contract":"contracts/SacredVault.sol:SacredVault","label":"_initializing","offset":1,"slot":"0","type":"t_bool"},{"astId":2588,"contract":"contracts/SacredVault.sol:SacredVault","label":"__gap","offset":0,"slot":"1","type":"t_array(t_uint256)50_storage"},{"astId":2972,"contract":"contracts/SacredVault.sol:SacredVault","label":"__gap","offset":0,"slot":"51","type":"t_array(t_uint256)50_storage"},{"astId":28,"contract":"contracts/SacredVault.sol:SacredVault","label":"_roles","offset":0,"slot":"101","type":"t_mapping(t_bytes32,t_struct(RoleData)23_storage)"},{"astId":335,"contract":"contracts/SacredVault.sol:SacredVault","label":"__gap","offset":0,"slot":"102","type":"t_array(t_uint256)49_storage"},{"astId":1357,"contract":"contracts/SacredVault.sol:SacredVault","label":"_status","offset":0,"slot":"151","type":"t_uint256"},{"astId":1426,"contract":"contracts/SacredVault.sol:SacredVault","label":"__gap","offset":0,"slot":"152","type":"t_array(t_uint256)49_storage"},{"astId":5815,"contract":"contracts/SacredVault.sol:SacredVault","label":"amoneyToken","offset":0,"slot":"201","type":"t_contract(IAMONEY)5746"},{"astId":5889,"contract":"contracts/SacredVault.sol:SacredVault","label":"vaults","offset":0,"slot":"202","type":"t_mapping(t_uint256,t_struct(Vault)5844_storage)"},{"astId":5891,"contract":"contracts/SacredVault.sol:SacredVault","label":"vaultCounter","offset":0,"slot":"203","type":"t_uint256"}],"types":{"t_address":{"encoding":"inplace","label":"address","numberOfBytes":"20"},"t_array(t_address)dyn_storage":{"base":"t_address","encoding":"dynamic_array","label":"address[]","numberOfBytes":"32"},"t_array(t_struct(InheritanceCondition)5760_storage)dyn_storage":{"base":"t_struct(InheritanceCondition)5760_storage","encoding":"dynamic_array","label":"struct ISacredVault.InheritanceCondition[]","numberOfBytes":"32"},"t_array(t_uint256)49_storage":{"base":"t_uint256","encoding":"inplace","label":"uint256[49]","numberOfBytes":"1568"},"t_array(t_uint256)50_storage":{"base":"t_uint256","encoding":"inplace","label":"uint256[50]","numberOfBytes":"1600"},"t_bool":{"encoding":"inplace","label":"bool","numberOfBytes":"1"},"t_bytes32":{"encoding":"inplace","label":"bytes32","numberOfBytes":"32"},"t_contract(IAMONEY)5746":{"encoding":"inplace","label":"contract IAMONEY","numberOfBytes":"20"},"t_enum(ConditionType)5752":{"encoding":"inplace","label":"enum ISacredVault.ConditionType","numberOfBytes":"1"},"t_enum(VaultStatus)5848":{"encoding":"inplace","label":"enum SacredVault.VaultStatus","numberOfBytes":"1"},"t_mapping(t_address,t_bool)":{"encoding":"mapping","key":"t_address","label":"mapping(address => bool)","numberOfBytes":"32","value":"t_bool"},"t_mapping(t_address,t_uint256)":{"encoding":"mapping","key":"t_address","label":"mapping(address => uint256)","numberOfBytes":"32","value":"t_uint256"},"t_mapping(t_bytes32,t_struct(RoleData)23_storage)":{"encoding":"mapping","key":"t_bytes32","label":"mapping(bytes32 => struct AccessControlUpgradeable.RoleData)","numberOfBytes":"32","value":"t_struct(RoleData)23_storage"},"t_mapping(t_uint256,t_struct(Vault)5844_storage)":{"encoding":"mapping","key":"t_uint256","label":"mapping(uint256 => struct SacredVault.Vault)","numberOfBytes":"32","value":"t_struct(Vault)5844_storage"},"t_string_storage":{"encoding":"bytes","label":"string","numberOfBytes":"32"},"t_struct(InheritanceCondition)5760_storage":{"encoding":"inplace","label":"struct ISacredVault.InheritanceCondition","members":[{"astId":5755,"contract":"contracts/SacredVault.sol:SacredVault","label":"conditionType","offset":0,"slot":"0","type":"t_enum(ConditionType)5752"},{"astId":5757,"contract":"contracts/SacredVault.sol:SacredVault","label":"triggerValue","offset":0,"slot":"1","type":"t_uint256"},{"astId":5759,"contract":"contracts/SacredVault.sol:SacredVault","label":"isActive","offset":0,"slot":"2","type":"t_bool"}],"numberOfBytes":"96"},"t_struct(RoleData)23_storage":{"encoding":"inplace","label":"struct AccessControlUpgradeable.RoleData","members":[{"astId":20,"contract":"contracts/SacredVault.sol:SacredVault","label":"members","offset":0,"slot":"0","type":"t_mapping(t_address,t_bool)"},{"astId":22,"contract":"contracts/SacredVault.sol:SacredVault","label":"adminRole","offset":0,"slot":"1","type":"t_bytes32"}],"numberOfBytes":"64"},"t_struct(Vault)5844_storage":{"encoding":"inplace","label":"struct SacredVault.Vault","members":[{"astId":5817,"contract":"contracts/SacredVault.sol:SacredVault","label":"creator","offset":0,"slot":"0","type":"t_address"},{"astId":5819,"contract":"contracts/SacredVault.sol:SacredVault","label":"currentOwner","offset":0,"slot":"1","type":"t_address"},{"astId":5821,"contract":"contracts/SacredVault.sol:SacredVault","label":"creationDate","offset":0,"slot":"2","type":"t_uint256"},{"astId":5823,"contract":"contracts/SacredVault.sol:SacredVault","label":"lastMaintenance","offset":0,"slot":"3","type":"t_uint256"},{"astId":5826,"contract":"contracts/SacredVault.sol:SacredVault","label":"status","offset":0,"slot":"4","type":"t_enum(VaultStatus)5848"},{"astId":5828,"contract":"contracts/SacredVault.sol:SacredVault","label":"metadataURI","offset":0,"slot":"5","type":"t_string_storage"},{"astId":5831,"contract":"contracts/SacredVault.sol:SacredVault","label":"beneficiaries","offset":0,"slot":"6","type":"t_array(t_address)dyn_storage"},{"astId":5835,"contract":"contracts/SacredVault.sol:SacredVault","label":"shares","offset":0,"slot":"7","type":"t_mapping(t_address,t_uint256)"},{"astId":5839,"contract":"contracts/SacredVault.sol:SacredVault","label":"conditions","offset":0,"slot":"8","type":"t_array(t_struct(InheritanceCondition)5760_storage)dyn_storage"},{"astId":5841,"contract":"contracts/SacredVault.sol:SacredVault","label":"unlockingTimestamp","offset":0,"slot":"9","type":"t_uint256"},{"astId":5843,"contract":"contracts/SacredVault.sol:SacredVault","label":"culturalEnergy","offset":0,"slot":"10","type":"t_uint256"}],"numberOfBytes":"352"},"t_uint256":{"encoding":"inplace","label":"uint256","numberOfBytes":"32"},"t_uint8":{"encoding":"inplace","label":"uint8","numberOfBytes":"1"}}}}}}