{
  "_format": "hh-sol-artifact-1",
  "contractName": "EvolutionReserve",
  "sourceName": "contracts/EvolutionReserve.sol",
  "abi": [
    {
      "inputs": [],
      "stateMutability": "nonpayable",
      "type": "constructor"
    },
    {
      "inputs": [],
      "name": "DepositTooSmall",
      "type": "error"
    },
    {
      "inputs": [],
      "name": "InsufficientBalance",
      "type": "error"
    },
    {
      "inputs": [],
      "name": "InvalidAddress",
      "type": "error"
    },
    {
      "inputs": [],
      "name": "InvalidAmount",
      "type": "error"
    },
    {
      "inputs": [],
      "name": "MaxCulturalEventsExceeded",
      "type": "error"
    },
    {
      "inputs": [],
      "name": "TransferFailed",
      "type": "error"
    },
    {
      "inputs": [],
      "name": "Unauthorized",
      "type": "error"
    },
    {
      "anonymous": false,
      "inputs": [
        {
          "indexed": true,
          "internalType": "address",
          "name": "newAddress",
          "type": "address"
        }
      ],
      "name": "AMoneyTokenUpdated",
      "type": "event"
    },
    {
      "anonymous": false,
      "inputs": [
        {
          "indexed": false,
          "internalType": "address",
          "name": "previousAdmin",
          "type": "address"
        },
        {
          "indexed": false,
          "internalType": "address",
          "name": "newAdmin",
          "type": "address"
        }
      ],
      "name": "AdminChanged",
      "type": "event"
    },
    {
      "anonymous": false,
      "inputs": [
        {
          "indexed": true,
          "internalType": "address",
          "name": "beacon",
          "type": "address"
        }
      ],
      "name": "BeaconUpgraded",
      "type": "event"
    },
    {
      "anonymous": false,
      "inputs": [
        {
          "indexed": true,
          "internalType": "address",
          "name": "user",
          "type": "address"
        },
        {
          "indexed": false,
          "internalType": "bytes32",
          "name": "eventHash",
          "type": "bytes32"
        },
        {
          "indexed": false,
          "internalType": "uint256",
          "name": "energy",
          "type": "uint256"
        }
      ],
      "name": "CulturalEventRecorded",
      "type": "event"
    },
    {
      "anonymous": false,
      "inputs": [
        {
          "indexed": true,
          "internalType": "address",
          "name": "user",
          "type": "address"
        },
        {
          "indexed": false,
          "internalType": "uint256",
          "name": "amount",
          "type": "uint256"
        }
      ],
      "name": "Deposit",
      "type": "event"
    },
    {
      "anonymous": false,
      "inputs": [
        {
          "indexed": false,
          "internalType": "uint8",
          "name": "version",
          "type": "uint8"
        }
      ],
      "name": "Initialized",
      "type": "event"
    },
    {
      "anonymous": false,
      "inputs": [
        {
          "indexed": true,
          "internalType": "address",
          "name": "neuralField",
          "type": "address"
        }
      ],
      "name": "NeuralFieldConnected",
      "type": "event"
    },
    {
      "anonymous": false,
      "inputs": [
        {
          "indexed": true,
          "internalType": "bytes32",
          "name": "role",
          "type": "bytes32"
        },
        {
          "indexed": true,
          "internalType": "bytes32",
          "name": "previousAdminRole",
          "type": "bytes32"
        },
        {
          "indexed": true,
          "internalType": "bytes32",
          "name": "newAdminRole",
          "type": "bytes32"
        }
      ],
      "name": "RoleAdminChanged",
      "type": "event"
    },
    {
      "anonymous": false,
      "inputs": [
        {
          "indexed": true,
          "internalType": "bytes32",
          "name": "role",
          "type": "bytes32"
        },
        {
          "indexed": true,
          "internalType": "address",
          "name": "account",
          "type": "address"
        },
        {
          "indexed": true,
          "internalType": "address",
          "name": "sender",
          "type": "address"
        }
      ],
      "name": "RoleGranted",
      "type": "event"
    },
    {
      "anonymous": false,
      "inputs": [
        {
          "indexed": true,
          "internalType": "bytes32",
          "name": "role",
          "type": "bytes32"
        },
        {
          "indexed": true,
          "internalType": "address",
          "name": "account",
          "type": "address"
        },
        {
          "indexed": true,
          "internalType": "address",
          "name": "sender",
          "type": "address"
        }
      ],
      "name": "RoleRevoked",
      "type": "event"
    },
    {
      "anonymous": false,
      "inputs": [
        {
          "indexed": true,
          "internalType": "address",
          "name": "implementation",
          "type": "address"
        }
      ],
      "name": "Upgraded",
      "type": "event"
    },
    {
      "anonymous": false,
      "inputs": [
        {
          "indexed": true,
          "internalType": "address",
          "name": "user",
          "type": "address"
        },
        {
          "indexed": false,
          "internalType": "uint256",
          "name": "amount",
          "type": "uint256"
        }
      ],
      "name": "Withdrawal",
      "type": "event"
    },
    {
      "inputs": [],
      "name": "DEFAULT_ADMIN_ROLE",
      "outputs": [
        {
          "internalType": "bytes32",
          "name": "",
          "type": "bytes32"
        }
      ],
      "stateMutability": "view",
      "type": "function"
    },
    {
      "inputs": [],
      "name": "MAX_CULTURAL_EVENTS",
      "outputs": [
        {
          "internalType": "uint256",
          "name": "",
          "type": "uint256"
        }
      ],
      "stateMutability": "view",
      "type": "function"
    },
    {
      "inputs": [],
      "name": "MIN_DEPOSIT_AMOUNT",
      "outputs": [
        {
          "internalType": "uint256",
          "name": "",
          "type": "uint256"
        }
      ],
      "stateMutability": "view",
      "type": "function"
    },
    {
      "inputs": [],
      "name": "amoneyToken",
      "outputs": [
        {
          "internalType": "contract IERC20Upgradeable",
          "name": "",
          "type": "address"
        }
      ],
      "stateMutability": "view",
      "type": "function"
    },
    {
      "inputs": [
        {
          "internalType": "address",
          "name": "_neuralField",
          "type": "address"
        }
      ],
      "name": "connectNeuralField",
      "outputs": [],
      "stateMutability": "nonpayable",
      "type": "function"
    },
    {
      "inputs": [
        {
          "internalType": "address",
          "name": "",
          "type": "address"
        }
      ],
      "name": "culturalEnergy",
      "outputs": [
        {
          "internalType": "uint256",
          "name": "",
          "type": "uint256"
        }
      ],
      "stateMutability": "view",
      "type": "function"
    },
    {
      "inputs": [
        {
          "internalType": "address",
          "name": "",
          "type": "address"
        },
        {
          "internalType": "uint256",
          "name": "",
          "type": "uint256"
        }
      ],
      "name": "culturalEvents",
      "outputs": [
        {
          "internalType": "bytes32",
          "name": "",
          "type": "bytes32"
        }
      ],
      "stateMutability": "view",
      "type": "function"
    },
    {
      "inputs": [
        {
          "internalType": "uint256",
          "name": "_amount",
          "type": "uint256"
        }
      ],
      "name": "deposit",
      "outputs": [],
      "stateMutability": "nonpayable",
      "type": "function"
    },
    {
      "inputs": [],
      "name": "getContractBalance",
      "outputs": [
        {
          "internalType": "uint256",
          "name": "",
          "type": "uint256"
        }
      ],
      "stateMutability": "view",
      "type": "function"
    },
    {
      "inputs": [
        {
          "internalType": "bytes32",
          "name": "role",
          "type": "bytes32"
        }
      ],
      "name": "getRoleAdmin",
      "outputs": [
        {
          "internalType": "bytes32",
          "name": "",
          "type": "bytes32"
        }
      ],
      "stateMutability": "view",
      "type": "function"
    },
    {
      "inputs": [
        {
          "internalType": "bytes32",
          "name": "role",
          "type": "bytes32"
        },
        {
          "internalType": "address",
          "name": "account",
          "type": "address"
        }
      ],
      "name": "grantRole",
      "outputs": [],
      "stateMutability": "nonpayable",
      "type": "function"
    },
    {
      "inputs": [
        {
          "internalType": "bytes32",
          "name": "role",
          "type": "bytes32"
        },
        {
          "internalType": "address",
          "name": "account",
          "type": "address"
        }
      ],
      "name": "hasRole",
      "outputs": [
        {
          "internalType": "bool",
          "name": "",
          "type": "bool"
        }
      ],
      "stateMutability": "view",
      "type": "function"
    },
    {
      "inputs": [
        {
          "internalType": "address",
          "name": "_amoneyToken",
          "type": "address"
        },
        {
          "internalType": "address",
          "name": "initialAdmin",
          "type": "address"
        }
      ],
      "name": "initialize",
      "outputs": [],
      "stateMutability": "nonpayable",
      "type": "function"
    },
    {
      "inputs": [],
      "name": "neuralField",
      "outputs": [
        {
          "internalType": "address",
          "name": "",
          "type": "address"
        }
      ],
      "stateMutability": "view",
      "type": "function"
    },
    {
      "inputs": [],
      "name": "proxiableUUID",
      "outputs": [
        {
          "internalType": "bytes32",
          "name": "",
          "type": "bytes32"
        }
      ],
      "stateMutability": "view",
      "type": "function"
    },
    {
      "inputs": [
        {
          "internalType": "address",
          "name": "_user",
          "type": "address"
        },
        {
          "internalType": "uint256",
          "name": "_amount",
          "type": "uint256"
        },
        {
          "internalType": "bytes32",
          "name": "_context",
          "type": "bytes32"
        }
      ],
      "name": "recordCulturalEvent",
      "outputs": [
        {
          "internalType": "bool",
          "name": "",
          "type": "bool"
        }
      ],
      "stateMutability": "nonpayable",
      "type": "function"
    },
    {
      "inputs": [
        {
          "internalType": "bytes32",
          "name": "role",
          "type": "bytes32"
        },
        {
          "internalType": "address",
          "name": "account",
          "type": "address"
        }
      ],
      "name": "renounceRole",
      "outputs": [],
      "stateMutability": "nonpayable",
      "type": "function"
    },
    {
      "inputs": [
        {
          "internalType": "bytes32",
          "name": "role",
          "type": "bytes32"
        },
        {
          "internalType": "address",
          "name": "account",
          "type": "address"
        }
      ],
      "name": "revokeRole",
      "outputs": [],
      "stateMutability": "nonpayable",
      "type": "function"
    },
    {
      "inputs": [
        {
          "internalType": "address",
          "name": "_newAMoneyToken",
          "type": "address"
        }
      ],
      "name": "setAMoneyToken",
      "outputs": [],
      "stateMutability": "nonpayable",
      "type": "function"
    },
    {
      "inputs": [
        {
          "internalType": "bytes4",
          "name": "interfaceId",
          "type": "bytes4"
        }
      ],
      "name": "supportsInterface",
      "outputs": [
        {
          "internalType": "bool",
          "name": "",
          "type": "bool"
        }
      ],
      "stateMutability": "view",
      "type": "function"
    },
    {
      "inputs": [
        {
          "internalType": "address",
          "name": "newImplementation",
          "type": "address"
        }
      ],
      "name": "upgradeTo",
      "outputs": [],
      "stateMutability": "nonpayable",
      "type": "function"
    },
    {
      "inputs": [
        {
          "internalType": "address",
          "name": "newImplementation",
          "type": "address"
        },
        {
          "internalType": "bytes",
          "name": "data",
          "type": "bytes"
        }
      ],
      "name": "upgradeToAndCall",
      "outputs": [],
      "stateMutability": "payable",
      "type": "function"
    },
    {
      "inputs": [
        {
          "internalType": "uint256",
          "name": "_amount",
          "type": "uint256"
        }
      ],
      "name": "withdraw",
      "outputs": [],
      "stateMutability": "nonpayable",
      "type": "function"
    }
  ],
  "bytecode": "0x60a080604052346100dc57306080526000549060ff8260081c1661008a575060ff8082160361004f575b604051611bb090816100e282396080518181816104b2015281816105db0152610c490152f35b60ff90811916176000557f7f26b83ff96e1f2b6a682f133852f6798a09c465da95921460cefb3847402498602060405160ff8152a138610029565b62461bcd60e51b815260206004820152602760248201527f496e697469616c697a61626c653a20636f6e747261637420697320696e697469604482015266616c697a696e6760c81b6064820152608490fd5b600080fdfe608060408181526004918236101561001657600080fd5b600092833560e01c91826301ffc9a7146111f4575081630893b044146111855781630a043cd81461115b5781631c2e18a11461113f5781631ea30fef14611120578163248a9ca3146110f55781632e1a7d4d14610f585781632f2ff15d14610eab57816336568abe14610e195781633659cfe614610c215781633e7183a114610a3b578163485cc9551461083b5781634f1ef2861461055f57816352d1902d1461049c5781636f9fb98a1461040257816391d14854146103bb5781639b93e01e14610361578163a217fddf14610346578163a48e26701461030d578163b6b55f251461020d578163d547741f146101ce578163ec01183f1461014e575063f19881e21461012257600080fd5b3461014a578160031936011261014a5761012f5490516001600160a01b039091168152602090f35b5080fd5b9050346101ca5760203660031901126101ca57610169611247565b6101716114ae565b6001600160a01b03169182156101bd57505061012f80546001600160a01b031916821790557f7a616ac492321d75e47e6d7a803272fdf7e31b9971149f2650821b7562104df18280a280f35b5163e6c4247b60e01b8152fd5b8280fd5b919050346101ca57806003193601126101ca5761020a913561020560016101f3611262565b938387526065602052862001546116a3565b611804565b80f35b919050346101ca5760203660031901126101ca5781359161022c6117ae565b633b9aca0083106102ff576101305482516323b872dd60e01b8152338382015230602482015260448101859052906020908290606490829089906001600160a01b03165af19081156102f55785916102c6575b50156102b85750519081527fe1fffcc4923d04b559f4d29a8bfc6cda04eb5b0d3c460751c2402c5c5cc9109c60203392a2600160fb5580f35b90516312171d8360e31b8152fd5b6102e8915060203d6020116102ee575b6102e081836112c6565b810190611332565b3861027f565b503d6102d6565b83513d87823e3d90fd5b9051636ba4a1c760e01b8152fd5b50503461014a57602036600319011261014a5760209181906001600160a01b03610335611247565b16815261012d845220549051908152f35b50503461014a578160031936011261014a5751908152602090f35b50503461014a578060031936011261014a5761037b611247565b6001600160a01b0316825261012e602052808220805460243593908410156103b857506020926103aa91611304565b91905490519160031b1c8152f35b80fd5b9050346101ca57816003193601126101ca578160209360ff926103dc611262565b90358252606586528282206001600160a01b039091168252855220549151911615158152f35b919050346101ca57826003193601126101ca576101305481516370a0823160e01b81523093810193909352602090839060249082906001600160a01b03165afa91821561049257839261045a575b6020838351908152f35b9091506020813d60201161048a575b81610476602093836112c6565b810103126101ca5760209250519038610450565b3d9150610469565b81513d85823e3d90fd5b905082346103b857806003193601126103b857507f00000000000000000000000000000000000000000000000000000000000000006001600160a01b031630036104f75760208251600080516020611b5b8339815191528152f35b6020608492519162461bcd60e51b8352820152603860248201527f555550535570677261646561626c653a206d757374206e6f742062652063616c60448201527f6c6564207468726f7567682064656c656761746563616c6c00000000000000006064820152fd5b918091506003193601126101ca57610575611247565b906024359067ffffffffffffffff8211610837573660238301121561083757818401356105a1816112e8565b906105ae835192836112c6565b808252866020948584019236602482840101116101ca578060248893018537840101526001600160a01b037f0000000000000000000000000000000000000000000000000000000000000000811690610609308314156113ec565b610626600080516020611b5b83398151915292828454161461144d565b61062e6114ae565b7f4910fdfa16fed3260ed0e7147f7cc6da11a60208b5b9406d12a635614ffd91435460ff16156106685750505050505061020a9150611929565b8693949596169085516352d1902d60e01b815287818a81865afa8a9181610804575b506106e957865162461bcd60e51b8152808a01899052602e60248201527f45524331393637557067726164653a206e657720696d706c656d656e7461746960448201526d6f6e206973206e6f74205555505360901b6064820152608490fd5b97919293959497036107af57509086929161070385611929565b7fbc7cd75a20ee27fd9adebab32041f755214dbc6bffa90cc0225b39da2e5c2d3b8480a28551158015906107a7575b610740575b50505050505080f35b61079b95660819985a5b195960ca1b837f416464726573733a206c6f772d6c6576656c2064656c65676174652063616c6c8695519861077e8a611278565b60278a528901528701525190845af46107956113bc565b91611ac9565b50388080838180610737565b506001610732565b835162461bcd60e51b8152908101869052602960248201527f45524331393637557067726164653a20756e737570706f727465642070726f786044820152681a58589b195555525160ba1b6064820152608490fd5b9091508881813d8311610830575b61081c81836112c6565b8101031261082c5751903861068a565b8a80fd5b503d610812565b8480fd5b9050346101ca57816003193601126101ca57610855611247565b9061085e611262565b9084549160ff93848460081c161593848095610a2f575b8015610a19575b156109bf5760ff19818116600117895590856109ae575b506108a386895460081c1661187a565b878052606560209081528789206001600160a01b03948516808b52915287892054909190871615610963575b50506108f38754958660081c166108e58161187a565b6108ee8161187a565b61187a565b600160fb5516908115610955575061013080546001600160a01b031916909117905561091d578280f35b61ff001916825551600181527f7f26b83ff96e1f2b6a682f133852f6798a09c465da95921460cefb384740249890602090a138808280f35b845163e6c4247b60e01b8152fd5b8880526065602052878920828a526020526001888a20918254161790553390887f2f8788117e7eff1d82e926ec794901d17c78024a50270940304540a733656f0d8180a438806108cf565b61ffff191661010117885538610893565b865162461bcd60e51b8152602081860152602e60248201527f496e697469616c697a61626c653a20636f6e747261637420697320616c72656160448201526d191e481a5b9a5d1a585b1a5e995960921b6064820152608490fd5b50303b15801561087c575060018682161461087c565b50600186821610610875565b8284346103b85760603660031901126103b857610a56611247565b906024359080805260209460658652848220338352865260ff85832054161580610c0b575b80610bf5575b80610beb575b610bde57633b9aca0083049160018060a01b0385169485825261012d8852868220805490858201809211610bcb5755865194888601914283526bffffffffffffffffffffffff199060601b1688870152605486015260443560748601526074855260a085019480861067ffffffffffffffff871117610bb8578588525190209385825261012e908189526064888420541015610baa575085825287528581209081549268010000000000000000841015610b9757505091610b7182879460017f2719708b7902851e69839857612fb75ffafed92baad818799cf0a692629dba669795018155611304565b81549060031b9084821b91600019901b1916179055825191825286820152a25160018152f35b634e487b7160e01b825260419052602490fd5b63390279d160e11b81528390fd5b634e487b7160e01b835260418452602483fd5b634e487b7160e01b845260118552602484fd5b84516282b42960e81b8152fd5b5030331415610a87565b5061012f546001600160a01b0316331415610a81565b50610130546001600160a01b0316331415610a7b565b919050346101ca57602080600319360112610e1557610c3e611247565b916001600160a01b037f0000000000000000000000000000000000000000000000000000000000000000811690610c77308314156113ec565b610c94600080516020611b5b83398151915292828454161461144d565b610c9c6114ae565b8251918483019183831067ffffffffffffffff841117610e02578285528884527f4910fdfa16fed3260ed0e7147f7cc6da11a60208b5b9406d12a635614ffd91435460ff1615610cf65750505050505061020a9150611929565b8693949596169085516352d1902d60e01b815287818a81865afa8a9181610dd3575b50610d7757865162461bcd60e51b8152808a01899052602e60248201527f45524331393637557067726164653a206e657720696d706c656d656e7461746960448201526d6f6e206973206e6f74205555505360901b6064820152608490fd5b97919293959497036107af575090869291610d9185611929565b7fbc7cd75a20ee27fd9adebab32041f755214dbc6bffa90cc0225b39da2e5c2d3b8480a2855115801590610dcc576107405750505050505080f35b5082610732565b9091508881813d8311610dfb575b610deb81836112c6565b8101031261082c57519038610d18565b503d610de1565b634e487b7160e01b895260418852602489fd5b8380fd5b8391503461014a578260031936011261014a57610e34611262565b90336001600160a01b03831603610e50579061020a9135611804565b608490602085519162461bcd60e51b8352820152602f60248201527f416363657373436f6e74726f6c3a2063616e206f6e6c792072656e6f756e636560448201526e103937b632b9903337b91039b2b63360891b6064820152fd5b9050346101ca57816003193601126101ca573590610ec7611262565b908284526065602052610edf600182862001546116a3565b828452606560209081528185206001600160a01b039093168086529290528084205460ff1615610f0d578380f35b82845260656020528084208285526020528320600160ff1982541617905533917f2f8788117e7eff1d82e926ec794901d17c78024a50270940304540a733656f0d8480a43880808380f35b8284346103b85760208060031936011261014a57833590610f776117ae565b610f7f6114ae565b81156110e5576101305484516370a0823160e01b815230878201526001600160a01b03909116908281602481855afa9081156110db5790849186916110aa575b501061109a57818491604487518094819363a9059cbb60e01b8352338c8401528860248401525af1908161107d575b5061104b5750508060033d1161103b575b506308c379a014611021575b6110136113bc565b50516312171d8360e31b8152fd5b61102961134a565b1561100b57516312171d8360e31b8152fd5b90508281803e5160e01c83610fff565b7f7fcf532c15f0a6db0bd6d0e038bea71d30d808c7d98cb3bf7268a95bf5081b659084519283523392a2600160fb5580f35b61109390833d85116102ee576102e081836112c6565b5086610fee565b8451631e9acf1760e31b81528690fd5b809250848092503d83116110d4575b6110c381836112c6565b810103126108375783905188610fbf565b503d6110b9565b86513d87823e3d90fd5b5050505163162908e360e11b8152fd5b9050346101ca5760203660031901126101ca5781602093600192358152606585522001549051908152f35b50503461014a578160031936011261014a5760209051633b9aca008152f35b50503461014a578160031936011261014a576020905160648152f35b50503461014a578160031936011261014a576101305490516001600160a01b039091168152602090f35b9050346101ca5760203660031901126101ca576111a0611247565b6111a86114ae565b6001600160a01b03169182156101bd57505061013080546001600160a01b031916821790557f8dd13ff9ccdc1694dfe2a405442bfc1238408c3c415381c57f67c9515645548d8280a280f35b8491346101ca5760203660031901126101ca573563ffffffff60e01b81168091036101ca5760209250637965db0b60e01b8114908115611236575b5015158152f35b6301ffc9a760e01b1490508361122f565b600435906001600160a01b038216820361125d57565b600080fd5b602435906001600160a01b038216820361125d57565b6060810190811067ffffffffffffffff82111761129457604052565b634e487b7160e01b600052604160045260246000fd5b6080810190811067ffffffffffffffff82111761129457604052565b90601f8019910116810190811067ffffffffffffffff82111761129457604052565b67ffffffffffffffff811161129457601f01601f191660200190565b805482101561131c5760005260206000200190600090565b634e487b7160e01b600052603260045260246000fd5b9081602091031261125d5751801515810361125d5790565b600060443d106113a857604051600319913d83016004833e815167ffffffffffffffff918282113d6024840111176113ab578184019485519384116113b3573d850101602084870101116113ab57506113a8929101602001906112c6565b90565b949350505050565b50949350505050565b3d156113e7573d906113cd826112e8565b916113db60405193846112c6565b82523d6000602084013e565b606090565b156113f357565b60405162461bcd60e51b815260206004820152602c60248201527f46756e6374696f6e206d7573742062652063616c6c6564207468726f7567682060448201526b19195b1959d85d1958d85b1b60a21b6064820152608490fd5b1561145457565b60405162461bcd60e51b815260206004820152602c60248201527f46756e6374696f6e206d7573742062652063616c6c6564207468726f7567682060448201526b6163746976652070726f787960a01b6064820152608490fd5b3360009081527fffdfc1249c027f9191656349feb0761381bb32c9f557e01f419fd08754bf5a1b602090815260408083205490929060ff16156114f057505050565b6114f9336119ca565b83519082611506836112aa565b6042835284830193606036863783511561168f57603085538351906001916001101561168f5790607860218601536041915b818311611621575050506115df5761158d9385936115c5936115b66048946115db9951988576020b1b1b2b9b9a1b7b73a3937b61d1030b1b1b7bab73a1604d1b8b9788015282519283916037890191016118da565b8401917001034b99036b4b9b9b4b733903937b6329607d1b6037840152518093868401906118da565b010360288101855201836112c6565b5162461bcd60e51b8152918291600483016118fd565b0390fd5b60648486519062461bcd60e51b825280600483015260248201527f537472696e67733a20686578206c656e67746820696e73756666696369656e746044820152fd5b909192600f8116601081101561167b576f181899199a1a9b1b9c1cb0b131b232b360811b901a61165185886119b9565b5360041c92801561166757600019019190611538565b634e487b7160e01b82526011600452602482fd5b634e487b7160e01b83526032600452602483fd5b634e487b7160e01b81526032600452602490fd5b600081815260209060658252604092838220338352835260ff8483205416156116cc5750505050565b6116d5336119ca565b8451916116e1836112aa565b6042835284830193606036863783511561168f57603085538351906001916001101561168f5790607860218601536041915b818311611768575050506115df5761158d9385936115c5936115b66048946115db9951988576020b1b1b2b9b9a1b7b73a3937b61d1030b1b1b7bab73a1604d1b8b9788015282519283916037890191016118da565b909192600f8116601081101561167b576f181899199a1a9b1b9c1cb0b131b232b360811b901a61179885886119b9565b5360041c92801561166757600019019190611713565b600260fb54146117bf57600260fb55565b60405162461bcd60e51b815260206004820152601f60248201527f5265656e7472616e637947756172643a207265656e7472616e742063616c6c006044820152606490fd5b906000918083526065602052604083209160018060a01b03169182845260205260ff60408420541661183557505050565b8083526065602052604083208284526020526040832060ff1981541690557ff6391f5c32d9c69d2a47ea670b442974b53935d1edc7fd64eb21e047a839171b339380a4565b1561188157565b60405162461bcd60e51b815260206004820152602b60248201527f496e697469616c697a61626c653a20636f6e7472616374206973206e6f74206960448201526a6e697469616c697a696e6760a81b6064820152608490fd5b60005b8381106118ed5750506000910152565b81810151838201526020016118dd565b6040916020825261191d81518092816020860152602086860191016118da565b601f01601f1916010190565b803b1561195e57600080516020611b5b83398151915280546001600160a01b0319166001600160a01b03909216919091179055565b60405162461bcd60e51b815260206004820152602d60248201527f455243313936373a206e657720696d706c656d656e746174696f6e206973206e60448201526c1bdd08184818dbdb9d1c9858dd609a1b6064820152608490fd5b90815181101561131c570160200190565b604051906119d782611278565b602a825260208201604036823782511561131c576030905381516001906001101561131c57607860218401536029905b808211611a5b575050611a175790565b606460405162461bcd60e51b815260206004820152602060248201527f537472696e67733a20686578206c656e67746820696e73756666696369656e746044820152fd5b9091600f81166010811015611ab4576f181899199a1a9b1b9c1cb0b131b232b360811b901a611a8a84866119b9565b5360041c918015611a9f576000190190611a07565b60246000634e487b7160e01b81526011600452fd5b60246000634e487b7160e01b81526032600452fd5b91929015611b2b5750815115611add575090565b3b15611ae65790565b60405162461bcd60e51b815260206004820152601d60248201527f416464726573733a2063616c6c20746f206e6f6e2d636f6e74726163740000006044820152606490fd5b825190915015611b3e5750805190602001fd5b60405162461bcd60e51b81529081906115db90600483016118fd56fe360894a13ba1a3210667c828492db98dca3e2076cc3735a920a3ca505d382bbca264697066735822122060bf220268ce8fbe23b853dc6f0e048f5f93a11dd306b9e6a8dbc9f5b166962264736f6c63430008160033",
  "linkReferences": {},
  "deployedLinkReferences": {}
}