{
  "_format": "hh-sol-artifact-1",
  "contractName": "EvolutionReserve",
  "sourceName": "contracts/EvolutionReserve.sol",
  "abi": [
    {
      "inputs": [],
      "stateMutability": "nonpayable",
      "type": "constructor"
    },
    {
      "anonymous": false,
      "inputs": [
        {
          "indexed": false,
          "internalType": "address",
          "name": "previousAdmin",
          "type": "address"
        },
        {
          "indexed": false,
          "internalType": "address",
          "name": "newAdmin",
          "type": "address"
        }
      ],
      "name": "AdminChanged",
      "type": "event"
    },
    {
      "anonymous": false,
      "inputs": [
        {
          "indexed": true,
          "internalType": "address",
          "name": "beacon",
          "type": "address"
        }
      ],
      "name": "BeaconUpgraded",
      "type": "event"
    },
    {
      "anonymous": false,
      "inputs": [
        {
          "indexed": true,
          "internalType": "address",
          "name": "user",
          "type": "address"
        },
        {
          "indexed": false,
          "internalType": "bytes32",
          "name": "eventHash",
          "type": "bytes32"
        },
        {
          "indexed": false,
          "internalType": "uint256",
          "name": "energy",
          "type": "uint256"
        }
      ],
      "name": "CulturalEventRecorded",
      "type": "event"
    },
    {
      "anonymous": false,
      "inputs": [
        {
          "indexed": false,
          "internalType": "uint8",
          "name": "version",
          "type": "uint8"
        }
      ],
      "name": "Initialized",
      "type": "event"
    },
    {
      "anonymous": false,
      "inputs": [
        {
          "indexed": true,
          "internalType": "address",
          "name": "previousOwner",
          "type": "address"
        },
        {
          "indexed": true,
          "internalType": "address",
          "name": "newOwner",
          "type": "address"
        }
      ],
      "name": "OwnershipTransferred",
      "type": "event"
    },
    {
      "anonymous": false,
      "inputs": [
        {
          "indexed": true,
          "internalType": "address",
          "name": "implementation",
          "type": "address"
        }
      ],
      "name": "Upgraded",
      "type": "event"
    },
    {
      "inputs": [],
      "name": "amoneyToken",
      "outputs": [
        {
          "internalType": "address",
          "name": "",
          "type": "address"
        }
      ],
      "stateMutability": "view",
      "type": "function"
    },
    {
      "inputs": [
        {
          "internalType": "address",
          "name": "",
          "type": "address"
        }
      ],
      "name": "culturalEnergy",
      "outputs": [
        {
          "internalType": "uint256",
          "name": "",
          "type": "uint256"
        }
      ],
      "stateMutability": "view",
      "type": "function"
    },
    {
      "inputs": [
        {
          "internalType": "address",
          "name": "",
          "type": "address"
        },
        {
          "internalType": "uint256",
          "name": "",
          "type": "uint256"
        }
      ],
      "name": "culturalEvents",
      "outputs": [
        {
          "internalType": "bytes32",
          "name": "",
          "type": "bytes32"
        }
      ],
      "stateMutability": "view",
      "type": "function"
    },
    {
      "inputs": [
        {
          "internalType": "address",
          "name": "_amoneyToken",
          "type": "address"
        }
      ],
      "name": "initialize",
      "outputs": [],
      "stateMutability": "nonpayable",
      "type": "function"
    },
    {
      "inputs": [],
      "name": "neuralField",
      "outputs": [
        {
          "internalType": "address",
          "name": "",
          "type": "address"
        }
      ],
      "stateMutability": "view",
      "type": "function"
    },
    {
      "inputs": [],
      "name": "owner",
      "outputs": [
        {
          "internalType": "address",
          "name": "",
          "type": "address"
        }
      ],
      "stateMutability": "view",
      "type": "function"
    },
    {
      "inputs": [],
      "name": "proxiableUUID",
      "outputs": [
        {
          "internalType": "bytes32",
          "name": "",
          "type": "bytes32"
        }
      ],
      "stateMutability": "view",
      "type": "function"
    },
    {
      "inputs": [
        {
          "internalType": "address",
          "name": "_user",
          "type": "address"
        },
        {
          "internalType": "uint256",
          "name": "_amount",
          "type": "uint256"
        },
        {
          "internalType": "bytes32",
          "name": "_context",
          "type": "bytes32"
        }
      ],
      "name": "recordCulturalEvent",
      "outputs": [
        {
          "internalType": "bool",
          "name": "",
          "type": "bool"
        }
      ],
      "stateMutability": "nonpayable",
      "type": "function"
    },
    {
      "inputs": [],
      "name": "renounceOwnership",
      "outputs": [],
      "stateMutability": "nonpayable",
      "type": "function"
    },
    {
      "inputs": [
        {
          "internalType": "address",
          "name": "newOwner",
          "type": "address"
        }
      ],
      "name": "transferOwnership",
      "outputs": [],
      "stateMutability": "nonpayable",
      "type": "function"
    },
    {
      "inputs": [
        {
          "internalType": "address",
          "name": "newImplementation",
          "type": "address"
        }
      ],
      "name": "upgradeTo",
      "outputs": [],
      "stateMutability": "nonpayable",
      "type": "function"
    },
    {
      "inputs": [
        {
          "internalType": "address",
          "name": "newImplementation",
          "type": "address"
        },
        {
          "internalType": "bytes",
          "name": "data",
          "type": "bytes"
        }
      ],
      "name": "upgradeToAndCall",
      "outputs": [],
      "stateMutability": "payable",
      "type": "function"
    }
  ],
  "bytecode": "0x60a06040523060805234801561001457600080fd5b5061001d610022565b6100e1565b600054610100900460ff161561008e5760405162461bcd60e51b815260206004820152602760248201527f496e697469616c697a61626c653a20636f6e747261637420697320696e697469604482015266616c697a696e6760c81b606482015260840160405180910390fd5b60005460ff908116146100df576000805460ff191660ff9081179091556040519081527f7f26b83ff96e1f2b6a682f133852f6798a09c465da95921460cefb38474024989060200160405180910390a15b565b6080516110a86101186000396000818161025b015281816102a4015281816104a3015281816104e3015261057601526110a86000f3fe6080604052600436106100a75760003560e01c80638da5cb5b116100645780638da5cb5b146101865780639b93e01e146101a4578063a48e2670146101c4578063c4d66de8146101f1578063f19881e214610211578063f2fde38b1461023157600080fd5b80630a043cd8146100ac5780633659cfe6146100e95780633e7183a11461010b5780634f1ef2861461013b57806352d1902d1461014e578063715018a614610171575b600080fd5b3480156100b857600080fd5b5060cc546100cc906001600160a01b031681565b6040516001600160a01b0390911681526020015b60405180910390f35b3480156100f557600080fd5b50610109610104366004610d29565b610251565b005b34801561011757600080fd5b5061012b610126366004610d44565b610339565b60405190151581526020016100e0565b610109610149366004610d8d565b610499565b34801561015a57600080fd5b50610163610569565b6040519081526020016100e0565b34801561017d57600080fd5b5061010961061c565b34801561019257600080fd5b506097546001600160a01b03166100cc565b3480156101b057600080fd5b506101636101bf366004610e4f565b610630565b3480156101d057600080fd5b506101636101df366004610d29565b60c96020526000908152604090205481565b3480156101fd57600080fd5b5061010961020c366004610d29565b610661565b34801561021d57600080fd5b5060cb546100cc906001600160a01b031681565b34801561023d57600080fd5b5061010961024c366004610d29565b610795565b6001600160a01b037f00000000000000000000000000000000000000000000000000000000000000001630036102a25760405162461bcd60e51b815260040161029990610e79565b60405180910390fd5b7f00000000000000000000000000000000000000000000000000000000000000006001600160a01b03166102eb60008051602061102c833981519152546001600160a01b031690565b6001600160a01b0316146103115760405162461bcd60e51b815260040161029990610ec5565b61031a8161080b565b6040805160008082526020820190925261033691839190610813565b50565b60cc546000906001600160a01b031633148061035f575060cb546001600160a01b031633145b61039a5760405162461bcd60e51b815260206004820152600c60248201526b155b985d5d1a1bdc9a5e995960a21b6044820152606401610299565b60006103aa633b9aca0085610f11565b6001600160a01b038616600090815260c960205260408120805492935083929091906103d7908490610f33565b9091555050604080514260208201526bffffffffffffffffffffffff19606088901b1691810191909152605481018590526074810184905260009060940160408051808303601f1901815282825280516020918201206001600160a01b038a16600081815260ca8452848120805460018101825590825290849020018290558185529184018690529350917f2719708b7902851e69839857612fb75ffafed92baad818799cf0a692629dba66910160405180910390a250600195945050505050565b6001600160a01b037f00000000000000000000000000000000000000000000000000000000000000001630036104e15760405162461bcd60e51b815260040161029990610e79565b7f00000000000000000000000000000000000000000000000000000000000000006001600160a01b031661052a60008051602061102c833981519152546001600160a01b031690565b6001600160a01b0316146105505760405162461bcd60e51b815260040161029990610ec5565b6105598261080b565b61056582826001610813565b5050565b6000306001600160a01b037f000000000000000000000000000000000000000000000000000000000000000016146106095760405162461bcd60e51b815260206004820152603860248201527f555550535570677261646561626c653a206d757374206e6f742062652063616c60448201527f6c6564207468726f7567682064656c656761746563616c6c00000000000000006064820152608401610299565b5060008051602061102c83398151915290565b610624610983565b61062e60006109dd565b565b60ca602052816000526040600020818154811061064c57600080fd5b90600052602060002001600091509150505481565b600054610100900460ff16158080156106815750600054600160ff909116105b8061069b5750303b15801561069b575060005460ff166001145b6106fe5760405162461bcd60e51b815260206004820152602e60248201527f496e697469616c697a61626c653a20636f6e747261637420697320616c72656160448201526d191e481a5b9a5d1a585b1a5e995960921b6064820152608401610299565b6000805460ff191660011790558015610721576000805461ff0019166101001790555b610729610a2f565b610731610a5e565b60cc80546001600160a01b0319166001600160a01b0384161790558015610565576000805461ff0019169055604051600181527f7f26b83ff96e1f2b6a682f133852f6798a09c465da95921460cefb38474024989060200160405180910390a15050565b61079d610983565b6001600160a01b0381166108025760405162461bcd60e51b815260206004820152602660248201527f4f776e61626c653a206e6577206f776e657220697320746865207a65726f206160448201526564647265737360d01b6064820152608401610299565b610336816109dd565b610336610983565b7f4910fdfa16fed3260ed0e7147f7cc6da11a60208b5b9406d12a635614ffd91435460ff161561084b5761084683610a85565b505050565b826001600160a01b03166352d1902d6040518163ffffffff1660e01b8152600401602060405180830381865afa9250505080156108a5575060408051601f3d908101601f191682019092526108a291810190610f54565b60015b6109085760405162461bcd60e51b815260206004820152602e60248201527f45524331393637557067726164653a206e657720696d706c656d656e7461746960448201526d6f6e206973206e6f74205555505360901b6064820152608401610299565b60008051602061102c83398151915281146109775760405162461bcd60e51b815260206004820152602960248201527f45524331393637557067726164653a20756e737570706f727465642070726f786044820152681a58589b195555525160ba1b6064820152608401610299565b50610846838383610b21565b6097546001600160a01b0316331461062e5760405162461bcd60e51b815260206004820181905260248201527f4f776e61626c653a2063616c6c6572206973206e6f7420746865206f776e65726044820152606401610299565b609780546001600160a01b038381166001600160a01b0319831681179093556040519116919082907f8be0079c531659141344cd1fd0a4f28419497f9722a3daafe3b4186f6b6457e090600090a35050565b600054610100900460ff16610a565760405162461bcd60e51b815260040161029990610f6d565b61062e610b4c565b600054610100900460ff1661062e5760405162461bcd60e51b815260040161029990610f6d565b6001600160a01b0381163b610af25760405162461bcd60e51b815260206004820152602d60248201527f455243313936373a206e657720696d706c656d656e746174696f6e206973206e60448201526c1bdd08184818dbdb9d1c9858dd609a1b6064820152608401610299565b60008051602061102c83398151915280546001600160a01b0319166001600160a01b0392909216919091179055565b610b2a83610b7c565b600082511180610b375750805b1561084657610b468383610bbc565b50505050565b600054610100900460ff16610b735760405162461bcd60e51b815260040161029990610f6d565b61062e336109dd565b610b8581610a85565b6040516001600160a01b038216907fbc7cd75a20ee27fd9adebab32041f755214dbc6bffa90cc0225b39da2e5c2d3b90600090a250565b6060610be1838360405180606001604052806027815260200161104c60279139610bea565b90505b92915050565b6060600080856001600160a01b031685604051610c079190610fdc565b600060405180830381855af49150503d8060008114610c42576040519150601f19603f3d011682016040523d82523d6000602084013e610c47565b606091505b5091509150610c5886838387610c62565b9695505050505050565b60608315610cd1578251600003610cca576001600160a01b0385163b610cca5760405162461bcd60e51b815260206004820152601d60248201527f416464726573733a2063616c6c20746f206e6f6e2d636f6e74726163740000006044820152606401610299565b5081610cdb565b610cdb8383610ce3565b949350505050565b815115610cf35781518083602001fd5b8060405162461bcd60e51b81526004016102999190610ff8565b80356001600160a01b0381168114610d2457600080fd5b919050565b600060208284031215610d3b57600080fd5b610be182610d0d565b600080600060608486031215610d5957600080fd5b610d6284610d0d565b95602085013595506040909401359392505050565b634e487b7160e01b600052604160045260246000fd5b60008060408385031215610da057600080fd5b610da983610d0d565b9150602083013567ffffffffffffffff80821115610dc657600080fd5b818501915085601f830112610dda57600080fd5b813581811115610dec57610dec610d77565b604051601f8201601f19908116603f01168101908382118183101715610e1457610e14610d77565b81604052828152886020848701011115610e2d57600080fd5b8260208601602083013760006020848301015280955050505050509250929050565b60008060408385031215610e6257600080fd5b610e6b83610d0d565b946020939093013593505050565b6020808252602c908201527f46756e6374696f6e206d7573742062652063616c6c6564207468726f7567682060408201526b19195b1959d85d1958d85b1b60a21b606082015260800190565b6020808252602c908201527f46756e6374696f6e206d7573742062652063616c6c6564207468726f7567682060408201526b6163746976652070726f787960a01b606082015260800190565b600082610f2e57634e487b7160e01b600052601260045260246000fd5b500490565b80820180821115610be457634e487b7160e01b600052601160045260246000fd5b600060208284031215610f6657600080fd5b5051919050565b6020808252602b908201527f496e697469616c697a61626c653a20636f6e7472616374206973206e6f74206960408201526a6e697469616c697a696e6760a81b606082015260800190565b60005b83811015610fd3578181015183820152602001610fbb565b50506000910152565b60008251610fee818460208701610fb8565b9190910192915050565b6020815260008251806020840152611017816040850160208701610fb8565b601f01601f1916919091016040019291505056fe360894a13ba1a3210667c828492db98dca3e2076cc3735a920a3ca505d382bbc416464726573733a206c6f772d6c6576656c2064656c65676174652063616c6c206661696c6564a264697066735822122062e9ef826981256bf6038c1080b1364e467b75536586ba2feb7648176a886dc164736f6c63430008160033",
  "linkReferences": {},
  "deployedLinkReferences": {}
}