{
  "_format": "hh-sol-artifact-1",
  "contractName": "EvolutionReserve",
  "sourceName": "contracts/EvolutionReserve.sol",
  "abi": [
    {
      "inputs": [],
      "stateMutability": "nonpayable",
      "type": "constructor"
    },
    {
      "inputs": [],
      "name": "DepositTooSmall",
      "type": "error"
    },
    {
      "inputs": [],
      "name": "InsufficientBalance",
      "type": "error"
    },
    {
      "inputs": [],
      "name": "InvalidAddress",
      "type": "error"
    },
    {
      "inputs": [],
      "name": "InvalidAmount",
      "type": "error"
    },
    {
      "inputs": [],
      "name": "TransferFailed",
      "type": "error"
    },
    {
      "inputs": [],
      "name": "Unauthorized",
      "type": "error"
    },
    {
      "anonymous": false,
      "inputs": [
        {
          "indexed": true,
          "internalType": "address",
          "name": "newAddress",
          "type": "address"
        }
      ],
      "name": "AMoneyTokenUpdated",
      "type": "event"
    },
    {
      "anonymous": false,
      "inputs": [
        {
          "indexed": false,
          "internalType": "address",
          "name": "previousAdmin",
          "type": "address"
        },
        {
          "indexed": false,
          "internalType": "address",
          "name": "newAdmin",
          "type": "address"
        }
      ],
      "name": "AdminChanged",
      "type": "event"
    },
    {
      "anonymous": false,
      "inputs": [
        {
          "indexed": true,
          "internalType": "address",
          "name": "beacon",
          "type": "address"
        }
      ],
      "name": "BeaconUpgraded",
      "type": "event"
    },
    {
      "anonymous": false,
      "inputs": [
        {
          "indexed": true,
          "internalType": "address",
          "name": "user",
          "type": "address"
        },
        {
          "indexed": false,
          "internalType": "bytes32",
          "name": "eventHash",
          "type": "bytes32"
        },
        {
          "indexed": false,
          "internalType": "uint256",
          "name": "energy",
          "type": "uint256"
        }
      ],
      "name": "CulturalEventRecorded",
      "type": "event"
    },
    {
      "anonymous": false,
      "inputs": [
        {
          "indexed": true,
          "internalType": "address",
          "name": "user",
          "type": "address"
        },
        {
          "indexed": false,
          "internalType": "uint256",
          "name": "amount",
          "type": "uint256"
        }
      ],
      "name": "Deposit",
      "type": "event"
    },
    {
      "anonymous": false,
      "inputs": [
        {
          "indexed": false,
          "internalType": "uint8",
          "name": "version",
          "type": "uint8"
        }
      ],
      "name": "Initialized",
      "type": "event"
    },
    {
      "anonymous": false,
      "inputs": [
        {
          "indexed": true,
          "internalType": "address",
          "name": "neuralField",
          "type": "address"
        }
      ],
      "name": "NeuralFieldConnected",
      "type": "event"
    },
    {
      "anonymous": false,
      "inputs": [
        {
          "indexed": true,
          "internalType": "address",
          "name": "previousOwner",
          "type": "address"
        },
        {
          "indexed": true,
          "internalType": "address",
          "name": "newOwner",
          "type": "address"
        }
      ],
      "name": "OwnershipTransferred",
      "type": "event"
    },
    {
      "anonymous": false,
      "inputs": [
        {
          "indexed": true,
          "internalType": "address",
          "name": "implementation",
          "type": "address"
        }
      ],
      "name": "Upgraded",
      "type": "event"
    },
    {
      "anonymous": false,
      "inputs": [
        {
          "indexed": true,
          "internalType": "address",
          "name": "user",
          "type": "address"
        },
        {
          "indexed": false,
          "internalType": "uint256",
          "name": "amount",
          "type": "uint256"
        }
      ],
      "name": "Withdrawal",
      "type": "event"
    },
    {
      "inputs": [],
      "name": "MIN_DEPOSIT_AMOUNT",
      "outputs": [
        {
          "internalType": "uint256",
          "name": "",
          "type": "uint256"
        }
      ],
      "stateMutability": "view",
      "type": "function"
    },
    {
      "inputs": [],
      "name": "amoneyToken",
      "outputs": [
        {
          "internalType": "contract IERC20Upgradeable",
          "name": "",
          "type": "address"
        }
      ],
      "stateMutability": "view",
      "type": "function"
    },
    {
      "inputs": [
        {
          "internalType": "address",
          "name": "_neuralField",
          "type": "address"
        }
      ],
      "name": "connectNeuralField",
      "outputs": [],
      "stateMutability": "nonpayable",
      "type": "function"
    },
    {
      "inputs": [
        {
          "internalType": "address",
          "name": "",
          "type": "address"
        }
      ],
      "name": "culturalEnergy",
      "outputs": [
        {
          "internalType": "uint256",
          "name": "",
          "type": "uint256"
        }
      ],
      "stateMutability": "view",
      "type": "function"
    },
    {
      "inputs": [
        {
          "internalType": "address",
          "name": "",
          "type": "address"
        },
        {
          "internalType": "uint256",
          "name": "",
          "type": "uint256"
        }
      ],
      "name": "culturalEvents",
      "outputs": [
        {
          "internalType": "bytes32",
          "name": "",
          "type": "bytes32"
        }
      ],
      "stateMutability": "view",
      "type": "function"
    },
    {
      "inputs": [
        {
          "internalType": "uint256",
          "name": "_amount",
          "type": "uint256"
        }
      ],
      "name": "deposit",
      "outputs": [],
      "stateMutability": "nonpayable",
      "type": "function"
    },
    {
      "inputs": [],
      "name": "getContractBalance",
      "outputs": [
        {
          "internalType": "uint256",
          "name": "",
          "type": "uint256"
        }
      ],
      "stateMutability": "view",
      "type": "function"
    },
    {
      "inputs": [
        {
          "internalType": "address",
          "name": "_amoneyToken",
          "type": "address"
        }
      ],
      "name": "initialize",
      "outputs": [],
      "stateMutability": "nonpayable",
      "type": "function"
    },
    {
      "inputs": [],
      "name": "neuralField",
      "outputs": [
        {
          "internalType": "address",
          "name": "",
          "type": "address"
        }
      ],
      "stateMutability": "view",
      "type": "function"
    },
    {
      "inputs": [],
      "name": "owner",
      "outputs": [
        {
          "internalType": "address",
          "name": "",
          "type": "address"
        }
      ],
      "stateMutability": "view",
      "type": "function"
    },
    {
      "inputs": [],
      "name": "proxiableUUID",
      "outputs": [
        {
          "internalType": "bytes32",
          "name": "",
          "type": "bytes32"
        }
      ],
      "stateMutability": "view",
      "type": "function"
    },
    {
      "inputs": [
        {
          "internalType": "address",
          "name": "_user",
          "type": "address"
        },
        {
          "internalType": "uint256",
          "name": "_amount",
          "type": "uint256"
        },
        {
          "internalType": "bytes32",
          "name": "_context",
          "type": "bytes32"
        }
      ],
      "name": "recordCulturalEvent",
      "outputs": [
        {
          "internalType": "bool",
          "name": "",
          "type": "bool"
        }
      ],
      "stateMutability": "nonpayable",
      "type": "function"
    },
    {
      "inputs": [],
      "name": "renounceOwnership",
      "outputs": [],
      "stateMutability": "nonpayable",
      "type": "function"
    },
    {
      "inputs": [
        {
          "internalType": "address",
          "name": "_newAMoneyToken",
          "type": "address"
        }
      ],
      "name": "setAMoneyToken",
      "outputs": [],
      "stateMutability": "nonpayable",
      "type": "function"
    },
    {
      "inputs": [
        {
          "internalType": "address",
          "name": "newOwner",
          "type": "address"
        }
      ],
      "name": "transferOwnership",
      "outputs": [],
      "stateMutability": "nonpayable",
      "type": "function"
    },
    {
      "inputs": [
        {
          "internalType": "address",
          "name": "newImplementation",
          "type": "address"
        }
      ],
      "name": "upgradeTo",
      "outputs": [],
      "stateMutability": "nonpayable",
      "type": "function"
    },
    {
      "inputs": [
        {
          "internalType": "address",
          "name": "newImplementation",
          "type": "address"
        },
        {
          "internalType": "bytes",
          "name": "data",
          "type": "bytes"
        }
      ],
      "name": "upgradeToAndCall",
      "outputs": [],
      "stateMutability": "payable",
      "type": "function"
    },
    {
      "inputs": [
        {
          "internalType": "uint256",
          "name": "_amount",
          "type": "uint256"
        }
      ],
      "name": "withdraw",
      "outputs": [],
      "stateMutability": "nonpayable",
      "type": "function"
    }
  ],
  "bytecode": "0x60a06040523060805234801561001457600080fd5b5061001d610022565b6100e1565b600054610100900460ff161561008e5760405162461bcd60e51b815260206004820152602760248201527f496e697469616c697a61626c653a20636f6e747261637420697320696e697469604482015266616c697a696e6760c81b606482015260840160405180910390fd5b60005460ff908116146100df576000805460ff191660ff9081179091556040519081527f7f26b83ff96e1f2b6a682f133852f6798a09c465da95921460cefb38474024989060200160405180910390a15b565b6080516117d2610118600039600081816105df01528181610628015281816108090152818161084901526108dc01526117d26000f3fe6080604052600436106101095760003560e01c8063715018a611610095578063b6b55f2511610064578063b6b55f25146102c0578063c4d66de8146102e0578063ec01183f14610300578063f19881e214610320578063f2fde38b1461034057600080fd5b8063715018a6146102405780638da5cb5b146102555780639b93e01e14610273578063a48e26701461029357600080fd5b80633659cfe6116100dc5780633659cfe6146101b35780633e7183a1146101d35780634f1ef2861461020357806352d1902d146102165780636f9fb98a1461022b57600080fd5b80630893b0441461010e5780630a043cd8146101305780631ea30fef1461016d5780632e1a7d4d14610193575b600080fd5b34801561011a57600080fd5b5061012e610129366004611357565b610360565b005b34801561013c57600080fd5b5060fe54610150906001600160a01b031681565b6040516001600160a01b0390911681526020015b60405180910390f35b34801561017957600080fd5b50610185633b9aca0081565b604051908152602001610164565b34801561019f57600080fd5b5061012e6101ae366004611372565b6103d9565b3480156101bf57600080fd5b5061012e6101ce366004611357565b6105d5565b3480156101df57600080fd5b506101f36101ee36600461138b565b6106ba565b6040519015158152602001610164565b61012e610211366004611401565b6107ff565b34801561022257600080fd5b506101856108cf565b34801561023757600080fd5b50610185610983565b34801561024c57600080fd5b5061012e6109f5565b34801561026157600080fd5b506033546001600160a01b0316610150565b34801561027f57600080fd5b5061018561028e3660046114ab565b610a09565b34801561029f57600080fd5b506101856102ae366004611357565b60fb6020526000908152604090205481565b3480156102cc57600080fd5b5061012e6102db366004611372565b610a3a565b3480156102ec57600080fd5b5061012e6102fb366004611357565b610b31565b34801561030c57600080fd5b5061012e61031b366004611357565b610c94565b34801561032c57600080fd5b5060fd54610150906001600160a01b031681565b34801561034c57600080fd5b5061012e61035b366004611357565b610d0d565b610368610d83565b6001600160a01b03811661038f5760405163e6c4247b60e01b815260040160405180910390fd5b60fe80546001600160a01b0319166001600160a01b0383169081179091556040517f8dd13ff9ccdc1694dfe2a405442bfc1238408c3c415381c57f67c9515645548d90600090a250565b6103e1610ddd565b6103e9610d83565b8060000361040a5760405163162908e360e11b815260040160405180910390fd5b60fe546040516370a0823160e01b815230600482015282916001600160a01b0316906370a0823190602401602060405180830381865afa158015610452573d6000803e3d6000fd5b505050506040513d601f19601f8201168201806040525081019061047691906114d5565b101561049557604051631e9acf1760e31b815260040160405180910390fd5b60fe5460405163a9059cbb60e01b8152336004820152602481018390526001600160a01b039091169063a9059cbb906044016020604051808303816000875af1925050508015610502575060408051601f3d908101601f191682019092526104ff918101906114ee565b60015b6105915761050e611517565b806308c379a0036105465750610522611532565b8061052d5750610548565b6040516312171d8360e31b815260040160405180910390fd5b505b3d808015610572576040519150601f19603f3d011682016040523d82523d6000602084013e610577565b606091505b506040516312171d8360e31b815260040160405180910390fd5b5060405181815233907f7fcf532c15f0a6db0bd6d0e038bea71d30d808c7d98cb3bf7268a95bf5081b65906020015b60405180910390a26105d2600160c955565b50565b6001600160a01b037f00000000000000000000000000000000000000000000000000000000000000001630036106265760405162461bcd60e51b815260040161061d906115bc565b60405180910390fd5b7f00000000000000000000000000000000000000000000000000000000000000006001600160a01b031661066f600080516020611756833981519152546001600160a01b031690565b6001600160a01b0316146106955760405162461bcd60e51b815260040161061d90611608565b61069e81610e3d565b604080516000808252602082019092526105d291839190610e45565b60fe546000906001600160a01b031633148015906106e3575060fd546001600160a01b03163314155b15610700576040516282b42960e81b815260040160405180910390fd5b6000610710633b9aca0085611654565b6001600160a01b038616600090815260fb602052604081208054929350839290919061073d908490611676565b9091555050604080514260208201526bffffffffffffffffffffffff19606088901b1691810191909152605481018590526074810184905260009060940160408051808303601f1901815282825280516020918201206001600160a01b038a16600081815260fc8452848120805460018101825590825290849020018290558185529184018690529350917f2719708b7902851e69839857612fb75ffafed92baad818799cf0a692629dba66910160405180910390a250600195945050505050565b6001600160a01b037f00000000000000000000000000000000000000000000000000000000000000001630036108475760405162461bcd60e51b815260040161061d906115bc565b7f00000000000000000000000000000000000000000000000000000000000000006001600160a01b0316610890600080516020611756833981519152546001600160a01b031690565b6001600160a01b0316146108b65760405162461bcd60e51b815260040161061d90611608565b6108bf82610e3d565b6108cb82826001610e45565b5050565b6000306001600160a01b037f0000000000000000000000000000000000000000000000000000000000000000161461096f5760405162461bcd60e51b815260206004820152603860248201527f555550535570677261646561626c653a206d757374206e6f742062652063616c60448201527f6c6564207468726f7567682064656c656761746563616c6c0000000000000000606482015260840161061d565b506000805160206117568339815191525b90565b60fe546040516370a0823160e01b81523060048201526000916001600160a01b0316906370a0823190602401602060405180830381865afa1580156109cc573d6000803e3d6000fd5b505050506040513d601f19601f820116820180604052508101906109f091906114d5565b905090565b6109fd610d83565b610a076000610fb5565b565b60fc6020528160005260406000208181548110610a2557600080fd5b90600052602060002001600091509150505481565b610a42610ddd565b633b9aca00811015610a6757604051636ba4a1c760e01b815260040160405180910390fd5b60fe546040516323b872dd60e01b8152336004820152306024820152604481018390526001600160a01b03909116906323b872dd906064016020604051808303816000875af1158015610abe573d6000803e3d6000fd5b505050506040513d601f19601f82011682018060405250810190610ae291906114ee565b610aff576040516312171d8360e31b815260040160405180910390fd5b60405181815233907fe1fffcc4923d04b559f4d29a8bfc6cda04eb5b0d3c460751c2402c5c5cc9109c906020016105c0565b600054610100900460ff1615808015610b515750600054600160ff909116105b80610b6b5750303b158015610b6b575060005460ff166001145b610bce5760405162461bcd60e51b815260206004820152602e60248201527f496e697469616c697a61626c653a20636f6e747261637420697320616c72656160448201526d191e481a5b9a5d1a585b1a5e995960921b606482015260840161061d565b6000805460ff191660011790558015610bf1576000805461ff0019166101001790555b610bf9611007565b610c01611036565b610c0961105d565b6001600160a01b038216610c305760405163e6c4247b60e01b815260040160405180910390fd5b60fe80546001600160a01b0319166001600160a01b03841617905580156108cb576000805461ff0019169055604051600181527f7f26b83ff96e1f2b6a682f133852f6798a09c465da95921460cefb38474024989060200160405180910390a15050565b610c9c610d83565b6001600160a01b038116610cc35760405163e6c4247b60e01b815260040160405180910390fd5b60fd80546001600160a01b0319166001600160a01b0383169081179091556040517f7a616ac492321d75e47e6d7a803272fdf7e31b9971149f2650821b7562104df190600090a250565b610d15610d83565b6001600160a01b038116610d7a5760405162461bcd60e51b815260206004820152602660248201527f4f776e61626c653a206e6577206f776e657220697320746865207a65726f206160448201526564647265737360d01b606482015260840161061d565b6105d281610fb5565b6033546001600160a01b03163314610a075760405162461bcd60e51b815260206004820181905260248201527f4f776e61626c653a2063616c6c6572206973206e6f7420746865206f776e6572604482015260640161061d565b600260c95403610e2f5760405162461bcd60e51b815260206004820152601f60248201527f5265656e7472616e637947756172643a207265656e7472616e742063616c6c00604482015260640161061d565b600260c955565b600160c955565b6105d2610d83565b7f4910fdfa16fed3260ed0e7147f7cc6da11a60208b5b9406d12a635614ffd91435460ff1615610e7d57610e788361108c565b505050565b826001600160a01b03166352d1902d6040518163ffffffff1660e01b8152600401602060405180830381865afa925050508015610ed7575060408051601f3d908101601f19168201909252610ed4918101906114d5565b60015b610f3a5760405162461bcd60e51b815260206004820152602e60248201527f45524331393637557067726164653a206e657720696d706c656d656e7461746960448201526d6f6e206973206e6f74205555505360901b606482015260840161061d565b6000805160206117568339815191528114610fa95760405162461bcd60e51b815260206004820152602960248201527f45524331393637557067726164653a20756e737570706f727465642070726f786044820152681a58589b195555525160ba1b606482015260840161061d565b50610e78838383611128565b603380546001600160a01b038381166001600160a01b0319831681179093556040519116919082907f8be0079c531659141344cd1fd0a4f28419497f9722a3daafe3b4186f6b6457e090600090a35050565b600054610100900460ff1661102e5760405162461bcd60e51b815260040161061d90611697565b610a07611153565b600054610100900460ff16610a075760405162461bcd60e51b815260040161061d90611697565b600054610100900460ff166110845760405162461bcd60e51b815260040161061d90611697565b610a07611183565b6001600160a01b0381163b6110f95760405162461bcd60e51b815260206004820152602d60248201527f455243313936373a206e657720696d706c656d656e746174696f6e206973206e60448201526c1bdd08184818dbdb9d1c9858dd609a1b606482015260840161061d565b60008051602061175683398151915280546001600160a01b0319166001600160a01b0392909216919091179055565b611131836111aa565b60008251118061113e5750805b15610e785761114d83836111ea565b50505050565b600054610100900460ff1661117a5760405162461bcd60e51b815260040161061d90611697565b610a0733610fb5565b600054610100900460ff16610e365760405162461bcd60e51b815260040161061d90611697565b6111b38161108c565b6040516001600160a01b038216907fbc7cd75a20ee27fd9adebab32041f755214dbc6bffa90cc0225b39da2e5c2d3b90600090a250565b606061120f838360405180606001604052806027815260200161177660279139611218565b90505b92915050565b6060600080856001600160a01b0316856040516112359190611706565b600060405180830381855af49150503d8060008114611270576040519150601f19603f3d011682016040523d82523d6000602084013e611275565b606091505b509150915061128686838387611290565b9695505050505050565b606083156112ff5782516000036112f8576001600160a01b0385163b6112f85760405162461bcd60e51b815260206004820152601d60248201527f416464726573733a2063616c6c20746f206e6f6e2d636f6e7472616374000000604482015260640161061d565b5081611309565b6113098383611311565b949350505050565b8151156113215781518083602001fd5b8060405162461bcd60e51b815260040161061d9190611722565b80356001600160a01b038116811461135257600080fd5b919050565b60006020828403121561136957600080fd5b61120f8261133b565b60006020828403121561138457600080fd5b5035919050565b6000806000606084860312156113a057600080fd5b6113a98461133b565b95602085013595506040909401359392505050565b634e487b7160e01b600052604160045260246000fd5b601f8201601f1916810167ffffffffffffffff811182821017156113fa576113fa6113be565b6040525050565b6000806040838503121561141457600080fd5b61141d8361133b565b915060208084013567ffffffffffffffff8082111561143b57600080fd5b818601915086601f83011261144f57600080fd5b813581811115611461576114616113be565b6040519150611479601f8201601f19168501836113d4565b808252878482850101111561148d57600080fd5b80848401858401376000848284010152508093505050509250929050565b600080604083850312156114be57600080fd5b6114c78361133b565b946020939093013593505050565b6000602082840312156114e757600080fd5b5051919050565b60006020828403121561150057600080fd5b8151801515811461151057600080fd5b9392505050565b600060033d11156109805760046000803e5060005160e01c90565b600060443d10156115405790565b6040516003193d81016004833e81513d67ffffffffffffffff816024840111818411171561157057505050505090565b82850191508151818111156115885750505050505090565b843d87010160208285010111156115a25750505050505090565b6115b1602082860101876113d4565b509095945050505050565b6020808252602c908201527f46756e6374696f6e206d7573742062652063616c6c6564207468726f7567682060408201526b19195b1959d85d1958d85b1b60a21b606082015260800190565b6020808252602c908201527f46756e6374696f6e206d7573742062652063616c6c6564207468726f7567682060408201526b6163746976652070726f787960a01b606082015260800190565b60008261167157634e487b7160e01b600052601260045260246000fd5b500490565b8082018082111561121257634e487b7160e01b600052601160045260246000fd5b6020808252602b908201527f496e697469616c697a61626c653a20636f6e7472616374206973206e6f74206960408201526a6e697469616c697a696e6760a81b606082015260800190565b60005b838110156116fd5781810151838201526020016116e5565b50506000910152565b600082516117188184602087016116e2565b9190910192915050565b60208152600082518060208401526117418160408501602087016116e2565b601f01601f1916919091016040019291505056fe360894a13ba1a3210667c828492db98dca3e2076cc3735a920a3ca505d382bbc416464726573733a206c6f772d6c6576656c2064656c65676174652063616c6c206661696c6564a26469706673582212207a0833a0c35af1f05f522b87d06c1cd3fc85f7120b8c8b18810f6753d75257c164736f6c63430008160033",
  "linkReferences": {},
  "deployedLinkReferences": {}
}