{
  "_format": "hh-sol-artifact-1",
  "contractName": "SacredVault",
  "sourceName": "contracts/SacredVault.sol",
  "abi": [
    {
      "inputs": [],
      "stateMutability": "nonpayable",
      "type": "constructor"
    },
    {
      "inputs": [],
      "name": "ArrayLengthMismatch",
      "type": "error"
    },
    {
      "inputs": [],
      "name": "FeePaymentFailed",
      "type": "error"
    },
    {
      "inputs": [],
      "name": "InheritanceConditionNotMet",
      "type": "error"
    },
    {
      "inputs": [],
      "name": "InvalidAddress",
      "type": "error"
    },
    {
      "inputs": [],
      "name": "InvalidConditionIndex",
      "type": "error"
    },
    {
      "inputs": [],
      "name": "InvalidSacrificialShare",
      "type": "error"
    },
    {
      "inputs": [],
      "name": "InvalidVaultId",
      "type": "error"
    },
    {
      "inputs": [],
      "name": "LockPeriodNotOver",
      "type": "error"
    },
    {
      "inputs": [],
      "name": "OnlyNewOwnerCanUnlock",
      "type": "error"
    },
    {
      "inputs": [],
      "name": "OnlyOwnerCanAddConditions",
      "type": "error"
    },
    {
      "inputs": [],
      "name": "TotalSharesMismatch",
      "type": "error"
    },
    {
      "inputs": [],
      "name": "Unauthorized",
      "type": "error"
    },
    {
      "inputs": [],
      "name": "VaultNotActive",
      "type": "error"
    },
    {
      "inputs": [],
      "name": "VaultNotInInheritedState",
      "type": "error"
    },
    {
      "anonymous": false,
      "inputs": [
        {
          "indexed": true,
          "internalType": "uint256",
          "name": "vaultId",
          "type": "uint256"
        },
        {
          "indexed": false,
          "internalType": "enum ISacredVault.ConditionType",
          "name": "conditionType",
          "type": "uint8"
        },
        {
          "indexed": false,
          "internalType": "uint256",
          "name": "triggerValue",
          "type": "uint256"
        }
      ],
      "name": "ConditionAdded",
      "type": "event"
    },
    {
      "anonymous": false,
      "inputs": [
        {
          "indexed": true,
          "internalType": "uint256",
          "name": "vaultId",
          "type": "uint256"
        },
        {
          "indexed": true,
          "internalType": "address",
          "name": "oldOwner",
          "type": "address"
        },
        {
          "indexed": true,
          "internalType": "address",
          "name": "newOwner",
          "type": "address"
        },
        {
          "indexed": false,
          "internalType": "enum ISacredVault.ConditionType",
          "name": "conditionType",
          "type": "uint8"
        }
      ],
      "name": "InheritanceTriggered",
      "type": "event"
    },
    {
      "anonymous": false,
      "inputs": [
        {
          "indexed": false,
          "internalType": "uint8",
          "name": "version",
          "type": "uint8"
        }
      ],
      "name": "Initialized",
      "type": "event"
    },
    {
      "anonymous": false,
      "inputs": [
        {
          "indexed": true,
          "internalType": "uint256",
          "name": "vaultId",
          "type": "uint256"
        },
        {
          "indexed": false,
          "internalType": "uint256",
          "name": "amount",
          "type": "uint256"
        }
      ],
      "name": "MaintenanceFeePaid",
      "type": "event"
    },
    {
      "anonymous": false,
      "inputs": [
        {
          "indexed": true,
          "internalType": "bytes32",
          "name": "role",
          "type": "bytes32"
        },
        {
          "indexed": true,
          "internalType": "bytes32",
          "name": "previousAdminRole",
          "type": "bytes32"
        },
        {
          "indexed": true,
          "internalType": "bytes32",
          "name": "newAdminRole",
          "type": "bytes32"
        }
      ],
      "name": "RoleAdminChanged",
      "type": "event"
    },
    {
      "anonymous": false,
      "inputs": [
        {
          "indexed": true,
          "internalType": "bytes32",
          "name": "role",
          "type": "bytes32"
        },
        {
          "indexed": true,
          "internalType": "address",
          "name": "account",
          "type": "address"
        },
        {
          "indexed": true,
          "internalType": "address",
          "name": "sender",
          "type": "address"
        }
      ],
      "name": "RoleGranted",
      "type": "event"
    },
    {
      "anonymous": false,
      "inputs": [
        {
          "indexed": true,
          "internalType": "bytes32",
          "name": "role",
          "type": "bytes32"
        },
        {
          "indexed": true,
          "internalType": "address",
          "name": "account",
          "type": "address"
        },
        {
          "indexed": true,
          "internalType": "address",
          "name": "sender",
          "type": "address"
        }
      ],
      "name": "RoleRevoked",
      "type": "event"
    },
    {
      "anonymous": false,
      "inputs": [
        {
          "indexed": true,
          "internalType": "uint256",
          "name": "vaultId",
          "type": "uint256"
        },
        {
          "indexed": true,
          "internalType": "address",
          "name": "creator",
          "type": "address"
        }
      ],
      "name": "VaultCreated",
      "type": "event"
    },
    {
      "anonymous": false,
      "inputs": [
        {
          "indexed": true,
          "internalType": "uint256",
          "name": "vaultId",
          "type": "uint256"
        }
      ],
      "name": "VaultUnlocked",
      "type": "event"
    },
    {
      "inputs": [],
      "name": "BENEFICIARY_ROLE",
      "outputs": [
        {
          "internalType": "bytes32",
          "name": "",
          "type": "bytes32"
        }
      ],
      "stateMutability": "view",
      "type": "function"
    },
    {
      "inputs": [],
      "name": "CREATOR_ROLE",
      "outputs": [
        {
          "internalType": "bytes32",
          "name": "",
          "type": "bytes32"
        }
      ],
      "stateMutability": "view",
      "type": "function"
    },
    {
      "inputs": [],
      "name": "DEFAULT_ADMIN_ROLE",
      "outputs": [
        {
          "internalType": "bytes32",
          "name": "",
          "type": "bytes32"
        }
      ],
      "stateMutability": "view",
      "type": "function"
    },
    {
      "inputs": [],
      "name": "VAULT_FACTORY_ROLE",
      "outputs": [
        {
          "internalType": "bytes32",
          "name": "",
          "type": "bytes32"
        }
      ],
      "stateMutability": "view",
      "type": "function"
    },
    {
      "inputs": [
        {
          "internalType": "uint256",
          "name": "_vaultId",
          "type": "uint256"
        },
        {
          "components": [
            {
              "internalType": "enum ISacredVault.ConditionType",
              "name": "conditionType",
              "type": "uint8"
            },
            {
              "internalType": "uint256",
              "name": "triggerValue",
              "type": "uint256"
            },
            {
              "internalType": "bool",
              "name": "isActive",
              "type": "bool"
            }
          ],
          "internalType": "struct ISacredVault.InheritanceCondition",
          "name": "_condition",
          "type": "tuple"
        }
      ],
      "name": "addInheritanceCondition",
      "outputs": [],
      "stateMutability": "nonpayable",
      "type": "function"
    },
    {
      "inputs": [],
      "name": "amoneyToken",
      "outputs": [
        {
          "internalType": "contract IAMONEY",
          "name": "",
          "type": "address"
        }
      ],
      "stateMutability": "view",
      "type": "function"
    },
    {
      "inputs": [
        {
          "internalType": "address",
          "name": "_creator",
          "type": "address"
        },
        {
          "internalType": "address[]",
          "name": "_beneficiaries",
          "type": "address[]"
        },
        {
          "internalType": "uint256[]",
          "name": "_shares",
          "type": "uint256[]"
        },
        {
          "internalType": "string",
          "name": "_metadataURI",
          "type": "string"
        },
        {
          "components": [
            {
              "internalType": "enum ISacredVault.ConditionType",
              "name": "conditionType",
              "type": "uint8"
            },
            {
              "internalType": "uint256",
              "name": "triggerValue",
              "type": "uint256"
            },
            {
              "internalType": "bool",
              "name": "isActive",
              "type": "bool"
            }
          ],
          "internalType": "struct ISacredVault.InheritanceCondition[]",
          "name": "_conditions",
          "type": "tuple[]"
        },
        {
          "internalType": "uint256",
          "name": "_sacrificialShare",
          "type": "uint256"
        }
      ],
      "name": "createSacredVault",
      "outputs": [
        {
          "internalType": "uint256",
          "name": "",
          "type": "uint256"
        }
      ],
      "stateMutability": "nonpayable",
      "type": "function"
    },
    {
      "inputs": [
        {
          "internalType": "uint256",
          "name": "_vaultId",
          "type": "uint256"
        }
      ],
      "name": "distributeInheritance",
      "outputs": [],
      "stateMutability": "nonpayable",
      "type": "function"
    },
    {
      "inputs": [
        {
          "internalType": "uint256",
          "name": "_vaultId",
          "type": "uint256"
        },
        {
          "internalType": "uint256",
          "name": "_conditionIndex",
          "type": "uint256"
        }
      ],
      "name": "executeInheritance",
      "outputs": [],
      "stateMutability": "nonpayable",
      "type": "function"
    },
    {
      "inputs": [
        {
          "internalType": "bytes32",
          "name": "role",
          "type": "bytes32"
        }
      ],
      "name": "getRoleAdmin",
      "outputs": [
        {
          "internalType": "bytes32",
          "name": "",
          "type": "bytes32"
        }
      ],
      "stateMutability": "view",
      "type": "function"
    },
    {
      "inputs": [
        {
          "internalType": "uint256",
          "name": "_vaultId",
          "type": "uint256"
        }
      ],
      "name": "getVaultDetails",
      "outputs": [
        {
          "internalType": "address",
          "name": "creator",
          "type": "address"
        },
        {
          "internalType": "address",
          "name": "currentOwner",
          "type": "address"
        },
        {
          "internalType": "uint256",
          "name": "creationDate",
          "type": "uint256"
        },
        {
          "internalType": "uint256",
          "name": "lastMaintenance",
          "type": "uint256"
        },
        {
          "internalType": "enum SacredVault.VaultStatus",
          "name": "status",
          "type": "uint8"
        },
        {
          "internalType": "string",
          "name": "metadataURI",
          "type": "string"
        },
        {
          "internalType": "address[]",
          "name": "beneficiaries",
          "type": "address[]"
        },
        {
          "internalType": "uint256",
          "name": "culturalEnergy",
          "type": "uint256"
        }
      ],
      "stateMutability": "view",
      "type": "function"
    },
    {
      "inputs": [
        {
          "internalType": "uint256",
          "name": "_vaultId",
          "type": "uint256"
        },
        {
          "internalType": "address",
          "name": "_beneficiary",
          "type": "address"
        }
      ],
      "name": "getVaultShares",
      "outputs": [
        {
          "internalType": "uint256",
          "name": "",
          "type": "uint256"
        }
      ],
      "stateMutability": "view",
      "type": "function"
    },
    {
      "inputs": [
        {
          "internalType": "bytes32",
          "name": "role",
          "type": "bytes32"
        },
        {
          "internalType": "address",
          "name": "account",
          "type": "address"
        }
      ],
      "name": "grantRole",
      "outputs": [],
      "stateMutability": "nonpayable",
      "type": "function"
    },
    {
      "inputs": [
        {
          "internalType": "bytes32",
          "name": "role",
          "type": "bytes32"
        },
        {
          "internalType": "address",
          "name": "account",
          "type": "address"
        }
      ],
      "name": "hasRole",
      "outputs": [
        {
          "internalType": "bool",
          "name": "",
          "type": "bool"
        }
      ],
      "stateMutability": "view",
      "type": "function"
    },
    {
      "inputs": [
        {
          "internalType": "address",
          "name": "_amoneyToken",
          "type": "address"
        },
        {
          "internalType": "address",
          "name": "initialAdmin",
          "type": "address"
        },
        {
          "internalType": "address",
          "name": "vaultFactoryAddress",
          "type": "address"
        }
      ],
      "name": "initialize",
      "outputs": [],
      "stateMutability": "nonpayable",
      "type": "function"
    },
    {
      "inputs": [
        {
          "internalType": "uint256",
          "name": "_vaultId",
          "type": "uint256"
        },
        {
          "internalType": "uint256",
          "name": "_amount",
          "type": "uint256"
        }
      ],
      "name": "payMaintenanceFee",
      "outputs": [],
      "stateMutability": "nonpayable",
      "type": "function"
    },
    {
      "inputs": [
        {
          "internalType": "bytes32",
          "name": "role",
          "type": "bytes32"
        },
        {
          "internalType": "address",
          "name": "account",
          "type": "address"
        }
      ],
      "name": "renounceRole",
      "outputs": [],
      "stateMutability": "nonpayable",
      "type": "function"
    },
    {
      "inputs": [
        {
          "internalType": "bytes32",
          "name": "role",
          "type": "bytes32"
        },
        {
          "internalType": "address",
          "name": "account",
          "type": "address"
        }
      ],
      "name": "revokeRole",
      "outputs": [],
      "stateMutability": "nonpayable",
      "type": "function"
    },
    {
      "inputs": [
        {
          "internalType": "uint256",
          "name": "_vaultId",
          "type": "uint256"
        },
        {
          "internalType": "uint256",
          "name": "_newSacrificialShare",
          "type": "uint256"
        }
      ],
      "name": "setSacrificialShare",
      "outputs": [],
      "stateMutability": "nonpayable",
      "type": "function"
    },
    {
      "inputs": [
        {
          "internalType": "bytes4",
          "name": "interfaceId",
          "type": "bytes4"
        }
      ],
      "name": "supportsInterface",
      "outputs": [
        {
          "internalType": "bool",
          "name": "",
          "type": "bool"
        }
      ],
      "stateMutability": "view",
      "type": "function"
    },
    {
      "inputs": [
        {
          "internalType": "uint256",
          "name": "_vaultId",
          "type": "uint256"
        }
      ],
      "name": "unlockVault",
      "outputs": [],
      "stateMutability": "nonpayable",
      "type": "function"
    },
    {
      "inputs": [],
      "name": "vaultCounter",
      "outputs": [
        {
          "internalType": "uint256",
          "name": "",
          "type": "uint256"
        }
      ],
      "stateMutability": "view",
      "type": "function"
    },
    {
      "inputs": [
        {
          "internalType": "uint256",
          "name": "",
          "type": "uint256"
        }
      ],
      "name": "vaults",
      "outputs": [
        {
          "internalType": "address",
          "name": "creator",
          "type": "address"
        },
        {
          "internalType": "address",
          "name": "currentOwner",
          "type": "address"
        },
        {
          "internalType": "uint256",
          "name": "creationDate",
          "type": "uint256"
        },
        {
          "internalType": "uint256",
          "name": "lastMaintenance",
          "type": "uint256"
        },
        {
          "internalType": "enum SacredVault.VaultStatus",
          "name": "status",
          "type": "uint8"
        },
        {
          "internalType": "string",
          "name": "metadataURI",
          "type": "string"
        },
        {
          "internalType": "uint256",
          "name": "unlockingTimestamp",
          "type": "uint256"
        },
        {
          "internalType": "uint256",
          "name": "culturalEnergy",
          "type": "uint256"
        },
        {
          "internalType": "uint256",
          "name": "sacrificialShare",
          "type": "uint256"
        }
      ],
      "stateMutability": "view",
      "type": "function"
    }
  ],
  "bytecode": "0x608080604052346100c1576000549060ff8260081c1661006f575060ff80821603610034575b60405161229390816100c78239f35b60ff90811916176000557f7f26b83ff96e1f2b6a682f133852f6798a09c465da95921460cefb3847402498602060405160ff8152a138610025565b62461bcd60e51b815260206004820152602760248201527f496e697469616c697a61626c653a20636f6e747261637420697320696e697469604482015266616c697a696e6760c81b6064820152608490fd5b600080fdfe608080604052600436101561001357600080fd5b60003560e01c90816301ffc9a71461179e575080630a043cd8146117755780630f2740431461174a578063248a9ca31461171b5780632f2ff15d1461167a57806336568abe146115e857806337d4888f14610e3a5780633bd5d50014610c1a57806357aa6f4914610b5b5780637d80277f14610b105780638aeda25a14610ad55780638c64ea4a14610a1f57806391d14854146109d2578063a217fddf146109b6578063a742328d1461080d578063ac958041146107ef578063b258a6f5146107b4578063c0b579c014610671578063c0c53b8b146103f3578063cb775b29146102c4578063ced3a40314610289578063d547741f146102485763f265e3e61461011c57600080fd5b346102435761012a3661184e565b610132611e46565b600082815260ca6020526040902060018101546001600160a01b0390811633036102325760c9546040516302548d0b60e31b8152336004820152602481018590529160209183916044918391600091165af1908115610226576000916101f7575b50156101e5577f6fd508b85361dbfe08ea3a9f297b640f8c49234925d157495423008316c3519b91600a602092426003820155016101d5600a83048254611a4e565b9055604051908152a26001609755005b60405163f0e492a360e01b8152600490fd5b610219915060203d60201161021f575b61021181836118ba565b810190611a09565b38610193565b503d610207565b6040513d6000823e3d90fd5b6040516282b42960e81b8152600490fd5b600080fd5b34610243576040366003190112610243576102876004356102676117f1565b90806000526065602052610282600160406000200154611e9c565b612051565b005b346102435760003660031901126102435760206040517fc8a41221bcd7fcf2c225f5a9265e1d4d39949d89197159d59e5f4b87b62c419e8152f35b3461024357608036600319011261024357600435606036602319011261024357600081815260ca6020526040902060018101546001600160a01b031633036103e1576008018054600160401b8110156103cb5761032691600182018155611e16565b6103b55760243560038110156102435761033f81611981565b60ff1982541660ff8216178255604435908160018401556064359182151583036102435761039f60409360027fbc569191d4bb57c7dd1032bb9258e7603e46fbeb6ef7cae8bfb70ab4599e028496019060ff801983541691151516179055565b8251916103ab81611981565b82526020820152a2005b634e487b7160e01b600052600060045260246000fd5b634e487b7160e01b600052604160045260246000fd5b6040516321b6025160e01b8152600490fd5b346102435760603660031901126102435761040c611807565b6104146117f1565b6001600160a01b039190604435838116908190036102435760005460ff92838260081c161594858096610665575b801561064f575b156105f357869060ff1993876001868316176000556105e1575b501680156105cf5761048d8560005460081c1661047f81612100565b61048881612100565b612100565b60016097556bffffffffffffffffffffffff60a01b60c954161760c95560008052602095606587526040600020911690816000528652836040600020541615610592575b507f7c3948777991e30efc945b298d109fc7a0c0de63dd562adfea7f970336f317b092836000526065865260406000208360005286526040600020541615610554575b50505061051d57005b7f7f26b83ff96e1f2b6a682f133852f6798a09c465da95921460cefb38474024989061ff00196000541660005560405160018152a1005b826000526065855260406000208260005285526001604060002091825416179055339160008051602061223e833981519152600080a4828080610514565b6000805260658652604060002081600052865260406000206001838254161790553390600060008051602061223e8339815191528180a4856104d1565b60405163e6c4247b60e01b8152600490fd5b61ffff19166101011760005588610463565b60405162461bcd60e51b815260206004820152602e60248201527f496e697469616c697a61626c653a20636f6e747261637420697320616c72656160448201526d191e481a5b9a5d1a585b1a5e995960921b6064820152608490fd5b50303b1580156104495750600185841614610449565b50600185841610610442565b34610243576020806003193601126102435760043560005260ca815260406000209060018060a01b039182815416906001938060018301541684600284015460038501549560ff60048701541660068701976106d46005600a8a015499016118dc565b9360405196878d888d54928381520191829d600052896000209160005b8281106107855750505050916107459593916107128a8a999795038b6118ba565b6040519d8e610100968152015260408d015260608c015261073281611981565b60808b01528060a08b01528901906119c4565b9287840360c089015251928381520194926000905b83821061076e578780888860e08301520390f35b84518116875295820195938201939088019061075a565b91938395969798999a9b8294918f9e9f8493541681520195019101918f9a9998979695949391929c9b9c6106f1565b346102435760003660031901126102435760206040517f7c3948777991e30efc945b298d109fc7a0c0de63dd562adfea7f970336f317b08152f35b3461024357600036600319011261024357602060cb54604051908152f35b346102435761081b3661184e565b610823611e46565b8160005260ca6020526040600020916004830180549260ff841661084681611981565b6109a45760cb5483101561099257600885019081548110156109805761086b91611e16565b5092604051606081019080821067ffffffffffffffff8311176103cb576108bd9160405260ff86541661089d81611981565b81526001860154602082015260ff600287015416151560408201526120c7565b1561096f5760019060ff191617905562278d0042018042116109595760098401557fc7d41b083eb17e6c3916a321d99c71a573b4daeebbadc7aad28baa4f9219a527602060ff61090f60068701611a21565b9060018060a01b03918291549060031b1c169660018101886bffffffffffffffffffffffff60a01b82541617905554169454166040519061094f81611981565b8152a46001609755005b634e487b7160e01b600052601160045260246000fd5b604051627d215b60e11b8152600490fd5b6040516308bf9def60e31b8152600490fd5b6040516319d2ee1360e01b8152600490fd5b604051630440ee7560e21b8152600490fd5b3461024357600036600319011261024357602060405160008152f35b34610243576040366003190112610243576109eb6117f1565b600435600052606560205260406000209060018060a01b0316600052602052602060ff604060002054166040519015158152f35b346102435760203660031901126102435760043560005260ca602052604060002060018060a01b03808254169060018301541690600283015492600381015490610ac060ff60048301541693610a77600584016118dc565b90600984015495600b600a86015495015495604051998a99610120948b5260208b015260408a01526060890152610aad81611981565b60808801528060a08801528601906119c4565b9260c085015260e08401526101008301520390f35b346102435760003660031901126102435760206040517f828634d95e775031b9ff576b159a8509d3053581a8c9c4d7d86899e0afcd882f8152f35b3461024357604036600319011261024357610b296117f1565b60043560005260ca60205260076040600020019060018060a01b03166000526020526020604060002054604051908152f35b34610243576020366003190112610243576004358060005260ca60205260406000206004810190815490600160ff8316610b9481611981565b03610c085760098101544210610bf657600101546001600160a01b03163303610be45760ff191690557f3a119f7ba8b2d0b50b2052497850fdad1464c8f48288498812ad2673e06f6c83600080a2005b604051630eabcc4760e31b8152600490fd5b604051630f41413160e01b8152600490fd5b604051631b4e27cd60e31b8152600490fd5b3461024357610c283661184e565b3360009081527fffdfc1249c027f9191656349feb0761381bb32c9f557e01f419fd08754bf5a1b60209081526040909120549192909160ff1615610ca7579060ca916000525260406000203360018060a01b0360018301541603610232576103e88211610c9557600b0155005b60405163dd9838a560e01b8152600490fd5b50610cb133612171565b906000604051610cc08161189e565b60428152828101916060368437815115610e245760308353815160019060011015610e2457607860218401536041905b808211610de0575050610d9d57610d6993610d789260489260405196879376020b1b1b2b9b9a1b7b73a3937b61d1030b1b1b7bab73a1604d1b88860152610d40815180928a6037890191016119a1565b8401917001034b99036b4b9b9b4b733903937b6329607d1b6037840152518093868401906119a1565b010360288101855201836118ba565b610d9960405192839262461bcd60e51b8452600484015260248301906119c4565b0390fd5b6064836040519062461bcd60e51b825280600483015260248201527f537472696e67733a20686578206c656e67746820696e73756666696369656e746044820152fd5b9091600f81166010811015610e24576f181899199a1a9b1b9c1cb0b131b232b360811b901a610e0f8486612160565b5360041c918015610959576000190190610cf0565b634e487b7160e01b600052603260045260246000fd5b346102435760c036600319011261024357610e53611807565b67ffffffffffffffff9060243582811161024357610e7590369060040161181d565b60443584811161024357610e8d90369060040161181d565b929094806064351161024357366023606435011215610243578060643560040135116102435736602460643560040135606435010111610243578060843511610243573660236084350112156102435760843560040135116102435736602460606084356004013502608435010111610243573360009081527ff8c8f07fa81a4a119636b8e4983ea9df2283d52258df34e40fec90fa3f495fbd60205260409020547f7c3948777991e30efc945b298d109fc7a0c0de63dd562adfea7f970336f317b09060ff16156114955750828203611483576103e860a43511610c95576000805b8481106114635750610f886103e89160a43590611a4e565b116114515760cb5492600019841461095957600184810160cb55600085815260ca6020526040902080546001600160a01b0388166001600160a01b03199182168117835592820180549091169092179091554260028201819055600382015560048101805460ff19169055600581015490919061100490611864565b601f81116113fe575b506000601f60643560040135116001146113705760009060643560040135611360575b506064356004013560011b906000196064356004013560031b1c19161760058301555b60a435600b83015560005b6084356004013581106112a7575060005b848110611160576001600160a01b03871660009081527fbe0430538fca4d20d7e85befa90880d3087dc61b588cf7e30ed86a7922e6ce976020908152604090912054889088907f828634d95e775031b9ff576b159a8509d3053581a8c9c4d7d86899e0afcd882f9060ff1615611118575b50604051916001600160a01b0316817fbf3e9c93de94306b70ac5b9411edf475545815333bf651b894b9eada6482c594600080a38152f35b60008181526065855260408082206001600160a01b038616808452908752908220805460ff191660011790553392909160008051602061223e8339815191529080a4836110e0565b61117361116e828787611e06565b611e32565b90600684015491600160401b8310156103cb5761119d836001809501600688015560068701611a36565b819291549060031b91858060a01b0316821b91858060a01b03901b19161790556111c881848b611e06565b35828060a01b036111dd61116e848a8a611e06565b16600052600785016020526040600020556111fc61116e828888611e06565b60a083901b8390031660008181527f487fafd12bdb966a5274dac38f9d7808a25cff1f0fe9746a1bd97af08089a80f60205260409020547fc8a41221bcd7fcf2c225f5a9265e1d4d39949d89197159d59e5f4b87b62c419e919060ff1615611267575b50500161106f565b81600052606560205260406000208160005260205260406000208460ff19825416179055339160008051602061223e833981519152600080a4898061125f565b6008830154600160401b8110156103cb578060016112ce9201600886015560088501611e16565b9190916103b55760036024606083026084350101351015610243576112fd602460608302608435010135611981565b81546084356060830201602481013560ff1660ff1992909216919091178355604481013560018401556064013580151590036102435761135a600192600260646060850260843501013591019060ff801983541691151516179055565b0161105e565b6024915060643501013588611030565b6005830160005260206000209060005b60046064350135601f191681106113e1575060046064350135601f198116106113bc575b5050600160643560040135811b016005830155611053565b602460001960f86064356004013560031b161c199160643501013516905587806113a4565b909160206001819260248660643501013581550193019101611380565b600583016000526020600020601f606435600401350160051c81016020606435600401351061144a575b601f830160051c8201811061143e57505061100d565b60008155600101611428565b5080611428565b6040516337dfdd3560e11b8152600490fd5b9061147c60019161147584888b611e06565b3590611a4e565b9101610f70565b60405163512509d360e11b8152600490fd5b61149e33612171565b604051916114ab8361189e565b6042835260208301906060368337835115610e245760308253835160019060011015610e2457607860218601536041905b8082116115a45750506115605760486115319261154092610d999560405195869376020b1b1b2b9b9a1b7b73a3937b61d1030b1b1b7bab73a1604d1b6020860152610d408151809260206037890191016119a1565b010360288101845201826118ba565b60405162461bcd60e51b81526020600482015291829160248301906119c4565b606460405162461bcd60e51b815260206004820152602060248201527f537472696e67733a20686578206c656e67746820696e73756666696369656e746044820152fd5b9091600f81166010811015610e24576f181899199a1a9b1b9c1cb0b131b232b360811b901a6115d38488612160565b5360041c9180156109595760001901906114dc565b34610243576040366003190112610243576116016117f1565b336001600160a01b0382160361161d5761028790600435612051565b60405162461bcd60e51b815260206004820152602f60248201527f416363657373436f6e74726f6c3a2063616e206f6e6c792072656e6f756e636560448201526e103937b632b9903337b91039b2b63360891b6064820152608490fd5b34610243576040366003190112610243576004356116966117f1565b8160005260656020526116b0600160406000200154611e9c565b81600052606560205260406000209060018060a01b0316908160005260205260ff60406000205416156116df57005b8160005260656020526040600020816000526020526040600020600160ff19825416179055339160008051602061223e833981519152600080a4005b346102435760203660031901126102435760043560005260656020526020600160406000200154604051908152f35b3461024357602036600319011261024357611763611e46565b61176e600435611a5b565b6001609755005b346102435760003660031901126102435760c9546040516001600160a01b039091168152602090f35b34610243576020366003190112610243576004359063ffffffff60e01b821680920361024357602091637965db0b60e01b81149081156117e0575b5015158152f35b6301ffc9a760e01b149050836117d9565b602435906001600160a01b038216820361024357565b600435906001600160a01b038216820361024357565b9181601f840112156102435782359167ffffffffffffffff8311610243576020808501948460051b01011161024357565b6040906003190112610243576004359060243590565b90600182811c92168015611894575b602083101461187e57565b634e487b7160e01b600052602260045260246000fd5b91607f1691611873565b6080810190811067ffffffffffffffff8211176103cb57604052565b90601f8019910116810190811067ffffffffffffffff8211176103cb57604052565b906040519182600082546118ef81611864565b9081845260209460019160018116908160001461195f5750600114611920575b50505061191e925003836118ba565b565b600090815285812095935091905b81831061194757505061191e935082010138808061190f565b8554888401850152948501948794509183019161192e565b9250505061191e94925060ff191682840152151560051b82010138808061190f565b6003111561198b57565b634e487b7160e01b600052602160045260246000fd5b60005b8381106119b45750506000910152565b81810151838201526020016119a4565b906020916119dd815180928185528580860191016119a1565b601f01601f1916010190565b8181029291811591840414171561095957565b9190820391821161095957565b90816020910312610243575180151581036102435790565b805415610e2457600052602060002090600090565b8054821015610e245760005260206000200190600090565b9190820180921161095957565b6000908152602060ca81526040918281209260049182850194855460ff811691611a8483611981565b6001809303611df65760098101544210611de65760c95485516370a0823160e01b815230888201526001600160a01b0393909189908390602490829088165afa918215611ddc578692611da9575b508115611d9557506103e893611af885611af0600b860154856119e9565b0480936119fc565b9180611cb5575b50808695876007600687019601925b611bce575b50505050838111611b34575b5050505050505050600260ff19825416179055565b848894611b89611b54611b4b8760c9541696611a21565b939054956119fc565b89519a8b978896879563a9059cbb60e01b875260031b1c1690840160209093929193604081019460018060a01b031681520152565b03925af1918215611bc4575050611ba6575b808080808080611b1f565b81611bbc92903d1061021f5761021181836118ba565b503880611b9b565b51903d90823e3d90fd5b8554811015611cb0578a8c8b89611be5858b611a36565b90549060031b1c16808d528683528c86611c02848320548c6119e9565b049485611c1c575b5050509286019250859150611b0e9050565b60c954935163a9059cbb60e01b81526001600160a01b039390931690830190815260208101869052959c949591939284928390036040019183918e165af18015611ca6579286959493928f611c79938895611c88575b5050611a4e565b98919293508c8b388c8f611c0a565b81611c9e92903d1061021f5761021181836118ba565b508f38611c72565b8c513d8d823e3d90fd5b611b13565b60c95488516305c3676760e11b8152919086168b838c81845afa8015611d8b57908c92918a90611d49575b8b5163a9059cbb60e01b81526001600160a01b03909116818e0190815260208101939093529350839182908b9082906040015b03925af18015611d3f5715611aff57611d38908a3d8c1161021f5761021181836118ba565b5038611aff565b88513d89823e3d90fd5b509183819492943d8311611d84575b611d6281836118ba565b81010312611d8057518681168103611d8057918b91611d1393611ce0565b8880fd5b503d611d58565b8a513d8b823e3d90fd5b60ff19166002179098555050505050505050565b9091508881813d8311611dd5575b611dc181836118ba565b81010312611dd157519038611ad2565b8580fd5b503d611db7565b87513d88823e3d90fd5b8451630f41413160e01b81528690fd5b8451631b4e27cd60e31b81528690fd5b9190811015610e245760051b0190565b8054821015610e24576000526003602060002091020190600090565b356001600160a01b03811681036102435790565b600260975414611e57576002609755565b60405162461bcd60e51b815260206004820152601f60248201527f5265656e7472616e637947756172643a207265656e7472616e742063616c6c006044820152606490fd5b60009080825260209060658252604092838120338252835260ff848220541615611ec65750505050565b611ecf33612171565b91845190611edc8261189e565b6042825284820192606036853782511561203d57603084538251906001916001101561203d5790607860218501536041915b818311611fcf57505050611f8d576048610d99938693611f7193611f62985198899376020b1b1b2b9b9a1b7b73a3937b61d1030b1b1b7bab73a1604d1b8a860152610d40815180928c6037890191016119a1565b010360288101875201856118ba565b5192839262461bcd60e51b8452600484015260248301906119c4565b60648486519062461bcd60e51b825280600483015260248201527f537472696e67733a20686578206c656e67746820696e73756666696369656e746044820152fd5b909192600f81166010811015612029576f181899199a1a9b1b9c1cb0b131b232b360811b901a611fff8587612160565b5360041c92801561201557600019019190611f0e565b634e487b7160e01b82526011600452602482fd5b634e487b7160e01b83526032600452602483fd5b634e487b7160e01b81526032600452602490fd5b906000918083526065602052604083209160018060a01b03169182845260205260ff60408420541661208257505050565b8083526065602052604083208284526020526040832060ff1981541690557ff6391f5c32d9c69d2a47ea670b442974b53935d1edc7fd64eb21e047a839171b339380a4565b6040810151156120fa5780516120dc81611981565b6120e581611981565b156120f05750600090565b6020015142101590565b50600090565b1561210757565b60405162461bcd60e51b815260206004820152602b60248201527f496e697469616c697a61626c653a20636f6e7472616374206973206e6f74206960448201526a6e697469616c697a696e6760a81b6064820152608490fd5b908151811015610e24570160200190565b604051906060820182811067ffffffffffffffff8211176103cb57604052602a8252602082016040368237825115610e245760309053815160019060011015610e2457607860218401536029905b8082116121cf5750506115605790565b9091600f81166010811015612228576f181899199a1a9b1b9c1cb0b131b232b360811b901a6121fe8486612160565b5360041c9180156122135760001901906121bf565b60246000634e487b7160e01b81526011600452fd5b60246000634e487b7160e01b81526032600452fdfe2f8788117e7eff1d82e926ec794901d17c78024a50270940304540a733656f0da2646970667358221220bd735a5d39c3f4c0385a68f1f2330a0fa2d7d7ba349925339497b8dedf8752a464736f6c63430008160033",
  "linkReferences": {},
  "deployedLinkReferences": {}
}