{
  "_format": "hh-sol-artifact-1",
  "contractName": "SacredVault",
  "sourceName": "contracts/SacredVault.sol",
  "abi": [
    {
      "inputs": [],
      "stateMutability": "nonpayable",
      "type": "constructor"
    },
    {
      "inputs": [],
      "name": "ArrayLengthMismatch",
      "type": "error"
    },
    {
      "inputs": [],
      "name": "FeePaymentFailed",
      "type": "error"
    },
    {
      "inputs": [],
      "name": "InheritanceConditionNotMet",
      "type": "error"
    },
    {
      "inputs": [],
      "name": "InvalidConditionIndex",
      "type": "error"
    },
    {
      "inputs": [],
      "name": "InvalidVaultId",
      "type": "error"
    },
    {
      "inputs": [],
      "name": "LockPeriodNotOver",
      "type": "error"
    },
    {
      "inputs": [],
      "name": "OnlyNewOwnerCanUnlock",
      "type": "error"
    },
    {
      "inputs": [],
      "name": "OnlyOwnerCanAddConditions",
      "type": "error"
    },
    {
      "inputs": [],
      "name": "TotalSharesMismatch",
      "type": "error"
    },
    {
      "inputs": [],
      "name": "Unauthorized",
      "type": "error"
    },
    {
      "inputs": [],
      "name": "VaultNotActive",
      "type": "error"
    },
    {
      "inputs": [],
      "name": "VaultNotInInheritedState",
      "type": "error"
    },
    {
      "anonymous": false,
      "inputs": [
        {
          "indexed": true,
          "internalType": "uint256",
          "name": "vaultId",
          "type": "uint256"
        },
        {
          "indexed": false,
          "internalType": "enum ISacredVault.ConditionType",
          "name": "conditionType",
          "type": "uint8"
        },
        {
          "indexed": false,
          "internalType": "uint256",
          "name": "triggerValue",
          "type": "uint256"
        }
      ],
      "name": "ConditionAdded",
      "type": "event"
    },
    {
      "anonymous": false,
      "inputs": [
        {
          "indexed": true,
          "internalType": "uint256",
          "name": "vaultId",
          "type": "uint256"
        },
        {
          "indexed": true,
          "internalType": "address",
          "name": "oldOwner",
          "type": "address"
        },
        {
          "indexed": true,
          "internalType": "address",
          "name": "newOwner",
          "type": "address"
        },
        {
          "indexed": false,
          "internalType": "enum ISacredVault.ConditionType",
          "name": "conditionType",
          "type": "uint8"
        }
      ],
      "name": "InheritanceTriggered",
      "type": "event"
    },
    {
      "anonymous": false,
      "inputs": [
        {
          "indexed": false,
          "internalType": "uint8",
          "name": "version",
          "type": "uint8"
        }
      ],
      "name": "Initialized",
      "type": "event"
    },
    {
      "anonymous": false,
      "inputs": [
        {
          "indexed": true,
          "internalType": "uint256",
          "name": "vaultId",
          "type": "uint256"
        },
        {
          "indexed": false,
          "internalType": "uint256",
          "name": "amount",
          "type": "uint256"
        }
      ],
      "name": "MaintenanceFeePaid",
      "type": "event"
    },
    {
      "anonymous": false,
      "inputs": [
        {
          "indexed": true,
          "internalType": "bytes32",
          "name": "role",
          "type": "bytes32"
        },
        {
          "indexed": true,
          "internalType": "bytes32",
          "name": "previousAdminRole",
          "type": "bytes32"
        },
        {
          "indexed": true,
          "internalType": "bytes32",
          "name": "newAdminRole",
          "type": "bytes32"
        }
      ],
      "name": "RoleAdminChanged",
      "type": "event"
    },
    {
      "anonymous": false,
      "inputs": [
        {
          "indexed": true,
          "internalType": "bytes32",
          "name": "role",
          "type": "bytes32"
        },
        {
          "indexed": true,
          "internalType": "address",
          "name": "account",
          "type": "address"
        },
        {
          "indexed": true,
          "internalType": "address",
          "name": "sender",
          "type": "address"
        }
      ],
      "name": "RoleGranted",
      "type": "event"
    },
    {
      "anonymous": false,
      "inputs": [
        {
          "indexed": true,
          "internalType": "bytes32",
          "name": "role",
          "type": "bytes32"
        },
        {
          "indexed": true,
          "internalType": "address",
          "name": "account",
          "type": "address"
        },
        {
          "indexed": true,
          "internalType": "address",
          "name": "sender",
          "type": "address"
        }
      ],
      "name": "RoleRevoked",
      "type": "event"
    },
    {
      "anonymous": false,
      "inputs": [
        {
          "indexed": true,
          "internalType": "uint256",
          "name": "vaultId",
          "type": "uint256"
        },
        {
          "indexed": true,
          "internalType": "address",
          "name": "creator",
          "type": "address"
        }
      ],
      "name": "VaultCreated",
      "type": "event"
    },
    {
      "anonymous": false,
      "inputs": [
        {
          "indexed": true,
          "internalType": "uint256",
          "name": "vaultId",
          "type": "uint256"
        }
      ],
      "name": "VaultUnlocked",
      "type": "event"
    },
    {
      "inputs": [],
      "name": "BENEFICIARY_ROLE",
      "outputs": [
        {
          "internalType": "bytes32",
          "name": "",
          "type": "bytes32"
        }
      ],
      "stateMutability": "view",
      "type": "function"
    },
    {
      "inputs": [],
      "name": "CREATOR_ROLE",
      "outputs": [
        {
          "internalType": "bytes32",
          "name": "",
          "type": "bytes32"
        }
      ],
      "stateMutability": "view",
      "type": "function"
    },
    {
      "inputs": [],
      "name": "DEFAULT_ADMIN_ROLE",
      "outputs": [
        {
          "internalType": "bytes32",
          "name": "",
          "type": "bytes32"
        }
      ],
      "stateMutability": "view",
      "type": "function"
    },
    {
      "inputs": [
        {
          "internalType": "uint256",
          "name": "_vaultId",
          "type": "uint256"
        },
        {
          "components": [
            {
              "internalType": "enum ISacredVault.ConditionType",
              "name": "conditionType",
              "type": "uint8"
            },
            {
              "internalType": "uint256",
              "name": "triggerValue",
              "type": "uint256"
            },
            {
              "internalType": "bool",
              "name": "isActive",
              "type": "bool"
            }
          ],
          "internalType": "struct ISacredVault.InheritanceCondition",
          "name": "_condition",
          "type": "tuple"
        }
      ],
      "name": "addInheritanceCondition",
      "outputs": [],
      "stateMutability": "nonpayable",
      "type": "function"
    },
    {
      "inputs": [],
      "name": "amoneyToken",
      "outputs": [
        {
          "internalType": "contract IAMONEY",
          "name": "",
          "type": "address"
        }
      ],
      "stateMutability": "view",
      "type": "function"
    },
    {
      "inputs": [
        {
          "internalType": "address",
          "name": "_creator",
          "type": "address"
        },
        {
          "internalType": "address[]",
          "name": "_beneficiaries",
          "type": "address[]"
        },
        {
          "internalType": "uint256[]",
          "name": "_shares",
          "type": "uint256[]"
        },
        {
          "internalType": "string",
          "name": "_metadataURI",
          "type": "string"
        },
        {
          "components": [
            {
              "internalType": "enum ISacredVault.ConditionType",
              "name": "conditionType",
              "type": "uint8"
            },
            {
              "internalType": "uint256",
              "name": "triggerValue",
              "type": "uint256"
            },
            {
              "internalType": "bool",
              "name": "isActive",
              "type": "bool"
            }
          ],
          "internalType": "struct ISacredVault.InheritanceCondition[]",
          "name": "_conditions",
          "type": "tuple[]"
        }
      ],
      "name": "createSacredVault",
      "outputs": [
        {
          "internalType": "uint256",
          "name": "",
          "type": "uint256"
        }
      ],
      "stateMutability": "nonpayable",
      "type": "function"
    },
    {
      "inputs": [
        {
          "internalType": "uint256",
          "name": "_vaultId",
          "type": "uint256"
        },
        {
          "internalType": "uint256",
          "name": "_conditionIndex",
          "type": "uint256"
        }
      ],
      "name": "executeInheritance",
      "outputs": [],
      "stateMutability": "nonpayable",
      "type": "function"
    },
    {
      "inputs": [
        {
          "internalType": "bytes32",
          "name": "role",
          "type": "bytes32"
        }
      ],
      "name": "getRoleAdmin",
      "outputs": [
        {
          "internalType": "bytes32",
          "name": "",
          "type": "bytes32"
        }
      ],
      "stateMutability": "view",
      "type": "function"
    },
    {
      "inputs": [
        {
          "internalType": "uint256",
          "name": "_vaultId",
          "type": "uint256"
        }
      ],
      "name": "getVaultDetails",
      "outputs": [
        {
          "internalType": "address",
          "name": "creator",
          "type": "address"
        },
        {
          "internalType": "address",
          "name": "currentOwner",
          "type": "address"
        },
        {
          "internalType": "uint256",
          "name": "creationDate",
          "type": "uint256"
        },
        {
          "internalType": "uint256",
          "name": "lastMaintenance",
          "type": "uint256"
        },
        {
          "internalType": "enum SacredVault.VaultStatus",
          "name": "status",
          "type": "uint8"
        },
        {
          "internalType": "string",
          "name": "metadataURI",
          "type": "string"
        },
        {
          "internalType": "address[]",
          "name": "beneficiaries",
          "type": "address[]"
        },
        {
          "internalType": "uint256",
          "name": "culturalEnergy",
          "type": "uint256"
        }
      ],
      "stateMutability": "view",
      "type": "function"
    },
    {
      "inputs": [
        {
          "internalType": "uint256",
          "name": "_vaultId",
          "type": "uint256"
        },
        {
          "internalType": "address",
          "name": "_beneficiary",
          "type": "address"
        }
      ],
      "name": "getVaultShares",
      "outputs": [
        {
          "internalType": "uint256",
          "name": "",
          "type": "uint256"
        }
      ],
      "stateMutability": "view",
      "type": "function"
    },
    {
      "inputs": [
        {
          "internalType": "bytes32",
          "name": "role",
          "type": "bytes32"
        },
        {
          "internalType": "address",
          "name": "account",
          "type": "address"
        }
      ],
      "name": "grantRole",
      "outputs": [],
      "stateMutability": "nonpayable",
      "type": "function"
    },
    {
      "inputs": [
        {
          "internalType": "bytes32",
          "name": "role",
          "type": "bytes32"
        },
        {
          "internalType": "address",
          "name": "account",
          "type": "address"
        }
      ],
      "name": "hasRole",
      "outputs": [
        {
          "internalType": "bool",
          "name": "",
          "type": "bool"
        }
      ],
      "stateMutability": "view",
      "type": "function"
    },
    {
      "inputs": [
        {
          "internalType": "address",
          "name": "_amoneyToken",
          "type": "address"
        },
        {
          "internalType": "address",
          "name": "initialAdmin",
          "type": "address"
        }
      ],
      "name": "initialize",
      "outputs": [],
      "stateMutability": "nonpayable",
      "type": "function"
    },
    {
      "inputs": [
        {
          "internalType": "uint256",
          "name": "_vaultId",
          "type": "uint256"
        },
        {
          "internalType": "uint256",
          "name": "_amount",
          "type": "uint256"
        }
      ],
      "name": "payMaintenanceFee",
      "outputs": [],
      "stateMutability": "nonpayable",
      "type": "function"
    },
    {
      "inputs": [
        {
          "internalType": "bytes32",
          "name": "role",
          "type": "bytes32"
        },
        {
          "internalType": "address",
          "name": "account",
          "type": "address"
        }
      ],
      "name": "renounceRole",
      "outputs": [],
      "stateMutability": "nonpayable",
      "type": "function"
    },
    {
      "inputs": [
        {
          "internalType": "bytes32",
          "name": "role",
          "type": "bytes32"
        },
        {
          "internalType": "address",
          "name": "account",
          "type": "address"
        }
      ],
      "name": "revokeRole",
      "outputs": [],
      "stateMutability": "nonpayable",
      "type": "function"
    },
    {
      "inputs": [
        {
          "internalType": "bytes4",
          "name": "interfaceId",
          "type": "bytes4"
        }
      ],
      "name": "supportsInterface",
      "outputs": [
        {
          "internalType": "bool",
          "name": "",
          "type": "bool"
        }
      ],
      "stateMutability": "view",
      "type": "function"
    },
    {
      "inputs": [
        {
          "internalType": "uint256",
          "name": "_vaultId",
          "type": "uint256"
        }
      ],
      "name": "unlockVault",
      "outputs": [],
      "stateMutability": "nonpayable",
      "type": "function"
    },
    {
      "inputs": [],
      "name": "vaultCounter",
      "outputs": [
        {
          "internalType": "uint256",
          "name": "",
          "type": "uint256"
        }
      ],
      "stateMutability": "view",
      "type": "function"
    },
    {
      "inputs": [
        {
          "internalType": "uint256",
          "name": "",
          "type": "uint256"
        }
      ],
      "name": "vaults",
      "outputs": [
        {
          "internalType": "address",
          "name": "creator",
          "type": "address"
        },
        {
          "internalType": "address",
          "name": "currentOwner",
          "type": "address"
        },
        {
          "internalType": "uint256",
          "name": "creationDate",
          "type": "uint256"
        },
        {
          "internalType": "uint256",
          "name": "lastMaintenance",
          "type": "uint256"
        },
        {
          "internalType": "enum SacredVault.VaultStatus",
          "name": "status",
          "type": "uint8"
        },
        {
          "internalType": "string",
          "name": "metadataURI",
          "type": "string"
        },
        {
          "internalType": "uint256",
          "name": "unlockingTimestamp",
          "type": "uint256"
        },
        {
          "internalType": "uint256",
          "name": "culturalEnergy",
          "type": "uint256"
        }
      ],
      "stateMutability": "view",
      "type": "function"
    }
  ],
  "bytecode": "0x608060405234801561001057600080fd5b5061001961001e565b6100dd565b600054610100900460ff161561008a5760405162461bcd60e51b815260206004820152602760248201527f496e697469616c697a61626c653a20636f6e747261637420697320696e697469604482015266616c697a696e6760c81b606482015260840160405180910390fd5b60005460ff908116146100db576000805460ff191660ff9081179091556040519081527f7f26b83ff96e1f2b6a682f133852f6798a09c465da95921460cefb38474024989060200160405180910390a15b565b611bfa806100ec6000396000f3fe608060405234801561001057600080fd5b506004361061012c5760003560e01c80638c64ea4a116100ad578063c0b579c011610071578063c0b579c0146102d5578063cb775b29146102fc578063ced3a4031461030f578063d547741f14610336578063f265e3e61461034957600080fd5b80638c64ea4a1461027757806391d148541461029e578063a217fddf146102b1578063a742328d146102b9578063ac958041146102cc57600080fd5b8063485cc955116100f4578063485cc955146101dd57806357aa6f49146101f05780637d80277f146102035780638a50c6391461023d5780638aeda25a1461025057600080fd5b806301ffc9a7146101315780630a043cd814610159578063248a9ca3146101845780632f2ff15d146101b557806336568abe146101ca575b600080fd5b61014461013f3660046113d5565b61035c565b60405190151581526020015b60405180910390f35b60c95461016c906001600160a01b031681565b6040516001600160a01b039091168152602001610150565b6101a76101923660046113ff565b60009081526065602052604090206001015490565b604051908152602001610150565b6101c86101c3366004611434565b610393565b005b6101c86101d8366004611434565b6103bd565b6101c86101eb366004611460565b610440565b6101c86101fe3660046113ff565b610580565b6101a7610211366004611434565b600082815260ca602090815260408083206001600160a01b038516845260070190915290205492915050565b6101a761024b36600461151b565b610654565b6101a77f828634d95e775031b9ff576b159a8509d3053581a8c9c4d7d86899e0afcd882f81565b61028a6102853660046113ff565b610934565b6040516101509897969594939291906116a4565b6101446102ac366004611434565b610a11565b6101a7600081565b6101c86102c7366004611704565b610a3c565b6101a760cb5481565b6102e86102e33660046113ff565b610c36565b604051610150989796959493929190611726565b6101c861030a3660046117c3565b610d99565b6101a77fc8a41221bcd7fcf2c225f5a9265e1d4d39949d89197159d59e5f4b87b62c419e81565b6101c8610344366004611434565b610e4c565b6101c8610357366004611704565b610e71565b60006001600160e01b03198216637965db0b60e01b148061038d57506301ffc9a760e01b6001600160e01b03198316145b92915050565b6000828152606560205260409020600101546103ae81610fae565b6103b88383610fbb565b505050565b6001600160a01b03811633146104325760405162461bcd60e51b815260206004820152602f60248201527f416363657373436f6e74726f6c3a2063616e206f6e6c792072656e6f756e636560448201526e103937b632b9903337b91039b2b63360891b60648201526084015b60405180910390fd5b61043c8282611041565b5050565b600054610100900460ff16158080156104605750600054600160ff909116105b8061047a5750303b15801561047a575060005460ff166001145b6104dd5760405162461bcd60e51b815260206004820152602e60248201527f496e697469616c697a61626c653a20636f6e747261637420697320616c72656160448201526d191e481a5b9a5d1a585b1a5e995960921b6064820152608401610429565b6000805460ff191660011790558015610500576000805461ff0019166101001790555b6105086110a8565b6105106110d1565b60c980546001600160a01b0319166001600160a01b038516179055610536600083610fbb565b80156103b8576000805461ff0019169055604051600181527f7f26b83ff96e1f2b6a682f133852f6798a09c465da95921460cefb38474024989060200160405180910390a1505050565b600081815260ca602052604090206001600482015460ff1660028111156105a9576105a9611620565b146105c757604051631b4e27cd60e31b815260040160405180910390fd5b80600901544210156105ec57604051630f41413160e01b815260040160405180910390fd5b60018101546001600160a01b0316331461061957604051630eabcc4760e31b815260040160405180910390fd5b60048101805460ff1916905560405182907f3a119f7ba8b2d0b50b2052497850fdad1464c8f48288498812ad2673e06f6c8390600090a25050565b60008786146106765760405163512509d360e11b815260040160405180910390fd5b6000805b878110156106b057888882818110610694576106946117fb565b90506020020135826106a69190611827565b915060010161067a565b50806103e8146106d3576040516337dfdd3560e11b815260040160405180910390fd5b60cb805490819060006106e58361183a565b9091555050600081815260ca6020526040902080546001600160a01b038e166001600160a01b0319918216811783556001830180549092161790554260028201819055600382015560048101805460ff1916905560058101610748888a836118f3565b5060005b858110156107a2578160080187878381811061076a5761076a6117fb565b83546001810185556000948552602090942060609091029290920192600302909101905061079882826119cf565b505060010161074c565b5060005b8b8110156108c357816006018d8d838181106107c4576107c46117fb565b90506020020160208101906107d99190611a22565b81546001810183556000928352602090922090910180546001600160a01b0319166001600160a01b039092169190911790558a8a8281811061081d5761081d6117fb565b905060200201358260070160008f8f8581811061083c5761083c6117fb565b90506020020160208101906108519190611a22565b6001600160a01b031681526020810191909152604001600020556108bb7fc8a41221bcd7fcf2c225f5a9265e1d4d39949d89197159d59e5f4b87b62c419e8e8e848181106108a1576108a16117fb565b90506020020160208101906108b69190611a22565b610fbb565b6001016107a6565b506108ee7f828634d95e775031b9ff576b159a8509d3053581a8c9c4d7d86899e0afcd882f8e610fbb565b6040516001600160a01b038e169083907fbf3e9c93de94306b70ac5b9411edf475545815333bf651b894b9eada6482c59490600090a3509b9a5050505050505050505050565b60ca602052600090815260409020805460018201546002830154600384015460048501546005860180546001600160a01b039687169796909516959394929360ff9092169261098290611869565b80601f01602080910402602001604051908101604052809291908181526020018280546109ae90611869565b80156109fb5780601f106109d0576101008083540402835291602001916109fb565b820191906000526020600020905b8154815290600101906020018083116109de57829003601f168201915b50505050509080600901549080600a0154905088565b60009182526065602090815260408084206001600160a01b0393909316845291905290205460ff1690565b610a44611100565b600082815260ca6020526040812090600482015460ff166002811115610a6c57610a6c611620565b14610a8a57604051630440ee7560e21b815260040160405180910390fd5b60cb548310610aac576040516319d2ee1360e01b815260040160405180910390fd5b60088101548210610ad0576040516308bf9def60e31b815260040160405180910390fd5b6000816008018381548110610ae757610ae76117fb565b60009182526020822060408051606081019091526003909202018054909350610b5691908490829060ff166002811115610b2357610b23611620565b6002811115610b3457610b34611620565b81526001820154602082015260029091015460ff161515604090910152611159565b905080610b7557604051627d215b60e11b815260040160405180910390fd5b60048301805460ff19166001179055610b914262278d00611827565b8360090181905550600083600601600081548110610bb157610bb16117fb565b6000918252602090912001546001850180546001600160a01b0319166001600160a01b03928316908117909155855485546040519294508493919091169189917fc7d41b083eb17e6c3916a321d99c71a573b4daeebbadc7aad28baa4f9219a52791610c209160ff1690611a3d565b60405180910390a45050505061043c6001609755565b600081815260ca6020526040812080546001820154600283015460038401546004850154600a860154600587018054899889988998899860609889988b9895976001600160a01b039586169794909516959294919360ff9091169260068901918390610ca190611869565b80601f0160208091040260200160405190810160405280929190818152602001828054610ccd90611869565b8015610d1a5780601f10610cef57610100808354040283529160200191610d1a565b820191906000526020600020905b815481529060010190602001808311610cfd57829003601f168201915b5050505050925081805480602002602001604051908101604052809291908181526020018280548015610d7657602002820191906000526020600020905b81546001600160a01b03168152600190910190602001808311610d58575b505050505091509850985098509850985098509850985050919395975091939597565b600082815260ca6020526040902060018101546001600160a01b03163314610dd4576040516321b6025160e01b815260040160405180910390fd5b60088101805460018101825560009182526020909120839160030201610dfa82826119cf565b508390507fbc569191d4bb57c7dd1032bb9258e7603e46fbeb6ef7cae8bfb70ab4599e0284610e2c6020850185611a50565b8460200135604051610e3f929190611a6d565b60405180910390a2505050565b600082815260656020526040902060010154610e6781610fae565b6103b88383611041565b610e79611100565b600082815260ca6020526040902060018101546001600160a01b03163314610eb3576040516282b42960e81b815260040160405180910390fd5b60c9546040516302548d0b60e31b8152336004820152602481018490526001600160a01b03909116906312a46858906044016020604051808303816000875af1158015610f04573d6000803e3d6000fd5b505050506040513d601f19601f82011682018060405250810190610f289190611a84565b610f455760405163f0e492a360e01b815260040160405180910390fd5b426003820155610f56600a83611aa1565b81600a016000828254610f699190611827565b909155505060405182815283907f6fd508b85361dbfe08ea3a9f297b640f8c49234925d157495423008316c3519b9060200160405180910390a25061043c6001609755565b610fb881336111a0565b50565b610fc58282610a11565b61043c5760008281526065602090815260408083206001600160a01b03851684529091529020805460ff19166001179055610ffd3390565b6001600160a01b0316816001600160a01b0316837f2f8788117e7eff1d82e926ec794901d17c78024a50270940304540a733656f0d60405160405180910390a45050565b61104b8282610a11565b1561043c5760008281526065602090815260408083206001600160a01b0385168085529252808320805460ff1916905551339285917ff6391f5c32d9c69d2a47ea670b442974b53935d1edc7fd64eb21e047a839171b9190a45050565b600054610100900460ff166110cf5760405162461bcd60e51b815260040161042990611ac3565b565b600054610100900460ff166110f85760405162461bcd60e51b815260040161042990611ac3565b6110cf6111f9565b6002609754036111525760405162461bcd60e51b815260206004820152601f60248201527f5265656e7472616e637947756172643a207265656e7472616e742063616c6c006044820152606401610429565b6002609755565b6000816040015161116c57506000919050565b60008251600281111561118157611181611620565b0361119157506020015142101590565b506000919050565b6001609755565b6111aa8282610a11565b61043c576111b781611220565b6111c2836020611232565b6040516020016111d3929190611b0e565b60408051601f198184030181529082905262461bcd60e51b825261042991600401611b83565b600054610100900460ff166111995760405162461bcd60e51b815260040161042990611ac3565b606061038d6001600160a01b03831660145b60606000611241836002611b96565b61124c906002611827565b67ffffffffffffffff81111561126457611264611853565b6040519080825280601f01601f19166020018201604052801561128e576020820181803683370190505b509050600360fc1b816000815181106112a9576112a96117fb565b60200101906001600160f81b031916908160001a905350600f60fb1b816001815181106112d8576112d86117fb565b60200101906001600160f81b031916908160001a90535060006112fc846002611b96565b611307906001611827565b90505b600181111561137f576f181899199a1a9b1b9c1cb0b131b232b360811b85600f166010811061133b5761133b6117fb565b1a60f81b828281518110611351576113516117fb565b60200101906001600160f81b031916908160001a90535060049490941c9361137881611bad565b905061130a565b5083156113ce5760405162461bcd60e51b815260206004820181905260248201527f537472696e67733a20686578206c656e67746820696e73756666696369656e746044820152606401610429565b9392505050565b6000602082840312156113e757600080fd5b81356001600160e01b0319811681146113ce57600080fd5b60006020828403121561141157600080fd5b5035919050565b80356001600160a01b038116811461142f57600080fd5b919050565b6000806040838503121561144757600080fd5b8235915061145760208401611418565b90509250929050565b6000806040838503121561147357600080fd5b61147c83611418565b915061145760208401611418565b60008083601f84011261149c57600080fd5b50813567ffffffffffffffff8111156114b457600080fd5b6020830191508360208260051b85010111156114cf57600080fd5b9250929050565b60008083601f8401126114e857600080fd5b50813567ffffffffffffffff81111561150057600080fd5b6020830191508360206060830285010111156114cf57600080fd5b600080600080600080600080600060a08a8c03121561153957600080fd5b6115428a611418565b985060208a013567ffffffffffffffff8082111561155f57600080fd5b61156b8d838e0161148a565b909a50985060408c013591508082111561158457600080fd5b6115908d838e0161148a565b909850965060608c01359150808211156115a957600080fd5b818c0191508c601f8301126115bd57600080fd5b8135818111156115cc57600080fd5b8d60208285010111156115de57600080fd5b6020830196508095505060808c01359150808211156115fc57600080fd5b506116098c828d016114d6565b915080935050809150509295985092959850929598565b634e487b7160e01b600052602160045260246000fd5b60038110610fb857634e487b7160e01b600052602160045260246000fd5b60005b8381101561166f578181015183820152602001611657565b50506000910152565b60008151808452611690816020860160208601611654565b601f01601f19169290920160200192915050565b6001600160a01b03898116825288166020820152604081018790526060810186905260006101006116d487611636565b8660808401528060a08401526116ec81840187611678565b60c0840195909552505060e001529695505050505050565b6000806040838503121561171757600080fd5b50508035926020909101359150565b600061010060018060a01b03808c1684526020818c1660208601528a604086015289606086015261175689611636565b8860808601528260a086015261176e83860189611678565b85810360c087015287518082526020808a0195509091019060005b818110156117a7578551851683529483019491830191600101611789565b5050809450505050508260e08301529998505050505050505050565b60008082840360808112156117d757600080fd5b833592506060601f19820112156117ed57600080fd5b506020830190509250929050565b634e487b7160e01b600052603260045260246000fd5b634e487b7160e01b600052601160045260246000fd5b8082018082111561038d5761038d611811565b60006001820161184c5761184c611811565b5060010190565b634e487b7160e01b600052604160045260246000fd5b600181811c9082168061187d57607f821691505b60208210810361189d57634e487b7160e01b600052602260045260246000fd5b50919050565b601f8211156103b8576000816000526020600020601f850160051c810160208610156118cc5750805b601f850160051c820191505b818110156118eb578281556001016118d8565b505050505050565b67ffffffffffffffff83111561190b5761190b611853565b61191f836119198354611869565b836118a3565b6000601f841160018114611953576000851561193b5750838201355b600019600387901b1c1916600186901b1783556119ad565b600083815260209020601f19861690835b828110156119845786850135825560209485019460019092019101611964565b50868210156119a15760001960f88860031b161c19848701351681555b505060018560011b0183555b5050505050565b60038110610fb857600080fd5b8015158114610fb857600080fd5b81356119da816119b4565b6119e381611636565b815460ff9190911660ff199182161782556020830135600183015560028201906040840135611a11816119c1565b825490151560ff1691161790555050565b600060208284031215611a3457600080fd5b6113ce82611418565b60208101611a4a83611636565b91905290565b600060208284031215611a6257600080fd5b81356113ce816119b4565b60408101611a7a84611636565b9281526020015290565b600060208284031215611a9657600080fd5b81516113ce816119c1565b600082611abe57634e487b7160e01b600052601260045260246000fd5b500490565b6020808252602b908201527f496e697469616c697a61626c653a20636f6e7472616374206973206e6f74206960408201526a6e697469616c697a696e6760a81b606082015260800190565b7f416363657373436f6e74726f6c3a206163636f756e7420000000000000000000815260008351611b46816017850160208801611654565b7001034b99036b4b9b9b4b733903937b6329607d1b6017918401918201528351611b77816028840160208801611654565b01602801949350505050565b6020815260006113ce6020830184611678565b808202811582820484141761038d5761038d611811565b600081611bbc57611bbc611811565b50600019019056fea26469706673582212209fb5d85cdb881274ad1db5b76052b19dfc8f84ab4c71aae732737cc130be394964736f6c63430008160033",
  "linkReferences": {},
  "deployedLinkReferences": {}
}