{
  "_format": "hh-sol-artifact-1",
  "contractName": "SacredVault",
  "sourceName": "contracts/SacredVault.sol",
  "abi": [
    {
      "inputs": [],
      "stateMutability": "nonpayable",
      "type": "constructor"
    },
    {
      "anonymous": false,
      "inputs": [
        {
          "indexed": true,
          "internalType": "uint256",
          "name": "vaultId",
          "type": "uint256"
        },
        {
          "indexed": false,
          "internalType": "enum ISacredVault.ConditionType",
          "name": "conditionType",
          "type": "uint8"
        },
        {
          "indexed": false,
          "internalType": "uint256",
          "name": "triggerValue",
          "type": "uint256"
        }
      ],
      "name": "ConditionAdded",
      "type": "event"
    },
    {
      "anonymous": false,
      "inputs": [
        {
          "indexed": true,
          "internalType": "uint256",
          "name": "vaultId",
          "type": "uint256"
        },
        {
          "indexed": true,
          "internalType": "address",
          "name": "oldOwner",
          "type": "address"
        },
        {
          "indexed": true,
          "internalType": "address",
          "name": "newOwner",
          "type": "address"
        },
        {
          "indexed": false,
          "internalType": "enum ISacredVault.ConditionType",
          "name": "conditionType",
          "type": "uint8"
        }
      ],
      "name": "InheritanceTriggered",
      "type": "event"
    },
    {
      "anonymous": false,
      "inputs": [
        {
          "indexed": false,
          "internalType": "uint8",
          "name": "version",
          "type": "uint8"
        }
      ],
      "name": "Initialized",
      "type": "event"
    },
    {
      "anonymous": false,
      "inputs": [
        {
          "indexed": true,
          "internalType": "uint256",
          "name": "vaultId",
          "type": "uint256"
        },
        {
          "indexed": false,
          "internalType": "uint256",
          "name": "amount",
          "type": "uint256"
        }
      ],
      "name": "MaintenanceFeePaid",
      "type": "event"
    },
    {
      "anonymous": false,
      "inputs": [
        {
          "indexed": true,
          "internalType": "bytes32",
          "name": "role",
          "type": "bytes32"
        },
        {
          "indexed": true,
          "internalType": "bytes32",
          "name": "previousAdminRole",
          "type": "bytes32"
        },
        {
          "indexed": true,
          "internalType": "bytes32",
          "name": "newAdminRole",
          "type": "bytes32"
        }
      ],
      "name": "RoleAdminChanged",
      "type": "event"
    },
    {
      "anonymous": false,
      "inputs": [
        {
          "indexed": true,
          "internalType": "bytes32",
          "name": "role",
          "type": "bytes32"
        },
        {
          "indexed": true,
          "internalType": "address",
          "name": "account",
          "type": "address"
        },
        {
          "indexed": true,
          "internalType": "address",
          "name": "sender",
          "type": "address"
        }
      ],
      "name": "RoleGranted",
      "type": "event"
    },
    {
      "anonymous": false,
      "inputs": [
        {
          "indexed": true,
          "internalType": "bytes32",
          "name": "role",
          "type": "bytes32"
        },
        {
          "indexed": true,
          "internalType": "address",
          "name": "account",
          "type": "address"
        },
        {
          "indexed": true,
          "internalType": "address",
          "name": "sender",
          "type": "address"
        }
      ],
      "name": "RoleRevoked",
      "type": "event"
    },
    {
      "anonymous": false,
      "inputs": [
        {
          "indexed": true,
          "internalType": "uint256",
          "name": "vaultId",
          "type": "uint256"
        },
        {
          "indexed": true,
          "internalType": "address",
          "name": "creator",
          "type": "address"
        }
      ],
      "name": "VaultCreated",
      "type": "event"
    },
    {
      "anonymous": false,
      "inputs": [
        {
          "indexed": true,
          "internalType": "uint256",
          "name": "vaultId",
          "type": "uint256"
        }
      ],
      "name": "VaultUnlocked",
      "type": "event"
    },
    {
      "inputs": [],
      "name": "BENEFICIARY_ROLE",
      "outputs": [
        {
          "internalType": "bytes32",
          "name": "",
          "type": "bytes32"
        }
      ],
      "stateMutability": "view",
      "type": "function"
    },
    {
      "inputs": [],
      "name": "CREATOR_ROLE",
      "outputs": [
        {
          "internalType": "bytes32",
          "name": "",
          "type": "bytes32"
        }
      ],
      "stateMutability": "view",
      "type": "function"
    },
    {
      "inputs": [],
      "name": "DEFAULT_ADMIN_ROLE",
      "outputs": [
        {
          "internalType": "bytes32",
          "name": "",
          "type": "bytes32"
        }
      ],
      "stateMutability": "view",
      "type": "function"
    },
    {
      "inputs": [
        {
          "internalType": "uint256",
          "name": "_vaultId",
          "type": "uint256"
        },
        {
          "components": [
            {
              "internalType": "enum ISacredVault.ConditionType",
              "name": "conditionType",
              "type": "uint8"
            },
            {
              "internalType": "uint256",
              "name": "triggerValue",
              "type": "uint256"
            },
            {
              "internalType": "bool",
              "name": "isActive",
              "type": "bool"
            }
          ],
          "internalType": "struct ISacredVault.InheritanceCondition",
          "name": "_condition",
          "type": "tuple"
        }
      ],
      "name": "addInheritanceCondition",
      "outputs": [],
      "stateMutability": "nonpayable",
      "type": "function"
    },
    {
      "inputs": [],
      "name": "amoneyToken",
      "outputs": [
        {
          "internalType": "contract IAMONEY",
          "name": "",
          "type": "address"
        }
      ],
      "stateMutability": "view",
      "type": "function"
    },
    {
      "inputs": [
        {
          "internalType": "address",
          "name": "_creator",
          "type": "address"
        },
        {
          "internalType": "address[]",
          "name": "_beneficiaries",
          "type": "address[]"
        },
        {
          "internalType": "uint256[]",
          "name": "_shares",
          "type": "uint256[]"
        },
        {
          "internalType": "string",
          "name": "_metadataURI",
          "type": "string"
        },
        {
          "components": [
            {
              "internalType": "enum ISacredVault.ConditionType",
              "name": "conditionType",
              "type": "uint8"
            },
            {
              "internalType": "uint256",
              "name": "triggerValue",
              "type": "uint256"
            },
            {
              "internalType": "bool",
              "name": "isActive",
              "type": "bool"
            }
          ],
          "internalType": "struct ISacredVault.InheritanceCondition[]",
          "name": "_conditions",
          "type": "tuple[]"
        }
      ],
      "name": "createSacredVault",
      "outputs": [
        {
          "internalType": "uint256",
          "name": "",
          "type": "uint256"
        }
      ],
      "stateMutability": "nonpayable",
      "type": "function"
    },
    {
      "inputs": [
        {
          "internalType": "uint256",
          "name": "_vaultId",
          "type": "uint256"
        },
        {
          "internalType": "uint256",
          "name": "_conditionIndex",
          "type": "uint256"
        },
        {
          "internalType": "bytes",
          "name": "_data",
          "type": "bytes"
        }
      ],
      "name": "executeInheritance",
      "outputs": [],
      "stateMutability": "nonpayable",
      "type": "function"
    },
    {
      "inputs": [
        {
          "internalType": "bytes32",
          "name": "role",
          "type": "bytes32"
        }
      ],
      "name": "getRoleAdmin",
      "outputs": [
        {
          "internalType": "bytes32",
          "name": "",
          "type": "bytes32"
        }
      ],
      "stateMutability": "view",
      "type": "function"
    },
    {
      "inputs": [
        {
          "internalType": "uint256",
          "name": "_vaultId",
          "type": "uint256"
        }
      ],
      "name": "getVaultDetails",
      "outputs": [
        {
          "internalType": "address",
          "name": "creator",
          "type": "address"
        },
        {
          "internalType": "address",
          "name": "currentOwner",
          "type": "address"
        },
        {
          "internalType": "uint256",
          "name": "creationDate",
          "type": "uint256"
        },
        {
          "internalType": "uint256",
          "name": "lastMaintenance",
          "type": "uint256"
        },
        {
          "internalType": "enum SacredVault.VaultStatus",
          "name": "status",
          "type": "uint8"
        },
        {
          "internalType": "string",
          "name": "metadataURI",
          "type": "string"
        },
        {
          "internalType": "address[]",
          "name": "beneficiaries",
          "type": "address[]"
        },
        {
          "internalType": "uint256",
          "name": "culturalEnergy",
          "type": "uint256"
        }
      ],
      "stateMutability": "view",
      "type": "function"
    },
    {
      "inputs": [
        {
          "internalType": "uint256",
          "name": "_vaultId",
          "type": "uint256"
        },
        {
          "internalType": "address",
          "name": "_beneficiary",
          "type": "address"
        }
      ],
      "name": "getVaultShares",
      "outputs": [
        {
          "internalType": "uint256",
          "name": "",
          "type": "uint256"
        }
      ],
      "stateMutability": "view",
      "type": "function"
    },
    {
      "inputs": [
        {
          "internalType": "bytes32",
          "name": "role",
          "type": "bytes32"
        },
        {
          "internalType": "address",
          "name": "account",
          "type": "address"
        }
      ],
      "name": "grantRole",
      "outputs": [],
      "stateMutability": "nonpayable",
      "type": "function"
    },
    {
      "inputs": [
        {
          "internalType": "bytes32",
          "name": "role",
          "type": "bytes32"
        },
        {
          "internalType": "address",
          "name": "account",
          "type": "address"
        }
      ],
      "name": "hasRole",
      "outputs": [
        {
          "internalType": "bool",
          "name": "",
          "type": "bool"
        }
      ],
      "stateMutability": "view",
      "type": "function"
    },
    {
      "inputs": [
        {
          "internalType": "address",
          "name": "_amoneyToken",
          "type": "address"
        },
        {
          "internalType": "address",
          "name": "initialAdmin",
          "type": "address"
        }
      ],
      "name": "initialize",
      "outputs": [],
      "stateMutability": "nonpayable",
      "type": "function"
    },
    {
      "inputs": [
        {
          "internalType": "uint256",
          "name": "_vaultId",
          "type": "uint256"
        },
        {
          "internalType": "uint256",
          "name": "_amount",
          "type": "uint256"
        }
      ],
      "name": "payMaintenanceFee",
      "outputs": [],
      "stateMutability": "nonpayable",
      "type": "function"
    },
    {
      "inputs": [
        {
          "internalType": "bytes32",
          "name": "role",
          "type": "bytes32"
        },
        {
          "internalType": "address",
          "name": "account",
          "type": "address"
        }
      ],
      "name": "renounceRole",
      "outputs": [],
      "stateMutability": "nonpayable",
      "type": "function"
    },
    {
      "inputs": [
        {
          "internalType": "bytes32",
          "name": "role",
          "type": "bytes32"
        },
        {
          "internalType": "address",
          "name": "account",
          "type": "address"
        }
      ],
      "name": "revokeRole",
      "outputs": [],
      "stateMutability": "nonpayable",
      "type": "function"
    },
    {
      "inputs": [
        {
          "internalType": "bytes4",
          "name": "interfaceId",
          "type": "bytes4"
        }
      ],
      "name": "supportsInterface",
      "outputs": [
        {
          "internalType": "bool",
          "name": "",
          "type": "bool"
        }
      ],
      "stateMutability": "view",
      "type": "function"
    },
    {
      "inputs": [
        {
          "internalType": "uint256",
          "name": "_vaultId",
          "type": "uint256"
        }
      ],
      "name": "unlockVault",
      "outputs": [],
      "stateMutability": "nonpayable",
      "type": "function"
    },
    {
      "inputs": [],
      "name": "vaultCounter",
      "outputs": [
        {
          "internalType": "uint256",
          "name": "",
          "type": "uint256"
        }
      ],
      "stateMutability": "view",
      "type": "function"
    },
    {
      "inputs": [
        {
          "internalType": "uint256",
          "name": "",
          "type": "uint256"
        }
      ],
      "name": "vaults",
      "outputs": [
        {
          "internalType": "address",
          "name": "creator",
          "type": "address"
        },
        {
          "internalType": "address",
          "name": "currentOwner",
          "type": "address"
        },
        {
          "internalType": "uint256",
          "name": "creationDate",
          "type": "uint256"
        },
        {
          "internalType": "uint256",
          "name": "lastMaintenance",
          "type": "uint256"
        },
        {
          "internalType": "enum SacredVault.VaultStatus",
          "name": "status",
          "type": "uint8"
        },
        {
          "internalType": "string",
          "name": "metadataURI",
          "type": "string"
        },
        {
          "internalType": "uint256",
          "name": "unlockingTimestamp",
          "type": "uint256"
        },
        {
          "internalType": "uint256",
          "name": "culturalEnergy",
          "type": "uint256"
        }
      ],
      "stateMutability": "view",
      "type": "function"
    }
  ],
  "bytecode": "0x608060405234801561001057600080fd5b5061001961001e565b6100dd565b600054610100900460ff161561008a5760405162461bcd60e51b815260206004820152602760248201527f496e697469616c697a61626c653a20636f6e747261637420697320696e697469604482015266616c697a696e6760c81b606482015260840160405180910390fd5b60005460ff908116146100db576000805460ff191660ff9081179091556040519081527f7f26b83ff96e1f2b6a682f133852f6798a09c465da95921460cefb38474024989060200160405180910390a15b565b611deb806100ec6000396000f3fe608060405234801561001057600080fd5b506004361061012c5760003560e01c80638c64ea4a116100ad578063cb775b2911610071578063cb775b29146102e9578063ced3a403146102fc578063d547741f14610323578063f265e3e614610336578063ffac755a1461034957600080fd5b80638c64ea4a1461027757806391d148541461029e578063a217fddf146102b1578063ac958041146102b9578063c0b579c0146102c257600080fd5b8063485cc955116100f4578063485cc955146101dd57806357aa6f49146101f05780637d80277f146102035780638a50c6391461023d5780638aeda25a1461025057600080fd5b806301ffc9a7146101315780630a043cd814610159578063248a9ca3146101845780632f2ff15d146101b557806336568abe146101ca575b600080fd5b61014461013f366004611577565b61035c565b60405190151581526020015b60405180910390f35b60c95461016c906001600160a01b031681565b6040516001600160a01b039091168152602001610150565b6101a76101923660046115a1565b60009081526065602052604090206001015490565b604051908152602001610150565b6101c86101c33660046115d6565b610393565b005b6101c86101d83660046115d6565b6103bd565b6101c86101eb366004611602565b610440565b6101c86101fe3660046115a1565b610580565b6101a76102113660046115d6565b600082815260ca602090815260408083206001600160a01b038516845260070190915290205492915050565b6101a761024b3660046116ba565b6106d8565b6101a77f828634d95e775031b9ff576b159a8509d3053581a8c9c4d7d86899e0afcd882f81565b61028a6102853660046115a1565b610a0e565b604051610150989796959493929190611842565b6101446102ac3660046115d6565b610aeb565b6101a7600081565b6101a760cb5481565b6102d56102d03660046115a1565b610b16565b6040516101509897969594939291906118a2565b6101c86102f736600461193f565b610c79565b6101a77fc8a41221bcd7fcf2c225f5a9265e1d4d39949d89197159d59e5f4b87b62c419e81565b6101c86103313660046115d6565b610d5b565b6101c8610344366004611977565b610d80565b6101c8610357366004611999565b610ef0565b60006001600160e01b03198216637965db0b60e01b148061038d57506301ffc9a760e01b6001600160e01b03198316145b92915050565b6000828152606560205260409020600101546103ae81611151565b6103b8838361115e565b505050565b6001600160a01b03811633146104325760405162461bcd60e51b815260206004820152602f60248201527f416363657373436f6e74726f6c3a2063616e206f6e6c792072656e6f756e636560448201526e103937b632b9903337b91039b2b63360891b60648201526084015b60405180910390fd5b61043c82826111e4565b5050565b600054610100900460ff16158080156104605750600054600160ff909116105b8061047a5750303b15801561047a575060005460ff166001145b6104dd5760405162461bcd60e51b815260206004820152602e60248201527f496e697469616c697a61626c653a20636f6e747261637420697320616c72656160448201526d191e481a5b9a5d1a585b1a5e995960921b6064820152608401610429565b6000805460ff191660011790558015610500576000805461ff0019166101001790555b61050861124b565b610510611274565b60c980546001600160a01b0319166001600160a01b03851617905561053660008361115e565b80156103b8576000805461ff0019169055604051600181527f7f26b83ff96e1f2b6a682f133852f6798a09c465da95921460cefb38474024989060200160405180910390a1505050565b600081815260ca602052604090206001600482015460ff1660028111156105a9576105a96117be565b146105f65760405162461bcd60e51b815260206004820152601c60248201527f5661756c74206e6f7420696e20696e68657269746564207374617465000000006044820152606401610429565b80600901544210156106415760405162461bcd60e51b81526020600482015260146024820152732637b1b5903832b934b7b2103737ba1037bb32b960611b6044820152606401610429565b60018101546001600160a01b0316331461069d5760405162461bcd60e51b815260206004820152601960248201527f4f6e6c79206e6577206f776e65722063616e20756e6c6f636b000000000000006044820152606401610429565b60048101805460ff1916905560405182907f3a119f7ba8b2d0b50b2052497850fdad1464c8f48288498812ad2673e06f6c8390600090a25050565b60008786146107215760405162461bcd60e51b8152602060048201526015602482015274082e4e4c2f240d8cadccee8d040dad2e6dac2e8c6d605b1b6044820152606401610429565b6000805b8781101561075b5788888281811061073f5761073f6119ec565b90506020020135826107519190611a18565b9150600101610725565b50806103e8146107ad5760405162461bcd60e51b815260206004820181905260248201527f546f74616c20736861726573206d7573742062652031303030202831303025296044820152606401610429565b60cb805490819060006107bf83611a2b565b9091555050600081815260ca6020526040902080546001600160a01b038e166001600160a01b0319918216811783556001830180549092161790554260028201819055600382015560048101805460ff1916905560058101610822888a83611ae4565b5060005b8581101561087c5781600801878783818110610844576108446119ec565b8354600181018555600094855260209094206060909102929092019260030290910190506108728282611bc0565b5050600101610826565b5060005b8b81101561099d57816006018d8d8381811061089e5761089e6119ec565b90506020020160208101906108b39190611c13565b81546001810183556000928352602090922090910180546001600160a01b0319166001600160a01b039092169190911790558a8a828181106108f7576108f76119ec565b905060200201358260070160008f8f85818110610916576109166119ec565b905060200201602081019061092b9190611c13565b6001600160a01b031681526020810191909152604001600020556109957fc8a41221bcd7fcf2c225f5a9265e1d4d39949d89197159d59e5f4b87b62c419e8e8e8481811061097b5761097b6119ec565b90506020020160208101906109909190611c13565b61115e565b600101610880565b506109c87f828634d95e775031b9ff576b159a8509d3053581a8c9c4d7d86899e0afcd882f8e61115e565b6040516001600160a01b038e169083907fbf3e9c93de94306b70ac5b9411edf475545815333bf651b894b9eada6482c59490600090a3509b9a5050505050505050505050565b60ca602052600090815260409020805460018201546002830154600384015460048501546005860180546001600160a01b039687169796909516959394929360ff90921692610a5c90611a5a565b80601f0160208091040260200160405190810160405280929190818152602001828054610a8890611a5a565b8015610ad55780601f10610aaa57610100808354040283529160200191610ad5565b820191906000526020600020905b815481529060010190602001808311610ab857829003601f168201915b50505050509080600901549080600a0154905088565b60009182526065602090815260408084206001600160a01b0393909316845291905290205460ff1690565b600081815260ca6020526040812080546001820154600283015460038401546004850154600a860154600587018054899889988998899860609889988b9895976001600160a01b039586169794909516959294919360ff9091169260068901918390610b8190611a5a565b80601f0160208091040260200160405190810160405280929190818152602001828054610bad90611a5a565b8015610bfa5780601f10610bcf57610100808354040283529160200191610bfa565b820191906000526020600020905b815481529060010190602001808311610bdd57829003601f168201915b5050505050925081805480602002602001604051908101604052809291908181526020018280548015610c5657602002820191906000526020600020905b81546001600160a01b03168152600190910190602001808311610c38575b505050505091509850985098509850985098509850985050919395975091939597565b600082815260ca6020526040902060018101546001600160a01b03163314610ce35760405162461bcd60e51b815260206004820152601d60248201527f4f6e6c79206f776e65722063616e2061646420636f6e646974696f6e730000006044820152606401610429565b60088101805460018101825560009182526020909120839160030201610d098282611bc0565b508390507fbc569191d4bb57c7dd1032bb9258e7603e46fbeb6ef7cae8bfb70ab4599e0284610d3b6020850185611c2e565b8460200135604051610d4e929190611c4b565b60405180910390a2505050565b600082815260656020526040902060010154610d7681611151565b6103b883836111e4565b600082815260ca6020526040902060018101546001600160a01b03163314610ddf5760405162461bcd60e51b81526020600482015260126024820152714f6e6c79206f776e65722063616e2070617960701b6044820152606401610429565b60c9546040516302548d0b60e31b8152336004820152602481018490526001600160a01b03909116906312a46858906044016020604051808303816000875af1158015610e30573d6000803e3d6000fd5b505050506040513d601f19601f82011682018060405250810190610e549190611c62565b610e955760405162461bcd60e51b8152602060048201526012602482015271119959481c185e5b595b9d0819985a5b195960721b6044820152606401610429565b426003820155610ea6600a83611c7f565b81600a016000828254610eb99190611a18565b909155505060405182815283907f6fd508b85361dbfe08ea3a9f297b640f8c49234925d157495423008316c3519b90602001610d4e565b610ef86112a3565b600084815260ca6020526040812090600482015460ff166002811115610f2057610f206117be565b14610f605760405162461bcd60e51b815260206004820152601060248201526f5661756c74206e6f742061637469766560801b6044820152606401610429565b60088101548410610fb35760405162461bcd60e51b815260206004820152601760248201527f496e76616c696420636f6e646974696f6e20696e6465780000000000000000006044820152606401610429565b6000816008018581548110610fca57610fca6119ec565b6000918252602082206040805160608101909152600390920201805490935061103b91908490829060ff166002811115611006576110066117be565b6002811115611017576110176117be565b81526001820154602082015260029091015460ff16151560409091015286866112fc565b90508061108a5760405162461bcd60e51b815260206004820152601d60248201527f496e6865726974616e636520636f6e646974696f6e206e6f74206d65740000006044820152606401610429565b60048301805460ff191660011790556110a64262278d00611a18565b83600901819055506000836006016000815481106110c6576110c66119ec565b6000918252602090912001546001850180546001600160a01b0319166001600160a01b0392831690811790915585548554604051929450849391909116918b917fc7d41b083eb17e6c3916a321d99c71a573b4daeebbadc7aad28baa4f9219a527916111359160ff1690611ca1565b60405180910390a45050505061114b6001609755565b50505050565b61115b8133611349565b50565b6111688282610aeb565b61043c5760008281526065602090815260408083206001600160a01b03851684529091529020805460ff191660011790556111a03390565b6001600160a01b0316816001600160a01b0316837f2f8788117e7eff1d82e926ec794901d17c78024a50270940304540a733656f0d60405160405180910390a45050565b6111ee8282610aeb565b1561043c5760008281526065602090815260408083206001600160a01b0385168085529252808320805460ff1916905551339285917ff6391f5c32d9c69d2a47ea670b442974b53935d1edc7fd64eb21e047a839171b9190a45050565b600054610100900460ff166112725760405162461bcd60e51b815260040161042990611cb4565b565b600054610100900460ff1661129b5760405162461bcd60e51b815260040161042990611cb4565b6112726113a2565b6002609754036112f55760405162461bcd60e51b815260206004820152601f60248201527f5265656e7472616e637947756172643a207265656e7472616e742063616c6c006044820152606401610429565b6002609755565b6000836040015161130f5750600061133b565b600084516002811115611324576113246117be565b036113375750602083015142101561133b565b5060005b9392505050565b6001609755565b6113538282610aeb565b61043c57611360816113c9565b61136b8360206113db565b60405160200161137c929190611cff565b60408051601f198184030181529082905262461bcd60e51b825261042991600401611d74565b600054610100900460ff166113425760405162461bcd60e51b815260040161042990611cb4565b606061038d6001600160a01b03831660145b606060006113ea836002611d87565b6113f5906002611a18565b67ffffffffffffffff81111561140d5761140d611a44565b6040519080825280601f01601f191660200182016040528015611437576020820181803683370190505b509050600360fc1b81600081518110611452576114526119ec565b60200101906001600160f81b031916908160001a905350600f60fb1b81600181518110611481576114816119ec565b60200101906001600160f81b031916908160001a90535060006114a5846002611d87565b6114b0906001611a18565b90505b6001811115611528576f181899199a1a9b1b9c1cb0b131b232b360811b85600f16601081106114e4576114e46119ec565b1a60f81b8282815181106114fa576114fa6119ec565b60200101906001600160f81b031916908160001a90535060049490941c9361152181611d9e565b90506114b3565b50831561133b5760405162461bcd60e51b815260206004820181905260248201527f537472696e67733a20686578206c656e67746820696e73756666696369656e746044820152606401610429565b60006020828403121561158957600080fd5b81356001600160e01b03198116811461133b57600080fd5b6000602082840312156115b357600080fd5b5035919050565b80356001600160a01b03811681146115d157600080fd5b919050565b600080604083850312156115e957600080fd5b823591506115f9602084016115ba565b90509250929050565b6000806040838503121561161557600080fd5b61161e836115ba565b91506115f9602084016115ba565b60008083601f84011261163e57600080fd5b50813567ffffffffffffffff81111561165657600080fd5b6020830191508360208260051b850101111561167157600080fd5b9250929050565b60008083601f84011261168a57600080fd5b50813567ffffffffffffffff8111156116a257600080fd5b60208301915083602082850101111561167157600080fd5b600080600080600080600080600060a08a8c0312156116d857600080fd5b6116e18a6115ba565b985060208a013567ffffffffffffffff808211156116fe57600080fd5b61170a8d838e0161162c565b909a50985060408c013591508082111561172357600080fd5b61172f8d838e0161162c565b909850965060608c013591508082111561174857600080fd5b6117548d838e01611678565b909650945060808c013591508082111561176d57600080fd5b818c0191508c601f83011261178157600080fd5b81358181111561179057600080fd5b8d60206060830285010111156117a557600080fd5b6020830194508093505050509295985092959850929598565b634e487b7160e01b600052602160045260246000fd5b6003811061115b57634e487b7160e01b600052602160045260246000fd5b60005b8381101561180d5781810151838201526020016117f5565b50506000910152565b6000815180845261182e8160208601602086016117f2565b601f01601f19169290920160200192915050565b6001600160a01b0389811682528816602082015260408101879052606081018690526000610100611872876117d4565b8660808401528060a084015261188a81840187611816565b60c0840195909552505060e001529695505050505050565b600061010060018060a01b03808c1684526020818c1660208601528a60408601528960608601526118d2896117d4565b8860808601528260a08601526118ea83860189611816565b85810360c087015287518082526020808a0195509091019060005b81811015611923578551851683529483019491830191600101611905565b5050809450505050508260e08301529998505050505050505050565b600080828403608081121561195357600080fd5b833592506060601f198201121561196957600080fd5b506020830190509250929050565b6000806040838503121561198a57600080fd5b50508035926020909101359150565b600080600080606085870312156119af57600080fd5b8435935060208501359250604085013567ffffffffffffffff8111156119d457600080fd5b6119e087828801611678565b95989497509550505050565b634e487b7160e01b600052603260045260246000fd5b634e487b7160e01b600052601160045260246000fd5b8082018082111561038d5761038d611a02565b600060018201611a3d57611a3d611a02565b5060010190565b634e487b7160e01b600052604160045260246000fd5b600181811c90821680611a6e57607f821691505b602082108103611a8e57634e487b7160e01b600052602260045260246000fd5b50919050565b601f8211156103b8576000816000526020600020601f850160051c81016020861015611abd5750805b601f850160051c820191505b81811015611adc57828155600101611ac9565b505050505050565b67ffffffffffffffff831115611afc57611afc611a44565b611b1083611b0a8354611a5a565b83611a94565b6000601f841160018114611b445760008515611b2c5750838201355b600019600387901b1c1916600186901b178355611b9e565b600083815260209020601f19861690835b82811015611b755786850135825560209485019460019092019101611b55565b5086821015611b925760001960f88860031b161c19848701351681555b505060018560011b0183555b5050505050565b6003811061115b57600080fd5b801515811461115b57600080fd5b8135611bcb81611ba5565b611bd4816117d4565b815460ff9190911660ff199182161782556020830135600183015560028201906040840135611c0281611bb2565b825490151560ff1691161790555050565b600060208284031215611c2557600080fd5b61133b826115ba565b600060208284031215611c4057600080fd5b813561133b81611ba5565b60408101611c58846117d4565b9281526020015290565b600060208284031215611c7457600080fd5b815161133b81611bb2565b600082611c9c57634e487b7160e01b600052601260045260246000fd5b500490565b60208101611cae836117d4565b91905290565b6020808252602b908201527f496e697469616c697a61626c653a20636f6e7472616374206973206e6f74206960408201526a6e697469616c697a696e6760a81b606082015260800190565b7f416363657373436f6e74726f6c3a206163636f756e7420000000000000000000815260008351611d378160178501602088016117f2565b7001034b99036b4b9b9b4b733903937b6329607d1b6017918401918201528351611d688160288401602088016117f2565b01602801949350505050565b60208152600061133b6020830184611816565b808202811582820484141761038d5761038d611a02565b600081611dad57611dad611a02565b50600019019056fea2646970667358221220c784123560912db11256dd39b1bbd05b4d98e21793a5bab24cd05dbcf3e7e0bd64736f6c63430008160033",
  "linkReferences": {},
  "deployedLinkReferences": {}
}