{
  "_format": "hh-sol-artifact-1",
  "contractName": "VaultFactory",
  "sourceName": "contracts/VaultFactory.sol",
  "abi": [
    {
      "inputs": [],
      "stateMutability": "nonpayable",
      "type": "constructor"
    },
    {
      "inputs": [],
      "name": "InvalidAddress",
      "type": "error"
    },
    {
      "anonymous": false,
      "inputs": [
        {
          "indexed": false,
          "internalType": "address",
          "name": "previousAdmin",
          "type": "address"
        },
        {
          "indexed": false,
          "internalType": "address",
          "name": "newAdmin",
          "type": "address"
        }
      ],
      "name": "AdminChanged",
      "type": "event"
    },
    {
      "anonymous": false,
      "inputs": [
        {
          "indexed": true,
          "internalType": "address",
          "name": "beacon",
          "type": "address"
        }
      ],
      "name": "BeaconUpgraded",
      "type": "event"
    },
    {
      "anonymous": false,
      "inputs": [
        {
          "indexed": false,
          "internalType": "uint8",
          "name": "version",
          "type": "uint8"
        }
      ],
      "name": "Initialized",
      "type": "event"
    },
    {
      "anonymous": false,
      "inputs": [
        {
          "indexed": true,
          "internalType": "bytes32",
          "name": "role",
          "type": "bytes32"
        },
        {
          "indexed": true,
          "internalType": "bytes32",
          "name": "previousAdminRole",
          "type": "bytes32"
        },
        {
          "indexed": true,
          "internalType": "bytes32",
          "name": "newAdminRole",
          "type": "bytes32"
        }
      ],
      "name": "RoleAdminChanged",
      "type": "event"
    },
    {
      "anonymous": false,
      "inputs": [
        {
          "indexed": true,
          "internalType": "bytes32",
          "name": "role",
          "type": "bytes32"
        },
        {
          "indexed": true,
          "internalType": "address",
          "name": "account",
          "type": "address"
        },
        {
          "indexed": true,
          "internalType": "address",
          "name": "sender",
          "type": "address"
        }
      ],
      "name": "RoleGranted",
      "type": "event"
    },
    {
      "anonymous": false,
      "inputs": [
        {
          "indexed": true,
          "internalType": "bytes32",
          "name": "role",
          "type": "bytes32"
        },
        {
          "indexed": true,
          "internalType": "address",
          "name": "account",
          "type": "address"
        },
        {
          "indexed": true,
          "internalType": "address",
          "name": "sender",
          "type": "address"
        }
      ],
      "name": "RoleRevoked",
      "type": "event"
    },
    {
      "anonymous": false,
      "inputs": [
        {
          "indexed": true,
          "internalType": "address",
          "name": "implementation",
          "type": "address"
        }
      ],
      "name": "Upgraded",
      "type": "event"
    },
    {
      "anonymous": false,
      "inputs": [
        {
          "indexed": true,
          "internalType": "address",
          "name": "proxy",
          "type": "address"
        },
        {
          "indexed": true,
          "internalType": "address",
          "name": "implementation",
          "type": "address"
        },
        {
          "indexed": true,
          "internalType": "address",
          "name": "creator",
          "type": "address"
        },
        {
          "indexed": false,
          "internalType": "uint256",
          "name": "vaultId",
          "type": "uint256"
        }
      ],
      "name": "VaultProxyCreated",
      "type": "event"
    },
    {
      "inputs": [],
      "name": "DEFAULT_ADMIN_ROLE",
      "outputs": [
        {
          "internalType": "bytes32",
          "name": "",
          "type": "bytes32"
        }
      ],
      "stateMutability": "view",
      "type": "function"
    },
    {
      "inputs": [
        {
          "internalType": "uint256",
          "name": "",
          "type": "uint256"
        }
      ],
      "name": "allVaults",
      "outputs": [
        {
          "internalType": "address",
          "name": "",
          "type": "address"
        }
      ],
      "stateMutability": "view",
      "type": "function"
    },
    {
      "inputs": [
        {
          "internalType": "address",
          "name": "_amoneyToken",
          "type": "address"
        },
        {
          "internalType": "address[]",
          "name": "_beneficiaries",
          "type": "address[]"
        },
        {
          "internalType": "uint256[]",
          "name": "_shares",
          "type": "uint256[]"
        },
        {
          "internalType": "string",
          "name": "_metadataURI",
          "type": "string"
        },
        {
          "components": [
            {
              "internalType": "enum ISacredVault.ConditionType",
              "name": "conditionType",
              "type": "uint8"
            },
            {
              "internalType": "uint256",
              "name": "triggerValue",
              "type": "uint256"
            },
            {
              "internalType": "bool",
              "name": "isActive",
              "type": "bool"
            }
          ],
          "internalType": "struct ISacredVault.InheritanceCondition[]",
          "name": "_conditions",
          "type": "tuple[]"
        },
        {
          "internalType": "uint256",
          "name": "_sacrificialShare",
          "type": "uint256"
        }
      ],
      "name": "createUpgradeableVault",
      "outputs": [
        {
          "internalType": "address",
          "name": "",
          "type": "address"
        }
      ],
      "stateMutability": "nonpayable",
      "type": "function"
    },
    {
      "inputs": [
        {
          "internalType": "bytes32",
          "name": "role",
          "type": "bytes32"
        }
      ],
      "name": "getRoleAdmin",
      "outputs": [
        {
          "internalType": "bytes32",
          "name": "",
          "type": "bytes32"
        }
      ],
      "stateMutability": "view",
      "type": "function"
    },
    {
      "inputs": [
        {
          "internalType": "address",
          "name": "_user",
          "type": "address"
        }
      ],
      "name": "getUserVaultsCount",
      "outputs": [
        {
          "internalType": "uint256",
          "name": "",
          "type": "uint256"
        }
      ],
      "stateMutability": "view",
      "type": "function"
    },
    {
      "inputs": [],
      "name": "getVaultCount",
      "outputs": [
        {
          "internalType": "uint256",
          "name": "",
          "type": "uint256"
        }
      ],
      "stateMutability": "view",
      "type": "function"
    },
    {
      "inputs": [
        {
          "internalType": "bytes32",
          "name": "role",
          "type": "bytes32"
        },
        {
          "internalType": "address",
          "name": "account",
          "type": "address"
        }
      ],
      "name": "grantRole",
      "outputs": [],
      "stateMutability": "nonpayable",
      "type": "function"
    },
    {
      "inputs": [
        {
          "internalType": "bytes32",
          "name": "role",
          "type": "bytes32"
        },
        {
          "internalType": "address",
          "name": "account",
          "type": "address"
        }
      ],
      "name": "hasRole",
      "outputs": [
        {
          "internalType": "bool",
          "name": "",
          "type": "bool"
        }
      ],
      "stateMutability": "view",
      "type": "function"
    },
    {
      "inputs": [
        {
          "internalType": "address",
          "name": "initialAdmin",
          "type": "address"
        },
        {
          "internalType": "address",
          "name": "_vaultImplementation",
          "type": "address"
        }
      ],
      "name": "initialize",
      "outputs": [],
      "stateMutability": "nonpayable",
      "type": "function"
    },
    {
      "inputs": [],
      "name": "proxiableUUID",
      "outputs": [
        {
          "internalType": "bytes32",
          "name": "",
          "type": "bytes32"
        }
      ],
      "stateMutability": "view",
      "type": "function"
    },
    {
      "inputs": [
        {
          "internalType": "bytes32",
          "name": "role",
          "type": "bytes32"
        },
        {
          "internalType": "address",
          "name": "account",
          "type": "address"
        }
      ],
      "name": "renounceRole",
      "outputs": [],
      "stateMutability": "nonpayable",
      "type": "function"
    },
    {
      "inputs": [
        {
          "internalType": "bytes32",
          "name": "role",
          "type": "bytes32"
        },
        {
          "internalType": "address",
          "name": "account",
          "type": "address"
        }
      ],
      "name": "revokeRole",
      "outputs": [],
      "stateMutability": "nonpayable",
      "type": "function"
    },
    {
      "inputs": [
        {
          "internalType": "address",
          "name": "_newVaultImplementation",
          "type": "address"
        }
      ],
      "name": "setVaultImplementation",
      "outputs": [],
      "stateMutability": "nonpayable",
      "type": "function"
    },
    {
      "inputs": [
        {
          "internalType": "bytes4",
          "name": "interfaceId",
          "type": "bytes4"
        }
      ],
      "name": "supportsInterface",
      "outputs": [
        {
          "internalType": "bool",
          "name": "",
          "type": "bool"
        }
      ],
      "stateMutability": "view",
      "type": "function"
    },
    {
      "inputs": [
        {
          "internalType": "address",
          "name": "newImplementation",
          "type": "address"
        }
      ],
      "name": "upgradeTo",
      "outputs": [],
      "stateMutability": "nonpayable",
      "type": "function"
    },
    {
      "inputs": [
        {
          "internalType": "address",
          "name": "newImplementation",
          "type": "address"
        },
        {
          "internalType": "bytes",
          "name": "data",
          "type": "bytes"
        }
      ],
      "name": "upgradeToAndCall",
      "outputs": [],
      "stateMutability": "payable",
      "type": "function"
    },
    {
      "inputs": [
        {
          "internalType": "address",
          "name": "",
          "type": "address"
        },
        {
          "internalType": "uint256",
          "name": "",
          "type": "uint256"
        }
      ],
      "name": "userVaults",
      "outputs": [
        {
          "internalType": "address",
          "name": "",
          "type": "address"
        }
      ],
      "stateMutability": "view",
      "type": "function"
    },
    {
      "inputs": [],
      "name": "vaultImplementation",
      "outputs": [
        {
          "internalType": "address",
          "name": "",
          "type": "address"
        }
      ],
      "stateMutability": "view",
      "type": "function"
    }
  ],
  "bytecode": "0x60a080604052346100dc57306080526000549060ff8260081c1661008a575060ff8082160361004f575b604051611ee190816100e2823960805181818161085f015281816109970152610e7b0152f35b60ff90811916176000557f7f26b83ff96e1f2b6a682f133852f6798a09c465da95921460cefb3847402498602060405160ff8152a138610029565b62461bcd60e51b815260206004820152602760248201527f496e697469616c697a61626c653a20636f6e747261637420697320696e697469604482015266616c697a696e6760c81b6064820152608490fd5b600080fdfe60808060405260043610156200001457600080fd5b60003560e01c90816301ffc9a714620011c857508063248a9ca314620011975780632f2ff15d14620010dd57806336568abe14620010445780633659cfe61462000e52578063485cc9551462000c275780634f1ef286146200091257806352d1902d146200084a57806353e78b6b14620007f657806353efa7da14620002fc57806374d4e49114620002dc5780639094a91e146200027e57806391d14854146200022d5780639c841fef14620001cd578063a217fddf14620001af578063bba48a901462000184578063d547741f146200013b5763ea180b6514620000f857600080fd5b346200013657602036600319011262000136576001600160a01b036200011d62001237565b1660005260fd6020526020604060002054604051908152f35b600080fd5b34620001365760403660031901126200013657620001826004356200015f62001220565b908060005260c96020526200017c60016040600020015462001631565b62001750565b005b3462000136576000366003190112620001365760fb546040516001600160a01b039091168152602090f35b34620001365760003660031901126200013657602060405160008152f35b34620001365760403660031901126200013657620001ea62001237565b6024359060018060a01b0380911660005260fd6020526040600020805483101562000136576020926200021d91620012f7565b9190546040519260031b1c168152f35b346200013657604036600319011262000136576200024a62001220565b60043560005260c960205260406000209060018060a01b0316600052602052602060ff604060002054166040519015158152f35b3462000136576020366003190112620001365760043560fc54811015620001365760fc6000527f371f36870d18f32a11fea0f144b021c8b407bb50f8e0267c711123f454b963c001546040516001600160a01b039091168152602090f35b34620001365760003660031901126200013657602060fe54604051908152f35b34620001365760c036600319011262000136576200031962001237565b6024356001600160401b03811162000136576200033b903690600401620012c4565b916044356001600160401b03811162000136576200035e903690600401620012c4565b916001600160401b0360643511620001365736602360643501121562000136576001600160401b03606435600401351162000136573660246064356004013560643501011162000136576001600160401b0360843511620001365736602360843501121562000136576001600160401b036084356004013511620001365736602460606084356004013502608435010111620001365760fb546001600160a01b03168015620007e45760405163c0c53b8b60e01b60208201526001600160a01b0390921660248301523360448301523060648084019190915282526001600160401b0360a0830190811190831117620006f45760a082810160408190526001600160401b036104168501909201918211911017620006f45761041662001a7660a084013960a061041683010152604060c06104168301015260a0609f1982620004af60e061041683010182620013f9565b030191016000f09283156200075a576040516337d4888f60e01b815233600482015260c0602482015260c481018690529460e4860191906000905b808210620007ac575050508481036003190160448601528281526001600160fb1b038311620001365760609260051b8092602083013701601c848203016064850152606435600401356020820152606435600401356024606435016040830137600060406064356004013583010152601f19601f6064356004013501160160408101603c858303016084860152608435600401359052018260246084350160005b6084356004013581106200076657505060a48035908201526020918190038160006001600160a01b0386165af19182156200075a5760009262000720575b5060fc54680100000000000000009081811015620006f457600181018060fc558110156200070a577f371f36870d18f32a11fea0f144b021c8b407bb50f8e0267c711123f454b963c00180546001600160a01b0319166001600160a01b03841617905533600090815260fd6020526040902080549091811015620006f4576200065891600182018155620012f7565b81546001600160a01b0384811660039390931b92831b921b191617905560fe54916000198314620006de5760016020930160fe5560018060a01b0360fb541660405191825233917fd95c8070e6be1631a91077e583db9d6d47d2087ecc85a9eae7c75904ce66d3838560018060a01b03861692a46040516001600160a01b039091168152f35b634e487b7160e01b600052601160045260246000fd5b634e487b7160e01b600052604160045260246000fd5b634e487b7160e01b600052603260045260246000fd5b9091506020813d60201162000751575b816200073f6020938362001286565b810103126200013657519082620005c9565b3d915062000730565b6040513d6000823e3d90fd5b915091823560038110156200013657815260208301356020820152604083013590811515809203620001365760608160019360408394015201930191019084916200058b565b91929091908335906001600160a01b038216820362000136576001600160a01b039091168152602090810193019160010190620004ea565b60405163e6c4247b60e01b8152600490fd5b346200013657602036600319011262000136576200081362001237565b6200081d62001420565b6001600160a01b03168015620007e4576bffffffffffffffffffffffff60a01b60fb54161760fb55600080f35b346200013657600036600319011262000136577f00000000000000000000000000000000000000000000000000000000000000006001600160a01b03163003620008a757602060405160008051602062001e8c8339815191528152f35b60405162461bcd60e51b815260206004820152603860248201527f555550535570677261646561626c653a206d757374206e6f742062652063616c60448201527f6c6564207468726f7567682064656c656761746563616c6c00000000000000006064820152608490fd5b604036600319011262000136576200092962001237565b602435906001600160401b038211620001365736602383011215620001365781600401356200095881620012a8565b62000967604051918262001286565b81815260209182820194366024838301011162000136578160009260248693018837830101526001600160a01b037f0000000000000000000000000000000000000000000000000000000000000000811690620009c73083141562001310565b620009e760008051602062001e8c83398151915292828454161462001372565b620009f162001420565b7f4910fdfa16fed3260ed0e7147f7cc6da11a60208b5b9406d12a635614ffd91435460ff161562000a2c575050505062000182915062001828565b8492939416906040516352d1902d60e01b81528581600481865afa6000918162000bf2575b5062000ab35760405162461bcd60e51b815260048101879052602e60248201527f45524331393637557067726164653a206e657720696d706c656d656e7461746960448201526d6f6e206973206e6f74205555505360901b6064820152608490fd5b9493940362000b9b5762000ac78262001828565b7fbc7cd75a20ee27fd9adebab32041f755214dbc6bffa90cc0225b39da2e5c2d3b600080a282511580159062000b92575b62000aff57005b60008062000182956040519562000b16876200124e565b602787527f416464726573733a206c6f772d6c6576656c2064656c65676174652063616c6c86880152660819985a5b195960ca1b60408801525190845af4903d1562000b88573d62000b6881620012a8565b9062000b78604051928362001286565b8152600081943d92013e620019d6565b60609250620019d6565b50600162000af8565b60405162461bcd60e51b815260048101849052602960248201527f45524331393637557067726164653a20756e737570706f727465642070726f786044820152681a58589b195555525160ba1b6064820152608490fd5b9091508681813d831162000c1f575b62000c0d818362001286565b81010312620001365751908862000a51565b503d62000c01565b3462000136576040366003190112620001365762000c4462001237565b62000c4e62001220565b906000549060ff92838360081c16159283809462000e45575b801562000e2d575b1562000dd15760ff19818116600117600055908462000dbe575b5062000c9c8560005460081c16620017c7565b6001600160a01b0392831660008181527f81fe90a866a48a634a12852c1be675b683a22307409932a7443b8029347be756602052604090205490919086161562000d57575b505062000cf6600054948560081c16620017c7565b168015620007e4576bffffffffffffffffffffffff60a01b60fb54161760fb55600060fe5562000d2257005b61ff0019166000557f7f26b83ff96e1f2b6a682f133852f6798a09c465da95921460cefb3847402498602060405160018152a1005b60008281527f81fe90a866a48a634a12852c1be675b683a22307409932a7443b8029347be7566020526040812080549092166001179091553391907f2f8788117e7eff1d82e926ec794901d17c78024a50270940304540a733656f0d8180a4848062000ce1565b61ffff1916610101176000558562000c89565b60405162461bcd60e51b815260206004820152602e60248201527f496e697469616c697a61626c653a20636f6e747261637420697320616c72656160448201526d191e481a5b9a5d1a585b1a5e995960921b6064820152608490fd5b50303b15801562000c6f575060018582161462000c6f565b5060018582161062000c67565b346200013657602080600319360112620001365762000e7062001237565b6001600160a01b03917f0000000000000000000000000000000000000000000000000000000000000000831662000eaa3082141562001310565b62000eca60008051602062001e8c83398151915291858354161462001372565b62000ed462001420565b60405190828201948286106001600160401b03871117620006f457856040526000835260ff7f4910fdfa16fed3260ed0e7147f7cc6da11a60208b5b9406d12a635614ffd9143541660001462000f34575050505062000182915062001828565b8492939416906040516352d1902d60e01b81528581600481865afa600091816200100f575b5062000fbb5760405162461bcd60e51b815260048101879052602e60248201527f45524331393637557067726164653a206e657720696d706c656d656e7461746960448201526d6f6e206973206e6f74205555505360901b6064820152608490fd5b9493940362000b9b5762000fcf8262001828565b7fbc7cd75a20ee27fd9adebab32041f755214dbc6bffa90cc0225b39da2e5c2d3b600080a2825115801590620010065762000aff57005b50600062000af8565b9091508681813d83116200103c575b6200102a818362001286565b81010312620001365751908862000f59565b503d6200101e565b346200013657604036600319011262000136576200106162001220565b336001600160a01b038216036200108057620001829060043562001750565b60405162461bcd60e51b815260206004820152602f60248201527f416363657373436f6e74726f6c3a2063616e206f6e6c792072656e6f756e636560448201526e103937b632b9903337b91039b2b63360891b6064820152608490fd5b34620001365760403660031901126200013657600435620010fd62001220565b8160005260c96020526200111960016040600020015462001631565b8160005260c960205260406000209060018060a01b0316908160005260205260ff60406000205416156200114957005b8160005260c96020526040600020816000526020526040600020600160ff1982541617905533917f2f8788117e7eff1d82e926ec794901d17c78024a50270940304540a733656f0d600080a4005b3462000136576020366003190112620001365760043560005260c96020526020600160406000200154604051908152f35b346200013657602036600319011262000136576004359063ffffffff60e01b82168092036200013657602091637965db0b60e01b81149081156200120e575b5015158152f35b6301ffc9a760e01b1490508362001207565b602435906001600160a01b03821682036200013657565b600435906001600160a01b03821682036200013657565b606081019081106001600160401b03821117620006f457604052565b608081019081106001600160401b03821117620006f457604052565b90601f801991011681019081106001600160401b03821117620006f457604052565b6001600160401b038111620006f457601f01601f191660200190565b9181601f8401121562000136578235916001600160401b03831162000136576020808501948460051b0101116200013657565b80548210156200070a5760005260206000200190600090565b156200131857565b60405162461bcd60e51b815260206004820152602c60248201527f46756e6374696f6e206d7573742062652063616c6c6564207468726f7567682060448201526b19195b1959d85d1958d85b1b60a21b6064820152608490fd5b156200137a57565b60405162461bcd60e51b815260206004820152602c60248201527f46756e6374696f6e206d7573742062652063616c6c6564207468726f7567682060448201526b6163746976652070726f787960a01b6064820152608490fd5b60005b838110620013e85750506000910152565b8181015183820152602001620013d7565b906020916200141481518092818552858086019101620013d4565b601f01601f1916010190565b3360009081527f81fe90a866a48a634a12852c1be675b683a22307409932a7443b8029347be756602090815260408083205490929060ff16156200146357505050565b6200146e33620018cc565b90808451906200147e826200126a565b604282528482019260603685378251156200161d5760308453825190600191600110156200161d5790607860218501536041915b818311620015aa575050506200156857604862001564938693620015479362001537985198899376020b1b1b2b9b9a1b7b73a3937b61d1030b1b1b7bab73a1604d1b8a8601526200150d815180928c603789019101620013d4565b8401917001034b99036b4b9b9b4b733903937b6329607d1b603784015251809386840190620013d4565b0103602881018752018562001286565b5192839262461bcd60e51b845260048401526024830190620013f9565b0390fd5b60648486519062461bcd60e51b825280600483015260248201527f537472696e67733a20686578206c656e67746820696e73756666696369656e746044820152fd5b909192600f8116601081101562001609576f181899199a1a9b1b9c1cb0b131b232b360811b901a620015dd8587620018ba565b5360041c928015620015f557600019019190620014b2565b634e487b7160e01b82526011600452602482fd5b634e487b7160e01b83526032600452602483fd5b634e487b7160e01b81526032600452602490fd5b60009080825260209060c98252604092838120338252835260ff8482205416156200165c5750505050565b6200166733620018cc565b9184519062001676826200126a565b604282528482019260603685378251156200161d5760308453825190600191600110156200161d5790607860218501536041915b81831162001705575050506200156857604862001564938693620015479362001537985198899376020b1b1b2b9b9a1b7b73a3937b61d1030b1b1b7bab73a1604d1b8a8601526200150d815180928c603789019101620013d4565b909192600f8116601081101562001609576f181899199a1a9b1b9c1cb0b131b232b360811b901a620017388587620018ba565b5360041c928015620015f557600019019190620016aa565b9060009180835260c9602052604083209160018060a01b03169182845260205260ff6040842054166200178257505050565b80835260c9602052604083208284526020526040832060ff1981541690557ff6391f5c32d9c69d2a47ea670b442974b53935d1edc7fd64eb21e047a839171b339380a4565b15620017cf57565b60405162461bcd60e51b815260206004820152602b60248201527f496e697469616c697a61626c653a20636f6e7472616374206973206e6f74206960448201526a6e697469616c697a696e6760a81b6064820152608490fd5b803b156200185f5760008051602062001e8c83398151915280546001600160a01b0319166001600160a01b03909216919091179055565b60405162461bcd60e51b815260206004820152602d60248201527f455243313936373a206e657720696d706c656d656e746174696f6e206973206e60448201526c1bdd08184818dbdb9d1c9858dd609a1b6064820152608490fd5b9081518110156200070a570160200190565b60405190620018db826200124e565b602a82526020820160403682378251156200070a57603090538151600190600110156200070a57607860218401536029905b808211620019635750506200191f5790565b606460405162461bcd60e51b815260206004820152602060248201527f537472696e67733a20686578206c656e67746820696e73756666696369656e746044820152fd5b9091600f81166010811015620019c1576f181899199a1a9b1b9c1cb0b131b232b360811b901a620019958486620018ba565b5360041c918015620019ac5760001901906200190d565b60246000634e487b7160e01b81526011600452fd5b60246000634e487b7160e01b81526032600452fd5b9192901562001a3b5750815115620019ec575090565b3b15620019f65790565b60405162461bcd60e51b815260206004820152601d60248201527f416464726573733a2063616c6c20746f206e6f6e2d636f6e74726163740000006044820152606490fd5b82519091501562001a4f5750805190602001fd5b60405162461bcd60e51b81526020600482015290819062001564906024830190620013f956fe604060808152610416908138038061001681610218565b93843982019181818403126102135780516001600160a01b038116808203610213576020838101516001600160401b0394919391858211610213570186601f820112156102135780519061007161006c83610253565b610218565b918083528583019886828401011161021357888661008f930161026e565b813b156101b9577f360894a13ba1a3210667c828492db98dca3e2076cc3735a920a3ca505d382bbc80546001600160a01b031916841790556000927fbc7cd75a20ee27fd9adebab32041f755214dbc6bffa90cc0225b39da2e5c2d3b8480a28051158015906101b2575b61010b575b855160d190816103458239f35b855194606086019081118682101761019e578697849283926101889952602788527f416464726573733a206c6f772d6c6576656c2064656c65676174652063616c6c87890152660819985a5b195960ca1b8a8901525190845af4913d15610194573d9061017a61006c83610253565b91825281943d92013e610291565b508038808080806100fe565b5060609250610291565b634e487b7160e01b84526041600452602484fd5b50826100f9565b855162461bcd60e51b815260048101859052602d60248201527f455243313936373a206e657720696d706c656d656e746174696f6e206973206e60448201526c1bdd08184818dbdb9d1c9858dd609a1b6064820152608490fd5b600080fd5b6040519190601f01601f191682016001600160401b0381118382101761023d57604052565b634e487b7160e01b600052604160045260246000fd5b6001600160401b03811161023d57601f01601f191660200190565b60005b8381106102815750506000910152565b8181015183820152602001610271565b919290156102f357508151156102a5575090565b3b156102ae5790565b60405162461bcd60e51b815260206004820152601d60248201527f416464726573733a2063616c6c20746f206e6f6e2d636f6e74726163740000006044820152606490fd5b8251909150156103065750805190602001fd5b6044604051809262461bcd60e51b825260206004830152610336815180928160248601526020868601910161026e565b601f01601f19168101030190fdfe608060405236156054577f360894a13ba1a3210667c828492db98dca3e2076cc3735a920a3ca505d382bbc54600090819081906001600160a01b0316368280378136915af43d82803e156050573d90f35b3d90fd5b7f360894a13ba1a3210667c828492db98dca3e2076cc3735a920a3ca505d382bbc54600090819081906001600160a01b0316368280378136915af43d82803e156050573d90f3fea2646970667358221220ead15f7f0b00388ade0f4aa400876ffd4ff434c94a32021ec81e360008e0ee9164736f6c63430008160033360894a13ba1a3210667c828492db98dca3e2076cc3735a920a3ca505d382bbca26469706673582212209277c5e89ad8990c1a6ea64eaf7e53164fb30d68c5eb0cf8202d4004fc11db7464736f6c63430008160033",
  "linkReferences": {},
  "deployedLinkReferences": {}
}