{
  "_format": "hh-sol-artifact-1",
  "contractName": "VaultFactory",
  "sourceName": "contracts/VaultFactory.sol",
  "abi": [
    {
      "inputs": [],
      "stateMutability": "nonpayable",
      "type": "constructor"
    },
    {
      "inputs": [],
      "name": "InvalidAmount",
      "type": "error"
    },
    {
      "anonymous": false,
      "inputs": [
        {
          "indexed": false,
          "internalType": "address",
          "name": "previousAdmin",
          "type": "address"
        },
        {
          "indexed": false,
          "internalType": "address",
          "name": "newAdmin",
          "type": "address"
        }
      ],
      "name": "AdminChanged",
      "type": "event"
    },
    {
      "anonymous": false,
      "inputs": [
        {
          "indexed": true,
          "internalType": "address",
          "name": "beacon",
          "type": "address"
        }
      ],
      "name": "BeaconUpgraded",
      "type": "event"
    },
    {
      "anonymous": false,
      "inputs": [
        {
          "indexed": false,
          "internalType": "uint8",
          "name": "version",
          "type": "uint8"
        }
      ],
      "name": "Initialized",
      "type": "event"
    },
    {
      "anonymous": false,
      "inputs": [
        {
          "indexed": true,
          "internalType": "address",
          "name": "previousOwner",
          "type": "address"
        },
        {
          "indexed": true,
          "internalType": "address",
          "name": "newOwner",
          "type": "address"
        }
      ],
      "name": "OwnershipTransferred",
      "type": "event"
    },
    {
      "anonymous": false,
      "inputs": [
        {
          "indexed": true,
          "internalType": "address",
          "name": "implementation",
          "type": "address"
        }
      ],
      "name": "Upgraded",
      "type": "event"
    },
    {
      "anonymous": false,
      "inputs": [
        {
          "indexed": true,
          "internalType": "address",
          "name": "proxy",
          "type": "address"
        },
        {
          "indexed": true,
          "internalType": "address",
          "name": "implementation",
          "type": "address"
        },
        {
          "indexed": true,
          "internalType": "address",
          "name": "creator",
          "type": "address"
        }
      ],
      "name": "VaultProxyCreated",
      "type": "event"
    },
    {
      "inputs": [
        {
          "internalType": "uint256",
          "name": "",
          "type": "uint256"
        }
      ],
      "name": "allVaults",
      "outputs": [
        {
          "internalType": "address",
          "name": "",
          "type": "address"
        }
      ],
      "stateMutability": "view",
      "type": "function"
    },
    {
      "inputs": [
        {
          "internalType": "address",
          "name": "_amoneyToken",
          "type": "address"
        },
        {
          "internalType": "address[]",
          "name": "_beneficiaries",
          "type": "address[]"
        },
        {
          "internalType": "uint256[]",
          "name": "_shares",
          "type": "uint256[]"
        },
        {
          "internalType": "string",
          "name": "_metadataURI",
          "type": "string"
        },
        {
          "components": [
            {
              "internalType": "enum ISacredVault.ConditionType",
              "name": "conditionType",
              "type": "uint8"
            },
            {
              "internalType": "uint256",
              "name": "triggerValue",
              "type": "uint256"
            },
            {
              "internalType": "bool",
              "name": "isActive",
              "type": "bool"
            }
          ],
          "internalType": "struct ISacredVault.InheritanceCondition[]",
          "name": "_conditions",
          "type": "tuple[]"
        }
      ],
      "name": "createUpgradeableVault",
      "outputs": [
        {
          "internalType": "address",
          "name": "",
          "type": "address"
        }
      ],
      "stateMutability": "nonpayable",
      "type": "function"
    },
    {
      "inputs": [
        {
          "internalType": "address",
          "name": "_user",
          "type": "address"
        }
      ],
      "name": "getUserVaultsCount",
      "outputs": [
        {
          "internalType": "uint256",
          "name": "",
          "type": "uint256"
        }
      ],
      "stateMutability": "view",
      "type": "function"
    },
    {
      "inputs": [],
      "name": "getVaultCount",
      "outputs": [
        {
          "internalType": "uint256",
          "name": "",
          "type": "uint256"
        }
      ],
      "stateMutability": "view",
      "type": "function"
    },
    {
      "inputs": [
        {
          "internalType": "address",
          "name": "initialAdmin",
          "type": "address"
        },
        {
          "internalType": "address",
          "name": "_vaultImplementation",
          "type": "address"
        }
      ],
      "name": "initialize",
      "outputs": [],
      "stateMutability": "nonpayable",
      "type": "function"
    },
    {
      "inputs": [],
      "name": "owner",
      "outputs": [
        {
          "internalType": "address",
          "name": "",
          "type": "address"
        }
      ],
      "stateMutability": "view",
      "type": "function"
    },
    {
      "inputs": [],
      "name": "proxiableUUID",
      "outputs": [
        {
          "internalType": "bytes32",
          "name": "",
          "type": "bytes32"
        }
      ],
      "stateMutability": "view",
      "type": "function"
    },
    {
      "inputs": [],
      "name": "renounceOwnership",
      "outputs": [],
      "stateMutability": "nonpayable",
      "type": "function"
    },
    {
      "inputs": [
        {
          "internalType": "address",
          "name": "_newVaultImplementation",
          "type": "address"
        }
      ],
      "name": "setVaultImplementation",
      "outputs": [],
      "stateMutability": "nonpayable",
      "type": "function"
    },
    {
      "inputs": [
        {
          "internalType": "address",
          "name": "newOwner",
          "type": "address"
        }
      ],
      "name": "transferOwnership",
      "outputs": [],
      "stateMutability": "nonpayable",
      "type": "function"
    },
    {
      "inputs": [
        {
          "internalType": "address",
          "name": "newImplementation",
          "type": "address"
        }
      ],
      "name": "upgradeTo",
      "outputs": [],
      "stateMutability": "nonpayable",
      "type": "function"
    },
    {
      "inputs": [
        {
          "internalType": "address",
          "name": "newImplementation",
          "type": "address"
        },
        {
          "internalType": "bytes",
          "name": "data",
          "type": "bytes"
        }
      ],
      "name": "upgradeToAndCall",
      "outputs": [],
      "stateMutability": "payable",
      "type": "function"
    },
    {
      "inputs": [
        {
          "internalType": "address",
          "name": "",
          "type": "address"
        },
        {
          "internalType": "uint256",
          "name": "",
          "type": "uint256"
        }
      ],
      "name": "userVaults",
      "outputs": [
        {
          "internalType": "address",
          "name": "",
          "type": "address"
        }
      ],
      "stateMutability": "view",
      "type": "function"
    },
    {
      "inputs": [],
      "name": "vaultImplementation",
      "outputs": [
        {
          "internalType": "address",
          "name": "",
          "type": "address"
        }
      ],
      "stateMutability": "view",
      "type": "function"
    }
  ],
  "bytecode": "0x60a06040523060805234801561001457600080fd5b5061001d610022565b6100e1565b600054610100900460ff161561008e5760405162461bcd60e51b815260206004820152602760248201527f496e697469616c697a61626c653a20636f6e747261637420697320696e697469604482015266616c697a696e6760c81b606482015260840160405180910390fd5b60005460ff908116146100df576000805460ff191660ff9081179091556040519081527f7f26b83ff96e1f2b6a682f133852f6798a09c465da95921460cefb38474024989060200160405180910390a15b565b608051611b84610118600039600081816103090152818161035501528181610794015281816107d701526108730152611b846000f3fe608060405260043610620000ef5760003560e01c806374d4e49111620000895780639c841fef11620000605780639c841fef1462000259578063bba48a90146200027e578063ea180b6514620002a0578063f2fde38b14620002da57600080fd5b806374d4e49114620001fd5780638da5cb5b14620002145780639094a91e146200023457600080fd5b80634f1ef28611620000ca5780634f1ef286146200018257806352d1902d146200019957806353e78b6b14620001c0578063715018a614620001e557600080fd5b80633659cfe614620000f45780633a21a0a2146200011b578063485cc955146200015d575b600080fd5b3480156200010157600080fd5b50620001196200011336600462000fca565b620002ff565b005b3480156200012857600080fd5b50620001406200013a3660046200107f565b620003f3565b6040516001600160a01b0390911681526020015b60405180910390f35b3480156200016a57600080fd5b50620001196200017c36600462001194565b62000611565b6200011962000193366004620011e2565b6200078a565b348015620001a657600080fd5b50620001b162000866565b60405190815260200162000154565b348015620001cd57600080fd5b5062000119620001df36600462000fca565b6200091c565b348015620001f257600080fd5b506200011962000970565b3480156200020a57600080fd5b5060cc54620001b1565b3480156200022157600080fd5b506097546001600160a01b031662000140565b3480156200024157600080fd5b506200014062000253366004620012b0565b62000988565b3480156200026657600080fd5b506200014062000278366004620012ca565b620009b3565b3480156200028b57600080fd5b5060c95462000140906001600160a01b031681565b348015620002ad57600080fd5b50620001b1620002bf36600462000fca565b6001600160a01b0316600090815260cb602052604090205490565b348015620002e757600080fd5b5062000119620002f936600462000fca565b620009ec565b6001600160a01b037f0000000000000000000000000000000000000000000000000000000000000000163003620003535760405162461bcd60e51b81526004016200034a90620012f7565b60405180910390fd5b7f00000000000000000000000000000000000000000000000000000000000000006001600160a01b03166200039e60008051602062001b08833981519152546001600160a01b031690565b6001600160a01b031614620003c75760405162461bcd60e51b81526004016200034a9062001343565b620003d28162000a68565b60408051600080825260208201909252620003f09183919062000a72565b50565b60c9546000906001600160a01b0316620004205760405163162908e360e11b815260040160405180910390fd5b604080516001600160a01b038c811660248301523360448084019190915283518084039091018152606490920183526020820180516001600160e01b031663485cc95560e01b17905260c954925191926000929116908390620004839062000f9f565b62000490929190620013e3565b604051809103906000f080158015620004ad573d6000803e3d6000fd5b5090506000819050806001600160a01b0316638a50c639338e8e8e8e8e8e8e8e6040518a63ffffffff1660e01b8152600401620004f399989796959493929190620014a2565b6020604051808303816000875af115801562000513573d6000803e3d6000fd5b505050506040513d601f19601f8201168201806040525081019062000539919062001566565b5060ca805460018181019092557f42d72674974f694b5f5159593243114d38a5c39c89d6b62fee061ff523240ee10180546001600160a01b0385166001600160a01b0319918216811790925533600090815260cb60209081526040822080549586018155825281209093018054909116909117905560cc805491620005be8362001580565b909155505060c95460405133916001600160a01b0390811691908516907f67333c14fd987dc45dc7795404d7eddb5bc638557c80ab300084ee66a11e3adf90600090a4509b9a5050505050505050505050565b600054610100900460ff1615808015620006325750600054600160ff909116105b806200064e5750303b1580156200064e575060005460ff166001145b620006b35760405162461bcd60e51b815260206004820152602e60248201527f496e697469616c697a61626c653a20636f6e747261637420697320616c72656160448201526d191e481a5b9a5d1a585b1a5e995960921b60648201526084016200034a565b6000805460ff191660011790558015620006d7576000805461ff0019166101001790555b620006e162000bea565b620006eb62000c1e565b620006f68362000c48565b6001600160a01b0382166200071e5760405163162908e360e11b815260040160405180910390fd5b60c980546001600160a01b0319166001600160a01b038416179055600060cc55801562000785576000805461ff0019169055604051600181527f7f26b83ff96e1f2b6a682f133852f6798a09c465da95921460cefb38474024989060200160405180910390a15b505050565b6001600160a01b037f0000000000000000000000000000000000000000000000000000000000000000163003620007d55760405162461bcd60e51b81526004016200034a90620012f7565b7f00000000000000000000000000000000000000000000000000000000000000006001600160a01b03166200082060008051602062001b08833981519152546001600160a01b031690565b6001600160a01b031614620008495760405162461bcd60e51b81526004016200034a9062001343565b620008548262000a68565b620008628282600162000a72565b5050565b6000306001600160a01b037f00000000000000000000000000000000000000000000000000000000000000001614620009085760405162461bcd60e51b815260206004820152603860248201527f555550535570677261646561626c653a206d757374206e6f742062652063616c60448201527f6c6564207468726f7567682064656c656761746563616c6c000000000000000060648201526084016200034a565b5060008051602062001b0883398151915290565b6200092662000c9a565b6001600160a01b0381166200094e5760405163162908e360e11b815260040160405180910390fd5b60c980546001600160a01b0319166001600160a01b0392909216919091179055565b6200097a62000c9a565b62000986600062000c48565b565b60ca81815481106200099957600080fd5b6000918252602090912001546001600160a01b0316905081565b60cb6020528160005260406000208181548110620009d057600080fd5b6000918252602090912001546001600160a01b03169150829050565b620009f662000c9a565b6001600160a01b03811662000a5d5760405162461bcd60e51b815260206004820152602660248201527f4f776e61626c653a206e6577206f776e657220697320746865207a65726f206160448201526564647265737360d01b60648201526084016200034a565b620003f08162000c48565b620003f062000c9a565b7f4910fdfa16fed3260ed0e7147f7cc6da11a60208b5b9406d12a635614ffd91435460ff161562000aa857620007858362000cf6565b826001600160a01b03166352d1902d6040518163ffffffff1660e01b8152600401602060405180830381865afa92505050801562000b05575060408051601f3d908101601f1916820190925262000b029181019062001566565b60015b62000b6a5760405162461bcd60e51b815260206004820152602e60248201527f45524331393637557067726164653a206e657720696d706c656d656e7461746960448201526d6f6e206973206e6f74205555505360901b60648201526084016200034a565b60008051602062001b08833981519152811462000bdc5760405162461bcd60e51b815260206004820152602960248201527f45524331393637557067726164653a20756e737570706f727465642070726f786044820152681a58589b195555525160ba1b60648201526084016200034a565b506200078583838362000d95565b600054610100900460ff1662000c145760405162461bcd60e51b81526004016200034a90620015a8565b6200098662000dc6565b600054610100900460ff16620009865760405162461bcd60e51b81526004016200034a90620015a8565b609780546001600160a01b038381166001600160a01b0319831681179093556040519116919082907f8be0079c531659141344cd1fd0a4f28419497f9722a3daafe3b4186f6b6457e090600090a35050565b6097546001600160a01b03163314620009865760405162461bcd60e51b815260206004820181905260248201527f4f776e61626c653a2063616c6c6572206973206e6f7420746865206f776e657260448201526064016200034a565b6001600160a01b0381163b62000d655760405162461bcd60e51b815260206004820152602d60248201527f455243313936373a206e657720696d706c656d656e746174696f6e206973206e60448201526c1bdd08184818dbdb9d1c9858dd609a1b60648201526084016200034a565b60008051602062001b0883398151915280546001600160a01b0319166001600160a01b0392909216919091179055565b62000da08362000dfb565b60008251118062000dae5750805b15620007855762000dc0838362000e3d565b50505050565b600054610100900460ff1662000df05760405162461bcd60e51b81526004016200034a90620015a8565b620009863362000c48565b62000e068162000cf6565b6040516001600160a01b038216907fbc7cd75a20ee27fd9adebab32041f755214dbc6bffa90cc0225b39da2e5c2d3b90600090a250565b606062000e65838360405180606001604052806027815260200162001b286027913962000e6c565b9392505050565b6060600080856001600160a01b03168560405162000e8b9190620015f3565b600060405180830381855af49150503d806000811462000ec8576040519150601f19603f3d011682016040523d82523d6000602084013e62000ecd565b606091505b509150915062000ee08683838762000eea565b9695505050505050565b6060831562000f5e57825160000362000f56576001600160a01b0385163b62000f565760405162461bcd60e51b815260206004820152601d60248201527f416464726573733a2063616c6c20746f206e6f6e2d636f6e747261637400000060448201526064016200034a565b508162000f6a565b62000f6a838362000f72565b949350505050565b81511562000f835781518083602001fd5b8060405162461bcd60e51b81526004016200034a919062001611565b6104e1806200162783390190565b80356001600160a01b038116811462000fc557600080fd5b919050565b60006020828403121562000fdd57600080fd5b62000e658262000fad565b60008083601f84011262000ffb57600080fd5b50813567ffffffffffffffff8111156200101457600080fd5b6020830191508360208260051b85010111156200103057600080fd5b9250929050565b60008083601f8401126200104a57600080fd5b50813567ffffffffffffffff8111156200106357600080fd5b6020830191508360206060830285010111156200103057600080fd5b600080600080600080600080600060a08a8c0312156200109e57600080fd5b620010a98a62000fad565b985060208a013567ffffffffffffffff80821115620010c757600080fd5b620010d58d838e0162000fe8565b909a50985060408c0135915080821115620010ef57600080fd5b620010fd8d838e0162000fe8565b909850965060608c01359150808211156200111757600080fd5b818c0191508c601f8301126200112c57600080fd5b8135818111156200113c57600080fd5b8d60208285010111156200114f57600080fd5b6020830196508095505060808c01359150808211156200116e57600080fd5b506200117d8c828d0162001037565b915080935050809150509295985092959850929598565b60008060408385031215620011a857600080fd5b620011b38362000fad565b9150620011c36020840162000fad565b90509250929050565b634e487b7160e01b600052604160045260246000fd5b60008060408385031215620011f657600080fd5b620012018362000fad565b9150602083013567ffffffffffffffff808211156200121f57600080fd5b818501915085601f8301126200123457600080fd5b813581811115620012495762001249620011cc565b604051601f8201601f19908116603f01168101908382118183101715620012745762001274620011cc565b816040528281528860208487010111156200128e57600080fd5b8260208601602083013760006020848301015280955050505050509250929050565b600060208284031215620012c357600080fd5b5035919050565b60008060408385031215620012de57600080fd5b620012e98362000fad565b946020939093013593505050565b6020808252602c908201527f46756e6374696f6e206d7573742062652063616c6c6564207468726f7567682060408201526b19195b1959d85d1958d85b1b60a21b606082015260800190565b6020808252602c908201527f46756e6374696f6e206d7573742062652063616c6c6564207468726f7567682060408201526b6163746976652070726f787960a01b606082015260800190565b60005b83811015620013ac57818101518382015260200162001392565b50506000910152565b60008151808452620013cf8160208601602086016200138f565b601f01601f19169290920160200192915050565b6001600160a01b038316815260406020820181905260009062000f6a90830184620013b5565b81835281816020850137506000828201602090810191909152601f909101601f19169091010190565b8183526000602080850194508260005b8581101562001497578135600381106200145b57600080fd5b875281830135838801526040808301358015158082146200147b57600080fd5b9189019190915250606096870196919091019060010162001442565b509495945050505050565b6001600160a01b038a8116825260a060208084018290529083018a90526000918b9160c08501845b8d811015620014f35783620014df8662000fad565b1682529382019390820190600101620014ca565b5085810360408701528a81526001600160fb1b038b11156200151457600080fd5b8a60051b9350838c8383013790920184810383016060860152916200153d818401898b62001409565b9250505082810360808401526200155681858762001432565b9c9b505050505050505050505050565b6000602082840312156200157957600080fd5b5051919050565b600060018201620015a157634e487b7160e01b600052601160045260246000fd5b5060010190565b6020808252602b908201527f496e697469616c697a61626c653a20636f6e7472616374206973206e6f74206960408201526a6e697469616c697a696e6760a81b606082015260800190565b60008251620016078184602087016200138f565b9190910192915050565b60208152600062000e656020830184620013b556fe60806040526040516104e13803806104e1833981016040819052610022916102de565b61002e82826000610035565b50506103fb565b61003e83610061565b60008251118061004b5750805b1561005c5761005a83836100a1565b505b505050565b61006a816100cd565b6040516001600160a01b038216907fbc7cd75a20ee27fd9adebab32041f755214dbc6bffa90cc0225b39da2e5c2d3b90600090a250565b60606100c683836040518060600160405280602781526020016104ba60279139610180565b9392505050565b6001600160a01b0381163b61013f5760405162461bcd60e51b815260206004820152602d60248201527f455243313936373a206e657720696d706c656d656e746174696f6e206973206e60448201526c1bdd08184818dbdb9d1c9858dd609a1b60648201526084015b60405180910390fd5b7f360894a13ba1a3210667c828492db98dca3e2076cc3735a920a3ca505d382bbc80546001600160a01b0319166001600160a01b0392909216919091179055565b6060600080856001600160a01b03168560405161019d91906103ac565b600060405180830381855af49150503d80600081146101d8576040519150601f19603f3d011682016040523d82523d6000602084013e6101dd565b606091505b5090925090506101ef868383876101f9565b9695505050505050565b60608315610268578251600003610261576001600160a01b0385163b6102615760405162461bcd60e51b815260206004820152601d60248201527f416464726573733a2063616c6c20746f206e6f6e2d636f6e74726163740000006044820152606401610136565b5081610272565b610272838361027a565b949350505050565b81511561028a5781518083602001fd5b8060405162461bcd60e51b815260040161013691906103c8565b634e487b7160e01b600052604160045260246000fd5b60005b838110156102d55781810151838201526020016102bd565b50506000910152565b600080604083850312156102f157600080fd5b82516001600160a01b038116811461030857600080fd5b60208401519092506001600160401b038082111561032557600080fd5b818501915085601f83011261033957600080fd5b81518181111561034b5761034b6102a4565b604051601f8201601f19908116603f01168101908382118183101715610373576103736102a4565b8160405282815288602084870101111561038c57600080fd5b61039d8360208301602088016102ba565b80955050505050509250929050565b600082516103be8184602087016102ba565b9190910192915050565b60208152600082518060208401526103e78160408501602087016102ba565b601f01601f19169190910160400192915050565b60b1806104096000396000f3fe608060405236601057600e6013565b005b600e5b601f601b6021565b6058565b565b600060537f360894a13ba1a3210667c828492db98dca3e2076cc3735a920a3ca505d382bbc546001600160a01b031690565b905090565b3660008037600080366000845af43d6000803e8080156076573d6000f35b3d6000fdfea2646970667358221220bc281ffc515af179eea44b6ade676b11dbb63892ebad7881bb9ca822f1717d2264736f6c63430008160033416464726573733a206c6f772d6c6576656c2064656c65676174652063616c6c206661696c6564360894a13ba1a3210667c828492db98dca3e2076cc3735a920a3ca505d382bbc416464726573733a206c6f772d6c6576656c2064656c65676174652063616c6c206661696c6564a2646970667358221220150a6e5247c5b197096de56c0cecd0e72e95d15130a548a3a5273fed9f14b4ac64736f6c63430008160033",
  "linkReferences": {},
  "deployedLinkReferences": {}
}