{
  "_format": "hh-sol-artifact-1",
  "contractName": "VaultFactory",
  "sourceName": "contracts/VaultFactory.sol",
  "abi": [
    {
      "inputs": [],
      "stateMutability": "nonpayable",
      "type": "constructor"
    },
    {
      "anonymous": false,
      "inputs": [
        {
          "indexed": false,
          "internalType": "address",
          "name": "previousAdmin",
          "type": "address"
        },
        {
          "indexed": false,
          "internalType": "address",
          "name": "newAdmin",
          "type": "address"
        }
      ],
      "name": "AdminChanged",
      "type": "event"
    },
    {
      "anonymous": false,
      "inputs": [
        {
          "indexed": true,
          "internalType": "address",
          "name": "beacon",
          "type": "address"
        }
      ],
      "name": "BeaconUpgraded",
      "type": "event"
    },
    {
      "anonymous": false,
      "inputs": [
        {
          "indexed": false,
          "internalType": "uint8",
          "name": "version",
          "type": "uint8"
        }
      ],
      "name": "Initialized",
      "type": "event"
    },
    {
      "anonymous": false,
      "inputs": [
        {
          "indexed": true,
          "internalType": "address",
          "name": "previousOwner",
          "type": "address"
        },
        {
          "indexed": true,
          "internalType": "address",
          "name": "newOwner",
          "type": "address"
        }
      ],
      "name": "OwnershipTransferred",
      "type": "event"
    },
    {
      "anonymous": false,
      "inputs": [
        {
          "indexed": true,
          "internalType": "address",
          "name": "implementation",
          "type": "address"
        }
      ],
      "name": "Upgraded",
      "type": "event"
    },
    {
      "anonymous": false,
      "inputs": [
        {
          "indexed": true,
          "internalType": "address",
          "name": "proxy",
          "type": "address"
        },
        {
          "indexed": true,
          "internalType": "address",
          "name": "implementation",
          "type": "address"
        },
        {
          "indexed": true,
          "internalType": "address",
          "name": "creator",
          "type": "address"
        }
      ],
      "name": "VaultProxyCreated",
      "type": "event"
    },
    {
      "inputs": [
        {
          "internalType": "uint256",
          "name": "",
          "type": "uint256"
        }
      ],
      "name": "allVaults",
      "outputs": [
        {
          "internalType": "address",
          "name": "",
          "type": "address"
        }
      ],
      "stateMutability": "view",
      "type": "function"
    },
    {
      "inputs": [
        {
          "internalType": "address",
          "name": "_amoneyToken",
          "type": "address"
        },
        {
          "internalType": "address[]",
          "name": "_beneficiaries",
          "type": "address[]"
        },
        {
          "internalType": "uint256[]",
          "name": "_shares",
          "type": "uint256[]"
        },
        {
          "internalType": "string",
          "name": "_metadataURI",
          "type": "string"
        },
        {
          "components": [
            {
              "internalType": "enum ISacredVault.ConditionType",
              "name": "conditionType",
              "type": "uint8"
            },
            {
              "internalType": "uint256",
              "name": "triggerValue",
              "type": "uint256"
            },
            {
              "internalType": "bool",
              "name": "isActive",
              "type": "bool"
            }
          ],
          "internalType": "struct ISacredVault.InheritanceCondition[]",
          "name": "_conditions",
          "type": "tuple[]"
        }
      ],
      "name": "createUpgradeableVault",
      "outputs": [
        {
          "internalType": "address",
          "name": "",
          "type": "address"
        }
      ],
      "stateMutability": "nonpayable",
      "type": "function"
    },
    {
      "inputs": [
        {
          "internalType": "address",
          "name": "initialAdmin",
          "type": "address"
        },
        {
          "internalType": "address",
          "name": "_vaultImplementation",
          "type": "address"
        }
      ],
      "name": "initialize",
      "outputs": [],
      "stateMutability": "nonpayable",
      "type": "function"
    },
    {
      "inputs": [],
      "name": "owner",
      "outputs": [
        {
          "internalType": "address",
          "name": "",
          "type": "address"
        }
      ],
      "stateMutability": "view",
      "type": "function"
    },
    {
      "inputs": [],
      "name": "proxiableUUID",
      "outputs": [
        {
          "internalType": "bytes32",
          "name": "",
          "type": "bytes32"
        }
      ],
      "stateMutability": "view",
      "type": "function"
    },
    {
      "inputs": [],
      "name": "proxyAdmin",
      "outputs": [
        {
          "internalType": "contract ProxyAdmin",
          "name": "",
          "type": "address"
        }
      ],
      "stateMutability": "view",
      "type": "function"
    },
    {
      "inputs": [],
      "name": "renounceOwnership",
      "outputs": [],
      "stateMutability": "nonpayable",
      "type": "function"
    },
    {
      "inputs": [
        {
          "internalType": "address",
          "name": "newOwner",
          "type": "address"
        }
      ],
      "name": "transferOwnership",
      "outputs": [],
      "stateMutability": "nonpayable",
      "type": "function"
    },
    {
      "inputs": [
        {
          "internalType": "address",
          "name": "newImplementation",
          "type": "address"
        }
      ],
      "name": "upgradeTo",
      "outputs": [],
      "stateMutability": "nonpayable",
      "type": "function"
    },
    {
      "inputs": [
        {
          "internalType": "address",
          "name": "newImplementation",
          "type": "address"
        },
        {
          "internalType": "bytes",
          "name": "data",
          "type": "bytes"
        }
      ],
      "name": "upgradeToAndCall",
      "outputs": [],
      "stateMutability": "payable",
      "type": "function"
    },
    {
      "inputs": [
        {
          "internalType": "address",
          "name": "",
          "type": "address"
        },
        {
          "internalType": "uint256",
          "name": "",
          "type": "uint256"
        }
      ],
      "name": "userVaults",
      "outputs": [
        {
          "internalType": "address",
          "name": "",
          "type": "address"
        }
      ],
      "stateMutability": "view",
      "type": "function"
    },
    {
      "inputs": [],
      "name": "vaultImplementation",
      "outputs": [
        {
          "internalType": "address",
          "name": "",
          "type": "address"
        }
      ],
      "stateMutability": "view",
      "type": "function"
    }
  ],
  "bytecode": "0x60a06040523060805234801561001457600080fd5b5061001d610022565b6100e1565b600054610100900460ff161561008e5760405162461bcd60e51b815260206004820152602760248201527f496e697469616c697a61626c653a20636f6e747261637420697320696e697469604482015266616c697a696e6760c81b606482015260840160405180910390fd5b60005460ff908116146100df576000805460ff191660ff9081179091556040519081527f7f26b83ff96e1f2b6a682f133852f6798a09c465da95921460cefb38474024989060200160405180910390a15b565b608051612b2a6101186000396000818161027b015281816102c70152818161072c0152818161076f015261080b0152612b2a6000f3fe608060405260043610620000b55760003560e01c8063715018a6116200006c578063715018a614620001a85780638da5cb5b14620001c05780639094a91e14620001e05780639c841fef1462000205578063bba48a90146200022a578063f2fde38b146200024c57600080fd5b80633659cfe614620000ba5780633a21a0a214620000e15780633e47158c1462000123578063485cc95514620001455780634f1ef286146200016a57806352d1902d1462000181575b600080fd5b348015620000c757600080fd5b50620000df620000d936600462000f1c565b62000271565b005b348015620000ee57600080fd5b50620001066200010036600462000fd1565b62000365565b6040516001600160a01b0390911681526020015b60405180910390f35b3480156200013057600080fd5b5060c95462000106906001600160a01b031681565b3480156200015257600080fd5b50620000df62000164366004620010e6565b62000538565b620000df6200017b36600462001134565b62000722565b3480156200018e57600080fd5b5062000199620007fe565b6040519081526020016200011a565b348015620001b557600080fd5b50620000df620008b4565b348015620001cd57600080fd5b506097546001600160a01b031662000106565b348015620001ed57600080fd5b5062000106620001ff36600462001202565b620008cc565b3480156200021257600080fd5b5062000106620002243660046200121c565b620008f7565b3480156200023757600080fd5b5060ca5462000106906001600160a01b031681565b3480156200025957600080fd5b50620000df6200026b36600462000f1c565b62000930565b6001600160a01b037f0000000000000000000000000000000000000000000000000000000000000000163003620002c55760405162461bcd60e51b8152600401620002bc9062001249565b60405180910390fd5b7f00000000000000000000000000000000000000000000000000000000000000006001600160a01b03166200031060008051602062002aae833981519152546001600160a01b031690565b6001600160a01b031614620003395760405162461bcd60e51b8152600401620002bc9062001295565b6200034481620009ac565b604080516000808252602082019092526200036291839190620009b6565b50565b60ca5460c954604080516001600160a01b038d811660248301523360448084019190915283518084039091018152606490920183526020820180516001600160e01b031663485cc95560e01b1790529151600094859490841693169190620003cd9062000ee3565b620003db9392919062001335565b604051809103906000f080158015620003f8573d6000803e3d6000fd5b50604051638a50c63960e01b815290915081906001600160a01b03821690638a50c639906200043c9033908f908f908f908f908f908f908f908f9060040162001405565b6020604051808303816000875af11580156200045c573d6000803e3d6000fd5b505050506040513d601f19601f82011682018060405250810190620004829190620014c9565b5060cb805460018181019092557fa7ce836d032b2bf62b7e2097a8e0a6d8aeb35405ad15271e96d3b0188a1d06fb0180546001600160a01b038086166001600160a01b0319928316811790935533600081815260cc602090815260408083208054988901815583529082209096018054909416851790935560ca549451909490911692917f67333c14fd987dc45dc7795404d7eddb5bc638557c80ab300084ee66a11e3adf91a4509a9950505050505050505050565b600054610100900460ff1615808015620005595750600054600160ff909116105b80620005755750303b15801562000575575060005460ff166001145b620005da5760405162461bcd60e51b815260206004820152602e60248201527f496e697469616c697a61626c653a20636f6e747261637420697320616c72656160448201526d191e481a5b9a5d1a585b1a5e995960921b6064820152608401620002bc565b6000805460ff191660011790558015620005fe576000805461ff0019166101001790555b6200060862000b2e565b6200061262000b62565b6200061d8362000b8c565b6040516200062b9062000ef1565b604051809103906000f08015801562000648573d6000803e3d6000fd5b5060c980546001600160a01b0319166001600160a01b0392831690811790915560405163f2fde38b60e01b815291851660048301529063f2fde38b90602401600060405180830381600087803b158015620006a257600080fd5b505af1158015620006b7573d6000803e3d6000fd5b505060ca80546001600160a01b0319166001600160a01b038616179055505080156200071d576000805461ff0019169055604051600181527f7f26b83ff96e1f2b6a682f133852f6798a09c465da95921460cefb38474024989060200160405180910390a15b505050565b6001600160a01b037f00000000000000000000000000000000000000000000000000000000000000001630036200076d5760405162461bcd60e51b8152600401620002bc9062001249565b7f00000000000000000000000000000000000000000000000000000000000000006001600160a01b0316620007b860008051602062002aae833981519152546001600160a01b031690565b6001600160a01b031614620007e15760405162461bcd60e51b8152600401620002bc9062001295565b620007ec82620009ac565b620007fa82826001620009b6565b5050565b6000306001600160a01b037f00000000000000000000000000000000000000000000000000000000000000001614620008a05760405162461bcd60e51b815260206004820152603860248201527f555550535570677261646561626c653a206d757374206e6f742062652063616c60448201527f6c6564207468726f7567682064656c656761746563616c6c00000000000000006064820152608401620002bc565b5060008051602062002aae83398151915290565b620008be62000bde565b620008ca600062000b8c565b565b60cb8181548110620008dd57600080fd5b6000918252602090912001546001600160a01b0316905081565b60cc60205281600052604060002081815481106200091457600080fd5b6000918252602090912001546001600160a01b03169150829050565b6200093a62000bde565b6001600160a01b038116620009a15760405162461bcd60e51b815260206004820152602660248201527f4f776e61626c653a206e6577206f776e657220697320746865207a65726f206160448201526564647265737360d01b6064820152608401620002bc565b620003628162000b8c565b6200036262000bde565b7f4910fdfa16fed3260ed0e7147f7cc6da11a60208b5b9406d12a635614ffd91435460ff1615620009ec576200071d8362000c3a565b826001600160a01b03166352d1902d6040518163ffffffff1660e01b8152600401602060405180830381865afa92505050801562000a49575060408051601f3d908101601f1916820190925262000a4691810190620014c9565b60015b62000aae5760405162461bcd60e51b815260206004820152602e60248201527f45524331393637557067726164653a206e657720696d706c656d656e7461746960448201526d6f6e206973206e6f74205555505360901b6064820152608401620002bc565b60008051602062002aae833981519152811462000b205760405162461bcd60e51b815260206004820152602960248201527f45524331393637557067726164653a20756e737570706f727465642070726f786044820152681a58589b195555525160ba1b6064820152608401620002bc565b506200071d83838362000cd9565b600054610100900460ff1662000b585760405162461bcd60e51b8152600401620002bc90620014e3565b620008ca62000d0a565b600054610100900460ff16620008ca5760405162461bcd60e51b8152600401620002bc90620014e3565b609780546001600160a01b038381166001600160a01b0319831681179093556040519116919082907f8be0079c531659141344cd1fd0a4f28419497f9722a3daafe3b4186f6b6457e090600090a35050565b6097546001600160a01b03163314620008ca5760405162461bcd60e51b815260206004820181905260248201527f4f776e61626c653a2063616c6c6572206973206e6f7420746865206f776e65726044820152606401620002bc565b6001600160a01b0381163b62000ca95760405162461bcd60e51b815260206004820152602d60248201527f455243313936373a206e657720696d706c656d656e746174696f6e206973206e60448201526c1bdd08184818dbdb9d1c9858dd609a1b6064820152608401620002bc565b60008051602062002aae83398151915280546001600160a01b0319166001600160a01b0392909216919091179055565b62000ce48362000d3f565b60008251118062000cf25750805b156200071d5762000d04838362000d81565b50505050565b600054610100900460ff1662000d345760405162461bcd60e51b8152600401620002bc90620014e3565b620008ca3362000b8c565b62000d4a8162000c3a565b6040516001600160a01b038216907fbc7cd75a20ee27fd9adebab32041f755214dbc6bffa90cc0225b39da2e5c2d3b90600090a250565b606062000da9838360405180606001604052806027815260200162002ace6027913962000db0565b9392505050565b6060600080856001600160a01b03168560405162000dcf91906200152e565b600060405180830381855af49150503d806000811462000e0c576040519150601f19603f3d011682016040523d82523d6000602084013e62000e11565b606091505b509150915062000e248683838762000e2e565b9695505050505050565b6060831562000ea257825160000362000e9a576001600160a01b0385163b62000e9a5760405162461bcd60e51b815260206004820152601d60248201527f416464726573733a2063616c6c20746f206e6f6e2d636f6e74726163740000006044820152606401620002bc565b508162000eae565b62000eae838362000eb6565b949350505050565b81511562000ec75781518083602001fd5b8060405162461bcd60e51b8152600401620002bc91906200154c565b610e3a806200156283390190565b610712806200239c83390190565b80356001600160a01b038116811462000f1757600080fd5b919050565b60006020828403121562000f2f57600080fd5b62000da98262000eff565b60008083601f84011262000f4d57600080fd5b50813567ffffffffffffffff81111562000f6657600080fd5b6020830191508360208260051b850101111562000f8257600080fd5b9250929050565b60008083601f84011262000f9c57600080fd5b50813567ffffffffffffffff81111562000fb557600080fd5b60208301915083602060608302850101111562000f8257600080fd5b600080600080600080600080600060a08a8c03121562000ff057600080fd5b62000ffb8a62000eff565b985060208a013567ffffffffffffffff808211156200101957600080fd5b620010278d838e0162000f3a565b909a50985060408c01359150808211156200104157600080fd5b6200104f8d838e0162000f3a565b909850965060608c01359150808211156200106957600080fd5b818c0191508c601f8301126200107e57600080fd5b8135818111156200108e57600080fd5b8d6020828501011115620010a157600080fd5b6020830196508095505060808c0135915080821115620010c057600080fd5b50620010cf8c828d0162000f89565b915080935050809150509295985092959850929598565b60008060408385031215620010fa57600080fd5b620011058362000eff565b9150620011156020840162000eff565b90509250929050565b634e487b7160e01b600052604160045260246000fd5b600080604083850312156200114857600080fd5b620011538362000eff565b9150602083013567ffffffffffffffff808211156200117157600080fd5b818501915085601f8301126200118657600080fd5b8135818111156200119b576200119b6200111e565b604051601f8201601f19908116603f01168101908382118183101715620011c657620011c66200111e565b81604052828152886020848701011115620011e057600080fd5b8260208601602083013760006020848301015280955050505050509250929050565b6000602082840312156200121557600080fd5b5035919050565b600080604083850312156200123057600080fd5b6200123b8362000eff565b946020939093013593505050565b6020808252602c908201527f46756e6374696f6e206d7573742062652063616c6c6564207468726f7567682060408201526b19195b1959d85d1958d85b1b60a21b606082015260800190565b6020808252602c908201527f46756e6374696f6e206d7573742062652063616c6c6564207468726f7567682060408201526b6163746976652070726f787960a01b606082015260800190565b60005b83811015620012fe578181015183820152602001620012e4565b50506000910152565b6000815180845262001321816020860160208601620012e1565b601f01601f19169290920160200192915050565b6001600160a01b03848116825283166020820152606060408201819052600090620013639083018462001307565b95945050505050565b81835281816020850137506000828201602090810191909152601f909101601f19169091010190565b8183526000602080850194508260005b85811015620013fa57813560038110620013be57600080fd5b87528183013583880152604080830135801515808214620013de57600080fd5b91890191909152506060968701969190910190600101620013a5565b509495945050505050565b6001600160a01b038a8116825260a060208084018290529083018a90526000918b9160c08501845b8d811015620014565783620014428662000eff565b16825293820193908201906001016200142d565b5085810360408701528a81526001600160fb1b038b11156200147757600080fd5b8a60051b9350838c838301379092018481038301606086015291620014a0818401898b6200136c565b925050508281036080840152620014b981858762001395565b9c9b505050505050505050505050565b600060208284031215620014dc57600080fd5b5051919050565b6020808252602b908201527f496e697469616c697a61626c653a20636f6e7472616374206973206e6f74206960408201526a6e697469616c697a696e6760a81b606082015260800190565b6000825162001542818460208701620012e1565b9190910192915050565b60208152600062000da960208301846200130756fe608060405260405162000e3a38038062000e3a833981016040819052620000269162000424565b828162000036828260006200004d565b50620000449050826200007f565b50505062000557565b6200005883620000f1565b600082511180620000665750805b156200007a5762000078838362000133565b505b505050565b7f7e644d79422f17c01e4894b5f4f588d331ebfa28653d42ae832dc59e38c9798f620000c160008051602062000df3833981519152546001600160a01b031690565b604080516001600160a01b03928316815291841660208301520160405180910390a1620000ee8162000162565b50565b620000fc8162000200565b6040516001600160a01b038216907fbc7cd75a20ee27fd9adebab32041f755214dbc6bffa90cc0225b39da2e5c2d3b90600090a250565b60606200015b838360405180606001604052806027815260200162000e136027913962000297565b9392505050565b6001600160a01b038116620001cd5760405162461bcd60e51b815260206004820152602660248201527f455243313936373a206e65772061646d696e20697320746865207a65726f206160448201526564647265737360d01b60648201526084015b60405180910390fd5b8060008051602062000df38339815191525b80546001600160a01b0319166001600160a01b039290921691909117905550565b6001600160a01b0381163b6200026f5760405162461bcd60e51b815260206004820152602d60248201527f455243313936373a206e657720696d706c656d656e746174696f6e206973206e60448201526c1bdd08184818dbdb9d1c9858dd609a1b6064820152608401620001c4565b807f360894a13ba1a3210667c828492db98dca3e2076cc3735a920a3ca505d382bbc620001df565b6060600080856001600160a01b031685604051620002b6919062000504565b600060405180830381855af49150503d8060008114620002f3576040519150601f19603f3d011682016040523d82523d6000602084013e620002f8565b606091505b5090925090506200030c8683838762000316565b9695505050505050565b606083156200038a57825160000362000382576001600160a01b0385163b620003825760405162461bcd60e51b815260206004820152601d60248201527f416464726573733a2063616c6c20746f206e6f6e2d636f6e74726163740000006044820152606401620001c4565b508162000396565b6200039683836200039e565b949350505050565b815115620003af5781518083602001fd5b8060405162461bcd60e51b8152600401620001c4919062000522565b80516001600160a01b0381168114620003e357600080fd5b919050565b634e487b7160e01b600052604160045260246000fd5b60005b838110156200041b57818101518382015260200162000401565b50506000910152565b6000806000606084860312156200043a57600080fd5b6200044584620003cb565b92506200045560208501620003cb565b60408501519092506001600160401b03808211156200047357600080fd5b818601915086601f8301126200048857600080fd5b8151818111156200049d576200049d620003e8565b604051601f8201601f19908116603f01168101908382118183101715620004c857620004c8620003e8565b81604052828152896020848701011115620004e257600080fd5b620004f5836020830160208801620003fe565b80955050505050509250925092565b6000825162000518818460208701620003fe565b9190910192915050565b602081526000825180602084015262000543816040850160208701620003fe565b601f01601f19169190910160400192915050565b61088c80620005676000396000f3fe60806040523661001357610011610017565b005b6100115b61001f610169565b6001600160a01b0316330361015f5760606001600160e01b0319600035166364d3180d60e11b810161005a5761005361019c565b9150610157565b63587086bd60e11b6001600160e01b031982160161007a576100536101f3565b63070d7c6960e41b6001600160e01b031982160161009a57610053610239565b621eb96f60e61b6001600160e01b03198216016100b95761005361026a565b63a39f25e560e01b6001600160e01b03198216016100d9576100536102aa565b60405162461bcd60e51b815260206004820152604260248201527f5472616e73706172656e745570677261646561626c6550726f78793a2061646d60448201527f696e2063616e6e6f742066616c6c6261636b20746f2070726f78792074617267606482015261195d60f21b608482015260a4015b60405180910390fd5b815160208301f35b6101676102be565b565b60007fb53127684a568b3173ae13b9f8a6016e243e63b6e8ee1178d6a717850b5d61035b546001600160a01b0316919050565b60606101a66102ce565b60006101b53660048184610683565b8101906101c291906106c9565b90506101df816040518060200160405280600081525060006102d9565b505060408051602081019091526000815290565b60606000806102053660048184610683565b81019061021291906106fa565b91509150610222828260016102d9565b604051806020016040528060008152509250505090565b60606102436102ce565b60006102523660048184610683565b81019061025f91906106c9565b90506101df81610305565b60606102746102ce565b600061027e610169565b604080516001600160a01b03831660208201529192500160405160208183030381529060405291505090565b60606102b46102ce565b600061027e61035c565b6101676102c961035c565b61036b565b341561016757600080fd5b6102e28361038f565b6000825111806102ef5750805b15610300576102fe83836103cf565b505b505050565b7f7e644d79422f17c01e4894b5f4f588d331ebfa28653d42ae832dc59e38c9798f61032e610169565b604080516001600160a01b03928316815291841660208301520160405180910390a1610359816103fb565b50565b60006103666104a4565b905090565b3660008037600080366000845af43d6000803e80801561038a573d6000f35b3d6000fd5b610398816104cc565b6040516001600160a01b038216907fbc7cd75a20ee27fd9adebab32041f755214dbc6bffa90cc0225b39da2e5c2d3b90600090a250565b60606103f4838360405180606001604052806027815260200161083060279139610560565b9392505050565b6001600160a01b0381166104605760405162461bcd60e51b815260206004820152602660248201527f455243313936373a206e65772061646d696e20697320746865207a65726f206160448201526564647265737360d01b606482015260840161014e565b807fb53127684a568b3173ae13b9f8a6016e243e63b6e8ee1178d6a717850b5d61035b80546001600160a01b0319166001600160a01b039290921691909117905550565b60007f360894a13ba1a3210667c828492db98dca3e2076cc3735a920a3ca505d382bbc61018d565b6001600160a01b0381163b6105395760405162461bcd60e51b815260206004820152602d60248201527f455243313936373a206e657720696d706c656d656e746174696f6e206973206e60448201526c1bdd08184818dbdb9d1c9858dd609a1b606482015260840161014e565b807f360894a13ba1a3210667c828492db98dca3e2076cc3735a920a3ca505d382bbc610483565b6060600080856001600160a01b03168560405161057d91906107e0565b600060405180830381855af49150503d80600081146105b8576040519150601f19603f3d011682016040523d82523d6000602084013e6105bd565b606091505b50915091506105ce868383876105d8565b9695505050505050565b60608315610647578251600003610640576001600160a01b0385163b6106405760405162461bcd60e51b815260206004820152601d60248201527f416464726573733a2063616c6c20746f206e6f6e2d636f6e7472616374000000604482015260640161014e565b5081610651565b6106518383610659565b949350505050565b8151156106695781518083602001fd5b8060405162461bcd60e51b815260040161014e91906107fc565b6000808585111561069357600080fd5b838611156106a057600080fd5b5050820193919092039150565b80356001600160a01b03811681146106c457600080fd5b919050565b6000602082840312156106db57600080fd5b6103f4826106ad565b634e487b7160e01b600052604160045260246000fd5b6000806040838503121561070d57600080fd5b610716836106ad565b9150602083013567ffffffffffffffff8082111561073357600080fd5b818501915085601f83011261074757600080fd5b813581811115610759576107596106e4565b604051601f8201601f19908116603f01168101908382118183101715610781576107816106e4565b8160405282815288602084870101111561079a57600080fd5b8260208601602083013760006020848301015280955050505050509250929050565b60005b838110156107d75781810151838201526020016107bf565b50506000910152565b600082516107f28184602087016107bc565b9190910192915050565b602081526000825180602084015261081b8160408501602087016107bc565b601f01601f1916919091016040019291505056fe416464726573733a206c6f772d6c6576656c2064656c65676174652063616c6c206661696c6564a2646970667358221220373b76c47cd3e388ead6f7f3a6efa5697e0d2e8a807c3d7313b45f4a8547421564736f6c63430008160033b53127684a568b3173ae13b9f8a6016e243e63b6e8ee1178d6a717850b5d6103416464726573733a206c6f772d6c6576656c2064656c65676174652063616c6c206661696c6564608060405234801561001057600080fd5b5061001a3361001f565b61006f565b600080546001600160a01b038381166001600160a01b0319831681178455604051919092169283917f8be0079c531659141344cd1fd0a4f28419497f9722a3daafe3b4186f6b6457e09190a35050565b6106948061007e6000396000f3fe60806040526004361061007b5760003560e01c80639623609d1161004e5780639623609d1461011157806399a88ec414610124578063f2fde38b14610144578063f3b7dead1461016457600080fd5b8063204e1c7a14610080578063715018a6146100bc5780637eff275e146100d35780638da5cb5b146100f3575b600080fd5b34801561008c57600080fd5b506100a061009b366004610499565b610184565b6040516001600160a01b03909116815260200160405180910390f35b3480156100c857600080fd5b506100d1610215565b005b3480156100df57600080fd5b506100d16100ee3660046104bd565b610229565b3480156100ff57600080fd5b506000546001600160a01b03166100a0565b6100d161011f36600461050c565b610291565b34801561013057600080fd5b506100d161013f3660046104bd565b610300565b34801561015057600080fd5b506100d161015f366004610499565b610336565b34801561017057600080fd5b506100a061017f366004610499565b6103b4565b6000806000836001600160a01b03166040516101aa90635c60da1b60e01b815260040190565b600060405180830381855afa9150503d80600081146101e5576040519150601f19603f3d011682016040523d82523d6000602084013e6101ea565b606091505b5091509150816101f957600080fd5b8080602001905181019061020d91906105e2565b949350505050565b61021d6103da565b6102276000610434565b565b6102316103da565b6040516308f2839760e41b81526001600160a01b038281166004830152831690638f283970906024015b600060405180830381600087803b15801561027557600080fd5b505af1158015610289573d6000803e3d6000fd5b505050505050565b6102996103da565b60405163278f794360e11b81526001600160a01b03841690634f1ef2869034906102c990869086906004016105ff565b6000604051808303818588803b1580156102e257600080fd5b505af11580156102f6573d6000803e3d6000fd5b5050505050505050565b6103086103da565b604051631b2ce7f360e11b81526001600160a01b038281166004830152831690633659cfe69060240161025b565b61033e6103da565b6001600160a01b0381166103a85760405162461bcd60e51b815260206004820152602660248201527f4f776e61626c653a206e6577206f776e657220697320746865207a65726f206160448201526564647265737360d01b60648201526084015b60405180910390fd5b6103b181610434565b50565b6000806000836001600160a01b03166040516101aa906303e1469160e61b815260040190565b6000546001600160a01b031633146102275760405162461bcd60e51b815260206004820181905260248201527f4f776e61626c653a2063616c6c6572206973206e6f7420746865206f776e6572604482015260640161039f565b600080546001600160a01b038381166001600160a01b0319831681178455604051919092169283917f8be0079c531659141344cd1fd0a4f28419497f9722a3daafe3b4186f6b6457e09190a35050565b6001600160a01b03811681146103b157600080fd5b6000602082840312156104ab57600080fd5b81356104b681610484565b9392505050565b600080604083850312156104d057600080fd5b82356104db81610484565b915060208301356104eb81610484565b809150509250929050565b634e487b7160e01b600052604160045260246000fd5b60008060006060848603121561052157600080fd5b833561052c81610484565b9250602084013561053c81610484565b9150604084013567ffffffffffffffff8082111561055957600080fd5b818601915086601f83011261056d57600080fd5b81358181111561057f5761057f6104f6565b604051601f8201601f19908116603f011681019083821181831017156105a7576105a76104f6565b816040528281528960208487010111156105c057600080fd5b8260208601602083013760006020848301015280955050505050509250925092565b6000602082840312156105f457600080fd5b81516104b681610484565b60018060a01b03831681526000602060406020840152835180604085015260005b8181101561063c57858101830151858201606001528201610620565b506000606082860101526060601f19601f83011685010192505050939250505056fea2646970667358221220495dc2ee268dad58a3a87052a6ab20a0ae2e11ab8160d730e03ead654465e50b64736f6c63430008160033360894a13ba1a3210667c828492db98dca3e2076cc3735a920a3ca505d382bbc416464726573733a206c6f772d6c6576656c2064656c65676174652063616c6c206661696c6564a26469706673582212204ce67635e79ebcaa45ec9adb24d7a016e8228e45e28479653cd971df2581aab364736f6c63430008160033",
  "linkReferences": {},
  "deployedLinkReferences": {}
}