{
  "_format": "hh-sol-artifact-1",
  "contractName": "AncestorMoney",
  "sourceName": "contracts/AncestorMoney.sol",
  "abi": [
    {
      "inputs": [],
      "stateMutability": "nonpayable",
      "type": "constructor"
    },
    {
      "inputs": [],
      "name": "GenesisDistributionAlreadyPerformed",
      "type": "error"
    },
    {
      "inputs": [],
      "name": "InsufficientAllowance",
      "type": "error"
    },
    {
      "inputs": [],
      "name": "InvalidAmount",
      "type": "error"
    },
    {
      "inputs": [],
      "name": "OnlyVaultCanPayFees",
      "type": "error"
    },
    {
      "inputs": [],
      "name": "TokenPaused",
      "type": "error"
    },
    {
      "anonymous": false,
      "inputs": [
        {
          "indexed": false,
          "internalType": "address",
          "name": "previousAdmin",
          "type": "address"
        },
        {
          "indexed": false,
          "internalType": "address",
          "name": "newAdmin",
          "type": "address"
        }
      ],
      "name": "AdminChanged",
      "type": "event"
    },
    {
      "anonymous": false,
      "inputs": [
        {
          "indexed": true,
          "internalType": "address",
          "name": "owner",
          "type": "address"
        },
        {
          "indexed": true,
          "internalType": "address",
          "name": "spender",
          "type": "address"
        },
        {
          "indexed": false,
          "internalType": "uint256",
          "name": "value",
          "type": "uint256"
        }
      ],
      "name": "Approval",
      "type": "event"
    },
    {
      "anonymous": false,
      "inputs": [
        {
          "indexed": true,
          "internalType": "address",
          "name": "beacon",
          "type": "address"
        }
      ],
      "name": "BeaconUpgraded",
      "type": "event"
    },
    {
      "anonymous": false,
      "inputs": [
        {
          "indexed": true,
          "internalType": "address",
          "name": "newAddress",
          "type": "address"
        }
      ],
      "name": "EvolutionReserveUpdated",
      "type": "event"
    },
    {
      "anonymous": false,
      "inputs": [
        {
          "indexed": false,
          "internalType": "uint8",
          "name": "version",
          "type": "uint8"
        }
      ],
      "name": "Initialized",
      "type": "event"
    },
    {
      "anonymous": false,
      "inputs": [
        {
          "indexed": false,
          "internalType": "address",
          "name": "account",
          "type": "address"
        }
      ],
      "name": "Paused",
      "type": "event"
    },
    {
      "anonymous": false,
      "inputs": [
        {
          "indexed": true,
          "internalType": "bytes32",
          "name": "role",
          "type": "bytes32"
        },
        {
          "indexed": true,
          "internalType": "bytes32",
          "name": "previousAdminRole",
          "type": "bytes32"
        },
        {
          "indexed": true,
          "internalType": "bytes32",
          "name": "newAdminRole",
          "type": "bytes32"
        }
      ],
      "name": "RoleAdminChanged",
      "type": "event"
    },
    {
      "anonymous": false,
      "inputs": [
        {
          "indexed": true,
          "internalType": "bytes32",
          "name": "role",
          "type": "bytes32"
        },
        {
          "indexed": true,
          "internalType": "address",
          "name": "account",
          "type": "address"
        },
        {
          "indexed": true,
          "internalType": "address",
          "name": "sender",
          "type": "address"
        }
      ],
      "name": "RoleGranted",
      "type": "event"
    },
    {
      "anonymous": false,
      "inputs": [
        {
          "indexed": true,
          "internalType": "bytes32",
          "name": "role",
          "type": "bytes32"
        },
        {
          "indexed": true,
          "internalType": "address",
          "name": "account",
          "type": "address"
        },
        {
          "indexed": true,
          "internalType": "address",
          "name": "sender",
          "type": "address"
        }
      ],
      "name": "RoleRevoked",
      "type": "event"
    },
    {
      "anonymous": false,
      "inputs": [
        {
          "indexed": true,
          "internalType": "address",
          "name": "account",
          "type": "address"
        },
        {
          "indexed": false,
          "internalType": "bool",
          "name": "exempt",
          "type": "bool"
        }
      ],
      "name": "TaxExemptUpdated",
      "type": "event"
    },
    {
      "anonymous": false,
      "inputs": [],
      "name": "TokenActivated",
      "type": "event"
    },
    {
      "anonymous": false,
      "inputs": [
        {
          "indexed": true,
          "internalType": "address",
          "name": "from",
          "type": "address"
        },
        {
          "indexed": true,
          "internalType": "address",
          "name": "to",
          "type": "address"
        },
        {
          "indexed": false,
          "internalType": "uint256",
          "name": "value",
          "type": "uint256"
        }
      ],
      "name": "Transfer",
      "type": "event"
    },
    {
      "anonymous": false,
      "inputs": [
        {
          "indexed": false,
          "internalType": "address",
          "name": "account",
          "type": "address"
        }
      ],
      "name": "Unpaused",
      "type": "event"
    },
    {
      "anonymous": false,
      "inputs": [
        {
          "indexed": true,
          "internalType": "address",
          "name": "implementation",
          "type": "address"
        }
      ],
      "name": "Upgraded",
      "type": "event"
    },
    {
      "anonymous": false,
      "inputs": [
        {
          "indexed": true,
          "internalType": "address",
          "name": "newAddress",
          "type": "address"
        }
      ],
      "name": "VaultAddressUpdated",
      "type": "event"
    },
    {
      "anonymous": false,
      "inputs": [
        {
          "indexed": true,
          "internalType": "address",
          "name": "payer",
          "type": "address"
        },
        {
          "indexed": false,
          "internalType": "uint256",
          "name": "amount",
          "type": "uint256"
        }
      ],
      "name": "VaultFeeBurned",
      "type": "event"
    },
    {
      "inputs": [],
      "name": "DEFAULT_ADMIN_ROLE",
      "outputs": [
        {
          "internalType": "bytes32",
          "name": "",
          "type": "bytes32"
        }
      ],
      "stateMutability": "view",
      "type": "function"
    },
    {
      "inputs": [],
      "name": "MAX_SUPPLY",
      "outputs": [
        {
          "internalType": "uint256",
          "name": "",
          "type": "uint256"
        }
      ],
      "stateMutability": "view",
      "type": "function"
    },
    {
      "inputs": [],
      "name": "MINTER_ROLE",
      "outputs": [
        {
          "internalType": "bytes32",
          "name": "",
          "type": "bytes32"
        }
      ],
      "stateMutability": "view",
      "type": "function"
    },
    {
      "inputs": [],
      "name": "PAUSER_ROLE",
      "outputs": [
        {
          "internalType": "bytes32",
          "name": "",
          "type": "bytes32"
        }
      ],
      "stateMutability": "view",
      "type": "function"
    },
    {
      "inputs": [],
      "name": "YIN_YANG_CONVERTER",
      "outputs": [
        {
          "internalType": "address",
          "name": "",
          "type": "address"
        }
      ],
      "stateMutability": "view",
      "type": "function"
    },
    {
      "inputs": [],
      "name": "activateToken",
      "outputs": [
        {
          "internalType": "bool",
          "name": "",
          "type": "bool"
        }
      ],
      "stateMutability": "nonpayable",
      "type": "function"
    },
    {
      "inputs": [
        {
          "internalType": "address",
          "name": "owner",
          "type": "address"
        },
        {
          "internalType": "address",
          "name": "spender",
          "type": "address"
        }
      ],
      "name": "allowance",
      "outputs": [
        {
          "internalType": "uint256",
          "name": "",
          "type": "uint256"
        }
      ],
      "stateMutability": "view",
      "type": "function"
    },
    {
      "inputs": [
        {
          "internalType": "address",
          "name": "spender",
          "type": "address"
        },
        {
          "internalType": "uint256",
          "name": "amount",
          "type": "uint256"
        }
      ],
      "name": "approve",
      "outputs": [
        {
          "internalType": "bool",
          "name": "",
          "type": "bool"
        }
      ],
      "stateMutability": "nonpayable",
      "type": "function"
    },
    {
      "inputs": [
        {
          "internalType": "address",
          "name": "account",
          "type": "address"
        }
      ],
      "name": "balanceOf",
      "outputs": [
        {
          "internalType": "uint256",
          "name": "",
          "type": "uint256"
        }
      ],
      "stateMutability": "view",
      "type": "function"
    },
    {
      "inputs": [
        {
          "internalType": "uint256",
          "name": "amount",
          "type": "uint256"
        }
      ],
      "name": "burn",
      "outputs": [],
      "stateMutability": "nonpayable",
      "type": "function"
    },
    {
      "inputs": [
        {
          "internalType": "address",
          "name": "account",
          "type": "address"
        },
        {
          "internalType": "uint256",
          "name": "amount",
          "type": "uint256"
        }
      ],
      "name": "burnFrom",
      "outputs": [],
      "stateMutability": "nonpayable",
      "type": "function"
    },
    {
      "inputs": [],
      "name": "currentSupply",
      "outputs": [
        {
          "internalType": "uint256",
          "name": "",
          "type": "uint256"
        }
      ],
      "stateMutability": "view",
      "type": "function"
    },
    {
      "inputs": [],
      "name": "decimals",
      "outputs": [
        {
          "internalType": "uint8",
          "name": "",
          "type": "uint8"
        }
      ],
      "stateMutability": "pure",
      "type": "function"
    },
    {
      "inputs": [
        {
          "internalType": "address",
          "name": "spender",
          "type": "address"
        },
        {
          "internalType": "uint256",
          "name": "subtractedValue",
          "type": "uint256"
        }
      ],
      "name": "decreaseAllowance",
      "outputs": [
        {
          "internalType": "bool",
          "name": "",
          "type": "bool"
        }
      ],
      "stateMutability": "nonpayable",
      "type": "function"
    },
    {
      "inputs": [],
      "name": "evolutionReserve",
      "outputs": [
        {
          "internalType": "address",
          "name": "",
          "type": "address"
        }
      ],
      "stateMutability": "view",
      "type": "function"
    },
    {
      "inputs": [
        {
          "internalType": "address",
          "name": "ecosystemFund",
          "type": "address"
        },
        {
          "internalType": "address",
          "name": "strategicReserve",
          "type": "address"
        },
        {
          "internalType": "address",
          "name": "publicSale",
          "type": "address"
        },
        {
          "internalType": "address",
          "name": "founders",
          "type": "address"
        },
        {
          "internalType": "address",
          "name": "communityIncentives",
          "type": "address"
        }
      ],
      "name": "genesisDistribution",
      "outputs": [],
      "stateMutability": "nonpayable",
      "type": "function"
    },
    {
      "inputs": [
        {
          "internalType": "bytes32",
          "name": "role",
          "type": "bytes32"
        }
      ],
      "name": "getRoleAdmin",
      "outputs": [
        {
          "internalType": "bytes32",
          "name": "",
          "type": "bytes32"
        }
      ],
      "stateMutability": "view",
      "type": "function"
    },
    {
      "inputs": [
        {
          "internalType": "bytes32",
          "name": "role",
          "type": "bytes32"
        },
        {
          "internalType": "address",
          "name": "account",
          "type": "address"
        }
      ],
      "name": "grantRole",
      "outputs": [],
      "stateMutability": "nonpayable",
      "type": "function"
    },
    {
      "inputs": [
        {
          "internalType": "bytes32",
          "name": "role",
          "type": "bytes32"
        },
        {
          "internalType": "address",
          "name": "account",
          "type": "address"
        }
      ],
      "name": "hasRole",
      "outputs": [
        {
          "internalType": "bool",
          "name": "",
          "type": "bool"
        }
      ],
      "stateMutability": "view",
      "type": "function"
    },
    {
      "inputs": [
        {
          "internalType": "address",
          "name": "spender",
          "type": "address"
        },
        {
          "internalType": "uint256",
          "name": "addedValue",
          "type": "uint256"
        }
      ],
      "name": "increaseAllowance",
      "outputs": [
        {
          "internalType": "bool",
          "name": "",
          "type": "bool"
        }
      ],
      "stateMutability": "nonpayable",
      "type": "function"
    },
    {
      "inputs": [
        {
          "internalType": "address",
          "name": "initialAdmin",
          "type": "address"
        },
        {
          "internalType": "address",
          "name": "_evolutionReserve",
          "type": "address"
        },
        {
          "internalType": "address",
          "name": "_vaultAddress",
          "type": "address"
        }
      ],
      "name": "initialize",
      "outputs": [],
      "stateMutability": "nonpayable",
      "type": "function"
    },
    {
      "inputs": [
        {
          "internalType": "address",
          "name": "",
          "type": "address"
        }
      ],
      "name": "isTaxExempt",
      "outputs": [
        {
          "internalType": "bool",
          "name": "",
          "type": "bool"
        }
      ],
      "stateMutability": "view",
      "type": "function"
    },
    {
      "inputs": [],
      "name": "name",
      "outputs": [
        {
          "internalType": "string",
          "name": "",
          "type": "string"
        }
      ],
      "stateMutability": "view",
      "type": "function"
    },
    {
      "inputs": [],
      "name": "paused",
      "outputs": [
        {
          "internalType": "bool",
          "name": "",
          "type": "bool"
        }
      ],
      "stateMutability": "view",
      "type": "function"
    },
    {
      "inputs": [
        {
          "internalType": "address",
          "name": "_from",
          "type": "address"
        },
        {
          "internalType": "uint256",
          "name": "_amount",
          "type": "uint256"
        }
      ],
      "name": "payVaultFee",
      "outputs": [
        {
          "internalType": "bool",
          "name": "",
          "type": "bool"
        }
      ],
      "stateMutability": "nonpayable",
      "type": "function"
    },
    {
      "inputs": [],
      "name": "proxiableUUID",
      "outputs": [
        {
          "internalType": "bytes32",
          "name": "",
          "type": "bytes32"
        }
      ],
      "stateMutability": "view",
      "type": "function"
    },
    {
      "inputs": [
        {
          "internalType": "bytes32",
          "name": "role",
          "type": "bytes32"
        },
        {
          "internalType": "address",
          "name": "account",
          "type": "address"
        }
      ],
      "name": "renounceRole",
      "outputs": [],
      "stateMutability": "nonpayable",
      "type": "function"
    },
    {
      "inputs": [
        {
          "internalType": "bytes32",
          "name": "role",
          "type": "bytes32"
        },
        {
          "internalType": "address",
          "name": "account",
          "type": "address"
        }
      ],
      "name": "revokeRole",
      "outputs": [],
      "stateMutability": "nonpayable",
      "type": "function"
    },
    {
      "inputs": [
        {
          "internalType": "address",
          "name": "_evolutionReserve",
          "type": "address"
        }
      ],
      "name": "setEvolutionReserve",
      "outputs": [],
      "stateMutability": "nonpayable",
      "type": "function"
    },
    {
      "inputs": [
        {
          "internalType": "address",
          "name": "account",
          "type": "address"
        },
        {
          "internalType": "bool",
          "name": "exempt",
          "type": "bool"
        }
      ],
      "name": "setTaxExempt",
      "outputs": [],
      "stateMutability": "nonpayable",
      "type": "function"
    },
    {
      "inputs": [
        {
          "internalType": "address",
          "name": "_vaultAddress",
          "type": "address"
        }
      ],
      "name": "setVaultAddress",
      "outputs": [],
      "stateMutability": "nonpayable",
      "type": "function"
    },
    {
      "inputs": [
        {
          "internalType": "bytes4",
          "name": "interfaceId",
          "type": "bytes4"
        }
      ],
      "name": "supportsInterface",
      "outputs": [
        {
          "internalType": "bool",
          "name": "",
          "type": "bool"
        }
      ],
      "stateMutability": "view",
      "type": "function"
    },
    {
      "inputs": [],
      "name": "symbol",
      "outputs": [
        {
          "internalType": "string",
          "name": "",
          "type": "string"
        }
      ],
      "stateMutability": "view",
      "type": "function"
    },
    {
      "inputs": [],
      "name": "totalSupply",
      "outputs": [
        {
          "internalType": "uint256",
          "name": "",
          "type": "uint256"
        }
      ],
      "stateMutability": "view",
      "type": "function"
    },
    {
      "inputs": [
        {
          "internalType": "address",
          "name": "to",
          "type": "address"
        },
        {
          "internalType": "uint256",
          "name": "amount",
          "type": "uint256"
        }
      ],
      "name": "transfer",
      "outputs": [
        {
          "internalType": "bool",
          "name": "",
          "type": "bool"
        }
      ],
      "stateMutability": "nonpayable",
      "type": "function"
    },
    {
      "inputs": [
        {
          "internalType": "address",
          "name": "from",
          "type": "address"
        },
        {
          "internalType": "address",
          "name": "to",
          "type": "address"
        },
        {
          "internalType": "uint256",
          "name": "amount",
          "type": "uint256"
        }
      ],
      "name": "transferFrom",
      "outputs": [
        {
          "internalType": "bool",
          "name": "",
          "type": "bool"
        }
      ],
      "stateMutability": "nonpayable",
      "type": "function"
    },
    {
      "inputs": [
        {
          "internalType": "address",
          "name": "newImplementation",
          "type": "address"
        }
      ],
      "name": "upgradeTo",
      "outputs": [],
      "stateMutability": "nonpayable",
      "type": "function"
    },
    {
      "inputs": [
        {
          "internalType": "address",
          "name": "newImplementation",
          "type": "address"
        },
        {
          "internalType": "bytes",
          "name": "data",
          "type": "bytes"
        }
      ],
      "name": "upgradeToAndCall",
      "outputs": [],
      "stateMutability": "payable",
      "type": "function"
    },
    {
      "inputs": [],
      "name": "vaultAddress",
      "outputs": [
        {
          "internalType": "address",
          "name": "",
          "type": "address"
        }
      ],
      "stateMutability": "view",
      "type": "function"
    }
  ],
  "bytecode": "0x60a080604052346100dd57306080526000549060ff8260081c1661008b575060ff80821603610050575b604051612d539081620000e38239608051818181610fbd015281816110ea01526114160152f35b60ff90811916176000557f7f26b83ff96e1f2b6a682f133852f6798a09c465da95921460cefb3847402498602060405160ff8152a138610029565b62461bcd60e51b815260206004820152602760248201527f496e697469616c697a61626c653a20636f6e747261637420697320696e697469604482015266616c697a696e6760c81b6064820152608490fd5b600080fdfe608080604052600436101561001357600080fd5b60003560e01c90816301ffc9a714611f265750806306fdde0314611e90578063095ea7b314611e6a5780630b86cece14611e4d57806312a4685814611d8d57806316c2be6b14611d4d57806318160ddd14611d2f5780631dc6104014611caf57806323b872dd14611c7757806323d5f39414611c0f578063248a9ca314611be05780632f2ff15d14611b3f578063307237d314611699578063313ce5671461167d57806332cb6b0c1461165957806336568abe146115c75780633659cfe6146113f1578063395093511461139f57806342966c6814611382578063430bf08a146113585780634f1ef2861461106e57806352d1902d14610faa5780635c975abb14610f875780635ebe7aa014610f5d57806370a0823114610f23578063771282f614610f0457806379cc679014610ed457806385535cc514610e6c57806391d1485414610e1f57806395d89b4114610d3c578063a217fddf14610d20578063a457c2d714610c79578063a9059cbb14610c48578063c0c53b8b14610547578063d53913931461050c578063d547741f146104cb578063dd62ed3e1461047a578063e63ab1e91461043f5763f957417e146101cc57600080fd5b3461043a57600036600319011261043a573360009081527f793844da0378ca0230b21a4013ef02cf55735b90b39c85241478ff94b5eceb2860209081526040909120547f65d7a28e3265b37a6474929f336521b332c1681b933f6cb9f3376673440d862a9060ff16156102ab57506102426128a5565b61024a6128a5565b60ff1960c9541660c9557f5db9ee0a495bf2e6ff9c91a7834c1ba4fdd244a5e8aa4e537bd38aeae4b073aa81604051338152a16040517f59e798dd1d3a9153861118fd83fbf10d33d3d30467f7649ac8da2a453a742014600080a160018152f35b6102b433612aff565b604051906102c182612042565b60428252838201926060368537825115610424576030845382516001906001101561042457607860218501536041905b8082116103ca57505061039957610395936103459361037d9361036e604894604051978576020b1b1b2b9b9a1b7b73a3937b61d1030b1b1b7bab73a1604d1b8a978801528251928391603789019101611f79565b8401917001034b99036b4b9b9b4b733903937b6329607d1b603784015251809386840190611f79565b0103602881018452018261205e565b60405162461bcd60e51b815291829160048301611f9c565b0390fd5b6064846040519062461bcd60e51b82528060048301526024820152600080516020612c9e8339815191526044820152fd5b9091600f81166010811015610424576f181899199a1a9b1b9c1cb0b131b232b360811b901a6103f98487612aee565b5360041c91801561040e5760001901906102f1565b634e487b7160e01b600052601160045260246000fd5b634e487b7160e01b600052603260045260246000fd5b600080fd5b3461043a57600036600319011261043a5760206040517f65d7a28e3265b37a6474929f336521b332c1681b933f6cb9f3376673440d862a8152f35b3461043a57604036600319011261043a57610493611fc8565b61049b611fde565b9060018060a01b038091166000526066602052604060002091166000526020526020604060002054604051908152f35b3461043a57604036600319011261043a5761050a6004356104ea611fde565b908060005260976020526105056001604060002001546125f3565b6127cf565b005b3461043a57600036600319011261043a5760206040517f9f2df0fed2c77648de5860a4cc508cd0818c85b8b8a1ab4ceeef8d981c8956a68152f35b3461043a57606036600319011261043a57610560611fc8565b610568611fde565b610570611ff4565b906000549260ff8460081c161593848095610c3b575b8015610c24575b15610bc85760ff19811660011760005584610bb6575b506040516105b081612026565b600d81526c416e636573746f724d6f6e657960981b6020820152604051906105d782612026565b6006825265414d4f4e455960d01b602083015261060460ff60005460081c166105ff81612845565b612845565b80519067ffffffffffffffff8211610aa957819061062360685461209c565b601f8111610b42575b50602090601f8311600114610aca57600092610abf575b50508160011b916000199060031b1c1916176068555b80519067ffffffffffffffff8211610aa957819061067860695461209c565b601f8111610a39575b50602090601f83116001146109af576000926109a4575b50508160011b916000199060031b1c1916176069555b6106e860ff60005460081c166106c381612845565b6106cc81612845565b6106d581612845565b60ff1960c9541660c9556105ff81612845565b6001600160a01b0390811660008181527f683723e34a772b6e4f2c919bba7fa32ed8ea11a8325f54da7db716e9d9dd98c7602052604090205491938492909160979160ff1615610965575b7f65d7a28e3265b37a6474929f336521b332c1681b933f6cb9f3376673440d862a806000528260205260406000208260005260205260ff6040600020541615610925575b507f9f2df0fed2c77648de5860a4cc508cd0818c85b8b8a1ab4ceeef8d981c8956a691826000528060205260406000208260005260205260ff60406000205416156108e5575b5050506101946020526040600020600160ff198254161790551690816000526040600020600160ff1982541617905561dead6000526040600020600160ff1982541617905560c95460ff81166108ad5760019060ff19161760c9557f62e78cea01bee320cd4e420270b5ea74000d11b0c9f74754ebdbfc544b05a2586020604051338152a16bffffffffffffffffffffffff60a01b926101929116838254161790556101939182541617905560006101915561087557005b61ff0019600054166000557f7f26b83ff96e1f2b6a682f133852f6798a09c465da95921460cefb3847402498602060405160018152a1005b60405162461bcd60e51b815260206004820152601060248201526f14185d5cd8589b194e881c185d5cd95960821b6044820152606490fd5b826000526020526040600020816000526020526040600020600160ff198254161790553391600080516020612c7e833981519152600080a48580806107bd565b80600052826020526040600020826000526020526040600020600160ff19825416179055813391600080516020612c7e833981519152600080a487610777565b60008052816020526040600020816000526020526040600020600160ff1982541617905533816000600080516020612c7e8339815191528180a4610733565b015190508680610698565b925060696000527f7fb4302e8e91f9110a6554c2c0a24601252c2a42c2220ca988efcfe399914308906000935b601f1984168510610a1e576001945083601f19811610610a05575b505050811b016069556106ae565b015160001960f88460031b161c191690558680806109f7565b818101518355602094850194600190930192909101906109dc565b90915060696000527f7fb4302e8e91f9110a6554c2c0a24601252c2a42c2220ca988efcfe399914308601f840160051c81019160208510610a9f575b90601f859493920160051c01905b818110610a905750610681565b60008155849350600101610a83565b9091508190610a75565b634e487b7160e01b600052604160045260246000fd5b015190508780610643565b92506068600052600080516020612cfe833981519152906000935b601f1984168510610b27576001945083601f19811610610b0e575b505050811b01606855610659565b015160001960f88460031b161c19169055878080610b00565b81810151835560209485019460019093019290910190610ae5565b9091506068600052601f830160051c600080516020612cfe8339815191520160208410610ba1575b908392915b601f820160051c600080516020612cfe833981519152018110610b92575061062c565b60008155849350600101610b6f565b50600080516020612cfe833981519152610b6a565b61ffff191661010117600055846105a3565b60405162461bcd60e51b815260206004820152602e60248201527f496e697469616c697a61626c653a20636f6e747261637420697320616c72656160448201526d191e481a5b9a5d1a585b1a5e995960921b6064820152608490fd5b50303b15801561058d5750600160ff82161461058d565b50600160ff821610610586565b3461043a57604036600319011261043a57610c6e610c64611fc8565b60243590336126fe565b602060405160018152f35b3461043a57604036600319011261043a57610c92611fc8565b60243590336000526066602052604060002060018060a01b03821660005260205260406000205491808310610ccd57610c6e92039033612198565b60405162461bcd60e51b815260206004820152602560248201527f45524332303a2064656372656173656420616c6c6f77616e63652062656c6f77604482015264207a65726f60d81b6064820152608490fd5b3461043a57600036600319011261043a57602060405160008152f35b3461043a57600036600319011261043a576040516000606954610d5e8161209c565b80845290602090600190818116908115610df55750600114610d9b575b610d9785610d8b8187038261205e565b60405191829182611f9c565b0390f35b6069600090815293507f7fb4302e8e91f9110a6554c2c0a24601252c2a42c2220ca988efcfe3999143085b838510610de257505050508101602001610d8b82610d97610d7b565b8054868601840152938201938101610dc6565b869550610d9796935060209250610d8b94915060ff191682840152151560051b8201019293610d7b565b3461043a57604036600319011261043a57610e38611fde565b600435600052609760205260406000209060018060a01b0316600052602052602060ff604060002054166040519015158152f35b3461043a57602036600319011261043a57610e85611fc8565b610e8d61243d565b61019380546001600160a01b0319166001600160a01b039290921691821790557f5e74f6697ae9d8e4ed8c4e8cb2f44acc9909529ce81812aab23103b3de223f66600080a2005b3461043a57604036600319011261043a5761050a610ef0611fc8565b60243590610eff82338361229a565b612332565b3461043a57600036600319011261043a57602061019154604051908152f35b3461043a57602036600319011261043a576001600160a01b03610f44611fc8565b1660005260656020526020604060002054604051908152f35b3461043a57600036600319011261043a57610192546040516001600160a01b039091168152602090f35b3461043a57600036600319011261043a57602060ff60c954166040519015158152f35b3461043a57600036600319011261043a577f00000000000000000000000000000000000000000000000000000000000000006001600160a01b03163003611003576020604051600080516020612cde8339815191528152f35b60405162461bcd60e51b815260206004820152603860248201527f555550535570677261646561626c653a206d757374206e6f742062652063616c60448201527f6c6564207468726f7567682064656c656761746563616c6c00000000000000006064820152608490fd5b604036600319011261043a57611082611fc8565b6024359067ffffffffffffffff821161043a573660238301121561043a5781600401356110ae81612080565b6110bb604051918261205e565b81815260209182820194366024838301011161043a578160009260248693018837830101526001600160a01b037f0000000000000000000000000000000000000000000000000000000000000000811690611118308314156120d6565b611135600080516020612cde833981519152928284541614612137565b61113d61243d565b7f4910fdfa16fed3260ed0e7147f7cc6da11a60208b5b9406d12a635614ffd91435460ff1615611175575050505061050a9150612a5e565b8492939416906040516352d1902d60e01b81528581600481865afa60009181611329575b506111fa5760405162461bcd60e51b815260048101879052602e60248201527f45524331393637557067726164653a206e657720696d706c656d656e7461746960448201526d6f6e206973206e6f74205555505360901b6064820152608490fd5b949394036112d25761120b82612a5e565b7fbc7cd75a20ee27fd9adebab32041f755214dbc6bffa90cc0225b39da2e5c2d3b600080a28251158015906112ca575b61124157005b60008061050a95604051956112558761200a565b602787527f416464726573733a206c6f772d6c6576656c2064656c65676174652063616c6c86880152660819985a5b195960ca1b60408801525190845af4903d156112c1573d6112a481612080565b906112b2604051928361205e565b8152600081943d92013e612bec565b60609250612bec565b50600161123b565b60405162461bcd60e51b815260048101849052602960248201527f45524331393637557067726164653a20756e737570706f727465642070726f786044820152681a58589b195555525160ba1b6064820152608490fd5b9091508681813d8311611351575b611341818361205e565b8101031261043a57519088611199565b503d611337565b3461043a57600036600319011261043a57610193546040516001600160a01b039091168152602090f35b3461043a57602036600319011261043a5761050a60043533612332565b3461043a57604036600319011261043a576113b8611fc8565b336000526066602052604060002060018060a01b038216600052602052604060002054602435810180911161040e57610c6e9133612198565b3461043a5760208060031936011261043a5761140b611fc8565b6001600160a01b03917f00000000000000000000000000000000000000000000000000000000000000008316611443308214156120d6565b611460600080516020612cde833981519152918583541614612137565b61146861243d565b604051908282019482861067ffffffffffffffff871117610aa957856040526000835260ff7f4910fdfa16fed3260ed0e7147f7cc6da11a60208b5b9406d12a635614ffd914354166000146114c5575050505061050a9150612a5e565b8492939416906040516352d1902d60e01b81528581600481865afa60009181611598575b5061154a5760405162461bcd60e51b815260048101879052602e60248201527f45524331393637557067726164653a206e657720696d706c656d656e7461746960448201526d6f6e206973206e6f74205555505360901b6064820152608490fd5b949394036112d25761155b82612a5e565b7fbc7cd75a20ee27fd9adebab32041f755214dbc6bffa90cc0225b39da2e5c2d3b600080a28251158015906115905761124157005b50600061123b565b9091508681813d83116115c0575b6115b0818361205e565b8101031261043a575190886114e9565b503d6115a6565b3461043a57604036600319011261043a576115e0611fde565b336001600160a01b038216036115fc5761050a906004356127cf565b60405162461bcd60e51b815260206004820152602f60248201527f416363657373436f6e74726f6c3a2063616e206f6e6c792072656e6f756e636560448201526e103937b632b9903337b91039b2b63360891b6064820152608490fd5b3461043a57600036600319011261043a57602060405168056bc75e2d277536008152f35b3461043a57600036600319011261043a57602060405160098152f35b3461043a5760a036600319011261043a576116b2611fc8565b6116ba611fde565b6116c2611ff4565b6001600160a01b03606480358281169592949086900361043a576084359185831680930361043a573360009081527f81bcdf06b56c0ed62a68a6ae231e66722c27e6665c84ec0015693a6d86f2bb9360209081526040909120547f9f2df0fed2c77648de5860a4cc508cd0818c85b8b8a1ab4ceeef8d981c8956a69891979060ff1615611a2e57610191958654611a1c5781169687156119ea576067978854956801a055690d9db800009182880180981161040e57600085938d998d5582825260658a52604082208181540190556040519081527fddf252ad1be2c89b69c2b068fc378daa952ba7f163c4a11628f55a4df523b3ef998a91a31680156119b85788546801158e460913d0000080820180921161040e578b88916000938d558484526065825260408420818154019055604051908152a316801561198657865467d02ab486cedc000080820180921161040e578986916000938b558484526065825260408420818154019055604051908152a38015611955578554678ac7230489e8000080820180921161040e578885916000938a558484526065825260408420818154019055604051908152a38215611925575083549068015af1d78b1d2936009485830180931161040e5768056bc75e2d27753600956000938892558484526065825260408420818154019055604051908152a3558160005260978152604060002033600052815260ff604060002054166118da57005b81600052609781526040600020903360005252604060002060ff198154169055339033907ff6391f5c32d9c69d2a47ea670b442974b53935d1edc7fd64eb21e047a839171b600080a4005b60405162461bcd60e51b815260048101879052601f6024820152600080516020612cbe8339815191526044820152fd5b5060405162461bcd60e51b815260048101879052601f6024820152600080516020612cbe8339815191526044820152fd5b60405162461bcd60e51b815260048101899052601f6024820152600080516020612cbe83398151915260448201528390fd5b60405162461bcd60e51b8152600481018b9052601f6024820152600080516020612cbe83398151915260448201528590fd5b60405162461bcd60e51b8152600481018a9052601f6024820152600080516020612cbe83398151915260448201528490fd5b60405163e37faaa160e01b8152600490fd5b888884611a3a33612aff565b60405191611a4783612042565b60428352838301946060368737835115610424576030865383516001906001101561042457607860218601536041905b808211611afb575050611acb5761039561034561037d604887898861036e89604051978576020b1b1b2b9b9a1b7b73a3937b61d1030b1b1b7bab73a1604d1b8a978801528251928391603789019101611f79565b60405162461bcd60e51b81526004810185905260248101859052600080516020612c9e8339815191526044820152fd5b9091600f81166010811015610424576f181899199a1a9b1b9c1cb0b131b232b360811b901a611b2a8488612aee565b5360041c91801561040e576000190190611a77565b3461043a57604036600319011261043a57600435611b5b611fde565b816000526097602052611b756001604060002001546125f3565b81600052609760205260406000209060018060a01b0316908160005260205260ff6040600020541615611ba457005b8160005260976020526040600020816000526020526040600020600160ff198254161790553391600080516020612c7e833981519152600080a4005b3461043a57602036600319011261043a5760043560005260976020526020600160406000200154604051908152f35b3461043a57602036600319011261043a57611c28611fc8565b611c3061243d565b61019280546001600160a01b0319166001600160a01b039290921691821790557f22a195fbe83631385ad11095fbbad419cdcc539a5e123528a64042c35675ba6e600080a2005b3461043a57606036600319011261043a57610c6e611c93611fc8565b611c9b611fde565b60443591611caa83338361229a565b6126fe565b3461043a57604036600319011261043a57611cc8611fc8565b6024359081151580920361043a5760207fe6dee4a3efe7ebbac3b05adae585f36d4399fd4e962809998268bf591ca9c60491611d0261243d565b60018060a01b031692836000526101948252604060002060ff1981541660ff8316179055604051908152a2005b3461043a57600036600319011261043a576020606754604051908152f35b3461043a57602036600319011261043a576001600160a01b03611d6e611fc8565b16600052610194602052602060ff604060002054166040519015158152f35b3461043a57604036600319011261043a57611da6611fc8565b61019354602435906001600160a01b039081163303611e3b578216918260005260666020526040600020336000526020528160406000205410611e295781611e1781602093610eff7f6098481270cc82ad8ef97fa388740dbb92b9f43669826034b36c59049d96963996338361229a565b604051908152a2602060405160018152f35b6040516313be252b60e01b8152600490fd5b604051637fac1c5560e01b8152600490fd5b3461043a57600036600319011261043a57602060405161dead8152f35b3461043a57604036600319011261043a57610c6e611e86611fc8565b6024359033612198565b3461043a57600036600319011261043a576040516000606854611eb28161209c565b80845290602090600190818116908115610df55750600114611ede57610d9785610d8b8187038261205e565b606860009081529350600080516020612cfe8339815191525b838510611f1357505050508101602001610d8b82610d97610d7b565b8054868601840152938201938101611ef7565b3461043a57602036600319011261043a576004359063ffffffff60e01b821680920361043a57602091637965db0b60e01b8114908115611f68575b5015158152f35b6301ffc9a760e01b14905083611f61565b60005b838110611f8c5750506000910152565b8181015183820152602001611f7c565b60409160208252611fbc8151809281602086015260208686019101611f79565b601f01601f1916010190565b600435906001600160a01b038216820361043a57565b602435906001600160a01b038216820361043a57565b604435906001600160a01b038216820361043a57565b6060810190811067ffffffffffffffff821117610aa957604052565b6040810190811067ffffffffffffffff821117610aa957604052565b6080810190811067ffffffffffffffff821117610aa957604052565b90601f8019910116810190811067ffffffffffffffff821117610aa957604052565b67ffffffffffffffff8111610aa957601f01601f191660200190565b90600182811c921680156120cc575b60208310146120b657565b634e487b7160e01b600052602260045260246000fd5b91607f16916120ab565b156120dd57565b60405162461bcd60e51b815260206004820152602c60248201527f46756e6374696f6e206d7573742062652063616c6c6564207468726f7567682060448201526b19195b1959d85d1958d85b1b60a21b6064820152608490fd5b1561213e57565b60405162461bcd60e51b815260206004820152602c60248201527f46756e6374696f6e206d7573742062652063616c6c6564207468726f7567682060448201526b6163746976652070726f787960a01b6064820152608490fd5b6001600160a01b0390811691821561224957169182156121f95760207f8c5be1e5ebec7d5bd14f71427d1e84f3dd0314c0f7b2291e5b200ac8c7c3b925918360005260668252604060002085600052825280604060002055604051908152a3565b60405162461bcd60e51b815260206004820152602260248201527f45524332303a20617070726f766520746f20746865207a65726f206164647265604482015261737360f01b6064820152608490fd5b60405162461bcd60e51b8152602060048201526024808201527f45524332303a20617070726f76652066726f6d20746865207a65726f206164646044820152637265737360e01b6064820152608490fd5b9060018060a01b03808316600052606660205260406000209082166000526020526040600020549260001984036122d2575b50505050565b8084106122ed576122e4930391612198565b388080806122cc565b60405162461bcd60e51b815260206004820152601d60248201527f45524332303a20696e73756666696369656e7420616c6c6f77616e63650000006044820152606490fd5b6001600160a01b031680156123ee578060005260656020526040600020549180831061239e576020817fddf252ad1be2c89b69c2b068fc378daa952ba7f163c4a11628f55a4df523b3ef92600095858752606584520360408620558060675403606755604051908152a3565b60405162461bcd60e51b815260206004820152602260248201527f45524332303a206275726e20616d6f756e7420657863656564732062616c616e604482015261636560f01b6064820152608490fd5b60405162461bcd60e51b815260206004820152602160248201527f45524332303a206275726e2066726f6d20746865207a65726f206164647265736044820152607360f81b6064820152608490fd5b3360009081527f683723e34a772b6e4f2c919bba7fa32ed8ea11a8325f54da7db716e9d9dd98c7602090815260408083205490929060ff161561247f57505050565b61248833612aff565b8351908261249583612042565b604283528483019360603686378351156125df5760308553835190600191600110156125df5790607860218601536041915b818311612571575050506125415761034593859361252b9361251c6048946103959951988576020b1b1b2b9b9a1b7b73a3937b61d1030b1b1b7bab73a1604d1b8b978801528251928391603789019101611f79565b0103602881018552018361205e565b5162461bcd60e51b815291829160048301611f9c565b60648486519062461bcd60e51b82528060048301526024820152600080516020612c9e8339815191526044820152fd5b909192600f811660108110156125cb576f181899199a1a9b1b9c1cb0b131b232b360811b901a6125a18588612aee565b5360041c9280156125b7576000190191906124c7565b634e487b7160e01b82526011600452602482fd5b634e487b7160e01b83526032600452602483fd5b634e487b7160e01b81526032600452602490fd5b600081815260209060978252604092838220338352835260ff84832054161561261c5750505050565b61262533612aff565b84519161263183612042565b604283528483019360603686378351156125df5760308553835190600191600110156125df5790607860218601536041915b8183116126b8575050506125415761034593859361252b9361251c6048946103959951988576020b1b1b2b9b9a1b7b73a3937b61d1030b1b1b7bab73a1604d1b8b978801528251928391603789019101611f79565b909192600f811660108110156125cb576f181899199a1a9b1b9c1cb0b131b232b360811b901a6126e88588612aee565b5360041c9280156125b757600019019190612663565b9160ff60c954166127bd5760018060a01b0391600092808516845261019460205260ff6040852054169081156127aa575b5061279e57600582028281046005148315171561278a576103e890049283830392831161277657509061276291846128ee565b8061276b575050565b61277491612332565b565b634e487b7160e01b81526011600452602490fd5b634e487b7160e01b84526011600452602484fd5b909150612774926128ee565b8216845250604083205460ff163861272f565b60405163e779249560e01b8152600490fd5b906000918083526097602052604083209160018060a01b03169182845260205260ff60408420541661280057505050565b8083526097602052604083208284526020526040832060ff1981541690557ff6391f5c32d9c69d2a47ea670b442974b53935d1edc7fd64eb21e047a839171b339380a4565b1561284c57565b60405162461bcd60e51b815260206004820152602b60248201527f496e697469616c697a61626c653a20636f6e7472616374206973206e6f74206960448201526a6e697469616c697a696e6760a81b6064820152608490fd5b60ff60c95416156128b257565b60405162461bcd60e51b815260206004820152601460248201527314185d5cd8589b194e881b9bdd081c185d5cd95960621b6044820152606490fd5b6001600160a01b03908116918215612a0b57169182156129ba576000828152606560205260408120549180831061296657604082827fddf252ad1be2c89b69c2b068fc378daa952ba7f163c4a11628f55a4df523b3ef95876020965260658652038282205586815220818154019055604051908152a3565b60405162461bcd60e51b815260206004820152602660248201527f45524332303a207472616e7366657220616d6f756e7420657863656564732062604482015265616c616e636560d01b6064820152608490fd5b60405162461bcd60e51b815260206004820152602360248201527f45524332303a207472616e7366657220746f20746865207a65726f206164647260448201526265737360e81b6064820152608490fd5b60405162461bcd60e51b815260206004820152602560248201527f45524332303a207472616e736665722066726f6d20746865207a65726f206164604482015264647265737360d81b6064820152608490fd5b803b15612a9357600080516020612cde83398151915280546001600160a01b0319166001600160a01b03909216919091179055565b60405162461bcd60e51b815260206004820152602d60248201527f455243313936373a206e657720696d706c656d656e746174696f6e206973206e60448201526c1bdd08184818dbdb9d1c9858dd609a1b6064820152608490fd5b908151811015610424570160200190565b60405190612b0c8261200a565b602a8252602082016040368237825115610424576030905381516001906001101561042457607860218401536029905b808211612b7e575050612b4c5790565b606460405162461bcd60e51b81526020600482015260206024820152600080516020612c9e8339815191526044820152fd5b9091600f81166010811015612bd7576f181899199a1a9b1b9c1cb0b131b232b360811b901a612bad8486612aee565b5360041c918015612bc2576000190190612b3c565b60246000634e487b7160e01b81526011600452fd5b60246000634e487b7160e01b81526032600452fd5b91929015612c4e5750815115612c00575090565b3b15612c095790565b60405162461bcd60e51b815260206004820152601d60248201527f416464726573733a2063616c6c20746f206e6f6e2d636f6e74726163740000006044820152606490fd5b825190915015612c615750805190602001fd5b60405162461bcd60e51b81529081906103959060048301611f9c56fe2f8788117e7eff1d82e926ec794901d17c78024a50270940304540a733656f0d537472696e67733a20686578206c656e67746820696e73756666696369656e7445524332303a206d696e7420746f20746865207a65726f206164647265737300360894a13ba1a3210667c828492db98dca3e2076cc3735a920a3ca505d382bbca2153420d844928b4421650203c77babc8b33d7f2e7b450e2966db0c22097753a264697066735822122099ae6e3acb6de180b4ae4cae6c4aea0d2e7ed0abb6aa2d9decfe84675679044e64736f6c63430008160033",
  "linkReferences": {},
  "deployedLinkReferences": {}
}