{
  "_format": "hh-sol-artifact-1",
  "contractName": "AncestorMoney",
  "sourceName": "contracts/AncestorMoney.sol",
  "abi": [
    {
      "inputs": [],
      "stateMutability": "nonpayable",
      "type": "constructor"
    },
    {
      "anonymous": false,
      "inputs": [
        {
          "indexed": false,
          "internalType": "address",
          "name": "previousAdmin",
          "type": "address"
        },
        {
          "indexed": false,
          "internalType": "address",
          "name": "newAdmin",
          "type": "address"
        }
      ],
      "name": "AdminChanged",
      "type": "event"
    },
    {
      "anonymous": false,
      "inputs": [
        {
          "indexed": true,
          "internalType": "address",
          "name": "owner",
          "type": "address"
        },
        {
          "indexed": true,
          "internalType": "address",
          "name": "spender",
          "type": "address"
        },
        {
          "indexed": false,
          "internalType": "uint256",
          "name": "value",
          "type": "uint256"
        }
      ],
      "name": "Approval",
      "type": "event"
    },
    {
      "anonymous": false,
      "inputs": [
        {
          "indexed": true,
          "internalType": "address",
          "name": "beacon",
          "type": "address"
        }
      ],
      "name": "BeaconUpgraded",
      "type": "event"
    },
    {
      "anonymous": false,
      "inputs": [
        {
          "indexed": true,
          "internalType": "address",
          "name": "newAddress",
          "type": "address"
        }
      ],
      "name": "EvolutionReserveUpdated",
      "type": "event"
    },
    {
      "anonymous": false,
      "inputs": [
        {
          "indexed": false,
          "internalType": "uint8",
          "name": "version",
          "type": "uint8"
        }
      ],
      "name": "Initialized",
      "type": "event"
    },
    {
      "anonymous": false,
      "inputs": [
        {
          "indexed": true,
          "internalType": "address",
          "name": "previousOwner",
          "type": "address"
        },
        {
          "indexed": true,
          "internalType": "address",
          "name": "newOwner",
          "type": "address"
        }
      ],
      "name": "OwnershipTransferStarted",
      "type": "event"
    },
    {
      "anonymous": false,
      "inputs": [
        {
          "indexed": true,
          "internalType": "address",
          "name": "previousOwner",
          "type": "address"
        },
        {
          "indexed": true,
          "internalType": "address",
          "name": "newOwner",
          "type": "address"
        }
      ],
      "name": "OwnershipTransferred",
      "type": "event"
    },
    {
      "anonymous": false,
      "inputs": [
        {
          "indexed": false,
          "internalType": "address",
          "name": "account",
          "type": "address"
        }
      ],
      "name": "Paused",
      "type": "event"
    },
    {
      "anonymous": false,
      "inputs": [],
      "name": "TokenActivated",
      "type": "event"
    },
    {
      "anonymous": false,
      "inputs": [
        {
          "indexed": true,
          "internalType": "address",
          "name": "from",
          "type": "address"
        },
        {
          "indexed": true,
          "internalType": "address",
          "name": "to",
          "type": "address"
        },
        {
          "indexed": false,
          "internalType": "uint256",
          "name": "value",
          "type": "uint256"
        }
      ],
      "name": "Transfer",
      "type": "event"
    },
    {
      "anonymous": false,
      "inputs": [
        {
          "indexed": false,
          "internalType": "address",
          "name": "account",
          "type": "address"
        }
      ],
      "name": "Unpaused",
      "type": "event"
    },
    {
      "anonymous": false,
      "inputs": [
        {
          "indexed": true,
          "internalType": "address",
          "name": "implementation",
          "type": "address"
        }
      ],
      "name": "Upgraded",
      "type": "event"
    },
    {
      "anonymous": false,
      "inputs": [
        {
          "indexed": true,
          "internalType": "address",
          "name": "newAddress",
          "type": "address"
        }
      ],
      "name": "VaultAddressUpdated",
      "type": "event"
    },
    {
      "anonymous": false,
      "inputs": [
        {
          "indexed": true,
          "internalType": "address",
          "name": "payer",
          "type": "address"
        },
        {
          "indexed": false,
          "internalType": "uint256",
          "name": "amount",
          "type": "uint256"
        }
      ],
      "name": "VaultFeeBurned",
      "type": "event"
    },
    {
      "inputs": [],
      "name": "MAX_SUPPLY",
      "outputs": [
        {
          "internalType": "uint256",
          "name": "",
          "type": "uint256"
        }
      ],
      "stateMutability": "view",
      "type": "function"
    },
    {
      "inputs": [],
      "name": "acceptOwnership",
      "outputs": [],
      "stateMutability": "nonpayable",
      "type": "function"
    },
    {
      "inputs": [],
      "name": "activateToken",
      "outputs": [
        {
          "internalType": "bool",
          "name": "",
          "type": "bool"
        }
      ],
      "stateMutability": "nonpayable",
      "type": "function"
    },
    {
      "inputs": [
        {
          "internalType": "address",
          "name": "owner",
          "type": "address"
        },
        {
          "internalType": "address",
          "name": "spender",
          "type": "address"
        }
      ],
      "name": "allowance",
      "outputs": [
        {
          "internalType": "uint256",
          "name": "",
          "type": "uint256"
        }
      ],
      "stateMutability": "view",
      "type": "function"
    },
    {
      "inputs": [
        {
          "internalType": "address",
          "name": "spender",
          "type": "address"
        },
        {
          "internalType": "uint256",
          "name": "amount",
          "type": "uint256"
        }
      ],
      "name": "approve",
      "outputs": [
        {
          "internalType": "bool",
          "name": "",
          "type": "bool"
        }
      ],
      "stateMutability": "nonpayable",
      "type": "function"
    },
    {
      "inputs": [
        {
          "internalType": "address",
          "name": "account",
          "type": "address"
        }
      ],
      "name": "balanceOf",
      "outputs": [
        {
          "internalType": "uint256",
          "name": "",
          "type": "uint256"
        }
      ],
      "stateMutability": "view",
      "type": "function"
    },
    {
      "inputs": [
        {
          "internalType": "uint256",
          "name": "amount",
          "type": "uint256"
        }
      ],
      "name": "burn",
      "outputs": [],
      "stateMutability": "nonpayable",
      "type": "function"
    },
    {
      "inputs": [
        {
          "internalType": "address",
          "name": "account",
          "type": "address"
        },
        {
          "internalType": "uint256",
          "name": "amount",
          "type": "uint256"
        }
      ],
      "name": "burnFrom",
      "outputs": [],
      "stateMutability": "nonpayable",
      "type": "function"
    },
    {
      "inputs": [],
      "name": "currentSupply",
      "outputs": [
        {
          "internalType": "uint256",
          "name": "",
          "type": "uint256"
        }
      ],
      "stateMutability": "view",
      "type": "function"
    },
    {
      "inputs": [],
      "name": "decimals",
      "outputs": [
        {
          "internalType": "uint8",
          "name": "",
          "type": "uint8"
        }
      ],
      "stateMutability": "view",
      "type": "function"
    },
    {
      "inputs": [
        {
          "internalType": "address",
          "name": "spender",
          "type": "address"
        },
        {
          "internalType": "uint256",
          "name": "subtractedValue",
          "type": "uint256"
        }
      ],
      "name": "decreaseAllowance",
      "outputs": [
        {
          "internalType": "bool",
          "name": "",
          "type": "bool"
        }
      ],
      "stateMutability": "nonpayable",
      "type": "function"
    },
    {
      "inputs": [],
      "name": "evolutionReserve",
      "outputs": [
        {
          "internalType": "address",
          "name": "",
          "type": "address"
        }
      ],
      "stateMutability": "view",
      "type": "function"
    },
    {
      "inputs": [
        {
          "internalType": "address",
          "name": "ecosystemFund",
          "type": "address"
        },
        {
          "internalType": "address",
          "name": "strategicReserve",
          "type": "address"
        },
        {
          "internalType": "address",
          "name": "publicSale",
          "type": "address"
        },
        {
          "internalType": "address",
          "name": "founders",
          "type": "address"
        },
        {
          "internalType": "address",
          "name": "communityIncentives",
          "type": "address"
        }
      ],
      "name": "genesisDistribution",
      "outputs": [],
      "stateMutability": "nonpayable",
      "type": "function"
    },
    {
      "inputs": [
        {
          "internalType": "address",
          "name": "spender",
          "type": "address"
        },
        {
          "internalType": "uint256",
          "name": "addedValue",
          "type": "uint256"
        }
      ],
      "name": "increaseAllowance",
      "outputs": [
        {
          "internalType": "bool",
          "name": "",
          "type": "bool"
        }
      ],
      "stateMutability": "nonpayable",
      "type": "function"
    },
    {
      "inputs": [
        {
          "internalType": "address",
          "name": "initialOwner",
          "type": "address"
        },
        {
          "internalType": "address",
          "name": "_evolutionReserve",
          "type": "address"
        },
        {
          "internalType": "address",
          "name": "_vaultAddress",
          "type": "address"
        }
      ],
      "name": "initialize",
      "outputs": [],
      "stateMutability": "nonpayable",
      "type": "function"
    },
    {
      "inputs": [],
      "name": "name",
      "outputs": [
        {
          "internalType": "string",
          "name": "",
          "type": "string"
        }
      ],
      "stateMutability": "view",
      "type": "function"
    },
    {
      "inputs": [],
      "name": "owner",
      "outputs": [
        {
          "internalType": "address",
          "name": "",
          "type": "address"
        }
      ],
      "stateMutability": "view",
      "type": "function"
    },
    {
      "inputs": [],
      "name": "paused",
      "outputs": [
        {
          "internalType": "bool",
          "name": "",
          "type": "bool"
        }
      ],
      "stateMutability": "view",
      "type": "function"
    },
    {
      "inputs": [
        {
          "internalType": "address",
          "name": "_from",
          "type": "address"
        },
        {
          "internalType": "uint256",
          "name": "_amount",
          "type": "uint256"
        }
      ],
      "name": "payVaultFee",
      "outputs": [
        {
          "internalType": "bool",
          "name": "",
          "type": "bool"
        }
      ],
      "stateMutability": "nonpayable",
      "type": "function"
    },
    {
      "inputs": [],
      "name": "pendingOwner",
      "outputs": [
        {
          "internalType": "address",
          "name": "",
          "type": "address"
        }
      ],
      "stateMutability": "view",
      "type": "function"
    },
    {
      "inputs": [],
      "name": "proxiableUUID",
      "outputs": [
        {
          "internalType": "bytes32",
          "name": "",
          "type": "bytes32"
        }
      ],
      "stateMutability": "view",
      "type": "function"
    },
    {
      "inputs": [],
      "name": "renounceOwnership",
      "outputs": [],
      "stateMutability": "nonpayable",
      "type": "function"
    },
    {
      "inputs": [
        {
          "internalType": "address",
          "name": "_evolutionReserve",
          "type": "address"
        }
      ],
      "name": "setEvolutionReserve",
      "outputs": [],
      "stateMutability": "nonpayable",
      "type": "function"
    },
    {
      "inputs": [
        {
          "internalType": "address",
          "name": "_vaultAddress",
          "type": "address"
        }
      ],
      "name": "setVaultAddress",
      "outputs": [],
      "stateMutability": "nonpayable",
      "type": "function"
    },
    {
      "inputs": [],
      "name": "symbol",
      "outputs": [
        {
          "internalType": "string",
          "name": "",
          "type": "string"
        }
      ],
      "stateMutability": "view",
      "type": "function"
    },
    {
      "inputs": [],
      "name": "totalSupply",
      "outputs": [
        {
          "internalType": "uint256",
          "name": "",
          "type": "uint256"
        }
      ],
      "stateMutability": "view",
      "type": "function"
    },
    {
      "inputs": [
        {
          "internalType": "address",
          "name": "to",
          "type": "address"
        },
        {
          "internalType": "uint256",
          "name": "amount",
          "type": "uint256"
        }
      ],
      "name": "transfer",
      "outputs": [
        {
          "internalType": "bool",
          "name": "",
          "type": "bool"
        }
      ],
      "stateMutability": "nonpayable",
      "type": "function"
    },
    {
      "inputs": [
        {
          "internalType": "address",
          "name": "from",
          "type": "address"
        },
        {
          "internalType": "address",
          "name": "to",
          "type": "address"
        },
        {
          "internalType": "uint256",
          "name": "amount",
          "type": "uint256"
        }
      ],
      "name": "transferFrom",
      "outputs": [
        {
          "internalType": "bool",
          "name": "",
          "type": "bool"
        }
      ],
      "stateMutability": "nonpayable",
      "type": "function"
    },
    {
      "inputs": [
        {
          "internalType": "address",
          "name": "newOwner",
          "type": "address"
        }
      ],
      "name": "transferOwnership",
      "outputs": [],
      "stateMutability": "nonpayable",
      "type": "function"
    },
    {
      "inputs": [
        {
          "internalType": "address",
          "name": "newImplementation",
          "type": "address"
        }
      ],
      "name": "upgradeTo",
      "outputs": [],
      "stateMutability": "nonpayable",
      "type": "function"
    },
    {
      "inputs": [
        {
          "internalType": "address",
          "name": "newImplementation",
          "type": "address"
        },
        {
          "internalType": "bytes",
          "name": "data",
          "type": "bytes"
        }
      ],
      "name": "upgradeToAndCall",
      "outputs": [],
      "stateMutability": "payable",
      "type": "function"
    },
    {
      "inputs": [],
      "name": "vaultAddress",
      "outputs": [
        {
          "internalType": "address",
          "name": "",
          "type": "address"
        }
      ],
      "stateMutability": "view",
      "type": "function"
    }
  ],
  "bytecode": "0x60a06040523060805234801561001457600080fd5b5061001d610022565b6100e1565b600054610100900460ff161561008e5760405162461bcd60e51b815260206004820152602760248201527f496e697469616c697a61626c653a20636f6e747261637420697320696e697469604482015266616c697a696e6760c81b606482015260840160405180910390fd5b60005460ff908116146100df576000805460ff191660ff9081179091556040519081527f7f26b83ff96e1f2b6a682f133852f6798a09c465da95921460cefb38474024989060200160405180910390a15b565b6080516121cb6200011960003960008181610873015281816108b30152818161097e015281816109be0152610a5101526121cb6000f3fe6080604052600436106101e35760003560e01c80635ebe7aa01161010257806395d89b4111610095578063dd62ed3e11610064578063dd62ed3e14610561578063e30c397814610581578063f2fde38b1461059f578063f957417e146105bf57600080fd5b806395d89b41146104ec578063a457c2d714610501578063a9059cbb14610521578063c0c53b8b1461054157600080fd5b806379ba5097116100d157806379ba50971461047957806379cc67901461048e57806385535cc5146104ae5780638da5cb5b146104ce57600080fd5b80635ebe7aa0146103f657806370a0823114610417578063715018a61461044d578063771282f61461046257600080fd5b806332cb6b0c1161017a578063430bf08a11610149578063430bf08a1461037d5780634f1ef286146103b657806352d1902d146103c95780635c975abb146103de57600080fd5b806332cb6b0c146103005780633659cfe61461031d578063395093511461033d57806342966c681461035d57600080fd5b806323b872dd116101b657806323b872dd1461028257806323d5f394146102a2578063307237d3146102c4578063313ce567146102e457600080fd5b806306fdde03146101e8578063095ea7b31461021357806312a468581461024357806318160ddd14610263575b600080fd5b3480156101f457600080fd5b506101fd6105d4565b60405161020a9190611be3565b60405180910390f35b34801561021f57600080fd5b5061023361022e366004611c32565b610666565b604051901515815260200161020a565b34801561024f57600080fd5b5061023361025e366004611c32565b610680565b34801561026f57600080fd5b506067545b60405190815260200161020a565b34801561028e57600080fd5b5061023361029d366004611c5c565b610729565b3480156102ae57600080fd5b506102c26102bd366004611c98565b61074d565b005b3480156102d057600080fd5b506102c26102df366004611cb3565b6107a0565b3480156102f057600080fd5b506040516009815260200161020a565b34801561030c57600080fd5b5061027468056bc75e2d2775360081565b34801561032957600080fd5b506102c2610338366004611c98565b610869565b34801561034957600080fd5b50610233610358366004611c32565b610948565b34801561036957600080fd5b506102c2610378366004611d18565b61096a565b34801561038957600080fd5b506101935461039e906001600160a01b031681565b6040516001600160a01b03909116815260200161020a565b6102c26103c4366004611d47565b610974565b3480156103d557600080fd5b50610274610a44565b3480156103ea57600080fd5b5060c95460ff16610233565b34801561040257600080fd5b506101925461039e906001600160a01b031681565b34801561042357600080fd5b50610274610432366004611c98565b6001600160a01b031660009081526065602052604090205490565b34801561045957600080fd5b506102c2610af7565b34801561046e57600080fd5b506102746101915481565b34801561048557600080fd5b506102c2610b0b565b34801561049a57600080fd5b506102c26104a9366004611c32565b610b82565b3480156104ba57600080fd5b506102c26104c9366004611c98565b610b97565b3480156104da57600080fd5b506033546001600160a01b031661039e565b3480156104f857600080fd5b506101fd610bea565b34801561050d57600080fd5b5061023361051c366004611c32565b610bf9565b34801561052d57600080fd5b5061023361053c366004611c32565b610c74565b34801561054d57600080fd5b506102c261055c366004611e09565b610c82565b34801561056d57600080fd5b5061027461057c366004611e4c565b610e44565b34801561058d57600080fd5b506097546001600160a01b031661039e565b3480156105ab57600080fd5b506102c26105ba366004611c98565b610e6f565b3480156105cb57600080fd5b50610233610ee0565b6060606880546105e390611e7f565b80601f016020809104026020016040519081016040528092919081815260200182805461060f90611e7f565b801561065c5780601f106106315761010080835404028352916020019161065c565b820191906000526020600020905b81548152906001019060200180831161063f57829003601f168201915b5050505050905090565b600033610674818585610f29565b60019150505b92915050565b610193546000906001600160a01b031633146106d25760405162461bcd60e51b815260206004820152600c60248201526b155b985d5d1a1bdc9a5e995960a21b60448201526064015b60405180910390fd5b6106dd83308461104d565b826001600160a01b03167f6098481270cc82ad8ef97fa388740dbb92b9f43669826034b36c59049d9696398360405161071891815260200190565b60405180910390a250600192915050565b6000336107378582856110a3565b61074285858561104d565b506001949350505050565b610755611117565b61019280546001600160a01b0319166001600160a01b0383169081179091556040517f22a195fbe83631385ad11095fbbad419cdcc539a5e123528a64042c35675ba6e90600090a250565b6107a8611117565b61019154156107ed5760405162461bcd60e51b8152602060048201526011602482015270105b1c9958591e481c195c999bdc9b5959607a1b60448201526064016106c9565b6801a055690d9db800006801158e460913d0000067d02ab486cedc0000678ac7230489e8000068015af1d78b1d2936006108278a86611171565b6108318985611171565b61083b8884611171565b6108458783611171565b61084f8682611171565b505068056bc75e2d27753600610191555050505050505050565b6001600160a01b037f00000000000000000000000000000000000000000000000000000000000000001630036108b15760405162461bcd60e51b81526004016106c990611eb9565b7f00000000000000000000000000000000000000000000000000000000000000006001600160a01b03166108fa60008051602061214f833981519152546001600160a01b031690565b6001600160a01b0316146109205760405162461bcd60e51b81526004016106c990611f05565b61092981611232565b604080516000808252602082019092526109459183919061123a565b50565b60003361067481858561095b8383610e44565b6109659190611f67565b610f29565b61094533826113aa565b6001600160a01b037f00000000000000000000000000000000000000000000000000000000000000001630036109bc5760405162461bcd60e51b81526004016106c990611eb9565b7f00000000000000000000000000000000000000000000000000000000000000006001600160a01b0316610a0560008051602061214f833981519152546001600160a01b031690565b6001600160a01b031614610a2b5760405162461bcd60e51b81526004016106c990611f05565b610a3482611232565b610a408282600161123a565b5050565b6000306001600160a01b037f00000000000000000000000000000000000000000000000000000000000000001614610ae45760405162461bcd60e51b815260206004820152603860248201527f555550535570677261646561626c653a206d757374206e6f742062652063616c60448201527f6c6564207468726f7567682064656c656761746563616c6c000000000000000060648201526084016106c9565b5060008051602061214f83398151915290565b610aff611117565b610b0960006114de565b565b60975433906001600160a01b03168114610b795760405162461bcd60e51b815260206004820152602960248201527f4f776e61626c6532537465703a2063616c6c6572206973206e6f7420746865206044820152683732bb9037bbb732b960b91b60648201526084016106c9565b610945816114de565b610b8d8233836110a3565b610a4082826113aa565b610b9f611117565b61019380546001600160a01b0319166001600160a01b0383169081179091556040517f5e74f6697ae9d8e4ed8c4e8cb2f44acc9909529ce81812aab23103b3de223f6690600090a250565b6060606980546105e390611e7f565b60003381610c078286610e44565b905083811015610c675760405162461bcd60e51b815260206004820152602560248201527f45524332303a2064656372656173656420616c6c6f77616e63652062656c6f77604482015264207a65726f60d81b60648201526084016106c9565b6107428286868403610f29565b60003361067481858561104d565b600054610100900460ff1615808015610ca25750600054600160ff909116105b80610cbc5750303b158015610cbc575060005460ff166001145b610d1f5760405162461bcd60e51b815260206004820152602e60248201527f496e697469616c697a61626c653a20636f6e747261637420697320616c72656160448201526d191e481a5b9a5d1a585b1a5e995960921b60648201526084016106c9565b6000805460ff191660011790558015610d42576000805461ff0019166101001790555b610d8f6040518060400160405280600d81526020016c416e636573746f724d6f6e657960981b81525060405180604001604052806006815260200165414d4f4e455960d01b8152506114f7565b610d97611528565b610d9f611557565b610da7611586565b610daf611586565b610db8846114de565b610dc06115ad565b61019280546001600160a01b038086166001600160a01b0319928316179092556101938054928516929091169190911790556000610191558015610e3e576000805461ff0019169055604051600181527f7f26b83ff96e1f2b6a682f133852f6798a09c465da95921460cefb38474024989060200160405180910390a15b50505050565b6001600160a01b03918216600090815260666020908152604080832093909416825291909152205490565b610e77611117565b609780546001600160a01b0383166001600160a01b03199091168117909155610ea86033546001600160a01b031690565b6001600160a01b03167f38d16b8cac22d99fc7c124b9cd0de2d3fa1faef420bfe791d8c362d765e2270060405160405180910390a350565b6000610eea611117565b610ef2611607565b610efa611650565b6040517f59e798dd1d3a9153861118fd83fbf10d33d3d30467f7649ac8da2a453a74201490600090a150600190565b6001600160a01b038316610f8b5760405162461bcd60e51b8152602060048201526024808201527f45524332303a20617070726f76652066726f6d20746865207a65726f206164646044820152637265737360e01b60648201526084016106c9565b6001600160a01b038216610fec5760405162461bcd60e51b815260206004820152602260248201527f45524332303a20617070726f766520746f20746865207a65726f206164647265604482015261737360f01b60648201526084016106c9565b6001600160a01b0383811660008181526066602090815260408083209487168084529482529182902085905590518481527f8c5be1e5ebec7d5bd14f71427d1e84f3dd0314c0f7b2291e5b200ac8c7c3b925910160405180910390a3505050565b611055611689565b600560006103e86110668385611f7a565b6110709190611f91565b9050600061107e8285611fb3565b905061108b8686836116cf565b811561109b5761109b86836113aa565b505050505050565b60006110af8484610e44565b90506000198114610e3e578181101561110a5760405162461bcd60e51b815260206004820152601d60248201527f45524332303a20696e73756666696369656e7420616c6c6f77616e636500000060448201526064016106c9565b610e3e8484848403610f29565b6033546001600160a01b03163314610b095760405162461bcd60e51b815260206004820181905260248201527f4f776e61626c653a2063616c6c6572206973206e6f7420746865206f776e657260448201526064016106c9565b6001600160a01b0382166111c75760405162461bcd60e51b815260206004820152601f60248201527f45524332303a206d696e7420746f20746865207a65726f20616464726573730060448201526064016106c9565b80606760008282546111d99190611f67565b90915550506001600160a01b0382166000818152606560209081526040808320805486019055518481527fddf252ad1be2c89b69c2b068fc378daa952ba7f163c4a11628f55a4df523b3ef910160405180910390a35050565b610945611117565b7f4910fdfa16fed3260ed0e7147f7cc6da11a60208b5b9406d12a635614ffd91435460ff16156112725761126d8361187a565b505050565b826001600160a01b03166352d1902d6040518163ffffffff1660e01b8152600401602060405180830381865afa9250505080156112cc575060408051601f3d908101601f191682019092526112c991810190611fc6565b60015b61132f5760405162461bcd60e51b815260206004820152602e60248201527f45524331393637557067726164653a206e657720696d706c656d656e7461746960448201526d6f6e206973206e6f74205555505360901b60648201526084016106c9565b60008051602061214f833981519152811461139e5760405162461bcd60e51b815260206004820152602960248201527f45524331393637557067726164653a20756e737570706f727465642070726f786044820152681a58589b195555525160ba1b60648201526084016106c9565b5061126d838383611916565b6001600160a01b03821661140a5760405162461bcd60e51b815260206004820152602160248201527f45524332303a206275726e2066726f6d20746865207a65726f206164647265736044820152607360f81b60648201526084016106c9565b6001600160a01b0382166000908152606560205260409020548181101561147e5760405162461bcd60e51b815260206004820152602260248201527f45524332303a206275726e20616d6f756e7420657863656564732062616c616e604482015261636560f01b60648201526084016106c9565b6001600160a01b03831660008181526065602090815260408083208686039055606780548790039055518581529192917fddf252ad1be2c89b69c2b068fc378daa952ba7f163c4a11628f55a4df523b3ef910160405180910390a3505050565b609780546001600160a01b03191690556109458161193b565b600054610100900460ff1661151e5760405162461bcd60e51b81526004016106c990611fdf565b610a40828261198d565b600054610100900460ff1661154f5760405162461bcd60e51b81526004016106c990611fdf565b610b096119cd565b600054610100900460ff1661157e5760405162461bcd60e51b81526004016106c990611fdf565b610b096119fd565b600054610100900460ff16610b095760405162461bcd60e51b81526004016106c990611fdf565b6115b5611689565b60c9805460ff191660011790557f62e78cea01bee320cd4e420270b5ea74000d11b0c9f74754ebdbfc544b05a2586115ea3390565b6040516001600160a01b03909116815260200160405180910390a1565b60c95460ff16610b095760405162461bcd60e51b815260206004820152601460248201527314185d5cd8589b194e881b9bdd081c185d5cd95960621b60448201526064016106c9565b611658611607565b60c9805460ff191690557f5db9ee0a495bf2e6ff9c91a7834c1ba4fdd244a5e8aa4e537bd38aeae4b073aa336115ea565b60c95460ff1615610b095760405162461bcd60e51b815260206004820152601060248201526f14185d5cd8589b194e881c185d5cd95960821b60448201526064016106c9565b6001600160a01b0383166117335760405162461bcd60e51b815260206004820152602560248201527f45524332303a207472616e736665722066726f6d20746865207a65726f206164604482015264647265737360d81b60648201526084016106c9565b6001600160a01b0382166117955760405162461bcd60e51b815260206004820152602360248201527f45524332303a207472616e7366657220746f20746865207a65726f206164647260448201526265737360e81b60648201526084016106c9565b6001600160a01b0383166000908152606560205260409020548181101561180d5760405162461bcd60e51b815260206004820152602660248201527f45524332303a207472616e7366657220616d6f756e7420657863656564732062604482015265616c616e636560d01b60648201526084016106c9565b6001600160a01b0380851660008181526065602052604080822086860390559286168082529083902080548601905591517fddf252ad1be2c89b69c2b068fc378daa952ba7f163c4a11628f55a4df523b3ef9061186d9086815260200190565b60405180910390a3610e3e565b6001600160a01b0381163b6118e75760405162461bcd60e51b815260206004820152602d60248201527f455243313936373a206e657720696d706c656d656e746174696f6e206973206e60448201526c1bdd08184818dbdb9d1c9858dd609a1b60648201526084016106c9565b60008051602061214f83398151915280546001600160a01b0319166001600160a01b0392909216919091179055565b61191f83611a30565b60008251118061192c5750805b1561126d57610e3e8383611a70565b603380546001600160a01b038381166001600160a01b0319831681179093556040519116919082907f8be0079c531659141344cd1fd0a4f28419497f9722a3daafe3b4186f6b6457e090600090a35050565b600054610100900460ff166119b45760405162461bcd60e51b81526004016106c990611fdf565b60686119c08382612072565b50606961126d8282612072565b600054610100900460ff166119f45760405162461bcd60e51b81526004016106c990611fdf565b610b09336114de565b600054610100900460ff16611a245760405162461bcd60e51b81526004016106c990611fdf565b60c9805460ff19169055565b611a398161187a565b6040516001600160a01b038216907fbc7cd75a20ee27fd9adebab32041f755214dbc6bffa90cc0225b39da2e5c2d3b90600090a250565b6060611a95838360405180606001604052806027815260200161216f60279139611a9c565b9392505050565b6060600080856001600160a01b031685604051611ab99190612132565b600060405180830381855af49150503d8060008114611af4576040519150601f19603f3d011682016040523d82523d6000602084013e611af9565b606091505b5091509150611b0a86838387611b14565b9695505050505050565b60608315611b83578251600003611b7c576001600160a01b0385163b611b7c5760405162461bcd60e51b815260206004820152601d60248201527f416464726573733a2063616c6c20746f206e6f6e2d636f6e747261637400000060448201526064016106c9565b5081611b8d565b611b8d8383611b95565b949350505050565b815115611ba55781518083602001fd5b8060405162461bcd60e51b81526004016106c99190611be3565b60005b83811015611bda578181015183820152602001611bc2565b50506000910152565b6020815260008251806020840152611c02816040850160208701611bbf565b601f01601f19169190910160400192915050565b80356001600160a01b0381168114611c2d57600080fd5b919050565b60008060408385031215611c4557600080fd5b611c4e83611c16565b946020939093013593505050565b600080600060608486031215611c7157600080fd5b611c7a84611c16565b9250611c8860208501611c16565b9150604084013590509250925092565b600060208284031215611caa57600080fd5b611a9582611c16565b600080600080600060a08688031215611ccb57600080fd5b611cd486611c16565b9450611ce260208701611c16565b9350611cf060408701611c16565b9250611cfe60608701611c16565b9150611d0c60808701611c16565b90509295509295909350565b600060208284031215611d2a57600080fd5b5035919050565b634e487b7160e01b600052604160045260246000fd5b60008060408385031215611d5a57600080fd5b611d6383611c16565b9150602083013567ffffffffffffffff80821115611d8057600080fd5b818501915085601f830112611d9457600080fd5b813581811115611da657611da6611d31565b604051601f8201601f19908116603f01168101908382118183101715611dce57611dce611d31565b81604052828152886020848701011115611de757600080fd5b8260208601602083013760006020848301015280955050505050509250929050565b600080600060608486031215611e1e57600080fd5b611e2784611c16565b9250611e3560208501611c16565b9150611e4360408501611c16565b90509250925092565b60008060408385031215611e5f57600080fd5b611e6883611c16565b9150611e7660208401611c16565b90509250929050565b600181811c90821680611e9357607f821691505b602082108103611eb357634e487b7160e01b600052602260045260246000fd5b50919050565b6020808252602c908201527f46756e6374696f6e206d7573742062652063616c6c6564207468726f7567682060408201526b19195b1959d85d1958d85b1b60a21b606082015260800190565b6020808252602c908201527f46756e6374696f6e206d7573742062652063616c6c6564207468726f7567682060408201526b6163746976652070726f787960a01b606082015260800190565b634e487b7160e01b600052601160045260246000fd5b8082018082111561067a5761067a611f51565b808202811582820484141761067a5761067a611f51565b600082611fae57634e487b7160e01b600052601260045260246000fd5b500490565b8181038181111561067a5761067a611f51565b600060208284031215611fd857600080fd5b5051919050565b6020808252602b908201527f496e697469616c697a61626c653a20636f6e7472616374206973206e6f74206960408201526a6e697469616c697a696e6760a81b606082015260800190565b601f82111561126d576000816000526020600020601f850160051c810160208610156120535750805b601f850160051c820191505b8181101561109b5782815560010161205f565b815167ffffffffffffffff81111561208c5761208c611d31565b6120a08161209a8454611e7f565b8461202a565b602080601f8311600181146120d557600084156120bd5750858301515b600019600386901b1c1916600185901b17855561109b565b600085815260208120601f198616915b82811015612104578886015182559484019460019091019084016120e5565b50858210156121225787850151600019600388901b60f8161c191681555b5050505050600190811b01905550565b60008251612144818460208701611bbf565b919091019291505056fe360894a13ba1a3210667c828492db98dca3e2076cc3735a920a3ca505d382bbc416464726573733a206c6f772d6c6576656c2064656c65676174652063616c6c206661696c6564a2646970667358221220d627d4f96f54be10f6e9410138cb1474c1a234d176b5da2f5027436eec59b51864736f6c63430008160033",
  "linkReferences": {},
  "deployedLinkReferences": {}
}